:020000040000FA
:0600000002010A0227BB09
:03002B0002237A33
:0300330002235C49
:03003B000223930A
:0300430002231085
:0300530002282E52
:03006B0002233637
:1000830002266FE5C754F84401F5C7790122000041
:100093000080FB120086B900030200F4E4792178A2
:1000A30008B800028004F709D8FCE479297802B87B
:1000B30000028004F709D8FCE490028178AC790946
:1000C3008002F0A3D8FCD9FA900B2CAA82AB8390C0
:1000D300013A787979048015E493A3AC82AD838ADD
:1000E300828B83F0A3AA82AB838C828D83D8E9D9D8
:1000F300E775827F7583C5740312011C7582917540
:100103008300740012011C75D00075813F7518813E
:10011300751902759F00020096C09FF59FE473D086
:100123009F22D083D082C09FE493C0E0740193C028
:10013300E0740293F59F22FFFF0202020202020211
:100143000202010D00000010010273850100004A44
:1001530085026F850100002E0B028B850100009E36
:1001630002026F850100002F0B0289850100000147
:1001730084026F85010000300B028785010000E6D1
:1001830083026F85010000310B0285850100006544
:1001930083026F85010000320B0283850100004159
:1001A30083026F85010000330B0281850100005338
:1001B30083026F85010000340B027F850100002F4D
:1001C30083026F85010000350B027D85010000D895
:1001D30083026F85010000360B027B850100003727
:1001E3000B01E803053F10FF000130750302010610
:1001F30000000000000000000000000000000000FC
:10020300000000000000000000000000FFFF0600E7
:10021300800CE803140953696D706C65424C4550BA
:1002230065726970686572616C05120600060002EA
:100233000A000201060302F0FF416D6F4D63752052
:10024300424C45205065726970686572616C8A081A
:10025300000090080A436861726163746572697390
:10026300746963203100024368617261637465726B
:10027300697374696320320008436861726163744F
:100283006572697374696320330010436861726136
:10029300637465726973746963203400024368612F
:1002A3007261637465726973746963203500164300
:1002B300686172616374657269737469632036007F
:1002C3000273850100004785026F85010000490C18
:1002D3000259850300000F06026D850100004A0CD8
:1002E300026F850100005B0C0255850100001006BA
:1002F300026D850100005C0C026F850100006D0C2E
:100303000253850200001106026D850100006E0C88
:10031300026F850100007F0C025785000000120662
:10032300026B850300001306026D85010000800C3B
:10033300026F85010000910C025D8504000019061F
:10034300026D85010000920C026F85010000A30C71
:100353000263850300001E06026B8503000032065C
:10036300026D85010000A40CFF0000B4000028000A
:100373002800283075A000A000A000A000000800FD
:1003830008E001F000100010001000100010001031
:100393000050005000500010001000D00700000073
:1003A3000000000F00010005003075070010000178
:1003B3000081FF0000FFCA0AE80AD00AFF02020216
:1003C30008025000A0000000E8030273850100004A
:1003D3005085026F85010000B20D0269850100009E
:1003E3008306026F85010000B30D026785010000DB
:1003F3009906026F85010000B40D026585010000B6
:100403009B06026F85010000B50D02798508000087
:100413009C06026F85010000B60D02618501000094
:10042300B70DFF0100FF200273850100004D850217
:100433006F850100001B0E025F85000000000002B3
:100443006B85030000E906A610A610A610A610A649
:1004530010A610A610A610A610A610A610A610A6E9
:100463001022133A131C13303132333435363738F4
:100473003941424344454600286E756C6C20706FC9
:10048300696E74657229003F3F3F000000807F0062
:1004930000803FF9021550B743BA510000204100D4
:1004A300E7DB2E0000A0401000000008000000124F
:1004B300012522DC021201252CDC021201256DDC50
:1004C30002120125B6DC02120125F0DC021201251D
:1004D30046DD0212012567DD0212012516E0021234
:1004E30001251FE00212012573E0021201259CE0A1
:1004F30002120125A6E00212012514E102120125D0
:10050300A4E102120125FFE1021201252DE20212EC
:100513000125B5E202120125F4E20212012529E3C5
:10052300021201253BE3021201255AE302120125BF
:1005330063E30212012525E402120125047F001260
:100543000125E9B3031201251FB40312012553B496
:1005530003120125A0B50312012560C4031201256E
:1005630076C40312012580C403120125CAC40312F1
:100573000125F39103120125069203120125CA9264
:100583000312012509930312012526930312012562
:100593005F9303120125AC9303120125DE9303122B
:1005A3000125159403120125289603120125DEBAAD
:1005B3000312012501BB0312012530BB03120125E0
:1005C300C8BB03120125E0BB0312012522BC0312A1
:1005D300012568AC031201258DAC03120125B7ACCC
:1005E3000312012529C50312012593850112012553
:1005F300718701120125108901120125BB8901129E
:1006030001253B8A01120125C08A01120125E98ACD
:1006130001120125C48E011201253B8F0112012510
:100623005290011201258C9001120125CD900112E7
:1006330001251492011201256A9201120125B39238
:10064300011201252293011201258E930112012526
:10065300BF9301120125D79301120125F0940112D2
:100663000125009501120125B69601120125CD96AB
:1006730001120125FF9601120125A19801120125FE
:10068300359901120125D0C003120125E1C00312DF
:100693000125D2C50312012511C603120125E6FF68
:1006A3000212012521C20312012531C203120125C1
:1006B3004CC203120125B4C203120125F7BE031273
:1006C30001257CBF03120125E0BF031201256BBC8A
:1006D3000312012594BC03120125FCBC031201255E
:1006E3004DBD03120125A8BD03120125219A031252
:1006F3000125469A03120125639A03120125809A64
:1007030003120125A59A03120125C69A0312012596
:10071300F09A03120125AD9B031201252B9C0312B2
:100723000125529C031201255C9C03120125819D26
:1007330003120125A1A503120125B8A50312012562
:1007430032A60312012516A703120125EDA80312F1
:100753000125D6A10312012566A203120125EFA2EA
:10076300031201258BA3031201251CA403120125E7
:10077300CCA403120125DAA40312012558A5031200
:1007830001256BA50312012581A5031201258BA564
:10079300031201259EA503120125BEC203120125E2
:1007A300C0C20312012544C3031201254FC3031220
:1007B300012546B90312012598B9031201250BBA85
:1007C3000312012578BA03120125A2B103120125F0
:1007D300CCB1031201259BB20312012577B3031297
:1007E3000125ECD302120125B8D402120125F9D454
:1007F3000212012533D50212012591D502120125DA
:10080300E5D50212012543D602120125D9D60212DB
:100813000125E1D7021201256BD90212012509DA5C
:100823000212012570DA0212012583DA0212012570
:1008330077DB02120125C0DB021201255E9B021247
:100843000125909E0212012521A00212012578A004
:100853000212012595A00212012515A102120125FC
:1008630091A20212012560A302120125CDA6021254
:100873000125B7A70212012528F801120125BAFAAA
:10088300011201256DFB011201252DFC0112012529
:1008930099FD0112012503FF0112012585FF0112B4
:1008A30001257CF202120125C8F202120125E5F2AC
:1008B3000212012534F402120125D4F40212012597
:1008C300F9F50212012582F70212012593B70312EB
:1008D3000125AAB703120125D9B70312012512B8BE
:1008E300031201253AB80312012568B80312012542
:1008F3007FB80312012596B803120125ACB8031281
:100903000125D3B803120125E6B803120125FCB86B
:10091300031201250FB90312012534B9031201256E
:1009230040C1021201253FC20212012574C2021204
:10093300012595C202120125A5C202120125C6C2D4
:1009430002120125D2C3021201259FC402120125FE
:1009530012C50212012598C502120125DBC5021238
:10096300012512C60212012598C6021201256AC783
:1009730002120125C8C702120125E0C70212012590
:100983005AC8021201255DC80212012560C802126D
:10099300012507C9021201251FC9021201254FC9EA
:1009A300021201256FC9021201255DCA0212012537
:1009B30013CB02120125AA8403120125D284031248
:1009C30001250085031201253785031201259F8523
:1009D30003120125E885031201253386031201253D
:1009E300718603120125AE8603120125DC860312EC
:1009F30001258387031201258D87031201259A8719
:100A030003120125CD87031201258F8803120125C7
:100A13009B8803120125B38803120125BD880312A5
:100A23000125F9BF0312012507C0031201251FC0C9
:100A33000312012537C003120125D0CC0112012571
:100A43006ECD01120125E6CD01120125FBCE011267
:100A5300012535CF01120125DECF01120125B3D0C7
:100A63000112012517D2011201256ED201120125AF
:100A7300F5D201120125DCD30112012529D401127B
:100A83000125B7D401120125DBD401120125B0D60B
:100A930001120125F1D60112012513D701120125F7
:100AA30094D7011201257ED80112012544D90112E0
:100AB300012570EB0212012542EC02120125EBEC39
:100AC300021201252EED02120125BBED02120125B2
:100AD30047EE0212012528EF0212012557EF0212F9
:100AE300012553F0021201259BF0021201259DF10D
:100AF30002120125E1F10212012507F2021201257A
:100B03005AC303120125059E031201251B9E0312DE
:100B13000125419E03120125699F03120125739F3D
:100B230003120125CCA003120125CCA10312012538
:100B3300C6F702120125FBF8021201252EF9021253
:100B4300012578F90212012536FB0212012573BD36
:100B530001120125D6BD011201251BBF011201257A
:100B63002BBF011201254EBF0112012599BF0112AE
:100B730001253EC00112012534C101120125FEC128
:100B83000112012576C301120125B8C30112012503
:100B930056C401120125A3C401120125C9C40112BF
:100BA3000125B7C601120125BCC6011201259DC846
:100BB30001120125F1C80112012553C901120125B2
:100BC3007BC9011201251FCA01120125E1CA0112C5
:100BD300012512CB0112012515CB011201255DCB95
:100BE300011201259FCB0112012506CC011201251B
:100BF3004CAF031201255FAF0312012578AF031237
:100C03000125C3AF031201259EB0031201252DB1A7
:100C13000312012578B103120125DC2B00120125F3
:100C2300E82B00120125212C00120125662C00124D
:100C330001251D2D00120125A32D00120125082ECB
:100C430000120125342E001201256D2E00120125FC
:100C53008130001201255D32001201254834001253
:100C630001257F3500120125DF3700120125CB381E
:100C730000120125113A001201251E3B0012012525
:100C83003B3B00120125733B001201258D3B0012F3
:100C93000125F53B001201258F400012012530414B
:100CA30000120125814100120125A84100120125EE
:100CB300F641001201251442001201256842001278
:100CC3000125414300120125C84400120125504566
:100CD300001201250080031201250A800312012559
:100CE300D58003120125F08003120125168103121A
:100CF30001255A8103120125928103120125BB812B
:100D030003120125348203120125498203120125AE
:100D13005E8203120125958203120125A982031223
:100D23000125DA820312012514830312012540836E
:100D330003120125968303120125EA830312012579
:100D43003384031201255D84031201258284031277
:100D53000125359603120125FF9603120125E2971B
:100D6300031201255898031201259A9803120125AD
:100D7300C799031201254DA80212012576A8021274
:100D830001258FA802120125D4A902120125B2AAB6
:100D930002120125D1AA021201255EAB021201251E
:100DA300A1AB02120125EEAC021201258DAD021298
:100DB30001250CB002120125A3B00212012577B15F
:100DC3000212012559B202120125C5B302120125EF
:100DD30058B402120125E2BD031201254BBE0312D2
:100DE30001259FBE03120125C6BE031201255289A8
:100DF30003120125BF89031201250A8A0312012563
:100E0300FF8A03120125FB8B03120125E58C0312D4
:100E130001257ECB02120125C0CB021201259ACCFB
:100E23000212012573CD021201256ECE0212012595
:100E33004DCF02120125B9CF0212012580D0021233
:100E43000125EBD00212012552D1021201257DD1D9
:100E530002120125EED10212012581D202120125CF
:100E6300EAD202120125FFD20212012547D3021250
:100E7300012560D302120125C5D302120125C8D36F
:100E830002120125ECFC0212012514FD02120125B8
:100E930052FD0212012510FE021201257BFE0212F1
:100EA300012597FE02120125BFFE02120125EFFE66
:100EB30002120125FEFE0212012578FF021201250E
:100EC3009EFF02120125F7E901120125D4EB01125D
:100ED3000125CFED01120125A2EE01120125EDEE50
:100EE3000112012538EF011201254AEF01120125F4
:100EF3008AEF01120125BFEF011201250BF0011248
:100F030001253AF0011201255DF001120125AAF035
:100F13000112012533F10112012540F301120125CC
:100F23002BF5011201256EF501120125D3F60112ED
:100F3300012514F70112012587F701120125D3F7C3
:100F430001120125FEF701120125CFB4021201257A
:100F5300FAB402120125E1BB0212012505BE0212F9
:100F63000125C0BF021201251DC102120125B7458B
:100F7300001201254E460012012594460012012558
:100F8300D347001201256A4900120125E4490012E2
:100F93000125FF4900120125744A00120125A34BC4
:100FA30000120125FE4C00120125004E00120125FE
:100FB3005D4F00120125764F00120125D34F001219
:100FC3000125B55000120125E850001201255851A2
:100FD30000120125D25100120125215200120125D0
:100FE300ED5200120125F25300120125D1540012D3
:100FF30001255C5500120125CA55001201253E56F4
:1010030000120125675600120125265700120125FB
:10101300A05800120125BD5800120125DC5800120A
:1010230001256D5900120125925900120125BA5963
:1010330000120125355A001201258F5A001201258D
:10104300E35B00120125A05C00120125735D001211
:1010530001250080021201255080021201255C80C7
:10106300021201253981021201256981021201252B
:10107300A181021201252082021201255882021247
:101083000125AA8202120125E782021201250C859D
:101093000212012538870212012533890212012524
:1010A3000E8B02120125FB7F001201257399011299
:1010B3000125BD99011201259C9F011201251DA146
:1010C300011201257CA70112012577A80112012530
:1010D300B4A801120125D7A80112012519A90112EB
:1010E300012522A9011201252CA90112012518AA03
:1010F300011201250CAB01120125A15D001201258E
:101103001968001201251F68001201252B6F0012B8
:10111300012552A90312012550AA03120125A6AAEB
:1011230003120125E4AA0312012541AB0312012591
:10113300BEAB03120125C7AB03120125D3AB0312C8
:101143000125E6AB0312012522AC0312012538ACBD
:1011530003120125A78D03120125B48D0312012566
:10116300CE8D031201250D8E031201254B8E031222
:101173000125B08E03120125C58E03120125D08EE1
:1011830003120125DD8E03120125F48E03120125BE
:10119300028F031201250D8F03120125198F0312EC
:1011A3000125288F03120125338F03120125568F42
:1011B30003120125FF8F031201250F90031201254E
:1011C3002990031201254690031201256290031210
:1011D3000125879003120125919003120125A59003
:1011E30003120125C4900312012525910312012541
:1011F3002B9103120125319103120125379103121B
:101203000125439103120125769103120125D48D03
:1012130002120125568E02120125FF8E02120125AC
:101223004790021201255592021201253B930212A7
:1012330001257093021201259293021201253B941A
:10124300021201250B960212012534960212012582
:10125300AC9602120125DE9602120125EB960212CC
:1012630001253697021201255A9702120125AB99DF
:1012730002120125B59A02120125119B02120125C2
:1012830079DB011201258ADC011201256EDD0112D1
:10129300012578DD011201259ADD01120125A6DD64
:1012A300011201254ADF0112012577DF0112012511
:1012B3008DE001120125E2E00112012531E2011264
:1012C300012506E30112012562E301120125CDE3A5
:1012D3000112012502E40112012545E40112012551
:1012E3000FE70112012527E701120125B8E70112D3
:1012F3000125C6E70112012513E80112012521E8A2
:10130300011201258DE80112012508E901120125C9
:101313005FE901120125E67300120125087400122A
:101323000125197600120125D87800120125027AC9
:1013330000120125C07A00120125AC7B00120125A1
:10134300DAB503120125FFB50312012575B60312A1
:10135300012553E4021201255CE40212012565E430
:10136300021201253DE502120125EEE602120125D6
:101373001EE70212012549E70212012579E702124D
:101383000125A4E702120125D8E70212012504E88A
:101393000212012547E80212012572E80212012513
:1013A300B9E8021201250EE90212012550E90212E1
:1013B3000125AAE902120125D5E90212012524EA31
:1013C3000212012554EA021201257FEA02120125C5
:1013D300ADEA02120125D0EA02120125E3C303128A
:1013E30001250FC4031201253CC40312012546C481
:1013F3000312012556C4031201251BC6031201253E
:1014030081C103120125ABC103120125C9FF0112DA
:10141300012548C60312012570C60312012524AD18
:101423000112012542B201E066701008A3E0667064
:101433000A08A3E066700408A3E06622C008C3E0BC
:1014430096F50808A3E096420808A3E09642080828
:10145300A3E0964208A2D265D033E5087001D3D049
:101463000822C3E7960809E7960809E7960809E7FB
:101473009622C3E09608A3E09608A3E09608A3E0AB
:101483009622C008C3E096F50808A3E09642080830
:10149300A3E096420808A3E09645087001D3D0085C
:1014A30022080808E630E711121D601214BC080870
:1014B30008C64480C618181822181818E9799EC659
:1014C30008CAC608CBC608CCC6C370207996CACB57
:1014D300CC7019798ECBCC70137986CC700EF980D1
:1014E3002ACA33CACB33CBCC33CC331930E7F2CC53
:1014F300CBCA3350147004EA30E00DE4CA3ACACBC5
:101503003BCBCC3CCC500209C3E913C6CC18231304
:10151300C6CB18C6CA18C6F92212155C20F01430BF
:10152300E72B74FFFCFBFA747F8022E4FCFBFA7464
:1015330080801AB48008BC00F2BB00EF800F50EB30
:10154300F9E4C39AFAE49BFBE49CFCE499C6CC1847
:10155300C6CB18C6CA18C6F922E4C9C608CAC60843
:10156300CBC6D3330308CCC63392F0C3947F402E4B
:1015730094184019C9B90704CACBCC225025C30912
:10158300CA33CACB33CBCC33CC33D9F422F4600D7A
:10159300C9CCC313CB13CBCA13CAD9F6CC22E4FCF0
:1015A300FBFA2214FCFBFA22E6C33318461846184A
:1015B3004622E7C33319471947194722181818E673
:1015C300084608700AE608C3337005E633F42208B8
:1015D30022191919E7094709700AE709C333700586
:1015E300E733F4220922E6084608C31346083360AA
:1015F30002E633F422E7094709C3134709336002BC
:10160300E733F4221215E960251215F8602012154C
:10161300AB70030215B5080808E76670101819E7E0
:1016230066700A1819E76670041819E76622F4222F
:101633001215E9601C1215F860171215AB7007122A
:1016430015B57001D322C0D01215B57006D0D0B332
:1016530022C32233D0D0501430E0F6C3E7960809F2
:10166300E7960809E7960809E796B32220E0D5E64E
:10167300970809E6970809E6970809E697B322123F
:1016830015E9601B1215F860161215AB70071215D9
:10169300B5600CB322C0D01215B57005D0D022C3EB
:1016A3002233D0D0501330E0EBC3E7960809E79616
:1016B3000809E7960809E7962220E0E4E697080977
:1016C300E6970809E6970809E69722001215E960EC
:1016D3004F1215F86012E7548066F61215BF7011A9
:1016E3001215B5703B090909F4F618F618F618F641
:1016F300221215D470151215AB08080860EAE644E7
:101703007FF618768018E4F618F6221215AB6016E9
:101713001215B57012E4F608F608F608E65480F6DA
:1017230009090918181822EAC0E0EBC0E0ECC0E090
:10173300EDC0E0E687F0A4FBACF008E687F0A42C4C
:10174300FCE435F0FA1809E687F0A42C4B60027428
:1017530001CA35F0FCE433FB09E687F0D2F7A42C89
:10176300CB35F0FC1908E687F0A42BCC35F0FBE46D
:1017730033FD0819E687F0D2E7A42C4ACB35F0CD28
:101783003400FC09E687F0D2E7A42DCC35F0FDE464
:1017930033FA0918E687F0D2F7A42CCD35F0CA3412
:1017A30000FC08E687F0D2E7D2F7A42ACC35F07A1A
:1017B3007E20E70B0ACB33CBCD33CDCC33CC33CB2D
:1017C3003350147004ED30E00ED2F1E4CD3DCDCCB6
:1017D3003CCC3B5005DA05C2F1EB547FC63308E637
:1017E3003392F0FBE73309E733C39A502D2B70197B
:1017F3000C0D4C4D70151806E608C333700D20F11F
:101803000AA2F013F6E418800B4024E4F630F00249
:10181300768018F618F618F68024D33B145010740B
:10182300FFA2F013F6187680E418F618F6800FA2DC
:10183300F013F618E63303F618ECF618EDF6D0E0DD
:10184300FDD0E0FCD0E0FBD0E0FA221215F86046B0
:101853001215E9603DE9687008F618F618F618F6EF
:1018630022748067F7121882090909748067F722C6
:101873001215E9601D1215F87005191919801A124D
:1018830015BF701F1215D4C37003E66733191919F6
:1018930040071818182208080874FFF618F618F6F7
:1018A30018F6221215D460171215B5702192F01292
:1018B30015AB7019501720F014080808090909E737
:1018C300F61819E7F61819E7F61819E7F6221215AC
:1018D300AB60E6E869701F0808E62480F608E43682
:1018E300F618547FB47F0CE654806007F6E418F6CC
:1018F30018F622181822E9C6CC08C6CD08C6CE08A9
:10190300C6CFC0E0E8C0E0EAC0E0EBC0E009E9F818
:1019130009E7FA09E7FBE6F918E6F8C3EC98ED994D
:10192300EE9AEBC2E7F5F0EFC2E795F0500E600CCC
:10193300EBCFFBEACEFAE9CDF9E8CCF8EAA2E7D29D
:10194300E7FAEB33FB13F5F0EEA2E7D2E7FEEF3352
:10195300FFC5F013A2E730E601B313C5F0C3C0E03F
:10196300C0F07F00C39BFB605B9418600C401AD0EF
:10197300E023F9D0E0F8021A518AF0E9486003D273
:10198300F0E4AFF0FAF9F8803BEB30E40D89F0EACC
:101993006003D2F0E4AFF0F9CAF8EB30E30D88F05E
:1019A300EF6002D2F0AFF0E4CAC9F8EB5407601459
:1019B300FBC3EA13FAE913F9E813F8EF135002D261
:1019C300E0FFDBEDD0E0C0E030E739C3E49FFFF593
:1019D300F0EC98FC42F0ED99FD42F0EE9AFE42F0F5
:1019E300D0E0F9D0E0F8E5F0607AE923F9EE20E7FA
:1019F30042D8028067C3EF33FFEC33FCED33FDEED7
:101A030033FE80EAEC28FCED39FDEE3AFED0E0230C
:101A1300F9D0E0F84002801BC3EE13FEED13FDEC9A
:101A230013FCEF135002D2E0FF08B800067F7F7467
:101A3300FF802EEF3350178CF020F00260100CBCA7
:101A4300000C0DBD00080EBE000408E860DFE9339A
:101A5300E813FFEE2313FE4F4D4C8008E95480FF3B
:101A6300E4FEFDFCEE33EF33F47004FCFD7E80D026
:101A7300E0FBD0E0FAD0E0F8D0E0CFC618CEC6182D
:101A8300CDC618CCC6F9221215E97004181818220D
:101A93001215F8700D74FFF61819F61819F61819BF
:101AA300F622E7548066F61215AB700F1215B57067
:101AB300F014F608F608F608F680D11215B5700C86
:101AC300F608F608768008E6447F80EC1215D77096
:101AD3000C1215C260BFE65480F6E480BB1215C237
:101AE300700519191980A5E869700C763F1876807E
:101AF30018F618F6E8F922E6CDC0E018ECC0E0E6E7
:101B030033CD33CDD313F6E719FCE7191933CC33AF
:101B1300C3947F400ECD9D502408E65480F6E4180C
:101B2300F6800FF4043D14501408E6447FF618764B
:101B330080E418F618F6D0E0FCD0E0FD22CCD313F5
:101B4300CCFD18E4C6CBC0E018E4C6CAC0E0080860
:101B5300ED08C633E613F618E433C675F003C3CABB
:101B630097CA09CB97CB199C40047D08802EBD00F2
:101B730003021C3316B6FF050606081618C3CA333C
:101B8300CACB33CB33CA27CA09CB37CB193CC37D66
:101B930008803E187D0820E75CC633C6CA33CACB2B
:101BA30033CB33DDF1D5F0EB30E77BCA97CA09CBF2
:101BB300974ACB199C406F4B7025E620E021806645
:101BC300187D08C3CA97CA09CB97CB199CD3C633D0
:101BD300C6CA33CACB33CB3350C9DDE7D5F0E1D323
:101BE300E4C636C608C636C608C636C608C636C6EE
:101BF3001818188031C3CA97CA09CB97CB199CB35D
:101C03004097C633C6CA33CACB33CB33DD34D5F0A2
:101C13002EC6A2E0C640C8CA27CA09CB37194A70E4
:101C2300BECB3CB480B90808E63308E633601F181E
:101C33001818D0E0FAD0E0FBD0E0FCD0E0FD221889
:101C43007D08CA27CA09CB37CB193CD3808013F64A
:101C530018E4B67F11F618B6FF0EF618C60470D254
:101C63000808768080CAF618F618F680C5080808B2
:101C7300EAC0E0EBC0E086F0E7A4FA180986F0E7D3
:101C8300A42AFA180986F0E7A42AFA180986F0E7C5
:101C9300A42AFA1986F0E7A4FBE5F02AFA190886C4
:101CA300F0E7A42BFBE5F03AFA190886F0E7A42B3A
:101CB300FBE5F03AFA18180986F0E7A4C5F02BFB08
:101CC300E43AFA1908E7C5F0C6A426F6E5F03BFBAB
:101CD300E43AFA1886F0E7A4F6E5F00826F6E43BC2
:101CE30008F6E43A08F6D0E0FBD0E0FA22E4CFC0ED
:101CF300E0E4CEC0E0E4CDC0E0E4CCC0E075F02089
:101D0300C3E633F608E633F608E633F608E633F6B9
:101D1300181818EC33FCED33FDEE33FEEF33FFC33D
:101D2300EC9709ED9709EE9709EF97191919400FE9
:101D3300FFEC97FC09ED97FD09EE97FE191906D5FF
:101D4300F0BEECF709EDF709EEF709EFF7191919EA
:101D5300D0E0FCD0E0FDD0E0FED0E0FF2218181860
:101D6300E4C396F608E496F608E496F608E496F6D5
:101D7300226016080808C6C313C618C613C618C6B9
:101D830013C618C613C6D5E0EA227009080808224C
:101D93006016181818C6C333C608C633C608C63338
:101DA300C608C633C6D5E0EA22E627F60809E637B1
:101DB300F60809E637F60809E637F622E026F608BC
:101DC300A3E036F608A3E036F608A3E036F622E0F1
:101DD30026F008A3E036F008A3E036F008A3E036C7
:101DE300F022C3E697F60809E697F60809E697F6A0
:101DF3000809E697F622C3E096F008A3E096F008F8
:101E0300A3E096F008A3E096F022E056F608A3E0DC
:101E130056F608A3E056F608A3E056F622E056F07D
:101E230008A3E056F008A3E056F008A3E056F0221A
:101E3300E0F608A3E0F608A3E0F608A3E0F622E63E
:101E4300F008A3E6F008A3E6F008A3E6F022E0FA20
:101E5300A3E0FBA3E0FCA3E0FD22EAF0A3EBF0A3E5
:101E6300ECF0A3EDF022CAC0E0E6F0A308DAFAD062
:101E7300E0FA22CAC0E0E0A3C582CCC582C583CD07
:101E8300C583F0A3C582CCC582C583CDC583DAE6FD
:101E9300D0E0CA22C3E498F8E499F9121ED8802648
:101EA300C3E49AFAE49BFBE920E7E9121ED8E4981D
:101EB300F8E499F922C3E498F8E499F9121ED8E4F6
:101EC30098F8E499F9C3E49AFAE49BFB22EB20E740
:101ED300CFE920E7E0B90010BB0008E88AF084F8F6
:101EE300AAF022E4FBC8FA22EB70227B10C833C8A5
:101EF300C933C9335007C39AC3DBF280069A500132
:101F03002ADBEAC833F4C8C933F4C9FA2275F008E6
:101F1300E4C833C8C933C933C99AC99B5004C92A11
:101F2300C93BD5F0ECFBC833F4C8E4C9FA22600D11
:101F330008C6A2E713C618C613C6D5E0F322600C81
:101F430008C6C313C618C613C6D5E0F4227004220C
:101F5300600D18C6C333C608C633C6D5E0F41822CD
:101F6300251810AF08F518400215198008F5184018
:101F7300021519D2AF22C0D0251810AF08F518509A
:101F83000205198008F51850020519D2AFD0D022E6
:101F93002518F58210AF08F518400215198008F5C9
:101FA3001840021519D2AF851983222518F582E44A
:101FB3003519F58322E4732518C582C0E0E5193489
:101FC300FFC583C0E0E518C3958224F810AF0885E8
:101FD30083198582188008858319858218D2AFCE2C
:101FE300F0A3E520F0A37808E608F0A3DEFAEFF00B
:101FF300A3E58124FAF8E608F0A3E608F0A3E608CF
:10200300F0A30808E608F0A3E608F0A315811581FC
:10201300D0E0FED0E0F8158115811581E8C0E0EE2F
:10202300C0E0222518C582C0E0E51934FFC583C08E
:10203300E0E518C3958224F910AF088583198582DA
:10204300188008858319858218D2AFCEF0A3E520C6
:10205300F0A37808E608F0A3DEFAEFF0A3E5812405
:10206300FBF8E608F0A3E608F0A30808E608F0A3E7
:10207300E608F0A315811581D0E0FED0E0F81581C4
:102083001581E8C0E0EEC0E022851983851882E05F
:10209300A3FEE0A3F5207808E0A3F608DFFAE0A3A7
:1020A300FFE0A3C0E0E0A3C0E0E0A3C0E0E0A3C082
:1020B300E0E0A3C0E010AF0885821885831980088B
:1020C300858218858319D2AFD083D08202012285FD
:1020D3001983851882E0A3FEE0A3F5207808E0A326
:1020E300F608DFFAE0A3FFE0A3C0E0E0A3C0E0E06E
:1020F300A3C0E0E0A3C0E010AF0885821885831970
:102103008008858218858319D2AFD083D08222C0FC
:10211300D02518C582C0E0E51934FFC583C0E0E5CA
:1021230018C3958224F310AF08858319858218801C
:1021330008858319858218D2AFC8F0A3E9F0A3EA12
:10214300F0A3EBF0A37908E709F0A3D8FAECF0A326
:10215300EDF0A3EEF0A3EFF0A3D0E0F0A3D0E0F016
:10216300A3D0E0F0A3E520F0A3E5F0F0A3228519C6
:1021730083851882E0C0E0A3E0F9A3E0FAA3E0FBC3
:10218300A37808E0F608A3DFFAE0FCA3E0FDA3E0F0
:10219300FEA3E0FFA3E0C0E0A3E0C0E0A3E0F5D02E
:1021A300A3E0F520A3E0A3F5F010AF08858319851C
:1021B30082188008858319858218D2AFD082D08394
:1021C300D0E0F8D0E0327404800674028002740117
:1021D300C0E0F404121F93D0E0121E69227404803D
:1021E3000474028000CCC0E0EDC0E0E518C39CCCD1
:1021F300AD1950011D10AF068C188D1980068C186F
:102203008D19D2AF121E76D0E0FDD0E0FC22D08330
:10221300D082E9C0E0E493A3C386F0C5F095F0F95A
:1022230008E493A386F0C5F095F0700BE493A3C381
:10223300994005E9048002A3E475F002A42582F520
:1022430082E5F03583F583D0E0F9E493A3C0E0E4BD
:1022530093C0E022D083D082ECC0E0EDC0E0E493F1
:10226300A3FCE493A3FDED4C600D1222A3EC24FF29
:10227300FCED34FFFD80EFE493A3FCE493A3FDEDB9
:102283004C600D1222E2EC24FFFCED34FFFD80EFE5
:10229300D0E0FDD0E0FCE493A3C0E0E493C0E022EF
:1022A300C0E0C3E49396087401939618400FE49337
:1022B30066700808740193661870007019A3A3C3AD
:1022C300E49396087401939618A3A3400DD0E0D02D
:1022D300E0D0E0022293A3A3A3A3A3A3D0E022C050
:1022E300E0C0F088F0E49366700808740193661800
:1022F3007000A8F0A3A3700BD0F0D0E0D0E0D0E042
:0A230300022293A3A3D0F0D0E02241
:10231000C0E074F2122112A2AFE433FED2AFC2C009
:10232000E5D1A2E4500653D1EF120794EEA2E09259
:10233000AF7F01022171C0E074F2122112A2AFE45A
:1023400033FED2AFE589A2E150031206E67589009B
:10235000C2C5EEA2E092AF7F01022171C0E074F22B
:10236000122112A2AFE433FED2AFE58BA2E05003FC
:102370001206E6758B00C2E880D8C0E0C0D0E8C085
:10238000E0E5A8D2AFC2C7A2E792AFD0E0F8D0D0C4
:10239000D0E032C0E0C0D0E8C0E0E9C0E0C008C092
:1023A00009C082C083A2AFE433F9D2AF90052CE01C
:1023B000F8A3E0687008539AFBA374018026C2E971
:1023C00090052CE0F50874012508F074AC2508F59B
:1023D0008274043400F583E0F5C190052CE0C394C9
:1023E000804002E4F0E9A2E092AFD083D082D0092D
:1023F000D008D0E0F9D0E0F8D0D0D0E03274F512B7
:102400002026EAFEEBFFEE2434F8EF3400F98808CA
:102410008909EE2435F582EF3400F583E0F8EE24E7
:1024200037F582EF3400F583E0F50AEC850AF0A475
:10243000FCAAF0850AF0EDA42AFDE82CF8E43DF9A9
:102440007A257B00121ED8EA850882850983F0541C
:1024500007F87401B800028004C333D8FCC0E0E080
:10246000131313541FF8EE28F8EF3400F9E8245D35
:10247000F582E93400F583D0E0F8E0586008EE24F6
:1024800034F582EF801EEE2436F582EF3400F583BA
:10249000E0F5F0EA84A8F0EE28F8EF3400F9E8243B
:1024A00038F582E93400F583E0F97F040220D27424
:1024B000F5122026EAFEEBFFEE2434F582EF34001D
:1024C000F583E0C0E0EE2435F582EF3400F583D0EB
:1024D000E0F08E828F83A3A3A3A3A3A3A3C082C093
:1024E000838E828F83A3A3A3A3A3E0F8A3E0F9D0F4
:1024F00083D082E0C398F508A3E099F509EE248023
:10250000F582EF3400F583E064017069EE2481F513
:1025100082EF3400F583E0F8A3E0F98E828F83A385
:10252000A3A3A3A3A3A3E0FCA3E0FD8E828F83A3B8
:10253000A3A3A3A3E0FAA3E0FBC3EA9CEB9D50276F
:10254000C3EC98ED99402EC3EA98EB9950277CCEC6
:102550007D08EEFAEFFB121004EE2480F582EF34D2
:1025600000F583E4F0800EC3EA98EB9940E0C3ECF9
:1025700098ED9950D9EE2434F8EF3400F9E8FCE9ED
:10258000FDEE2435F582EF3400F583E0F8EE2437D4
:10259000F582EF3400F583E0F50AE508850AF0A43A
:1025A000F508AAF0850AF0E509A42AF509E8250846
:1025B000F8E43509F97A257B00121ED8EA8C828D61
:1025C00083F05407F87401B800028004C333D8FCC8
:1025D000C0E0E0131313541FF8EE28F8EF3400F9AD
:1025E000E8245DF582E93400F583D0E0F8E0586036
:1025F00008EE2434F582EF801EEE2436F582EF34A7
:1026000000F583E0F5F0EA84A8F0EE28F8EF340056
:10261000F9E82438F582E93400F583E0F9122BC497
:102620000224AAC082C083851882851983E0F8A39A
:10263000E0F9C3EA9CEB9D5012C3EC98ED99401968
:10264000C3EA98EB99501279018010C3EA98EB998C
:1026500040F5C3EC98ED9950EE7900D083D08222FA
:10266000EAC39CFAEB9DFB228521878522C622C006
:10267000E0C0D0E8C0E0E9C0E0EAC0E0EBC0E0ECD8
:10268000C0E0EDC0E0C008C009C00AC00BC082C0F5
:1026900083C0F0759B00906182E0A2E640030227B0
:1026A0004DE591A2E6400302274D7591BF90079337
:1026B000E06405700812113012113C8003121136CB
:1026C000752100121190E9900794F079001211849D
:1026D000120F7A7A017B00900792E0F912051290AE
:1026E0007803E064426003022796900930E014F01A
:1026F0006003022796C2AF1226FA00782AD0E0F6CD
:1027000018D0E0F6E59F5407F970059084EF800338
:102710009084FF7808121E33E9C4C0E07829E6559A
:1027200008F50808E65509F509740B7808121F41E9
:10273000D0E02508F8906270E0A2E740F8E8C333E3
:10274000906272F0906270E0D2E0F08049E0A2E521
:102750005024E591A2E5501E7591DF900793E06447
:102760000D70139007B5E004F064287002E4F07A6D
:1027700000E0F9121202906181E0A2E35009E5E95C
:10278000A2E3500375E9F7A3E0A2E75009E591A29F
:10279000E7500375917FD0F0D083D082D00BD00A60
:1027A000D009D008D0E0FDD0E0FCD0E0FBD0E0FACA
:1027B000D0E0F9D0E0F8D0D0D0E032C0E0C0D0C056
:1027C00082C083906183E0A2E05009E5BFA2E0509F
:1027D0000375BFFEE0A2E15009E5BFA2E150037519
:1027E000BFFDE0A2E25009E5BFA2E2500375BFFBC6
:1027F000E0A2E35009E5BFA2E3500375BFF7E0A2F2
:10280000E45009E5BFA2E4500375BFEFE0A2E55034
:1028100009E5BFA2E5500375BFDFE0A2E65009E578
:10282000BFA2E6500375BFBFD083D0828088C0E0CE
:10283000C0D0E8C0E0E9C0E0EAC0E0EBC0E0ECC036
:10284000E0EDC0E0C0F0E5A7A2E6500FE5A1A2E6EA
:10285000500953A7BF75A1BF122893E5A7A2E55061
:102860000CE5A1A2E5500653A7DF75A1DFE5A7A2FD
:10287000E15009E5A1A2E1500375A1FDE5A7A2E29F
:10288000500CE5A1A2E2500653A7FB75A1FBD0F0C6
:102890000227A474F8122026752101900793E064A2
:1028A0000670151210D08A828B83A3A3A3A3A3A3BF
:1028B000E0FAA3E0FB12111EA2AFE433FED2AF9008
:1028C0000799E0640170187A207B00900792E0F984
:1028D0001205967A207B00900792E0F91205189075
:1028E0006182E0D2E6F090092FE0602185C6228067
:1028F00016900798E064017008E5C654F84405F5A1
:10290000C653BEFC1226687401652160E4EEA2E0A5
:1029100092AF7F010220D2008E238F2485822885EA
:102920008327851882851983E0CEA3E0CF8528828E
:10293000852783EBC9EAC8EDCBECCA75F010C3E874
:1029400033C8E933C9EA33CAEB33CBC3EA9EF52671
:10295000EB9FF525B35004AB25AA26EC33CCED3321
:10296000CDD5F0DAAE23AF242274F11220268A08E6
:102970008B098C0A8D0B740F121FAE780C121E334C
:102980009085437808121E0D908543780C121E0D19
:102990007808790C12146550157808790C121DE529
:1029A00090851B7808121485401579018013780CE6
:1029B0007908121DE590851B780C12148540EB797F
:1029C000007F080220D274ED1220268A088B098C21
:1029D0000A8D0B7413121FAE780C121E33908543B0
:1029E0007808121E0D908543780C121E0D780C7914
:1029F0000812146540117808790C121DE5AA08AB7D
:102A000009AC0AAD0B80227510007511007512001B
:102A10007513017810790C121DE578107908121DD4
:102A2000ACAA10AB11AC12AD137F0C0220D2908572
:102A3000437808121E338A828B837808121E207F07
:102A4000040220D274F51220268C828D837808121D
:102A50001E338A828B837808121DF9EA2404F8EB6E
:102A60003400F98C828D83A3A3A3A3E0FCA3E0FD33
:102A700088828983C3E09CF0A3E09DF088828983EB
:102A8000C3E09420A3E0944E40229084F77808128B
:102A90001E338A828B837808121DD28A828B83A38D
:102AA000A3A3A3E02420F0A3E0344EF0808074F5CB
:102AB000122026E9FE9008E5E0FAA3E0FBEEC3331E
:102AC000F8E433F9749928F582748339F583E02AA0
:102AD000F508A3E03BF50978081221CD9084FB129C
:102AE0001E511229187402121F798A088B098C0A48
:102AF0008D0B74107808121D74AA08AB097F0402AC
:102B000020D274F11220268A0C8B0D8C0E8D0F743E
:102B10000F121FAEE0FAA3E0FB7411121FAEE0F536
:102B200008A3E0F5097413121FAEE0FEA3E0FF78DE
:102B3000081221CDEA2401F508EB3400F509E4F58B
:102B40000AF50B780C7908121C7090851F78081212
:102B50001E33780C7908121C70AA0CAB0DAC0EADAC
:102B60000F1229187402121F798B09EA45096004B3
:102B70007A0180027A00EC2AFCED3400FDECF8EDDD
:102B8000F97A717B02121ED888088909E4F50AF5E2
:102B90000B8E828F837808121E42ECF8EDF97A7161
:102BA0007B02121ED88A088B0974057808121F5000
:102BB0008E828F83A3A3A3A3E508F0A3E509F07F8A
:102BC000080220D2C082C083E9906000F0D083D098
:022BD00082225F
:102BD400FFFFFFFFFFFFFFFFC082C083E9900E1AD3
:102BE400F0022E6074F7121FBAE99006B1F07CE986
:102BF4007D067AFF7BFF120CAA9006B274FFF0A345
:102C0400F0A3E4F0A3F07905120C329006B1E0F9D8
:102C1400120B5A7AC87B0C120E8A023B6E74F412A1
:102C24001FBA8A088B09EB548060309006B1E0F932
:102C34001204FA8A0A8B0BAE0AAF0BEE4F60138EA6
:102C4400828F83E064B07003120C4AEEFAEFFB1239
:102C540004E8AA08E5096480FB80047A007B00028A
:102C64002E2F74F2121FBA74FC121F63EAFEEBFFDC
:102C74007412121FAE124055EE4F7003022D0974E8
:102C840002121FAEEEF0A3EF12306AECF0A3ED12C5
:102C9400306AAA82AB83120B54E9F50A706AE5081C
:102CA400450960648E828F8312403BEE4F60567AF2
:102CB400067B0012054E8A0C8B0DA80CA90DE84961
:102CC4007005750A13804188828983E4122D16EEFB
:102CD400F0A3EF124066E508F0A3E509F09006B70B
:102CE400122D9D9006B77005123B18801B123B06EF
:102CF4008003EAFCEBFD8C828D83122D9D70F38C96
:102D0400828D8380E3750A02A90A7404121F790272
:102D14004255F0A312400CA32274F2121FBA890A7E
:102D2400E975F017A4FEAFF09006B6E4F09006B48F
:102D3400122D9D600A1205549006B4E4F0A3F0EE3F
:102D4400FAEFFB12054E8A088B09EA4509602FEE5B
:102D5400FCEFFD79001204D09006B4E508F0A3E579
:102D640009F07B008008122D87E4F0A3F00BEBC37D
:102D7400950A40F2E50A9006B6F0790080027913CC
:102D8400024255EB75F017A4F8A9F09006B4E028B8
:102D9400FAA3E0398A82F583221237AAEA4B227415
:102DA400F4121FBA740C121FAE124030FEE9FF7504
:102DB4000800750900800CE5082401F508E50934CC
:102DC40000F509C3E5089CE5099D503285080A858C
:102DD400090B7403780A121F50EA250AF8EB350B25
:102DE400F988828983A3A3A3A3A3A3123BEDEE6571
:102DF4000A7003EF650B70BFE8FAE9FB80047A0000
:102E04007B00802774F4121FBA7900EAA2E0501BF9
:102E14007508B475098478081221CD7C047D007A84
:102E24001C7B0E120C2C7402121F797F0402208C5E
:102E3400C082C0839006B7122E67601C8882898383
:102E4400A3A3E06A7003A3E06B8882898370E8A37C
:102E5400A3A3A31237A680047A007B00D083D08278
:102E640002012212433BE8492274EE121FBA74FC99
:102E7400121F63EAFEEBFF851882851983E4F0A331
:102E8400F0EE2402123AF8EE2405124013EE240464
:102E9400F50EEF12341FE024FE603924FC60462452
:102EA400FE605224FE605E24FE7003022F8024FE26
:102EB4007003022FE424FE7003022FF324FE700338
:102EC40002300224FC700302301124FE700302302D
:102ED4002002305D9006D07417F0A3E41230721211
:102EE40008D202305D851882851983AC82AD8312C5
:102EF4000C5002302D851882851983AC82AD831263
:102F04000C5602302D850C08850D097402121FAE73
:102F1400AC82AD838508828509831237A6120B78AB
:102F24008A0C8B0DAC0CAD0DEC4D603BE4F50CF54F
:102F34000D780C1221CD750CD0750D06780C12216C
:102F4400CD750CD1750D06780C1221CD7408121FA5
:102F5400AE1221E41244B7121F79E9F50C700B127A
:102F6400379C1208EA800F750C0185088285098355
:102F7400123060123B18850C080230307402121FA4
:102F8400AEAC82AD83850C82850D83123571603CB5
:102F9400850C82850D83A3A31221E47510D07511CD
:102FA4000678101221CD7510D175110678101221F2
:102FB400CD7408121FAE1221E41244B7121F79E92E
:102FC400F509700B12379C1208F0800F7509018502
:102FD4000C82850D83123060123B18850908804CE1
:102FE400851882851983AC82AD83120C5C803A8586
:102FF4001882851983AC82AD83120C62802B8518EC
:1030040082851983AC82AD83120C68801C8518827A
:10301400851983AC82AD83120C6E800D8518828570
:103024001983AC82AD83120C74E9F508E5086029B4
:103034008E828F83A3E06414601F850E82850F83C4
:10304400E09006D012306A1243379006D1123B1832
:10305400E508A31230721208CC023A0712433B85EA
:10306400188285198322F085188285198322F07CC1
:10307400D07D06850A82850B831237AA2274EE124C
:103084001FBA74FC121F638A0A8B0B8C0E8D0FEA15
:103094002405F508EB3400F5097C157D0079007AE8
:1030A400D07B061204D0E5082402F50CE509124091
:1030B40016851882851983858210858311781012EC
:1030C40021CD850882850983A3A3A3A312356812A1
:1030D40021CDE5082405F510E5093400F511781033
:1030E4001221CD850C82850D831238BD120B7274AA
:1030F40006121F798A108B11AE10AF11E50A240253
:10310400F50AE50B123AFBEE4F700302323F8017CB
:103114007402121FAE1237A688828983EAF0A3EBE9
:10312400F09006D0E004F09006D0E0C3940540038C
:1031340002323FE4F510F51178101221CD7510B963
:1031440075110678101221CD7510BA751106781014
:103154001221CD7406121FAE1221E47910EEFCEF99
:10316400FD1244B9121F79E9705E850882850983CE
:10317400A3A3A3A3A3A3A3E0F89006B9E0687048AF
:103184001235681221CD7CBA7D06E5082408FAE5DB
:10319400093400FB1204CA7402121F79E960298EF3
:1031A400828F83A3A3A3A31237A69006D0E0F510C1
:1031B40074027810121F5074D12510F582740635EC
:1031C40011F583EAF0A3EBF07402121FAE858210AE
:1031D40085831178101221CD7402121FAE1221E4DE
:1031E400850C82850D831237CC121F798A108B11BE
:1031F400AE10AF119006D0E0F5107511007402788E
:1032040010121F5074D02510F874063511F98882F5
:103214008983A3122D9D700302310BE8240308084F
:1032240008E93400F9EE4F6003023114888289837F
:1032340074FFF0A3F09006D0E004F09006D0E060B4
:103244000A12379C1208DE7900800B8508828509F2
:1032540083123B0F790A023A0774EA121FBA74FE0A
:10326400121F638C128D13EA2405F50CEB1244A192
:1032740012403F750800750900EA2402F510EB348A
:1032840000F51185188285198385820A85830B7858
:103294000A1221CD850C82850D83A3A3A3A3123426
:1032A400351221CDE50C2405F50AE50D123AFB781B
:1032B4000A1221CD850C82850D83123439120B72CA
:1032C4007406121F798A0A8B0BEA450B70030233CA
:1032D400DAEA2404F50EEB12341F12403F8A828B83
:1032E40083A3A3A3E0F98510828511831237B0600C
:1032F400030233DAE4F514F51578141221CD7514AC
:10330400B975150678141221CD7514BA7515067899
:10331400141221CD7406121FAE1221E47913AC0AE3
:10332400AD0B8510828511831244BF121F79E9F514
:103334000960030233DA9006B9E0F8E5087009E0A1
:1033440024029006D1F080149006D1E0FCE8240217
:10335400FAE43400FBEA6C7001EB707E850882AA03
:103364008212355F9414123557506B850E82850F87
:1033740083E0C0E074D22A123416D0E0F005088548
:103384000E82850F83A3E0C0E085080A74D2250A63
:10339400123416D0E0F005089006B9123435122123
:1033A400CD7CBA7D0685080A74D2250A1234291206
:1033B4001F799006B9E02508F50874FF6E70037450
:1033C400FF6F6012EE24010EEF3400FFE508C39492
:1033D400145003023287E50860131237BA8510824D
:1033E4008511831237A61208E479008014E5097068
:1033F4000375090A851282851383EEF0A3EFF0A901
:10340400097402121F797F0E02208C85080C74D275
:10341400250CF58274063400F583223400F50F85FB
:103424000E82F58322FA74063400FB1204B8740287
:103434002212407522A3A312343F22123B06FDEE52
:10344400FAEFFB2274EE121FBA74FE121F638C0E85
:103454008D0FEA2405F50CEB124016750B0090064F
:10346400D0E4F0F50AEA2402F508EB3400F509800B
:10347400449006D0E0FA9006B9E0F812355F94174C
:10348400123557400D9006D0E0F87416C398900694
:10349400B9F01235681221CD7CBA7D0674D12AFAAE
:1034A400740612342C121F799006B9E0F89006D0F5
:1034B400E028F0050AE50C2416F582E50D12341A0D
:1034C400E0F8E50AC39850749006D0E0C39416500F
:1034D4006BE50AC333F8E433F9E50C28FEE50D394E
:1034E400FF851882851983AC82AD838E828F831207
:1034F40035717008750B01123B0B8050E4F510F523
:103504001178101221CD7510B97511067810122199
:10351400CD7510BA75110678101221CD7406121FDC
:10352400AE1221E479168508828509831244BF12FC
:103534001F79E9F50B700302347580BB7CD07D06DE
:103544008508828509831237A61208F6A90B74022E
:10355400023A09E99400C365D03322EA28F8E43436
:1035640000F9E822E0F5107511007810221239FEF6
:103574008A108B11AC10AD11EC4D2274EA121FBAF3
:1035840074FC121F638A0C8B0D8C128D13EA2405B4
:10359400F50AEB123AFB750800750900E50A2402E6
:1035A400F510E50B3400F5117402121FAE85820E7E
:1035B40085830F780E1221CD850A82850B83A3A300
:1035C400A3A312401B1221CDE50A2405F50EE50B39
:1035D4003400F50F780E1221CD85108285118312E7
:1035E4003B011237A0120B727406121F798A0E8BDC
:1035F4000FAE0EAF0FE50C2402F50EE50D3400F509
:103604000F80388882898374FFF0050812340F74A0
:10361400FFF005089006B9E0F50C750D00780C1262
:1036240021CD7CBA7D0685080C74D2250C12342970
:10363400121F799006B9E02508F508EE4F60278E31
:10364400828F83A3A3A3E0F9850E82850F831237AB
:10365400B0EE2404124013E96027850C82850D83A3
:10366400123792123B18E50870030237781237BA02
:10367400850E82850F831237A61208FC7900023763
:103684008DE4F514F51578141221CD7514B975155A
:103694000678141221CD7514BA7515067814122102
:1036A400CD7408121FAE1221E47911EEFCEFFD85F2
:1036B4000E82850F831244BF121F79E9F509709AAF
:1036C400850882AA82EA9006B97009E0240490066B
:1036D400D1F08025E0F89006D1E0F514E82404FC4C
:1036E400E43400FDEC65147001ED708112355F94D3
:1036F400121235574003023671850C82850D83E022
:10370400C0E074D22A123416D0E0F00508850C8289
:10371400850D83A3E0C0E012340FD0E01237D585C5
:10372400820C85830D780C1221CD7404121FAE1205
:1037340021E48510828511831237CC121F798A0CFB
:103744008B0DAE0CAF0D85080C74D2250CF87406E5
:103754003400F9EE4F700302360785188285198309
:10376400E0888289831237D5A3E0C0E012340FD0F9
:10377400E0023615E509700375090A850A82850B8E
:1037840083123792123B18A90974040234071243B6
:103794003B851282851383227CD07D06850A82852F
:1037A4000B831237AA22E0FAA3E0FB221237AA12F3
:1037B4000B60E9F509229006D1E0F5F0E508849064
:1037C40006D0F07CD07D062212343F120B7E7404A6
:1037D40022F005088518828519832274EC121FBA19
:1037E40074FE121F638A088B098C0E8D0FEA240560
:1037F400FEEB3400FF1239E8EE2418124013EA45B8
:103804000B700302388B1239D150291238B08A1048
:103814008B11EA4511606B7912AC0AAD0B850882F5
:103824008509831237A6851082851183121FB8E992
:10383400F50A7058E4F50AF50B780A1221CD8E8248
:103844008F83A3A3E0F50A780A1221CDEE24031294
:103854003AF8780A1221CD8E828F831238BD120C69
:10386400987406121F79E9F50A7021850C82850D7A
:1038740083E0701F8508828509831237A612090226
:103884008011750A0E8009750A018004E50A600337
:10389400123B0B850C82850D83E060047900800265
:1038A400A90A7402121F797F0C02208C8518828564
:1038B40019831237AA120C8622123B06FD85088250
:1038C4008509831237AA2274EE121FBA74FE121FDE
:1038D400638A088B098C0C8D0DEA2405FEEB3400F9
:1038E400FF750E001239E8EA450B70030239AF1276
:1038F40039D1502C1238B08A0E8B0FEA450F604A2A
:103904007912AC0AAD0B8508828509831237A68526
:103914000E82850F83121FB8E9F50E60030239B2D7
:10392400850882850983123BEDAA0AFB1239C3700C
:10393400147AFF7BFF1239C3606C88828983E50A9D
:10394400F0A3E50BF0750A008007750E0E805F0585
:103954000A9006B6E0FAE50AC39A504AE50A75F0F9
:1039640017A4FAABF088828983A3A3E02AFAA3E020
:103974003BFB8A828B83123B01EC4D70D2750A1794
:10398400750B00780A1221CDEEFCEFFD1204B87419
:1039940002121F79EEFCEFFD850882850983123738
:1039A400A61209088014750E098003750E011243CE
:1039B40033850C82850D83123B18A90E02355212F1
:1039C4000C7A8A108B11A810A911E84922E5082461
:1039D40002F508E5093400F5098A828B83A3A3A3C1
:1039E400E0A2E522851882851983AC82AD838E829C
:1039F4008F831239FE8A0A8B0B22E0FAA3E0FB12B2
:103A04000B78227404121F797F0A02208C74EC1242
:103A14001FBA8C108D11EA2405F50CEB12401675B3
:103A24000F00EA2402F50AEB123AFB850A82F583B9
:103A34001237A61245457003023AED750E008071E7
:103A4400850C82850D83E06401704F8E828F83A381
:103A5400A31221E48E828F83A3A3A3A3E0F512759E
:103A6400130078121221CDEE2405F512EF3400F57F
:103A74001378121221CD1237A0120C987406121F5B
:103A840079E9F50F6014850C82850D83E4F0124307
:103A940033851082851183123B187C177D007900D1
:103AA400EEFAEFFB1204D08E828F83E4F0A3F005CC
:103AB4000E9006B6E0F8E50EC398501EE50E75F0BC
:103AC40017A4F8A9F0850882850983A3A31244AB3F
:103AD400123B01EC4D6003023A4485088285098358
:103AE40074FFF0A3F0E50F70061237A012090EA9B7
:103AF4000F0238ABF50AEF3400F50B22A3123B0694
:103B0400FD22E0FCA3E0228E828F8312433B850ECC
:103B140082850F83E8F0A3E9F022C082C083900677
:103B2400B2E06A7003A3E06B70067AB27B0680048D
:103B34007A007B00022E6074F7121FBA7F00EF75C3
:103B4400F003A4F8A9F0EC28F8ED39F98882898308
:103B5400E06A7003A3E06B7006E8FAE9FB800B0FE0
:103B6400EFC3940240D87A007B007F0102208C745A
:103B7400F6121FBA12412470067A007B008007A354
:103B8400A3A3A31237A60241E574F2121FBAE9FEF9
:103B9400740E121FAE123BED7410121FAE1240557C
:103BA4008C828D83E06402703BA312433788828940
:103BB40083E0F50CA3E0F9A80C740268700374297F
:103BC400697021750C02750D00780C1221CD7808EE
:103BD4001221CD780A1221CDEEF9120CBC74061212
:103BE4001F7980027901024255E0F50AA3E0F50B42
:103BF4002274E8121FBA74FB121F63E985188285C8
:103C04001983F08A168B178C0E8D0F741F121FAE3A
:103C14001240557421121FAE123BED7423121FAED5
:103C240012403F7510008C828D83A3A3A3E0A2E40D
:103C3400502A741D121FAE1238B68A828B83E58215
:103C440045837003023D01790AAC0EAD0FAA16AB91
:103C540017121FB8E9F5106003023D04850E828532
:103C64000F83E064026003023FBAA312433785085E
:103C740082850983A3858212858313E50E2406F5C4
:103C84000CE50F12401688828983E0FAA3E0F9EA72
:103C94002400F514E439F5157814122257010000B4
:103CA400280128C93C07000228A03D0328103D0034
:103CB40029CA3E0129F23E0229993E0329CA3E043B
:103CC400295B3FBA3FEE4F703E850C82850D83120F
:103CD4004030FAE9FB8A828B83E0850A82850B8374
:103CE40012406C1221CD8A828B83A3123B06FDAA5B
:103CF40008AB091204B87402121F79800375100E00
:103D0400A910740502449975100B80F4EE4F70F7F6
:103D1400850A82850B837401F012404585088285EB
:103D24000983F07C007D00850E82850F83A3A3A305
:103D3400A3E02401FAA3E03400FB120B78EA4B6001
:103D4400418A828B83E02402F8850A82850B83E012
:103D540028F0EA2404F8EB3400F988828983E085AA
:103D6400128285138312407E12406C1221CD8A8206
:103D74008B83123B00E5082403FAE5093400FB02B7
:103D84003CF7850A82850B83E02404F07C047D00E3
:103D94007900AA12AB131204D0023D04EE4F600363
:103DA400023D0B124045FEA3E0FF850A82850B838A
:103DB4007404F0EE850882850983F0EF851282850C
:103DC4001383F07403121FAEAC82AD83EEFAEFFBE3
:103DD4001241127003023E768A828B83A3A312409F
:103DE4003B7401121FAE85820E85830F780E12215B
:103DF400CD7405121FAE1221E47CFF7DFF120B7EF1
:103E04007404121F798B0FEA450F7033850C828579
:103E14000D8312401B1221CD850C82850D83A312C4
:103E240021E47C027D007A717B851209AA74041254
:103E34001F79E9700A7401121FAE74FFF0A3F08EAB
:103E4400828F83E064027034750C02750D00780C67
:103E54001221CD8E828F83123B00E5082404FAE5FB
:103E64000912342C121F79850A82850B83E02402FF
:103E740080097401121FAEEEF0A3EFF07401121F5B
:103E8400AE12402CF07401121FAEA3124024A3A35F
:103E9400A3F0023D04EE4F6003023D0B850C8285C6
:103EA4000D83123B01AA16AB17120CB0850A82854A
:103EB4000B837402F0EA850882850983F0851282F7
:103EC400851383EB80CBEE4F6003023D0B1240451C
:103ED400F8A3E0F9850A82850B837402F0E885086B
:103EE40082850983F0E985128285138380A3850C7A
:103EF40082850D831237A61204B2EAFC8C82A88252
:103F0400C39EE49F404BE86E7001EF70047C008018
:103F14001F851882851983E0FAEE2AFAEF3400FB34
:103F2400C3EA98EB94005003E08004EECCC39CFCFD
:103F3400EC850A82850B83F08C0A750B00780A12D3
:103F440021CD850C82850D83E02EFCA3E03F023C4D
:103F5400F2751007023D04EE4F6003023D0B850C21
:103F640082850D83124337850A82850B837407F09B
:103F74008882898312402412400CE08512828513C2
:103F840083F0E82402FAE93400FB8A828B8312402E
:103F94002412405D12402CA3124066124035F0E812
:103FA4002405F8E93400F988828983124035A31284
:103FB400407EA3023E92741D121FAE12411D700377
:103FC400023D01124337880C890DE8450D70030248
:103FD4003D018E108F1178101221CD780A1221CD57
:103FE40078081221CD7406121FAEE0F9AC0EAD0FA5
:103FF400AA16AB17850C82850D83121FB87406129E
:104004001F79E9F510023D04F088828983A322F523
:104014000CEF3400F50D22E0F50E750F00780E223A
:10402400E0850882850983221240852212433BE8F9
:1040340022124085A3A322A3A3A3A3E0FEA3E0FF2F
:1040440022850C82850D83E0F8A3E0F5838882E065
:1040540022E0F508A3E0F50922A3A3F08A828B836A
:10406400A322122D18A3A322F08A828B83124075F7
:1040740022E0F50A750B00780A2212400C124085E2
:1040840022E0850882850983A3A32274EE121FBA55
:1040940074FE121F638A0A8B0BECFAEDFB74141284
:1040A4001FAEE0F510A3E0F5117416121FAEE0FE8A
:1040B4007418121FAEE0F50EA3E0F50F8518828583
:1040C4001983AC82AD83124112603E851882851932
:1040D4008312411D602FA3A3124055E508450960D2
:1040E40024780E1221CD78101221CDEEF9AC0CAD4E
:1040F4000DAA0AAB0B850882850983121FB87404C4
:10410400121F798006790E80027901023552120B52
:10411400788A0C8B0DEA450D221237AA124124220B
:10412400120C448A828B83E58245832274F6121F23
:10413400BA74FE121F63740C121FAE12403085183D
:1041440082851983F07401121FAEE9F0E4F508F5D5
:104154000978081221CD75080278081221CD74045B
:10416400121FAE85820885830978081221CD120CAE
:10417400987406121F797402121F79806474F712FE
:104184001FBAEAFEEBFF89087CE97D06120CB0EA4F
:104194005402600BA908EEFAEFFB120B6C80027953
:1041A40001023B6E74F6121FBA74FF6A700374FF47
:1041B4006B701C7B00EB75F003A4F8A9F0EC28F8F5
:1041C400ED39F91241EA0BEBC39402501480E61264
:1041D4000C808A088B09A808A909E84960031241E0
:1041E400EA7F0202208C8882898374FF122D16E4F0
:1041F400F02274F6121FBA120C808A828B83E58235
:1042040045836006A3A3E0FA80027A007B0080D194
:1042140074F2121FBA8A088B09ECFEEDFF740E12B9
:104224001FAEE0F50A12425A701CEEFCEFFD7AFF55
:104234007BFF12425A70047911801688828983E5C3
:1042440008F0A3E509F088828983A3A3E50AF0793D
:10425400007F0602208C120C808A0C8B0DA80CA9FE
:104264000DE8492274EE121FBAEAFEEBFF8C088DAA
:1042740009890C7412121FAE1243377414121FAE44
:10428400123B017416121FAE1237A6750D00EC4DC9
:10429400600302432B7402650C6003024326888288
:1042A4008983123B06F9EC2400F50EE439F50FEA94
:1042B400F4F8EBF4F9EC58F8E50F59F9E849705DB6
:1042C400E5082406F8E5093400F9880A890B888290
:1042D400F58312343B120CB08A108B11E50E651075
:1042E4007004E50F65116042780E1221CD850A82B3
:1042F400850B8312343B120CB67402121F79E9F554
:104304000D7027780E1221CD850882850983A3A319
:10431400123439120CCE7402121F79800D750D807F
:104324008008750D0D8003750D0BA90D023A0C8ED6
:10433400828F8312433B22E0F8A3E0F92274E8124F
:104344001FBA74E7121F63851882851983EAF0A3E4
:10435400EBF08C168D17890E7431121FAEE0F51236
:10436400A3E0F5137433121FAEE0F514A3E0F515C2
:104374007435121FAEE0F50F750800750900E509E4
:1043840075F003A4F8A9F08518828519831244AB4B
:10439400E0F47003A3E0F47003024489EE2402F510
:1043A4000CEF1244A1E0700302448985160A8517B4
:1043B4000B780A1221CDAC14AD15AA12AB13120C52
:1043C400387402121F798A0A8B0BEA450B700302B8
:1043D4004489E4F510F51178101221CD7406121FEA
:1043E400AE85821085831178101221CD7409121FB5
:1043F400AE85821085831178101221CD85128285B5
:104404001383A3A3A3A31221E47914AC0AAD0B8EE6
:10441400828F831244BF121F79E97069850A8285ED
:104424000B83A3A3A3A31243377402121FAE123B40
:1044340018850C82850D83E0A2E05018A90E740241
:10444400121FAEAC82AD838E828F831237A6120BFD
:1044540090E94208850C82850D83E0A2E15026E5AF
:104464000FF50A780A1221D1A90E7403121FAEACFB
:1044740082AD838E828F831237A6120B8A74011247
:104484001F79E942080509E509C394025003024370
:1044940082A9087419121F797F1002208C3400F548
:1044A4000D850C82F58322E028FEA3E039FF8E827D
:1044B4008F83227916850A82850B831237AA120C00
:1044C4009274082274F2121FBAEAFEEBFF890B748D
:1044D40001650B600E7402650B70637901120EA8FE
:1044E400E9705BEEFAEFFB1245456047750A008000
:1044F4000B7C177D0079001204D0050A9006B6E003
:10450400F8E50AC3985021E50A75F017A4F8A9F054
:10451400850882850983A3A3E028FAA3E039FB8AEE
:10452400828B83122E6770C985088285098374FF84
:10453400F0A3F07CE97D06EEFAEFFB120CAA02422E
:1045440055120C7A8A088B09EA45092274F2121F63
:10455400BA8A088B09ECFEEDFF740E121FAE123BF3
:10456400ED900E1AE0F4603D7A097B001204E2EA51
:104574004B60328A828B8374B1F0A3E412405FA350
:1045840012405DA3E508F0A3E5091245ACEEF0A3E3
:10459400EF1245ACA3A3E50AF0A3E50BF0900E1AC5
:1045A400E0F91204EE024255F08A828B83A3A3A39E
:1045B400A3A322C082C0839061907404F0A37448C2
:1045C400F0A37402F09061807440F09061BC7403B5
:1045D400F09061877419F0906265741BF090619C8F
:1045E400740DF090619A7433F0A37455F09061A047
:1045F400743AF090092DE064017009C29190079714
:10460400746780059007977461F0902BDAE49390B7
:104614006186F0902BD4E493F46027E493540FF86C
:10462400906185E0686012E5C654804449F5C6E5AA
:104634009E547F644970F8E8F053C680E59E547F29
:1046440070FA79051211E40247CCC082C083E5A850
:10465400F853A87E906181E4F0A3F0A3F0C2BA53AA
:104664009AFEC289759B00C2C275E90075910075F6
:10467400BF0075A91175B905906181F0A374C0F0EC
:10468400A3E4F0D2BA439A0174805842A80247CCFA
:10469400C082C08374F8121F63900795E0F8A3E00A
:1046A400F9E84970030247C2900795E0544060233B
:1046B4007908851882851983AA82AB8312105E85D6
:1046C4001882851983AA82AB83120D3A900795E06C
:1046D40054BFF0E054806010790C7A517B091210B9
:1046E4005E900795E0547FF0E0A2E0503190619A2B
:1046F4007433F0A37455F09061A0743AF090092DCE
:10470400E064017009C2919007977467800590076F
:10471400977461F0120D40900795E054FEF0E05458
:1047240002603190619A743FF0A3745AF09061A0D2
:10473400747FF090092DE064017009D2919007977D
:1047440074718005900797746AF0120D4090079574
:10475400E054FDF0E054046013902BD8E49390618E
:1047640086F0120D46900795E054FBF0E054086083
:1047740013902BD9E493906186F0120D469007951F
:10478400E054F7F0E054106013902BDAE493906156
:1047940086F0120D46900795E054EFF0E054206047
:1047A4000A120D46900795E054DFF0A3E05401602F
:1047B4000D120F86120D4C900796E054FEF074080B
:1047C400121F798003F0A3F0D083D08202012274F7
:1047D400EC121FBA74F4121F63851882851983AC16
:1047E40082AD837583847582DF7404121E76902BE8
:1047F400D893F46003024960907808E0C3940250AF
:10480400030249407404121FAEAC82AD83758384E5
:104814007582867408121E768518828519838582AE
:10482400128583137404121FAEAC82AD83750EFF20
:10483400750FFF7FFF7E00750C48750D7880157429
:10484400086E70030248D374096E70030248D3746F
:104854000A6E607B850C82850D837808121E338C6A
:10486400828D83A909E50AC9F8881074187808129A
:104874001D74E5104508F8C3E098A3E099850C82FF
:10488400850D837808121E3340188C828D8374182A
:104894007808121D74E5104508F8E0C398F8A3E001
:1048A400801C74187808121D74E5104508FAE9FB99
:1048B4008C828D83E0F8A3E0F9EAC398F8EB99F9C8
:1048C400C3E8950EE9950F5006880E890FEEFF0E8A
:1048D400E50C2404F50CE50D3400F50DEEC394133A
:1048E400500302484374FF650E700474FF650F6043
:1048F400238F0874027808121F5074482508F58223
:1049040074783509F5837808121E3385128285136D
:1049140083E508F0EC24020C0CED3400FD851282D2
:10492400851383A3858212858313740C121FAEE54D
:10493400826C7003E5836D6003024831750801756C
:10494400090078081221CD7402121FAEAC82AD8327
:104954007AF67B0A1206C27402121F79740C121FB3
:10496400797F0C02208CC082C0839061AE7468F0A1
:10497400A3746AF090624574FBF0A304F053F4FD51
:1049840043FE0290092D7401F09061A0E0643A9016
:10499400619A70237433F0A37455F09061A0743A53
:1049A400F0740164017009C29190079774678028BC
:1049B40090079774618021743FF0A3745AF090615A
:1049C400A0747FF0740164017009D2919007977408
:1049D400718005900797746A0247CB7F0402208C8C
:1049E400C082C0839008DFE06401700A9008E4E0AC
:1049F4006004790C800279000247CCC082C08375C0
:104A0400E1F19008E2E06055146008146059146004
:104A1400518059120F989008D8E0F97AD97B08127E
:104A240011669084E3121E5112119C9084C3121ECD
:104A3400511211729008E3E0F912117E79011211FA
:104A4400D89008D6E02416F8A3E03400F9888289C7
:104A54008374B0F0A3740FF079000247CC120F9E58
:104A640080B4120FA480AF120FAA80AA791280EA30
:104A740074F4121FBA75D90D9008C7E0A2E0E433AC
:104A84001313F89008D8E0C4333354C0484401F5F4
:104A9400D978D6790888828983A3A3A3E0F5D98835
:104AA400828983A3A882A983E864DC7003E964088B
:104AB40070E378C7790888828983A3E0F5D988826E
:104AC4008983A3A882A983E864CD7003E96408708C
:104AD400E575E1959008C7E0F97AC87B0812116C76
:104AE400900E3C744AF0A3740FF0A374A6F0A37460
:104AF40010F0A374A6F0A37410F0A374A6F0A3742A
:104B040010F0A37450F0A3740FF0A374A6F0A37470
:104B140010F0A37468F0A3740FF0900E4A74A6F01A
:104B2400A37410F0A374A6F0A37410F0A374A6F0F9
:104B3400A37410F0A374A6F0A37410F0A374A6F0E9
:104B4400A37410F0A374A6F0A37410F09008D6E038
:104B5400F8A3E0F5838882A3A37808121E33908417
:104B6400E77808121DBF9085437808121E0D90083F
:104B7400D6E0240EF8A3E03400F98882898378080B
:104B8400121E429008D6E02414F8A3E03400F988F9
:104B94008289837413F09007937402F00249DFC092
:104BA40082C0839008E8E02407F5D99008D8E0C4CF
:104BB400333354C0F5D978D6790888828983A3A37E
:104BC400A3E0F5D988828983A3A882A983E864DC59
:104BD4007003E9640870E39008E8E0601F78D67910
:104BE40008FAE82413F582E93400F583E0F5D9885E
:104BF400828983A3A882A9831AEA70E6900908E04F
:104C04002407F5D99008D8E0C4333354C04404F5DC
:104C1400D978D6790888828983A3A3A3E0F5D988B3
:104C2400828983A3A882A983E864DC7003E9640809
:104C340070E3900908E0601F78D67908FAE8243315
:104C4400F582E93400F583E0F5D988828983A3A845
:104C540082A9831AEA70E675E195900E3C7456F0C9
:104C6400A3740FF0A374A6F0A37410F0A374A6F0B9
:104C7400A37410F0A374A6F0A37410F0A37450F0FE
:104C8400A3740FF0A374A6F0A37410F0A37468F0D7
:104C9400A3740FF0900E4A74A6F0A37410F0A374DA
:104CA400A6F0A37410F0A374A6F0A37410F0A37478
:104CB400A6F0A37410F0A374A6F0A37410F0A37468
:104CC400A6F0A37410F09084F7121E519008D6E059
:104CD400240EF8A3E03400F988828983121E5D90C3
:104CE40008D6E02414F8A3E03400F9888289837498
:104CF40012F090079374010247CBC082C0839008DE
:104D0400E8E02407F5D99008D8E0C4333354C0440C
:104D140002F5D978D6790888828983A3A3A3E0F51C
:104D2400D988828983A3A882A983E864DC7003E913
:104D3400640870E39008E8E0601F78D67908FAE820
:104D44002413F582E93400F583E0F5D98882898358
:104D5400A3A882A9831AEA70E675E195900E3C74C3
:104D640062F0A3740FF0A37462F0A3740FF0A37441
:104D740062F0A3740FF0A37462F0A3740FF0A37431
:104D840062F0A3740FF0A37462F0A3740FF0A37421
:104D940068F0A3740FF0900E4A74A6F0A37410F098
:104DA400A374A6F0A37410F0A374A6F0A37410F077
:104DB400A374A6F0A37410F0A374A6F0A37410F067
:104DC400A374A6F0A37410F09084F7121E519008F7
:104DD400D6E0240EF8A3E03400F988828983121EF9
:104DE4005D9008D6E02414F8A3E03400F9888289A1
:104DF400837414F090079374040247CBC082C08379
:104E04009008E8E02407F5D99008D8E0C433335477
:104E1400C04406F5D978D6790888828983A3A3A3E8
:104E2400E0F5D988828983A3A882A983E864DC7029
:104E340003E9640870E39008E8E0601F78D6790815
:104E4400FAE82413F582E93400F583E0F5D9888281
:104E54008983A3A882A9831AEA70E6900908E0244A
:104E640007F5D99008D8E0C4333354C04404F5D9C5
:104E740078D6790888828983A3A3A3E0F5D98882A8
:104E84008983A3A882A983E864DC7003E9640870B9
:104E9400E3900908E0601F78D67908FAE82433F52E
:104EA40082E93400F583E0F5D988828983A3A88256
:104EB400A9831AEA70E675E195900E3C745CF0A340
:104EC400740FF0A374A6F0A37410F0A374A6F0A357
:104ED4007410F0A374A6F0A37410F0A374A6F0A346
:104EE4007410F0A374A6F0A37410F0A37468F0A374
:104EF400740FF0900E4A74A6F0A37410F0A374A675
:104F0400F0A37410F0A374A6F0A37410F0A374A615
:104F1400F0A37410F0A374A6F0A37410F0A374A605
:104F2400F0A37410F09084F7121E519008D6E02478
:104F34000EF8A3E03400F988828983121E5D90087C
:104F4400D6E02414F8A3E03400F988828983741528
:104F5400F090079374030247CBC082C0839008D6B5
:104F6400E0F8A3E0F5838882A3A3A3A3A3A3E402A8
:104F740047C974F7121FBA9007C1E0F875F004A48A
:104F8400C8AAF02AF974C328F8740739F9E8240583
:104F9400FAE93400FB8A828B83E0FCA3E0FD88827B
:104FA4008983A3A3A3A3A3A3A3A3A3ECF0A3EDF0DA
:104FB40088828983A3A3A3A3A3A3A3E024FFF8A3C4
:104FC400E034FFF98A828B83E8F0A3E902521B7470
:104FD400F7121FBAEAFEEBFF9061D0E060030250C3
:104FE400B075D90E75D90375D904EE248CF582EF0A
:104FF4003400F583E5822408F8E5833400F9E0F50C
:10500400D9A3E865827003E9658370F2EE2484F520
:1050140082EF3400F583E5822404F8E5833400F953
:10502400E0F5D9A3E865827003E9658370F275E160
:10503400957908EE248CFAEF3400FB1210527904AF
:10504400EE2484FAEF3400FB1210527C00EEF8EFE9
:10505400F9ECFAC3E49AFA95E0FBEE2AFAEF3BFB8B
:10506400EA248BF582EB3400F583E0C0E0E824AB5E
:10507400F582E93400F583D0E0F00C88828983A3BB
:10508400A882A983ECC3940840C7EE2470F582EF8C
:105094003400F583E0F8A3E0F9EE2472F582EF34EE
:1050A40000F583E8F0A3E9F0790180027900025267
:1050B4001CC082C08375D90275D90375D90575E101
:1050C40095EA2470F582EB3400F583E0F8A3E0F967
:1050D400EA2472F582EB3400F583E8F0A3E9F07971
:1050E400010247CC74F6121FBAEAFEEBFF900931B5
:1050F4007406F075083175090978081221CD7C0110
:10510400790312109A7402121F7975D90675D9039E
:10511400758231758309E0F5D9A3E582643670049C
:10512400E583640970F075E195900793E064087075
:105134001EEE2470F582EF3400F583E0F8A3E0F965
:10514400EE2472F582EF3400F583E8F0A3E9F079F8
:10515400010252E874F6121FBAEAFEEBFF9061D026
:10516400E070667801900931740BF0900793E06465
:1051740007701975083175090978081221CD7C0169
:10518400790312109A7402121F797805740128F5B4
:10519400D975D903758231758309E8FAE0F5D9A385
:1051A4001AEA70F875E195EE2470F582EF3400F593
:1051B40083E0F8A3E0F9EE2472F582EF3400F5837E
:1051C400E8F0A3E9F07901800279000252E874F76B
:1051D400121FBAEAFEEBFF75D90375D90375D90D11
:1051E400EE24DEF582EF3400F583E0F5D975E19520
:1051F40079041211A2EE2470F582EF3400F583E0F5
:10520400F8A3E0F9EE2472F582EF3400F583E8F0B8
:10521400A3E9F079018001F07F0102208C74F61279
:105224001FBAEAFEEBFF9061D0E0F87480C398FAED
:10523400EE2483F582EF3400F583E0600478048083
:10524400027800E8240BF8EAC39850030252E67D82
:1052540009900931EDF0EE24E3F8EF3400F97A32E5
:105264007B097C0888828983E08A828B83F0888228
:105274008983A3A882A9838A828B83A3AA82AB830E
:105284001CEC70E0EE2483F582EF3400F583E060DB
:105294001D75083175090978081221CD7C09790337
:1052A400EEFAEFFB12109A7402121F797D0D74014D
:1052B4002DF5D975D9037582317583098D08E0F50B
:1052C400D9A31508E50870F675E19579041211A2C1
:1052D400EE241DF582EF3400F583E4F0A3F07901A8
:1052E400800279007F0202208C74F6121FBAEAFE53
:1052F400EBFF9061D0E0F87480C398FAEE2483F554
:1053040082EF3400F583E06004780480027800E8DA
:105314002408F8EAC39850030253ED7D069009313E
:10532400740CF09007B0E0900932F07AB17B077802
:105334003379097C028A828B83E088828983F08AAC
:10534400828B83A3AA82AB8388828983A3A882A940
:10535400831CEC70E07AB37B077C028A828B83E047
:1053640088828983F08A828B83A3AA82AB83888212
:105374008983A3A882A9831CEC70E0EE2483F582C0
:10538400EF3400F583E0601D75083175090978086C
:105394001221CD7C067903EEFAEFFB12109A740207
:1053A400121F797D0A74012DF5D975D903758231DF
:1053B4007583098D08E0F5D9A31508E50870F6751D
:1053C400E19579041211A2EE2470F582EF3400F510
:1053D40083E0F8A3E0F9EE2472F582EF3400F5835C
:1053E400E8F0A3E9F07901800279000252E874F64A
:1053F400121FBAEAFEEBFF9061D0E0F87480C39804
:10540400FAEE2483F582EF3400F583E06004780437
:1054140080027800E82404F8EAC39850030254CCCC
:105424007802900931E8F0EE24F5F582EF3400F5C6
:1054340083E0900932F0EE2483F582EF3400F583A3
:10544400E0601B75083175090978081221CD7C02CA
:105454007903EEFA12109A7402121F797806740115
:1054640028F5D975D9037582317583098808E0F563
:10547400D9A31508E50870F675E195EE2474F58254
:10548400EF3400F583E4F0EE2480F582EF3400F588
:1054940083E4F0EE241DF582EF3400F583E4F0A3F9
:1054A400F079041211A2EE240DF582EF3400F58395
:1054B400E0F8A3E0F9EE2472F582EF3400F583E816
:1054C400F0A3E9F07901800279000252E874F6123F
:1054D4001FBA9061D0E0F87480C398FCEA2483F585
:1054E40082EB3400F583E06004780480027800E8FD
:1054F4002404F8ECC398405B79029009317407F0F6
:10550400EA24F6F582EB3400F583E0900932F0EA00
:105514002483F582EB3400F583E060187508317557
:10552400090978081221CD7C020912109A7402121A
:105534001F797906740129F5D975D90375823175F6
:105544008309E9F8E0F5D9A318E870F875E19579CD
:1055540001800279000252E874F5121FBAE9FCA234
:10556400AFE433F50AC2AF7D0080010DEA246FF584
:1055740082EB3400F583E0F8EDC398501A8D08EA05
:105584002508F8EB3400F9E8246BF582E93400F5DA
:1055940083E06C70D68024EA246FF8EB3400F9E0E1
:1055A400FEEA2EFAEB3400FBEA246BF582EB3400BE
:1055B400F583ECF088828983E004F0E50AA2E092A6
:1055C400AF7F0302208C74F6121FBAA2AFE433FD3E
:1055D400C2AFEA246FF582EB3400F583E014F07C6B
:1055E4000060368C08EA2508F8EB3400F9E8246CEE
:1055F400F582E93400F583E0C0E0E8246BF582E944
:105604003400F583D0E0F00CEA246FF582EB34002B
:10561400F583E0F8ECC39840CAEA246EF582EB34D3
:1056240000F58374FFF0EA246AF582EB3400F58315
:10563400E4F0EDA2E092AF0252E8C082C083E5A894
:10564400F8C2AFEA246BF582EB3400F583E9F0EAA3
:10565400246AF582EB3400F583E4F0E8A2E792AF24
:105664000247CC74F3121FBAEAFEEBFFECFAEDFB2F
:105674008A828B83A3A3A3A3E0541FF0EE2436F500
:1056840082EF3400F583E4F0F50AEEFCEFFD8A8244
:105694008B83E0C0E0EC245DF582ED3400F583D02B
:1056A400E0F0750B00E50A33333354F8F50C8A82C5
:1056B4008B83E0F508750900E50B7808121F31E5C6
:1056C40008A2E0502FEE2436F8EF3400F9888289DE
:1056D40083E0F508EE2508F508EF3400F509E50840
:1056E4002438F582E5093400F583E50CF0888289D5
:1056F40083E004F0050B050CE50BC3940840AF05EB
:105704000A8A828B83A3AA82AB838C828D83A3AC07
:1057140082AD83E50AC3940550030256927F0502C5
:10572400208C74F7121FBA9007BFE0640170077AE7
:10573400007B0002589D7E009007C5E070F1740163
:10574400F0A3E4F0A3F090082504F0900828E4F016
:10575400A3F090082B04F09007C8E4F0A3F0A3F0A2
:10576400A3F09007D204F09007F8E4F09085271294
:105774001E519007DB121E5D9007DFE4F0A3F0A337
:10578400F0900843F0900837F090082C7480F0A350
:10579400E4F0900832F090082AF09008AEF0A3F0FC
:1057A400A3F0A3F0A3F0A3F0A3F0A3F09008B7F044
:1057B400900846F0900896F0A3F0908527121E51A9
:1057C400900898121E5D908527121E5190089C1215
:1057D4001E5D9008A2E4F09008A4F09008A0F09058
:1057E40008BAF0A3F0A3F0A3F0A3F0A3F0A3F0A3EE
:1057F400F078BF7907E8246FF582E93400F5837403
:10580400FFF00E88828983A3A882A983EEC394043F
:1058140040E37ABF7B0778CE790888828983E0C029
:10582400E0EA2461F582EB3400F583D0E0F088826D
:105834008983A3A882A9838A828B83A3AA82AB8348
:10584400E864D37003E9640870D07ABF7B0778A654
:10585400790788828983A3E0C0E0EA24E7F582EB34
:105864003400F583D0E0F088828983A3A882A983D9
:105874008A828B83A3AA82AB83E864AE7003E96453
:105884000770CF9007BFE004F0640170089007C769
:10589400E09007C1F07AC37B0702521CC082C08328
:1058A4009007C6E4F09007C5F09007BFF0A3F0A3FB
:1058B40074FFF075E1F10247CCC082C083780079AF
:1058C400009007C6E0600478C3790788828983A3BF
:1058D400A3A3A3E0F90247CC74F6121FBAEAFEEBC5
:1058E400FF8E828F83A3A3A3E0600F8E828F83A396
:1058F400A3A3E4F09007C0E014F09007BFE014F015
:1059040070069007C174FFF08E828F83A3A3E4F026
:105914009008D3E0700D9007C0E064017005790031
:10592400121184EE2465F582EF3400F583E0F8A3C8
:10593400E0F9E8496029EE2465F8EF3400F98808B5
:1059440089098882F583E0FCA3E0FD9007C1E0FAB1
:105954007B00120D70850882850983E4F0A3F0EEC4
:10596400FAEFFB1210CA0252E874F7121FBAEAFEE9
:10597400EBFF8E828F83A3A3A3A3E0FA7B00120D17
:10598400B2EEFAEFFB12101C1210B202521CC082CB
:10599400C08378A6790788828983A3E4F088828902
:1059A40083A3A882A983E864AE7003E9640770E660
:1059B4009007A7024CF974F6121FBAEAFEEBFFEC4B
:1059C4002403F8ED3400F988088909EC2407F8ED7C
:1059D4003400F9E8FCE9FD8C828D83E0F8A3E0F95A
:1059E400850882850983E0FAA3E0FB121ED8EE2421
:1059F4000DF582EF3400F583E8F0A3E9F08C828D95
:105A040083E0F8A3E0F9850882850983E0FAA3E03E
:105A1400FB121ED88B09EA45096013EE240DF582AA
:105A2400EF3400F583E02401F0A3E03400F00252E7
:105A3400E874F6121FBAEAFEEBFFEE242EF582EFAD
:105A44003400F583E0FCA3E0FD780079FAECFAED8C
:105A5400FB121ED8EE2470F582EF3400F583E8F0D3
:105A6400A3E9F0780079FAECFAEDFB121ED88B0961
:105A7400EA45096013EE2470F582EF3400F583E003
:105A84002401F0A3E03400F00252E874F0121FBACB
:105A9400EAFEEBFF7410121FAE7808121E331211C7
:105AA400488A0C8B0D8C0E8D0F9084EB780C121D94
:105AB400BF908543780C121E0D780C1221C98E827A
:105AC4008F83E0F8A3E0F5838882A3A3121E51120A
:105AD40029697404121F79E96003025BDC8E828FEA
:105AE40083E02402F8A3E03400F9E8FAE9FB8A82AF
:105AF4008B837808121DD29085437808121E338A4E
:105B0400828B837808121E20EE240BF582EF34007A
:105B1400F583C082C0838E828F83A3A3A3A3A3E053
:105B24002401F8A3E03400F9D083D082E068700344
