:020000040000FA
:0600000002011D0228DBD5
:03002B0002301E82
:0300330002300098
:0300530002294E31
:03006B00022FD78A
:1000830002278FE5C754F84401F5C7790122000020
:100093000080FB120086B90003020107E47921788E
:1000A30008B800028004F709D8FCE479297802B87B
:1000B30000028004F709D8FCE4900281789F790854
:1000C3008002F0A3D8FCD9FA781A90014D7A01BACC
:1000D30000028007E493A3F608DAF9900A1FAA82C4
:1000E300AB8390014E788279058015E493A3AC82AB
:1000F300AD838A828B83F0A3AA82AB838C828D83A8
:10010300D8E9D9E775827A7583DB740312012F75F9
:100113008291758300740012012F75D00075813FA1
:10012300751881751902759F00020096C09FF59F8F
:10013300E473D09F22D083D082C09FE493C0E07445
:100143000193C0E0740293F59F2201FF0000B40005
:100153000028002800283075A000A000A000A000FF
:1001630000080008E001F00010001000100010006B
:100173001000100050005000500010001000D00775
:100183000000000000000F000100050030750700AB
:100193001000010081FF0000FFCD07EB07D307FF2D
:1001A30002020208025000A0000000E803023687A2
:1001B3000100001187021687010000740A021C87E0
:1001C300010000B202021687010000750A021E87B1
:1001D300010000C802021687010000760A02208788
:1001E300010000CA02021687010000770A02228773
:1001F300080000CB02021687010000780A02248758
:10020300010000790AFF0100FF2002368701000088
:100213000287021687010000DD0A0226870000001C
:100223000000021A870300001803AF0DAF0DAF0DD6
:10023300AF0DAF0DAF0DAF0DAF0DAF0DAF0DAF0DDB
:10024300AF0DAF0D3D10551037100201060A597559
:10025300656E6A656502F0FF331100005D11571189
:100263004511FFFF110199010F1264040102368742
:100273000100000E870216870100003D0B023E8736
:100283000100003E0B021A870300001408022887AE
:100293000100003F0B020202020202020202010DF0
:1002A300000000100102368701000005870216874F
:1002B300010000690B0238870100001A0802168743
:1002C3000100006A0B026287010000AE84021687F8
:1002D3000100006B0B02348701000078840216874B
:1002E3000100006C0B02328701000057830216875E
:1002F3000100006D0B02308701000069830216873D
:100303000100006E0B022E87010000338302168763
:100313000100006F0B022C870100000F8302168778
:10032300010000700B022A870100006A840216870D
:10033300010000710B024487010000720B000101F0
:100343000202030404050606070708090901E80376
:10035300053F10FF00013075030201060000000095
:10036300000000000000000000000000000000008A
:100373000000000000000000FFFF0600800CE803FF
:100383000A43686172616374657269737469632097
:1003930031000243686172616374657269737469E1
:1003A3006320320008436861726163746572697324
:1003B300746963203300104368617261637465720A
:1003C30069737469632034000A54656D70657261E2
:1003D300747572652055706461746520436F6E6631
:1003E3006967001A43757272656E742054656D7087
:1003F30065726174757265000A4465766963652088
:100403004E616D6520436F6E666967000A54656DC2
:10041300706572617475726520416C657274000257
:10042300414443342041444335205265616420569E
:10043300616C7565203134426974000A50574D2050
:10044300436F6E666967000236870100000B8702FF
:100453001687010000540C024887030000DC0902E0
:100463001887010000550C021687010000660C0274
:100473004A87010000DD09021887010000670C02AA
:100483001687010000780C024C87020000DE090287
:100493001887010000790C0216870100008A0C02FC
:1004A3004E87000000DF09021A87030000E00902FB
:1004B30018870100008B0C0216870100009C0C02B8
:1004C3005087030000E6090218870100009D0C0213
:1004D3001687010000B70C025287030000EB0902E4
:1004E3001A87030000F009021887010000B80C0204
:1004F3001687010000CC0C025487030000F60902A2
:100503001887010000CD0C021687010000E00C02E1
:1005130056870300000B0A021887010000E10C0252
:100523001687010000F30C025887010000100A022D
:100533001887010000F40C0216870100000F0D025A
:100543005A87030000130A021887010000100D10D8
:100553004B65792050726573732053746174650021
:100563000236870100000887021687010000230E68
:10057300025E87000000180A021A87030000190AA6
:10058300021887010000240E3031323334353637F8
:10059300383941424344454600286E756C6C2070DF
:1005A3006F696E74657229003F3F3F000000807FD2
:1005B3000000803FF9021550B743BA5100E7DB2E24
:1005C3000000A0401000000008000000120138499C
:1005D300CC0312013860CC031201388FCC03120113
:1005E30038C8CC03120138F0CC031201381ECD03F6
:1005F30012013835CD031201384CCD031201386294
:10060300CD0312013889CD031201389CCD031201A9
:1006130038B2CD03120138C5CD03120138EACD0338
:100623001201388FDA021201388EDB02120138C34D
:10063300DB02120138E4DB02120138F4DB0212019F
:100643003815DC0212013821DD02120138EEDD0219
:1006530012013861DE02120138E7DE021201382A84
:10066300DF0212013861DF02120138E7DF021201F3
:1006730038B9E00212013817E1021201382FE10202
:10068300120138A9E102120138ACE102120138AFBC
:10069300E10212013856E2021201386EE20212013F
:1006A300389EE202120138BEE202120138ACE302C4
:1006B30012013862E402120138DF9603120138078F
:1006C30097031201383597031201386C970312010F
:1006D30038D497031201381D980312013868980320
:1006E300120138A69803120138E398031201381156
:1006F3009903120138B89903120138C29903120100
:1007030038CF9903120138029A03120138C49A03AD
:10071300120138D09A03120138E89A03120138F211
:100723009A0312013888D90312013896D9031201AA
:1007330038AED903120138C6D90312013857DE0186
:10074300120138F5DE011201386DDF011201388222
:10075300E001120138BCE00112013865E101120128
:10076300383AE2011201389EE301120138F5E30140
:100773001201387CE40112013863E501120138B03B
:10078300E5011201383EE60112013862E601120169
:100793003837E80112013878E8011201389AE80184
:1007A3001201381BE90112013805EA01120138CBA5
:1007B300EA01120138008003120138D280031201CA
:1007C300387B8103120138BE81031201384B820347
:1007D300120138D78203120138B88303120138E7B4
:1007E3008303120138E384031201382B85031201BA
:1007F300382D860312013871860312013897860358
:10080300120138A4DD0312013860B00312013876F7
:10081300B0031201389CB003120138C4B1031201B2
:1008230038CEB10312013827B30312013827B403BA
:100833001201380F8D03120138448E0312013877E9
:100843008E03120138C18E031201387F9003120107
:1008530038FACE011201385DCF01120138A2D0015E
:10086300120138B2D001120138D5D001120138205B
:10087300D101120138C5D101120138BBD2011201D5
:100883003885D301120138FDD4011201383FD50157
:10089300120138DDD5011201382AD6011201385070
:1008A300D6011201383ED80112013843D801120192
:1008B3003824DA0112013878DA01120138DADA0160
:1008C30012013802DB01120138A6DB01120138687C
:1008D300DC0112013899DC011201389CDC011201A0
:1008E30038E4DC0112013826DD011201388DDD0107
:1008F300120138A7FD02120138BAFD02120138D3E2
:10090300FD021201381EFE02120138F9FE02120125
:100913003888FF02120138D3FF0212013844300035
:10092300120138503000120138893000120138CEDC
:1009330030001201388531001201380B32001201E8
:10094300387032001201389C3200120138D532005F
:10095300120138E93400120138C53600120138B0EB
:100963003800120138E73900120138473C00120100
:1009730038333D00120138793E00120138863F00BA
:10098300120138A33F00120138DB3F00120138F592
:100993003F001201385D4000120138F74400120194
:1009A30038984500120138E9450012013810460015
:1009B3001201385E46001201387C4600120138D01D
:1009C3004600120138A947001201383049001201CC
:1009D30038B849001201383592031201383F9203A7
:1009E3001201380A93031201382593031201384B7D
:1009F30093031201388F9303120138C79303120133
:100A030038F093031201386994031201387E94037A
:100A1300120138939403120138CA9403120138DE89
:100A230094031201380F95031201384995031201FB
:100A330038759503120138CB95031201381F9603BD
:100A4300120138689603120138929603120138B7DF
:100A5300960312013890A8031201385AA903120110
:100A6300383DAA03120138B3AA03120138F5AA03C9
:100A730012013822AC031201387EB602120138A7E4
:100A8300B602120138C0B60212013805B8021201CB
:100A930038E3B80212013802B9021201388FB902E1
:100AA300120138D2B9021201381FBB02120138BE3B
:100AB300BB021201383DBE02120138D4BE0212013C
:100AC30038A8BF021201388AC002120138F6C102E7
:100AD30012013889C20212013898D5031201380174
:100AE300D60312013855D6031201387CD6031201FE
:100AF300387EFB01120138EBFB0112013836FC0191
:100B03001201382BFD0112013827FE0112013811A1
:100B1300FF01120138CDE4021201380FE502120180
:100B230038E9E502120138C2E602120138BDE702D4
:100B33001201389CE80212013808E902120138CF89
:100B4300E9021201383AEA02120138A1EA0212015B
:100B530038CCEA021201383DEB02120138D0EB0225
:100B630012013839EC021201384EEC0212013896A8
:100B7300EC02120138AFEC0212013814ED0212013B
:100B83003817ED02120138CEB703120138F6B70356
:100B930012013834B803120138F2B8031201385D78
:100BA300B90312013879B903120138A1B90312014B
:100BB30038D1B903120138E0B9031201385ABA0324
:100BC30012013880BA03120138008002120138DDA5
:100BD3008102120138D88302120138AB8402120158
:100BE30038F6840212013841850212013853850216
:100BF300120138938502120138C885021201381494
:100C030086021201384386021201386686021201F7
:100C130038B386021201383C87021201384989022F
:100C2300120138348B02120138778B02120138DC3F
:100C33008C021201381D8D02120138908D021201AF
:100C430038DC8D02120138078E0212013800C3020C
:100C53001201382BC30212013812CA0212013836AC
:100C6300CC02120138F1CD021201384ECF0212012B
:100C7300381F4A00120138B64A00120138E34A000D
:100C8300120138294B00120138684C00120138FF59
:100C93004D00120138794E00120138944E001201B2
:100CA30038094F00120138385000120138935100AF
:100CB300120138955200120138F253001201380B19
:100CC30054001201386854001201384A55001201C9
:100CD300387D5500120138ED550012013867560072
:100CE300120138B6560012013882570012013887B4
:100CF3005800120138665900120138F159001201E7
:100D0300385F5A00120138D35A00120138FC5A00D6
:100D1300120138BB5B00120138355D0012013852F5
:100D23005D00120138715D00120138025E0012018C
:100D330038275E001201384F5E00120138CA5E0088
:100D4300120138245F00120138786000120138352F
:100D53006100120138086200120138318E0212015B
:100D630038818E021201388D8E021201386A8F0289
:100D73001201389A8F02120138D28F0212013851B0
:100D83009002120138899002120138DB900212019D
:100D9300381891021201383D930212013869950205
:100DA3001201386497021201383F9902120138EE9A
:100DB3007F00120138989B01120138E29B01120156
:100DC30038C1A10112013842A301120138A1A901BE
:100DD3001201389CAA01120138D9AA01120138FC68
:100DE300AA011201383EAB0112013847AB011201CF
:100DF3003851AB011201383DAC0112013831AD015C
:100E0300120138366200120138AE6C00120138B498
:100E13006C00120138C0730012013831B40312019F
:100E230038C7B403120138DDB40312013857B503D0
:100E3300120138ADB503120138EBB503120138487E
:100E4300B603120138C5B603120138CEB603120138
:100E530038DAB603120138EDB60312013829B703A5
:100E63001201383FB7031201389EB7031201382825
:100E7300A00312013835A0031201384FA003120159
:100E8300388EA003120138CCA00312013831A1031C
:100E930012013846A10312013851A1031201385E31
:100EA300A10312013875A10312013883A1031201B2
:100EB300388EA1031201389AA103120138A9A103A4
:100EC300120138B4A103120138D7A10312013880EB
:100ED300A20312013890A203120138AAA20312013D
:100EE30038C7A203120138E3A20312013808A3038F
:100EF30012013812A30312013826A3031201384545
:100F0300A303120138A6A303120138ACA3031201F1
:100F130038B2A303120138B8A303120138C4A303E0
:100F2300120138F7A303120138059C021201388716
:100F33009C02120138309D02120138789E02120180
:100F43003886A0021201386CA102120138A1A10255
:100F5300120138C3A1021201386CA2021201383CFB
:100F6300A40212013865A402120138DDA4021201A1
:100F7300380FA5021201381CA50212013867A50219
:100F83001201388BA502120138DCA702120138E6E0
:100F9300A80212013842A90212013800ED01120120
:100FA3003811EE01120138F5EE01120138FFEE019E
:100FB30012013821EF011201382DEF01120138D14E
:100FC300F001120138FEF00112013814F20112018E
:100FD3003869F201120138B8F3011201388DF401B6
:100FE300120138E9F40112013854F501120138896C
:100FF300F501120138CCF50112013896F8011201FE
:1010030038AEF8011201383FF9011201384DF901E8
:101013001201389AF901120138A8F90112013814A2
:10102300FA011201388FFA01120138E6FA011201AE
:101033003871CF0212013893CF02120138A4D102C2
:1010430012013863D4021201388DD5021201384BD4
:10105300D60212013837D70212013890CA0312019F
:1010630038B5CA031201382BCB031201387B780041
:101073001201388478001201388D78001201386526
:101083007900120138167B00120138467B001201E9
:1010930038717B00120138A17B00120138CC7B0030
:1010A300120138007C001201382C7C001201386FC9
:1010B3007C001201389A7C00120138E17C00120195
:1010C30038367D00120138787D00120138D27D0058
:1010D300120138FD7D001201384C7E001201387C6C
:1010E3007E00120138A77E00120138D57E0012015E
:1010F30038F87E001201382DDE0312013859DE0361
:1011030012013886DE0312013890DE03120138A083
:10111300DE0312013898BF01120138E8BF01120142
:1011230038FCBF0112013884C3011201383EC401E7
:10113300120138E4C40112013841C60112013871A9
:10114300C70112013807C90112013857CD01120135
:1011530038D9CD0112013812CE0112013897CE01D0
:101163001201381BDB0312013833D1031201386833
:10117300D103120138B3D10312013871F502120100
:10118300387BF502120138BCF50212013805F6026C
:101193001201383FF60212013895F602120138B6F1
:1011A300F60212013865F9021201386EF9021201D2
:1011B30038C2F902120138EBF902120138F5F902CB
:1011C30012013863FA02120138F3FA021201384E9F
:1011D300FB021201387CFB0212013804FC021201EB
:1011E3003843FC0212013878FC021201388AFC02EF
:1011F300120138A9FC02120138B2FC02120138793B
:10120300FD02120138AFD70312013815C5031201CD
:10121300384BC5031201387FC503120138CCC6030E
:101223001201380EDD0312013824DD031201382EBA
:10123300DD0312013878DD03120138879B031201A5
:10124300389A9B031201385B9C031201389A9C0362
:10125300120138B79C03120138F09C031201383D88
:101263009D031201386F9D03120138A69D031201DD
:1012730038AF9F031201381BA003120138C5D203F4
:10128300120138E8D20312013817D303120138AF21
:10129300D303120138C7D30312013809D40312014F
:1012A30038C8BA03120138FFBA0312013816BB0358
:1012B300120138C2BB031201385BBC03120138E3CD
:1012C300BC03120138B0BD03120138D5BD031201AE
:1012D30038FFBD03120138D5C803120138EDC80326
:1012E30012013829C9031201386BC903120138BB33
:1012F300C903120138D3C903120138987F001201C0
:1013030038668701120138448901120138E38A01E2
:101313001201388E8B011201380E8C0112013893A1
:101323008C01120138BC8C011201380E8D0112019F
:1013330038E9900112013860910112013877920166
:10134300120138B19201120138F2920112013839B7
:1013530094011201388F9401120138D894011201BB
:1013630038479501120138B39501120138E495010C
:10137300120138FC95011201381597011201382525
:101383009701120138DB9801120138F2980112011A
:1013930038249901120138C69A011201385A9B0167
:1013A3001201385FDA0312013870DA0312013810C0
:1013B300DB03120138AADE03120138E9DE0312014E
:1013C300386FDF03120138A6D803120138B6D803E9
:1013D300120138CED80312013882D903120138AD75
:1013E300D60312013832D70312013896D7031201FC
:1013F30038FCCD0312013825CE0312013888CE0301
:10140300120138A8CE03120138F9CE031201385461
:10141300CF031201388ECF0312013891CF0312018B
:10142300387CAC03120138A1AC03120138BEAC0303
:10143300120138DBAC0312013800AD03120138216D
:10144300AD031201384BAD0312013808AE0312018C
:101453003886AE03120138ADAE03120138B7AE03BE
:10146300120138DCAF0312013874A4031201388B64
:10147300A40312013805A503120138E9A5031201DB
:1014830038C0A70312013825A8031201387CA8032A
:10149300120138F87F00120138DBC2031201386BE6
:1014A300C403120138CCC40312013812C50312015C
:1014B3003880DF0312013885DF031201388CDF0324
:1014C3001201388EDF0312013872DC031201387403
:1014D300DC03120138F8DC0312013803DD031201C7
:1014E300389BCF03120138EDCF0312013860D003CC
:1014F300120138CDD00312013894C003120138BE53
:10150300C0031201388DC10312013869C2031201ED
:10151300383BED0212013807EE0212013848EE02A1
:1015230012013882EE02120138E0EE021201383461
:10153300EF0212013892EF0212013828F002120171
:101543003830F102120138BAF20212013858F302AC
:10155300120138BFF302120138D2F302120138C666
:10156300F4021201380FF5021201388FA902120199
:1015730038C1AC0212013852AE02120138A9AE02D0
:10158300120138C6AE0212013846AF02120138C248
:10159300B00212013891B102120138FEB4021201F5
:1015A30038E8B50212013852D4031201380C87030C
:1015B3001201385C87031201387987031201386AF4
:1015C30088031201387289031201386A8A031201EF
:1015D30038CB8C0312013806C7031201384BC703FB
:1015E3001201389FC70312013824C8031201389C23
:1015F300C803120138D3FF01120138D2DB031201F1
:1016030038FCDB03120138F3DE0312013829DF0350
:1016130012013851DF0312013849AF011201386753
:10162300B401E066701008A3E066700A08A3E066E0
:10163300700408A3E06622C008C3E096F50808A377
:10164300E096420808A3E096420808A3E096420801
:10165300A2D265D033E5087001D3D00822C3E79640
:101663000809E7960809E7960809E79622C3E09672
:1016730008A3E09608A3E09608A3E09622C008C357
:10168300E096F50808A3E096420808A3E09642080E
:1016930008A3E09645087001D3D00822080808E69D
:1016A30030E711121F5B1216B7080808C64480C63C
:1016B30018181822181818E9799EC608CAC608CB44
:1016C300C608CCC6C370207996CACBCC7019798E64
:1016D300CBCC70137986CC700EF9802ACA33CACB6F
:1016E30033CBCC33CC331930E7F2CCCBCA335014E1
:1016F3007004EA30E00DE4CA3ACACB3BCBCC3CCC15
:10170300500209C3E913C6CC182313C6CB18C6CAA3
:1017130018C6F92212175720F01430E72B74FFFC78
:10172300FBFA747F8022E4FCFBFA7480801AB48095
:1017330008BC00F2BB00EF800F50EBF9E4C39AFA48
:10174300E49BFBE49CFCE499C6CC18C6CB18C6CA40
:1017530018C6F922E4C9C608CAC608CBC6D33303E0
:1017630008CCC63392F0C3947F402E94184019C915
:10177300B90704CACBCC225025C309CA33CACB3319
:10178300CBCC33CC33D9F422F4600DC9CCC313CB07
:1017930013CBCA13CAD9F6CC22E4FCFBFA2214FCFD
:1017A300FBFA22E6C33318461846184622E7C3332A
:1017B30019471947194722181818E6084608700AE6
:1017C300E608C3337005E633F4220822191919E732
:1017D300094709700AE709C3337005E733F422099F
:1017E30022E6084608C3134608336002E633F422B0
:1017F300E7094709C3134709336002E733F42212A9
:1018030017E460251217F360201217A6700302175E
:10181300B0080808E76670101819E766700A181907
:10182300E76670041819E76622F4221217E4601CB5
:101833001217F360171217A670071217B07001D3AF
:1018430022C0D01217B07006D0D0B322C32233D037
:10185300D0501430E0F6C3E7960809E7960809E785
:10186300960809E796B32220E0D5E6970809E6979C
:101873000809E6970809E697B3221217E4601B12DA
:1018830017F360161217A670071217B0600CB32275
:10189300C0D01217B07005D0D022C32233D0D0509D
:1018A3001330E0EBC3E7960809E7960809E79608C3
:1018B30009E7962220E0E4E6970809E6970809E697
:1018C300970809E69722001217E4604F1217F36096
:1018D30012E7548066F61217BA70111217B0703BF4
:1018E300090909F4F618F618F618F6221217CF703C
:1018F300151217A608080860EAE6447FF6187680F2
:1019030018E4F618F6221217A660161217B0701212
:10191300E4F608F608F608E65480F60909091818EB
:101923001822EAC0E0EBC0E0ECC0E0EDC0E0E687DF
:10193300F0A4FBACF008E687F0A42CFCE435F0FA45
:101943001809E687F0A42C4B60027401CA35F0FC39
:10195300E433FB09E687F0D2F7A42CCB35F0FC196E
:1019630008E687F0A42BCC35F0FBE433FD0819E639
:1019730087F0D2E7A42C4ACB35F0CD3400FC09E63E
:1019830087F0D2E7A42DCC35F0FDE433FA0918E64D
:1019930087F0D2F7A42CCD35F0CA3400FC08E687D3
:1019A300F0D2E7D2F7A42ACC35F07A7E20E70B0AEF
:1019B300CB33CBCD33CDCC33CC33CB3350147004BA
:1019C300ED30E00ED2F1E4CD3DCDCC3CCC3B500527
:1019D300DA05C2F1EB547FC63308E63392F0FBE736
:1019E3003309E733C39A502D2B70190C0D4C4D70EE
:1019F300151806E608C333700D20F10AA2F013F69A
:101A0300E418800B4024E4F630F002768018F618D0
:101A1300F618F68024D33B14501074FFA2F013F68B
:101A2300187680E418F618F6800FA2F013F618E67D
:101A33003303F618ECF618EDF6D0E0FDD0E0FCD059
:101A4300E0FBD0E0FA221217F360461217E4603D80
:101A5300E9687008F618F618F618F622748067F726
:101A6300121A7D090909748067F7221217E4601DB1
:101A73001217F37005191919801A1217BA701F1269
:101A830017CFC37003E667331919194007181818DD
:101A93002208080874FFF618F618F618F62212172B
:101AA300CF60171217B0702192F01217A670195059
:101AB3001720F014080808090909E7F61819E7F6CA
:101AC3001819E7F61819E7F6221217A660E6E8696F
:101AD300701F0808E62480F608E436F618547FB42D
:101AE3007F0CE654806007F6E418F618F6221818FF
:101AF30022E9C6CC08C6CD08C6CE08C6CFC0E0E8EA
:101B0300C0E0EAC0E0EBC0E009E9F809E7FA09E759
:101B1300FBE6F918E6F8C3EC98ED99EE9AEBC2E709
:101B2300F5F0EFC2E795F0500E600CEBCFFBEACE79
:101B3300FAE9CDF9E8CCF8EAA2E7D2E7FAEB33FB0E
:101B430013F5F0EEA2E7D2E7FEEF33FFC5F013A2E1
:101B5300E730E601B313C5F0C3C0E0C0F07F00C3B4
:101B63009BFB605B9418600C401AD0E023F9D0E033
:101B7300F8021C4C8AF0E9486003D2F0E4AFF0FAB3
:101B8300F9F8803BEB30E40D89F0EA6003D2F0E42E
:101B9300AFF0F9CAF8EB30E30D88F0EF6002D2F052
:101BA300AFF0E4CAC9F8EB54076014FBC3EA13FAB5
:101BB300E913F9E813F8EF135002D2E0FFDBEDD09D
:101BC300E0C0E030E739C3E49FFFF5F0EC98FC4256
:101BD300F0ED99FD42F0EE9AFE42F0D0E0F9D0E04C
:101BE300F8E5F0607AE923F9EE20E742D80280674E
:101BF300C3EF33FFEC33FCED33FDEE33FE80EAEC51
:101C030028FCED39FDEE3AFED0E023F9D0E0F840B0
:101C130002801BC3EE13FEED13FDEC13FCEF135018
:101C230002D2E0FF08B800067F7F74FF802EEF33F7
:101C330050178CF020F00260100CBC000C0DBD009E
:101C4300080EBE000408E860DFE933E813FFEE2363
:101C530013FE4F4D4C8008E95480FFE4FEFDFCEE7B
:101C630033EF33F47004FCFD7E80D0E0FBD0E0FA68
:101C7300D0E0F8D0E0CFC618CEC618CDC618CCC673
:101C8300F9221217E47004181818221217F3700DB2
:101C930074FFF61819F61819F61819F622E7548086
:101CA30066F61217A6700F1217B070F014F608F646
:101CB30008F608F680D11217B0700CF608F608760D
:101CC3008008E6447F80EC1217D2700C1217BD60B7
:101CD300BFE65480F6E480BB1217BD7005191919CD
:101CE30080A5E869700C763F18768018F618F6E838
:101CF300F922E6CDC0E018ECC0E0E633CD33CDD316
:101D030013F6E719FCE7191933CC33C3947F400E5C
:101D1300CD9D502408E65480F6E418F6800FF404B1
:101D23003D14501408E6447FF6187680E418F6183C
:101D3300F6D0E0FCD0E0FD22CCD313CCFD18E4C6F2
:101D4300CBC0E018E4C6CAC0E00808ED08C633E615
:101D530013F618E433C675F003C3CA97CA09CB97C1
:101D6300CB199C40047D08802EBD0003021E2E1655
:101D7300B6FF050606081618C3CA33CACB33CB33DE
:101D8300CA27CA09CB37CB193CC37D08803E187DCF
:101D93000820E75CC633C6CA33CACB33CB33DDF185
:101DA300D5F0EB30E77BCA97CA09CB974ACB199C8E
:101DB300406F4B7025E620E0218066187D08C3CA7A
:101DC30097CA09CB97CB199CD3C633C6CA33CACBA0
:101DD30033CB3350C9DDE7D5F0E1D3E4C636C608CB
:101DE300C636C608C636C608C636C61818188031A1
:101DF300C3CA97CA09CB97CB199CB34097C633C6BE
:101E0300CA33CACB33CB33DD34D5F02EC6A2E0C6FA
:101E130040C8CA27CA09CB37194A70BECB3CB48025
:101E2300B90808E63308E633601F181818D0E0FA3B
:101E3300D0E0FBD0E0FCD0E0FD22187D08CA27CA21
:101E430009CB37CB193CD3808013F618E4B67F1146
:101E5300F618B6FF0EF618C60470D208087680800E
:101E6300CAF618F618F680C5080808EAC0E0EBC001
:101E7300E086F0E7A4FA180986F0E7A42AFA18091D
:101E830086F0E7A42AFA180986F0E7A42AFA198645
:101E9300F0E7A4FBE5F02AFA190886F0E7A42BFB88
:101EA300E5F03AFA190886F0E7A42BFBE5F03AFAD5
:101EB30018180986F0E7A4C5F02BFBE43AFA1908D1
:101EC300E7C5F0C6A426F6E5F03BFBE43AFA18862C
:101ED300F0E7A4F6E5F00826F6E43B08F6E43A0852
:101EE300F6D0E0FBD0E0FA22E4CFC0E0E4CEC0E0DD
:101EF300E4CDC0E0E4CCC0E075F020C3E633F608DF
:101F0300E633F608E633F608E633F6181818EC332A
:101F1300FCED33FDEE33FEEF33FFC3EC9709ED9792
:101F230009EE9709EF97191919400FFFEC97FC0970
:101F3300ED97FD09EE97FE191906D5F0BEECF709EA
:101F4300EDF709EEF709EFF7191919D0E0FCD0E026
:101F5300FDD0E0FED0E0FF22181818E4C396F6087F
:101F6300E496F608E496F608E496F6226016080866
:101F730008C6C313C618C613C618C613C618C61395
:101F8300C6D5E0EA22700908080822601618181856
:101F9300C6C333C608C633C608C633C608C633C667
:101FA300D5E0EA22E627F60809E637F60809E63718
:101FB300F60809E637F622E026F608A3E036F60827
:101FC300A3E036F608A3E036F622E026F008A3E005
:101FD30036F008A3E036F008A3E036F022C3E69714
:101FE300F60809E697F60809E697F60809E697F66C
:101FF30022C3E096F008A3E096F008A3E096F00869
:10200300A3E096F022E056F608A3E056F608A3E014
:1020130056F608A3E056F622E056F008A3E056F081
:1020230008A3E056F008A3E056F022E647F60809B5
:10203300E647F60809E647F60809E647F622E0F61A
:1020430008A3E0F608A3E0F608A3E0F622E6F0080A
:10205300A3E6F008A3E6F008A3E6F022E0FAA3E083
:10206300FBA3E0FCA3E0FD22EAF0A3EBF0A3ECF07A
:10207300A3EDF022CAC0E0E6F0A308DAFAD0E0FA52
:1020830022CAC0E0E0A3C582CCC582C583CDC58387
:10209300F0A3C582CCC582C583CDC583DAE6D0E083
:1020A300CA22C3E498F8E499F91220E68026C3E42F
:1020B3009AFAE49BFBE920E7E91220E6E498F8E4C6
:1020C30099F922C3E498F8E499F91220E6E498F820
:1020D300E499F9C3E49AFAE49BFB22EB20E7CFE906
:1020E30020E7E0B90010BB0008E88AF084F8AAF002
:1020F30022E4FBC8FA22EB70227B10C833C8C93331
:10210300C9335007C39AC3DBF280069A50012ADB16
:10211300EAC833F4C8C933F4C9FA2275F008E4C82D
:1021230033C8C933C933C99AC99B5004C92AC93BA7
:10213300D5F0ECFBC833F4C8E4C9FA22600D08C635
:10214300A2E713C618C613C6D5E0F322600C08C66F
:10215300C313C618C613C6D5E0F422700422600D5B
:1021630018C6C333C608C633C6D5E0F418222518EB
:1021730010AF08F518400215198008F5184002152C
:1021830019D2AF22C0D0251810AF08F51850020598
:10219300198008F51850020519D2AFD0D02225189E
:1021A300F58210AF08F518400215198008F518409C
:1021B300021519D2AF851983222518F582E4351942
:1021C300F58322E4732518C582C0E0E51934FFC501
:1021D30083C0E0E518C3958224F810AF08858319FE
:1021E3008582188008858319858218D2AFCEF0A323
:1021F300E520F0A37808E608F0A3DEFAEFF0A3E504
:102203008124FAF8E608F0A3E608F0A3E608F0A3B1
:102213000808E608F0A3E608F0A315811581D0E0CD
:10222300FED0E0F8158115811581E8C0E0EEC0E02D
:10223300222518C582C0E0E51934FFC583C0E0E557
:1022430018C3958224F910AF0885831985821880F5
:1022530008858319858218D2AFCEF0A3E520F0A3B9
:102263007808E608F0A3DEFAEFF0A3E58124FBF893
:10227300E608F0A3E608F0A30808E608F0A3E608DA
:10228300F0A315811581D0E0FED0E0F8158115810A
:10229300E8C0E0EEC0E022851983851882E0A3FE42
:1022A300E0A3F5207808E0A3F608DFFAE0A3FFE057
:1022B300A3C0E0E0A3C0E0E0A3C0E0E0A3C0E0E08F
:1022C300A3C0E010AF088582188583198008858232
:1022D30018858319D2AFD083D08202013585198343
:1022E300851882E0A3FEE0A3F5207808E0A3F608B2
:1022F300DFFAE0A3FFE0A3C0E0E0A3C0E0E0A3C0F7
:10230300E0E0A3C0E010AF08858218858319800838
:10231300858218858319D2AFD083D08222C0D0257D
:1023230018C582C0E0E51934FFC583C0E0E518C3D2
:10233300958224F310AF0885831985821880088558
:102343008319858218D2AFC8F0A3E9F0A3EAF0A3FA
:10235300EBF0A37908E709F0A3D8FAECF0A3EDF0CA
:10236300A3EEF0A3EFF0A3D0E0F0A3D0E0F0A3D06E
:10237300E0F0A3E520F0A3E5F0F0A322851983851F
:102383001882E0C0E0A3E0F9A3E0FAA3E0FBA3789E
:1023930008E0F608A3DFFAE0FCA3E0FDA3E0FEA358
:1023A300E0FFA3E0C0E0A3E0C0E0A3E0F5D0A3E03A
:1023B300F520A3E0A3F5F010AF08858319858218F3
:1023C3008008858319858218D2AFD082D083D0E06C
:1023D300F8D0E03274048006740280027401C0E015
:1023E300F4041221A1D0E012207722740480047433
:1023F300028000CCC0E0EDC0E0E518C39CCCAD1971
:1024030050011D10AF068C188D1980068C188D197C
:10241300D2AF122084D0E0FDD0E0FC22D083D08262
:10242300E9C0E0E493A3C386F0C5F095F0F908E4AE
:1024330093A386F0C5F095F0700BE493A3C3994082
:1024430005E9048002A3E475F002A42582F582E580
:10245300F03583F583D0E0F9E493A3C0E0E493C0BF
:10246300E022D083D082ECC0E0EDC0E0E493A3FC93
:10247300E493A3FDED4C600D1224B1EC24FFFCEDBD
:1024830034FFFD80EFE493A3FCE493A3FDED4C60E4
:102493000D1224F0EC24FFFCED34FFFD80EFD0E0BF
:1024A300FDD0E0FCE493A3C0E0E493C0E022C0E0ED
:1024B300C3E49396087401939618400FE4936670EF
:1024C3000808740193661870007019A3A3C3E493FA
:1024D30096087401939618A3A3400DD0E0D0E0D0E2
:1024E300E00224A1A3A3A3A3A3A3D0E022C0E0C03E
:1024F300F088F0E49366700808740193661870001E
:10250300A8F0A3A3700BD0F0D0E0D0E0D0E0022479
:08251300A1A3A3D0F0D0E02247
:10251C0074F5122234EAFEEBFFEE2434F8EF3400AB
:10252C00F988088909EE2435F582EF3400F583E04B
:10253C00F8EE2437F582EF3400F583E0F50AEC85EC
:10254C000AF0A4FCAAF0850AF0EDA42AFDE82CF808
:10255C00E43DF97A257B001220E6EA85088285099C
:10256C0083F05407F87401B800028004C333D8FC1C
:10257C00C0E0E0131313541FF8EE28F8EF3400F901
:10258C00E8245DF582E93400F583D0E0F8E058608A
:10259C0008EE2434F582EF801EEE2436F582EF34FB
:1025AC0000F583E0F5F0EA84A8F0EE28F8EF3400AB
:1025BC00F9E82438F582E93400F583E0F97F040268
:1025CC0022E074F5122234EAFEEBFFEE2434F5829D
:1025DC00EF3400F583E0C0E0EE2435F582EF3400F3
:1025EC00F583D0E0F08E828F83A3A3A3A3A3A3A330
:1025FC00C082C0838E828F83A3A3A3A3A3E0F8A37E
:10260C00E0F9D083D082E0C398F508A3E099F509EE
:10261C00EE2480F582EF3400F583E064017069EEFE
:10262C002481F582EF3400F583E0F8A3E0F98E8283
:10263C008F83A3A3A3A3A3A3A3E0FCA3E0FD8E829B
:10264C008F83A3A3A3A3A3E0FAA3E0FBC3EA9CEBB1
:10265C009D5027C3EC98ED99402EC3EA98EB995006
:10266C00277CFD7D04EEFAEFFB120D0DEE2480F5B8
:10267C0082EF3400F583E4F0800EC3EA98EB9940C6
:10268C00E0C3EC98ED9950D9EE2434F8EF3400F90E
:10269C00E8FCE9FDEE2435F582EF3400F583E0F833
:1026AC00EE2437F582EF3400F583E0F50AE5088572
:1026BC000AF0A4F508AAF0850AF0E509A42AF509A0
:1026CC00E82508F8E43509F97A257B001220E6EABA
:1026DC008C828D83F05407F87401B800028004C317
:1026EC0033D8FCC0E0E0131313541FF8EE28F8EFB6
:1026FC003400F9E8245DF582E93400F583D0E0F884
:10270C00E0586008EE2434F582EF801EEE2436F596
:10271C0082EF3400F583E0F5F0EA84A8F0EE28F8B7
:10272C00EF3400F9E82438F582E93400F583E0F958
:10273C00122FC90225C9C082C083851882851983CE
:10274C00E0F8A3E0F9C3EA9CEB9D5012C3EC98EDC2
:10275C00994019C3EA98EB99501279018010C3EA99
:10276C0098EB9940F5C3EC98ED9950EE7900D08335
:10277C00D08222EAC39CFAEB9DFB2200852187853F
:10278C0022C622C0E0C0D0E8C0E0E9C0E0EAC0E068
:10279C00EBC0E0ECC0E0EDC0E0C008C009C00AC06E
:1027AC000BC082C083C0F0759B00906182E0A2E6F2
:1027BC00400302286DE591A2E6400302286D759155
:1027CC00BF9003C2E064057008120E45120E5180D2
:1027DC0003120E4B752100120EABE99003C3F07976
:1027EC0000120E9F120C837A017B009003C1E0F95A
:1027FC001211DB907803E0644260030228B6900566
:10280C005FE014F060030228B6C2AF12281A0078F9
:10281C002AD0E0F618D0E0F6E59F5407F970059041
:10282C00865A80039086567808122041E9C4C0E08D
:10283C007829E65508F50808E65509F509740B786A
:10284C000812214FD0E02508F8906270E0A2E74012
:10285C00F8E8C333906272F0906270E0D2E0F080DE
:10286C0049E0A2E55024E591A2E5501E7591DF9058
:10287C0003C2E0640D70139003E4E004F06428706C
:10288C0002E4F07A00E0F9120F1D906181E0A2E3FE
:10289C005009E5E9A2E3500375E9F7A3E0A2E7507C
:1028AC0009E591A2E7500375917FD0F0D083D082D7
:1028BC00D00BD00AD009D008D0E0FDD0E0FCD0E09D
:1028CC00FBD0E0FAD0E0F9D0E0F8D0D0D0E032C0C4
:1028DC00E0C0D0C082C083906183E0A2E05009E5E3
:1028EC00BFA2E0500375BFFEE0A2E15009E5BFA214
:1028FC00E1500375BFFDE0A2E25009E5BFA2E25032
:10290C000375BFFBE0A2E35009E5BFA2E3500375DA
:10291C00BFF7E0A2E45009E5BFA2E4500375BFEF96
:10292C00E0A2E55009E5BFA2E5500375BFDFE0A2C8
:10293C00E65009E5BFA2E6500375BFBFD083D08235
:10294C008088C0E0C0D0E8C0E0E9C0E0EAC0E0EBBD
:10295C00C0E0ECC0E0EDC0E0C0F0E5A7A2E6500F8F
:10296C00E5A1A2E6500953A7BF75A1BF1229B3E593
:10297C00A7A2E5500CE5A1A2E5500653A7DF75A16F
:10298C00DFE5A7A2E15009E5A1A2E1500375A1FD85
:10299C00E5A7A2E2500CE5A1A2E2500653A7FB75F5
:1029AC00A1FBD0F00228C474F812223475210190D6
:1029BC0003C2E064067015120DD98A828B83A3A31F
:1029CC00A3A3A3A3E0FAA3E0FB120E33A2AFE4335C
:1029DC00FED2AF9003C8E0640170187A207B00909F
:1029EC0003C1E0F912125F7A207B009003C1E0F979
:1029FC001211E1906182E0D2E6F090055EE0602178
:102A0C0085C62280169003C7E064017008E5C654A1
:102A1C00F84405F5C653BEFC122788740165216085
:102A2C00E4EEA2E092AF7F010222E0008E238F241D
:102A3C00858228858327851882851983E0CEA3E0BB
:102A4C00CF852882852783EBC9EAC8EDCBECCA7504
:102A5C00F010C3E833C8E933C9EA33CAEB33CBC34C
:102A6C00EA9EF526EB9FF525B35004AB25AA26EC80
:102A7C0033CCED33CDD5F0DAAE23AF242274EB1288
:102A8C00223474FA1221718A088B098C148D1590DA
:102A9C0003C2E024F7C3940550069086CE022BEBBC
:102AAC00120DD98A0A8B0BAE0AAF0BEE4F700302D4
:102ABC002BE8AC08AD09851882851983AA82AB83F3
:102ACC00120E638E828F83A3A37808122041908606
:102ADC008E7808122008851882851983780C1220AC
:102AEC004190868E780C1220087808790C121660AA
:102AFC00501F7808790C121FE09086B278081216D5
:102B0C00804047850810850911850A12850B1380B2
:102B1C0041850C10850D11850E12850F13781079D7
:102B2C0008121FE09086B27810121680501C751097
:102B3C00007511007512007513017810790C121FB5
:102B4C00E078107908121FA780089086CE781012B2
:102B5C00204174097810121F889086D278081220B0
:102B6C004178107908121EEB8E828F83A3A3A3A346
:102B7C00A3A3E0F8A3E0F97AD07B031220E688083F
:102B8C008909E4F50AF50B78107908121FA774046B
:102B9C001221BCE0F8A3E0F97AD07B031220E6E81E
:102BAC00FA8A08E4F509781079081216605007784B
:102BBC00107908121FE09003C2E06408600AE06418
:102BCC00066005E06405701C9086E2781012168091
:102BDC0050129086EA7810121FBA800890869E7860
:102BEC0010122041851482851583781012205074A0
:102BFC00061221877F0E0222E074F7122234120E85
:102C0C007590055CE064017010906245E4F0A3F0EF
:102C1C0053F4F343FE0C5390F3120E21E5C654808B
:102C2C004449F5C6E59E547F644970F890618574FB
:102C3C000FF090055AE0F47002A3E0604E90055B33
:102C4C00E0600814601B14602E8040750801750943
:102C5C000090055AE0780812215EE508F452808055
:102C6C002A75080175090090055AE0780812215E52
:102C7C00E508F45290801475080175090090055A06
:102C8C00E0780812215EE508F452A079007F020278
:102C9C0022E074F7122234E9FEEAFF74016E700C24
:102CAC007A807B009003C1E0F91211DB90303CE498
:102CBC0093F46008E493F9120C77800953C680E50D
:102CCC009E547F70FA120E2790055CE0640170032D
:102CDC00120C8F90055AE0F47002A3E0604B900543
:102CEC005BE0600814601A14602C803D7508017557
:102CFC00090090055AE0780812215EE508428080B0
:102D0C002875080175090090055AE0780812215EB3
:102D1C00E5084290801375080175090090055AE08A
:102D2C00780812215EE50842A0120E75120DD98AA0
:102D3C00088B09A808A909E8496015E5E170FCE8C9
:102D4C002414F582E93400F583E0F46003E0F5E146
:102D5C0074016F700A7A019003C1E0F912122F020C
:102D6C002C9974F11222348A088B098C0A8D0B74FD
:102D7C000F1221BC780C12204190868E78081220FC
:102D8C000890868E780C1220087808790C12166040
:102D9C0050157808790C121FE09086B2780812163C
:102DAC0080401579018013780C7908121FE0908609
:102DBC00B2780C12168040EB79007F080222E07486
:102DCC00ED1222348A088B098C0A8D0B7413122194
:102DDC00BC780C12204190868E78081220089086C0
:102DEC008E780C122008780C790812166040117835
:102DFC0008790C121FE0AA08AB09AC0AAD0B8022B3
:102E0C007510007511007512007513017810790C8E
:102E1C00121FE078107908121FA7AA10AB11AC1280
:102E2C00AD137F0C0222E090868E78081220418A26
:102E3C00828B83780812201B7F040222E074F51227
:102E4C0022348C828D8378081220418A828B83787D
:102E5C0008121FF4EA2404F8EB3400F98C828D83F9
:102E6C00A3A3A3A3E0FCA3E0FD88828983C3E09C19
:102E7C00F0A3E09DF088828983C3E09420A3E094C2
:102E8C004E402290867278081220418A828B837879
:102E9C0008121FCD8A828B83A3A3A3A3E02420F066
:102EAC00A3E0344EF0808074F5122234E9FE9005D4
:102EBC0014E0FAA3E0FBEEC333F8E433F974EE2824
:102ECC00F582748339F583E02AF508A3E03BF50914
:102EDC0078081223DB9086DA12205F122A387402EB
:102EEC001221878A088B098C0A8D0B7410780812B2
:102EFC001F6FAA08AB097F040222E074F11222347E
:102F0C008A0C8B0D8C0E8D0F740F1221BCE0FAA362
:102F1C00E0FB74111221BCE0F508A3E0F509741371
:102F2C001221BCE0FEA3E0FF78081223DBEA2401A7
:102F3C00F508EB3400F509E4F50AF50B780C790883
:102F4C00121E6B9086F27808122041780C790812C8
:102F5C001E6BAA0CAB0DAC0EAD0F122A38740212FC
:102F6C0021878B09EA450960047A0180027A00EC1A
:102F7C002AFCED3400FDECF8EDF97A717B0212209D
:102F8C00E688088909E4F50AF50B8E828F837808A8
:102F9C00122050ECF8EDF97A717B021220E68A08C7
:102FAC008B097405780812215E8E828F83A3A3A3EC
:102FBC00A3E508F0A3E509F07F080222E0C082C077
:102FCC0083E9906000F0D083D08222C0E074F212CA
:102FDC002320A2AFE433FED2AFE589A2E150031265
:102FEC00140F758900C2C5751A00EEA2E092AF7F6E
:102FFC000102237FC0E074F2122320A2AFE433FE5F
:10300C00D2AFE58BA2E0500312140F758B00C2E80F
:10301C0080D5C0E0C0D0E8C0E0E5A8D2AFC2C7758B
:0E302C001A00A2E792AFD0E0F8D0D0D0E03288
:10303C00FFFFFFFFFFFFFFFFC082C083E9900ADCA8
:10304C00F00232C874F71221C8E99002E0F07C1843
:10305C007D037AFF7BFF1209AD9002E174FFF0A3B0
:10306C00F0A3E4F0A3F079051209359002E0E0F941
:10307C0012085D7ACB7B09120B8D023FD674F412C9
:10308C0021C88A088B09EB548060309002E0E0F98B
:10309C001211C38A0A8B0BAE0AAF0BEE4F60138E64
:1030AC00828F83E064B0700312094DEEFAEFFB12CD
:1030BC0011B1AA08E5096480FB80047A007B000248
:1030CC00329774F21221C874FC122171EAFEEBFFE4
:1030DC0074121221BC1244BDEE4F70030231717494
:1030EC00021221BCEEF0A3EF1234D2ECF0A3ED12DD
:1030FC0034D2AA82AB83120857E9F50A706AE50844
:10310C00450960648E828F831244A3EE4F60567A19
:10311C00067B001212178A0C8B0DA80CA90DE8491E
:10312C007005750A13804188828983E412317EEE22
:10313C00F0A3EF1244CEE508F0A3E509F09002E607
:10314C001232059002E67005123F80801B123F6E12
:10315C008003EAFCEBFD8C828D8312320570F38CBC
:10316C00828D8380E3750A02A90A740412218702F6
:10317C0046BDF0A3124474A32274F21221C8890A2A
:10318C00E975F017A4FEAFF09002E5E4F09002E3CD
:10319C00123205600A12121D9002E3E4F0A3F0EE65
:1031AC00FAEFFB1212178A088B09EA4509602FEE19
:1031BC00FCEFFD79001211999002E3E508F0A3E50C
:1031CC0009F07B0080081231EFE4F0A3F00BEBC3A5
:1031DC00950A40F2E50A9002E5F079008002791335
:1031EC000246BDEB75F017A4F8A9F09002E3E028B5
:1031FC00FAA3E0398A82F58322123C12EA4B22743C
:10320C00F41221C8740C1221BC124498FEE9FF750B
:10321C000800750900800CE5082401F508E509345F
:10322C0000F509C3E5089CE5099D503285080A851F
:10323C00090B7403780A12215EEA250AF8EB350BA8
:10324C00F988828983A3A3A3A3A3A3124055EE6597
:10325C000A7003EF650B70BFE8FAE9FB80047A0093
:10326C007B00802774F41221C87900EAA2E0501B7D
:10327C0075083675098678081223DB7C047D007A84
:10328C00DE7B0A12092F74021221877F0402229A14
:10329C00C082C0839002E61232CF601C8882898380
:1032AC00A3A3E06A7003A3E06B8882898370E8A310
:1032BC00A3A3A3123C0E80047A007B00D083D0829F
:1032CC000201351247A3E8492274EE1221C874FC9E
:1032DC00122171EAFEEBFF851882851983E4F0A3B5
:1032EC00F0EE2402123F60EE240512447BEE24041F
:1032FC00F50EEF123887E024FE603924FC6046247A
:10330C00FE605224FE605E24FE70030233E824FE4D
:10331C00700302344C24FE700302345B24FE7003F1
:10332C0002346A24FC700302347924FE70030234E4
:10333C00880234C59002FF7417F0A3E41234DA1239
:10334C0005D50234C5851882851983AC82AD8312EC
:10335C000953023495851882851983AC82AD83128A
:10336C000959023495850C08850D0974021221BC8B
:10337C00AC82AD83850882850983123C0E12087BD2
:10338C008A0C8B0DAC0CAD0DEC4D603BE4F50CF5E3
:10339C000D780C1223DB750CFF750D02780C1223C3
:1033AC00DB750C00750D03780C1223DB74081221ED
:1033BC00BC1223F212491F122187E9F50C700B1273
:1033CC003C041205ED800F750C018508828509837C
:1033DC001234C8123F80850C0802349874021221F2
:1033EC00BCAC82AD83850C82850D831239D9603CCF
:1033FC00850C82850D83A3A31223F27510FF751122
:10340C000278101223DB751000751103781012234B
:10341C00DB74081221BC1223F212491F122187E916
:10342C00F509700B123C041205F3800F7509018528
:10343C000C82850D831234C8123F80850908804C9C
:10344C00851882851983AC82AD8312095F803A8519
:10345C001882851983AC82AD83120965802B85187F
:10346C0082851983AC82AD8312096B801C8518820E
:10347C00851983AC82AD83120971800D8518828504
:10348C001983AC82AD83120977E9F508E508602948
:10349C008E828F83A3E06414601F850E82850F8358
:1034AC00E09002FF1234D212479F900300123F802B
:1034BC00E508A31234DA1205CF023E6F1247A3853A
:1034CC00188285198322F085188285198322F07C55
:1034DC00FF7D02850A82850B83123C122274EE1248
:1034EC0021C874FC1221718A0A8B0B8C0E8D0FEA89
:1034FC002405F508EB3400F5097C157D0079007A7C
:10350C00FF7B02121199E5082402F50CE50912441F
:10351C007E85188285198385821085831178101217
:10352C0023DB850882850983A3A3A3A31239D012B8
:10353C0023DBE5082405F510E5093400F5117810B6
:10354C001223DB850C82850D83123D2512087574C0
:10355C00061221878A108B11AE10AF11E50A2402D6
:10356C00F50AE50B123F63EE4F70030236A7801786
:10357C0074021221BC123C0E88828983EAF0A3EB00
:10358C00F09002FFE004F09002FFE0C394054003CA
:10359C000236A7E4F510F51178101223DB7510E84C
:1035AC0075110278101223DB7510E9751102781071
:1035BC001223DB74061221BC1223F27910EEFCEFFD
:1035CC00FD124921122187E9705E850882850983E5
:1035DC00A3A3A3A3A3A3A3E0F89002E8E068704818
:1035EC001239D01223DB7CE97D02E5082408FAE5C8
:1035FC00093400FB1211937402122187E960298EA1
:10360C00828F83A3A3A3A3123C0E9002FFE0F510BC
:10361C007402781012215E74002510F58274033543
:10362C0011F583EAF0A3EBF074021221BC85821031
:10363C0085831178101223DB74021221BC1223F241
:10364C00850C82850D83123C341221878A108B11D4
:10365C00AE10AF119002FFE0F510751100740278F6
:10366C001012215E74FF2510F874023511F988824E
:10367C008983A31232057003023573E8240308080A
:10368C0008E93400F9EE4F600302357C88828983A7
:10369C0074FFF0A3F09002FFE004F09002FFE060F2
:1036AC000A123C041205E17900800B850882850919
:1036BC0083123F77790A023E6F74EA1221C874FEB6
:1036CC001221718C128D13EA2405F50CEB124909A9
:1036DC001244A7750800750900EA2402F510EB34B2
:1036EC0000F51185188285198385820A85830B78EC
:1036FC000A1223DB850C82850D83A3A3A3A31238A6
:10370C009D1223DBE50C2405F50AE50D123F6378C9
:10371C000A1223DB850C82850D831238A1120875E1
:10372C0074061221878A0A8B0BEA450B7003023848
:10373C0042EA2404F50EEB1238871244A78A828BD6
:10374C0083A3A3A3E0F9851082851183123C186032
:10375C0003023842E4F514F51578141223DB7514C2
:10376C00E875150278141223DB7514E975150278C7
:10377C00141223DB74061221BC1223F27913AC0A47
:10378C00AD0B851082851183124927122187E9F52B
:10379C000960030238429002E8E0F8E5087009E09D
:1037AC002402900300F08014900300E0FCE8240253
:1037BC00FAE43400FBEA6C7001EB707E850882AA97
:1037CC00821239C794141239BF506B850E82850F43
:1037DC0083E0C0E074012A12387ED0E0F005088541
:1037EC000E82850F83A3E0C0E085080A7401250AC8
:1037FC0012387ED0E0F005089002E812389D1223B2
:10380C00DB7CE97D0285080A7401250A12389112C5
:10381C0021879002E8E02508F50874FF6E700374A8
:10382C00FF6F6012EE24010EEF3400FFE508C39425
:10383C001450030236EFE5086013123C2285108207
:10384C00851183123C0E1205E779008014E509708E
:10385C000375090A851282851383EEF0A3EFF0A994
:10386C000974021221877F0E02229A85080C7401BA
:10387C00250CF58274033400F583223400F50F8592
:10388C000E82F58322FA74033400FB121181740248
:10389C00221244DD22A3A31238A722123F6EFDEEA2
:1038AC00FAEFFB2274EE1221C874FE1221718C0EF9
:1038BC008D0FEA2405F50CEB12447E750B0090027B
:1038CC00FFE4F0F50AEA2402F508EB3400F5098070
:1038DC00449002FFE0FA9002E8E0F81239C794171E
:1038EC001239BF400D9002FFE0F87416C398900295
:1038FC00E8F01239D01223DB7CE97D0274002AFA3D
:10390C0074031238941221879002E8E0F89002FFB9
:10391C00E028F0050AE50C2416F582E50D12388234
:10392C00E0F8E50AC39850749002FFE0C394165077
:10393C006BE50AC333F8E433F9E50C28FEE50D39E1
:10394C00FF851882851983AC82AD838E828F83129A
:10395C0039D97008750B01123F738050E4F510F5DE
:10396C001178101223DB7510E875110278101223F0
:10397C00DB7510E975110278101223DB7406122125
:10398C00BC1223F279168508828509831249271205
:10399C002187E9F50B70030238DD80BB7CFF7D02CB
:1039AC00850882850983123C0E1205F9A90B740255
:1039BC00023E71E99400C365D03322EA28F8E4345E
:1039CC0000F9E822E0F510751100781022123E661D
:1039DC008A108B11AC10AD11EC4D2274EA1221C877
:1039EC0074FC1221718A0C8B0D8C128D13EA240538
:1039FC00F50AEB123F63750800750900E50A24020D
:103A0C00F510E50B3400F51174021221BC85820E01
:103A1C0085830F780E1223DB850A82850B83A3A383
:103A2C00A3A31244831223DBE50A2405F50EE50B50
:103A3C003400F50F780E1223DB851082851183126A
:103A4C003F69123C0812087574061221878A0E8B86
:103A5C000FAE0EAF0FE50C2402F50EE50D3400F59C
:103A6C000F80388882898374FFF0050812387774C8
:103A7C00FFF005089002E8E0F50C750D00780C12CB
:103A8C0023DB7CE97D0285080C7401250C1238912E
:103A9C001221879002E8E02508F508EE4F60278E8A
:103AAC00828F83A3A3A3E0F9850E82850F83123C3A
:103ABC0018EE240412447BE96027850C82850D8363
:103ACC00123BFA123F80E5087003023BE0123C22E5
:103ADC00850E82850F83123C0E1205FF7900023B86
:103AEC00F5E4F514F51578141223DB7514E8751547
:103AFC000278141223DB7514E9751502781412235D
:103B0C00DB74081221BC1223F27911EEFCEFFD8557
:103B1C000E82850F83124927122187E9F509709AC5
:103B2C00850882AA82EA9002E87009E024049003D6
:103B3C0000F08025E0F8900300E0F514E82404FC84
:103B4C00E43400FDEC65147001ED70811239C794FA
:103B5C00121239BF4003023AD9850C82850D83E0DD
:103B6C00C0E074012A12387ED0E0F00508850C8282
:103B7C00850D83A3E0C0E0123877D0E0123C3D8580
:103B8C00820C85830D780C1223DB74041221BC1279
:103B9C0023F2851082851183123C341221878A0C02
:103BAC008B0DAE0CAF0D85080C7401250CF874034D
:103BBC003400F9EE4F7003023A6F85188285198331
:103BCC00E088828983123C3DA3E0C0E0123877D0B4
:103BDC00E0023A7DE509700375090A850A82850BB6
:103BEC0083123BFA123F80A909740402386F124702
:103BFC00A3851282851383227CFF7D02850A828530
:103C0C000B83123C1222E0FAA3E0FB22123C1212AC
:103C1C000863E9F50922900300E0F5F0E5088490CB
:103C2C0002FFF07CFF7D02221238A7120881740477
:103C3C0022F005088518828519832274EC1221C89C
:103C4C0074FE1221718A088B098C0E8D0FEA2405E3
:103C5C00FEEB3400FF123E50EE241812447BEA4572
:103C6C000B7003023CF3123E395029123D188A1096
:103C7C008B11EA4511606B7912AC0AAD0B85088289
:103C8C00850983123C0E8510828511831221C6E9A9
:103C9C00F50A7058E4F50AF50B780A1223DB8E82CC
:103CAC008F83A3A3E0F50A780A1223DBEE24031218
:103CBC003F60780A1223DB8E828F83123D25120916
:103CCC009B7406122187E9F50A7021850C82850DFB
:103CDC0083E0701F850882850983123C0E1206054D
:103CEC008011750A0E8009750A018004E50A6003CB
:103CFC00123F73850C82850D83E06004790080028D
:103D0C00A90A74021221877F0C02229A85188285D7
:103D1C001983123C1212098922123F6EFD8508820A
:103D2C00850983123C122274EE1221C874FE1221F2
:103D3C00718A088B098C0C8D0DEA2405FEEB34007E
:103D4C00FF750E00123E50EA450B7003023E17122F
:103D5C003E39502C123D188A0E8B0FEA450F604AE3
:103D6C007912AC0AAD0B850882850983123C0E854D
:103D7C000E82850F831221C6E9F50E6003023E1AEE
:103D8C00850882850983124055AA0AFB123E2B70C6
:103D9C00147AFF7BFF123E2B606C88828983E50AC4
:103DAC00F0A3E50BF0750A008007750E0E805F0519
:103DBC000A9002E5E0FAE50AC39A504AE50A75F062
:103DCC0017A4FAABF088828983A3A3E02AFAA3E0B4
:103DDC003BFB8A828B83123F69EC4D70D2750A17BC
:103DEC00750B00780A1223DBEEFCEFFD12118174C7
:103DFC0002122187EEFCEFFD850882850983123CB7
:103E0C000E12060B8014750E098003750E011247F5
:103E1C009B850C82850D83123F80A90E0239BA1244
:103E2C00097D8A108B11A810A911E84922E50824F4
:103E3C0002F508E5093400F5098A828B83A3A3A354
:103E4C00E0A2E522851882851983AC82AD838E822F
:103E5C008F83123E668A0A8B0B22E0FAA3E0FB12D8
:103E6C00087B2274041221877F0A02229A74EC12B6
:103E7C0021C88C108D11EA2405F50CEB12447E75CB
:103E8C000F00EA2402F50AEB123F63850A82F583E0
:103E9C00123C0E1249AD7003023F55750E00807135
:103EAC00850C82850D83E06401704F8E828F83A315
:103EBC00A31223F28E828F83A3A3A3A3E0F5127522
:103ECC00130078121223DBEE2405F512EF3400F503
:103EDC001378121223DB123C0812099B7406122170
:103EEC0087E9F50F6014850C82850D83E4F0124789
:103EFC009B851082851183123F807C177D00790091
:103F0C00EEFAEFFB1211998E828F83E4F0A3F00589
:103F1C000E9002E5E0F8E50EC398501EE50E75F024
:103F2C0017A4F8A9F0850882850983A3A312491365
:103F3C00123F69EC4D6003023EAC85088285098313
:103F4C0074FFF0A3F0E50F7006123C08120611A9DD
:103F5C000F023D13F50AEF3400F50B22A3123F6E4E
:103F6C00FD22E0FCA3E0228E828F831247A3850EF4
:103F7C0082850F83E8F0A3E9F022C082C08390020F
:103F8C00E1E06A7003A3E06B70067AE17B028004C7
:103F9C007A007B000232C874F71221C87F00EF75DB
:103FAC00F003A4F8A9F0EC28F8ED39F9888289839C
:103FBC00E06A7003A3E06B7006E8FAE9FB800B0F74
:103FCC00EFC3940240D87A007B007F0102229A74DE
:103FDC00F61221C812458C70067A007B008007A36C
:103FEC00A3A3A3123C0E02464D74F21221C8E9FEA3
:103FFC00740E1221BC12405574101221BC1244BD17
:10400C008C828D83E06402703BA312479F88828967
:10401C0083E0F50CA3E0F9A80C7402687003742912
:10402C00697021750C02750D00780C1223DB780871
:10403C001223DB780A1223DBEEF91209BF74061285
:10404C002187800279010246BDE0F50AA3E0F50B59
:10405C002274E81221C874FB122171E9851882853B
:10406C001983F08A168B178C0E8D0F741F1221BCBE
:10407C001244BD74211221BC12405574231221BC70
:10408C001244A77510008C828D83A3A3A3E0A2E435
:10409C00502A741D1221BC123D1E8A828B83E5822C
:1040AC0045837003024169790AAC0EAD0FAA16ABB9
:1040BC00171221C6E9F510600302416C850E82854A
:1040CC000F83E064026003024422A312479F850819
:1040DC0082850983A3858212858313E50E2406F558
:1040EC000CE50F12447E88828983E0FAA3E0F9EA9A
:1040FC002400F514E439F515781412246501000038
:10410C002801283141070002280842032878410081
:10411C0029324301295A430229014303293243041A
:10412C0029C3432244EE4F703E850C82850D8312C9
:10413C004498FAE9FB8A828B83E0850A82850B839B
:10414C001244D41223DB8A828B83A3123F6EFDAA06
:10415C0008AB091211817402122187800375100EAD
:10416C00A910740502490175100B80F4EE4F70F71D
:10417C00850A82850B837401F01244AD8508828513
:10418C000983F07C007D00850E82850F83A3A3A399
:10419C00A3E02401FAA3E03400FB12087BEA4B6095
:1041AC00418A828B83E02402F8850A82850B83E0A6
:1041BC0028F0EA2404F8EB3400F988828983E0853E
:1041CC0012828513831244E61244D41223DB8A82B2
:1041DC008B83123F68E5082403FAE5093400FB02DF
:1041EC00415F850A82850B83E02404F07C047D000A
:1041FC007900AA12AB1312119902416CEE4F6003B5
:10420C000241731244ADFEA3E0FF850A82850B8345
:10421C007404F0EE850882850983F0EF851282859F
:10422C001383F074031221BCAC82AD83EEFAEFFB66
:10423C0012457A70030242DE8A828B83A3A3124456
:10424C00A374011221BC85820E85830F780E122374
:10425C00DB74051221BC1223F27CFF7DFF12088156
:10426C0074041221878B0FEA450F7033850C8285FD
:10427C000D831244831223DB850C82850D83A312DC
:10428C0023F27C027D007A147B871206AD74041233
:10429C002187E9700A74011221BC74FFF0A3F08E1F
:1042AC00828F83E064027034750C02750D00780CFB
:1042BC001223DB8E828F83123F68E5082404FAE513
:1042CC0009123894122187850A82850B83E0240217
:1042DC00800974011221BCEEF0A3EFF074011221DD
:1042EC00BC124494F074011221BCA312448CA3A3FD
:1042FC00A3F002416CEE4F6003024173850C828582
:10430C000D83123F69AA16AB171209B3850A828571
:10431C000B837402F0EA850882850983F08512828A
:10432C00851383EB80CBEE4F60030241731244ADD7
:10433C00F8A3E0F9850A82850B837402F0E88508FE
:10434C0082850983F0E985128285138380A3850C0D
:10435C0082850D83123C0E12117BEAFC8C82A882A2
:10436C00C39EE49F404BE86E7001EF70047C0080AC
:10437C001F851882851983E0FAEE2AFAEF3400FBC8
:10438C00C3EA98EB94005003E08004EECCC39CFC91
:10439C00EC850A82850B83F08C0A750B00780A1267
:1043AC0023DB850C82850D83E02EFCA3E03F0241CC
:1043BC005A75100702416CEE4F6003024173850C75
:1043CC0082850D8312479F850A82850B837407F0C3
:1043DC008882898312448C124474E085128285137E
:1043EC0083F0E82402FAE93400FB8A828B831244BE
:1043FC008C1244C5124494A31244CE12449DF0E88E
:10440C002405F8E93400F98882898312449DA312AB
:10441C0044E6A30242FA741D1221BC1245857003B6
:10442C0002416912479F880C890DE8450D70030203
:10443C0041698E108F1178101223DB780A1223DB5E
:10444C0078081223DB74061221BCE0F9AC0EAD0F18
:10445C00AA16AB17850C82850D831221C674061221
:10446C002187E9F51002416CF088828983A322F53B
:10447C000CEF3400F50D22E0F50E750F00780E22CE
:10448C00E0850882850983221244ED221247A3E8B5
:10449C00221244EDA3A322A3A3A3A3E0FEA3E0FF57
:1044AC0022850C82850D83E0F8A3E0F5838882E0F9
:1044BC0022E0F508A3E0F50922A3A3F08A828B83FE
:1044CC00A322123180A3A322F08A828B831244DDB3
:1044DC0022E0F50A750B00780A221244741244ED9E
:1044EC0022E0850882850983A3A32274EE1221C8D9
:1044FC0074FE1221718A0A8B0BECFAEDFB74141208
:10450C0021BCE0F510A3E0F51174161221BCE0FEFD
:10451C0074181221BCE0F50EA3E0F50F8518828506
:10452C001983AC82AD8312457A603E851882851959
:10453C0083124585602FA3A31244BDE5084509608D
:10454C0024780E1223DB78101223DBEEF9AC0CADC1
:10455C000DAA0AAB0B8508828509831221C6740447
:10456C001221878006790E800279010239BA12086D
:10457C007B8A0C8B0DEA450D22123C1212458C22C3
:10458C001209478A828B83E58245832274F61221B5
:10459C00C874FE122171740C1221BC124498851837
:1045AC0082851983F074011221BCE9F0E4F508F559
:1045BC000978081223DB75080278081223DB7404CF
:1045CC001221BC85820885830978081223DB120925
:1045DC009B74061221877402122187806474F7126F
:1045EC0021C8EAFEEBFF89087C187D031209B3EAA7
:1045FC005402600BA908EEFAEFFB12086F800279E7
:10460C0001023FD674F61221C874FF6A700374FF5E
:10461C006B701C7B00EB75F003A4F8A9F0EC28F888
:10462C00ED39F91246520BEBC39402501480E6128A
:10463C0009838A088B09A808A909E849600312466E
:10464C00527F0202229A8882898374FF12317EE49F
:10465C00F02274F61221C81209838A828B83E582B8
:10466C0045836006A3A3E0FA80027A007B0080D128
:10467C0074F21221C88A088B09ECFEEDFF740E123D
:10468C0021BCE0F50A1246C2701CEEFCEFFD7AFF6D
:10469C007BFF1246C270047911801688828983E5EB
:1046AC0008F0A3E509F088828983A3A3E50AF079D1
:1046BC00007F0602229A1209838A0C8B0DA80CA982
:1046CC000DE8492274EE1221C8EAFEEBFF8C088D2E
:1046DC0009890C74121221BC12479F74141221BC4C
:1046EC00123F6974161221BC123C0E750D00EC4D74
:1046FC0060030247937402650C600302478E888244
:10470C008983123F6EF9EC2400F50EE439F50FEABB
:10471C00F4F8EBF4F9EC58F8E50F59F9E849705D49
:10472C00E5082406F8E5093400F9880A890B888223
:10473C00F5831238A31209B38A108B11E50E65109C
:10474C007004E50F65116042780E1223DB850A8236
:10475C00850B831238A31209B97402122187E9F56B
:10476C000D7027780E1223DB850882850983A3A39D
:10477C001238A11209D17402122187800D750D8097
:10478C008008750D0D8003750D0BA90D023E748EFE
:10479C00828F831247A322E0F8A3E0F92274E81277
:1047AC0021C874E7122171851882851983EAF0A358
:1047BC00EBF08C168D17890E74311221BCE0F512BA
:1047CC00A3E0F51374331221BCE0F514A3E0F51546
:1047DC0074351221BCE0F50F750800750900E50968
:1047EC0075F003A4F8A9F085188285198312491372
:1047FC00E0F47003A3E0F470030248F1EE2402F538
:10480C000CEF124909E070030248F185160A85176E
:10481C000B780A1223DBAC14AD15AA12AB131209D8
:10482C003B74021221878A0A8B0BEA450B70030238
:10483C0048F1E4F510F51178101223DB74061221FF
:10484C00BC85821085831178101223DB7409122128
:10485C00BC85821085831178101223DB851282852A
:10486C001383A3A3A3A31223F27914AC0AAD0B8E6A
:10487C00828F83124927122187E97069850A828504
:10488C000B83A3A3A3A312479F74021221BC123F54
:10489C0080850C82850D83E0A2E05018A90E74026D
:1048AC001221BCAC82AD838E828F83123C0E120817
:1048BC0093E94208850C82850D83E0A2E15026E540
:1048CC000FF50A780A1223DFA90E74031221BCAC6F
:1048DC0082AD838E828F83123C0E12088D7401126E
:1048EC002187E942080509E509C3940250030247F0
:1048FC00EAA90874191221877F1002229A3400F554
:10490C000D850C82F58322E028FEA3E039FF8E8210
:10491C008F83227916850A82850B83123C12120929
:10492C009574082274F21221C8EAFEEBFF890B740D
:10493C0001650B600E7402650B70637901120BAB91
:10494C00E9705BEEFAEFFB1249AD6047750A008027
:10495C000B7C177D007900121199050A9002E5E095
:10496C00F8E50AC3985021E50A75F017A4F8A9F0E8
:10497C00850882850983A3A3E028FAA3E039FB8A82
:10498C00828B831232CF70C985088285098374FFAC
:10499C00F0A3F07C187D03EEFAEFFB1209AD024692
:1049AC00BD12097D8A088B09EA45092274F212218D
:1049BC00C88A088B09ECFEEDFF740E1221BC124064
:1049CC0055900ADCE0F4603D7A097B001211ABEAE9
:1049DC004B60328A828B8374B1F0A3E41244C7A378
:1049EC001244C5A3E508F0A3E509124A14EEF0A39E
:1049FC00EF124A14A3A3E50AF0A3E50BF0900ADC2E
:104A0C00E0F91211B70246BDF08A828B83A3A3A3EF
:104A1C00A3A322C082C0839061907404F0A3744855
:104A2C00F0A37402F09061807440F09061BC740348
:104A3C00F09061877419F0906265741BF090619C22
:104A4C00740DF090619A7433F0A37455F09061A0DA
:104A5C00743AF090055CE064017009C2919003C651
:104A6C00746780059003C67461F0903042E49390B3
:104A7C006186F090303CE493F46027E493540FF893
:104A8C00906185E0686012E5C654804449F5C6E53E
:104A9C009E547F644970F8E8F053C680E59E547FBD
:104AAC0070FA7905120EFF024C61C082C083E95482
:104ABC000FF9906185E0696012E5C654804449F5B0
:104ACC00C6E59E547F644970F8E9F053C680E59EB4
:104ADC00547F70FA024C61C082C083E5A8F853A8D9
:104AEC007E906181E4F0A3F0A3F0C2BA539AFEC2A7
:104AFC0089759B00C2C275E90075910075BF007580
:104B0C00A91175B905906181F0A374C0F0A3E4F00C
:104B1C00D2BA439A0174805842A8024C61C082C038
:104B2C008374F81221719003C4E0F8A3E0F9E8490A
:104B3C007003024C579003C4E054406023790885FD
:104B4C001882851983AA82AB83120D67851882851A
:104B5C001983AA82AB83120A3D9003C4E054BFF0C0
:104B6C00E054806010790C7A807B05120D679003FD
:104B7C00C4E0547FF0E0A2E0503190619A7433F0BD
:104B8C00A37455F09061A0743AF090055CE0640158
:104B9C007009C2919003C6746780059003C6746156
:104BAC00F0120A439003C4E054FEF0E0540260316A
:104BBC0090619A743FF0A3745AF09061A0747FF0E6
:104BCC0090055CE064017009D2919003C674718009
:104BDC00059003C6746AF0120A439003C4E054FDB6
:104BEC00F0E054046013903040E493906186F0122E
:104BFC000A499003C4E054FBF0E054086013903071
:104C0C0041E493906186F0120A499003C4E054F792
:104C1C00F0E054106013903042E493906186F012EF
:104C2C000A499003C4E054EFF0E05420600A120AE1
:104C3C00499003C4E054DFF0A3E05401600D120C62
:104C4C008F120A4F9003C5E054FEF07408122187AE
:104C5C008003F0A3F0D083D08202013574EC1221D2
:104C6C00C874F4122171851882851983AC82AD83C6
:104C7C00758386758282740412208490304093F47C
:104C8C006003024DF5907808E0C394025003024D86
:104C9C00D574041221BCAC82AD8375838675820AEF
:104CAC007408122084851882851983858212858365
:104CBC001374041221BCAC82AD83750EFF750FFF0B
:104CCC007FFF7E00750C48750D78801574086E702A
:104CDC0003024D6874096E7003024D68740A6E60AD
:104CEC007B850C82850D8378081220418C828D8304
:104CFC00A909E50AC9F8881074187808121F6FE51D
:104D0C00104508F8C3E098A3E099850C82850D83C3
:104D1C00780812204140188C828D83741878081200
:104D2C001F6FE5104508F8E0C398F8A3E0801C74E9
:104D3C00187808121F6FE5104508FAE9FB8C828D74
:104D4C0083E0F8A3E0F9EAC398F8EB99F9C3E89586
:104D5C000EE9950F5006880E890FEEFF0EE50C2418
:104D6C0004F50CE50D3400F50DEEC394135003025D
:104D7C004CD874FF650E700474FF650F60238F08A8
:104D8C007402780812215E74482508F5827478350F
:104D9C0009F5837808122041851282851383E50872
:104DAC00F0EC24020C0CED3400FD8512828513838B
:104DBC00A3858212858313740C1221BCE5826C705E
:104DCC0003E5836D6003024CC67508017509007814
:104DDC00081223DB74021221BCAC82AD837A107BE7
:104DEC000C1213E57402122187740C1221877F0CAC
:104DFC0002229AC082C0839061AE7468F0A3746A78
:104E0C00F090624574FBF0A304F053F4FD43FE02F2
:104E1C0090055C7401F09061A0E0643A90619A7026
:104E2C00237433F0A37455F09061A0743AF07401BC
:104E3C0064017009C2919003C6746780289003C600
:104E4C0074618021743FF0A3745AF09061A0747F58
:104E5C00F0740164017009D2919003C674718005DD
:104E6C009003C6746A024C607F0402229AC082C00E
:104E7C008390050EE06401700A900513E0600479DC
:104E8C000C80027900024C61C082C08375E1F19004
:104E9C000511E06055146008146059146051805974
:104EAC00120CA1900507E0F97A087B05120E81908F
:104EBC00866612205F120EB79086FE12205F120ECD
:104ECC008D900512E0F9120E997901120EF39005EE
:104EDC0005E02416F8A3E03400F98882898374B9BC
:104EEC00F0A3740CF07900024C61120CA780B41280
:104EFC000CAD80AF120CB380AA791280EA74F41254
:104F0C0021C875D90D9004F6E0A2E0E4331313F830
:104F1C00900507E0C4333354C0484401F5D97805F3
:104F2C00790588828983A3A3A3E0F5D98882898334
:104F3C00A3A882A983E8640B7003E9640570E37885
:104F4C00F6790488828983A3E0F5D988828983A3C2
:104F5C00A882A983E864FC7003E9640470E575E138
:104F6C00959004F6E0F97AF77B04120E87900AFE0E
:104F7C00744DF0A3740CF0A374AFF0A3740DF0A3F4
:104F8C0074AFF0A3740DF0A374AFF0A3740DF0A381
:104F9C007453F0A3740CF0A374AFF0A3740DF0A3CE
:104FAC00746BF0A3740CF0900B0C74AFF0A3740D35
:104FBC00F0A374AFF0A3740DF0A374AFF0A3740D51
:104FCC00F0A374AFF0A3740DF0A374AFF0A3740D41
:104FDC00F0A374AFF0A3740DF0900505E0F8A3E016
:104FEC00F5838882A3A37808122041908662780802
:104FFC00121FBA90868E7808122008900505E024BE
:10500C000EF8A3E03400F9888289837808122050C6
:10501C00900505E02414F8A3E03400F98882898314
:10502C007413F09003C27402F0024E74C082C083F9
:10503C00900517E02407F5D9900507E0C4333354E5
:10504C00C0F5D97805790588828983A3A3A3E0F5F7
:10505C00D988828983A3A882A983E8640B7003E9A9
:10506C00640570E3900517E0601F78057905FAE890
:10507C002413F582E93400F583E0F5D9888289831D
:10508C00A3A882A9831AEA70E6900537E02407F5F5
:10509C00D9900507E0C4333354C04404F5D97805DE
:1050AC00790588828983A3A3A3E0F5D988828983B3
:1050BC00A3A882A983E8640B7003E9640570E390EC
:1050CC000537E0601F78057905FAE82433F582E9A5
:1050DC003400F583E0F5D988828983A3A882A9835B
:1050EC001AEA70E675E195900AFE7459F0A3740CF7
:1050FC00F0A374AFF0A3740DF0A374AFF0A3740D10
:10510C00F0A374AFF0A3740DF0A37453F0A3740C5C
:10511C00F0A374AFF0A3740DF0A3746BF0A3740C34
:10512C00F0900B0C74AFF0A3740DF0A374AFF0A35C
:10513C00740DF0A374AFF0A3740DF0A374AFF0A3CF
:10514C00740DF0A374AFF0A3740DF0A374AFF0A3BF
:10515C00740DF090867212205F900505E0240EF815
:10516C00A3E03400F98882898312206B900505E056
:10517C002414F8A3E03400F9888289837412F09027
:10518C0003C27401024C60C082C083900517E024F6
:10519C0007F5D9900507E0C4333354C04402F5D960
:1051AC007805790588828983A3A3A3E0F5D9888241
:1051BC008983A3A882A983E8640B7003E964057052
:1051CC00E3900517E0601F78057905FAE82413F5DC
:1051DC0082E93400F583E0F5D988828983A3A8821B
:1051EC00A9831AEA70E675E195900AFE7465F0A33E
:1051FC00740CF0A37465F0A3740CF0A37465F0A3A5
:10520C00740CF0A37465F0A3740CF0A37465F0A394
:10521C00740CF0A37465F0A3740CF0A3746BF0A37E
:10522C00740CF0900B0C74AFF0A3740DF0A374AF6E
:10523C00F0A3740DF0A374AFF0A3740DF0A374AFCE
:10524C00F0A3740DF0A374AFF0A3740DF0A374AFBE
:10525C00F0A3740DF090867212205F900505E02487
:10526C000EF8A3E03400F98882898312206B900534
:10527C0005E02414F8A3E03400F9888289837414BF
:10528C00F09003C27404024C60C082C08390051776
:10529C00E02407F5D9900507E0C4333354C0440625
:1052AC00F5D97805790588828983A3A3A3E0F5D97C
:1052BC0088828983A3A882A983E8640B7003E964BC
:1052CC000570E3900517E0601F78057905FAE8246E
:1052DC0013F582E93400F583E0F5D988828983A33C
:1052EC00A882A9831AEA70E6900537E02407F5D95D
:1052FC00900507E0C4333354C04404F5D9780579DC
:10530C000588828983A3A3A3E0F5D988828983A326
:10531C00A882A983E8640B7003E9640570E3900527
:10532C0037E0601F78057905FAE82433F582E93413
:10533C0000F583E0F5D988828983A3A882A9831A12
:10534C00EA70E675E195900AFE745FF0A3740CF0B8
:10535C00A374AFF0A3740DF0A374AFF0A3740DF0AD
:10536C00A374AFF0A3740DF0A374AFF0A3740DF09D
:10537C00A374AFF0A3740DF0A3746BF0A3740CF0D2
:10538C00900B0C74AFF0A3740DF0A374AFF0A37476
:10539C000DF0A374AFF0A3740DF0A374AFF0A3746D
:1053AC000DF0A374AFF0A3740DF0A374AFF0A3745D
:1053BC000DF090867212205F900505E0240EF8A384
:1053CC00E03400F98882898312206B900505E02473
:1053DC0014F8A3E03400F9888289837415F09003E3
:1053EC00C27403024C60C082C083900505E0F8A330
:1053FC00E0F5838882A3A3A3A3A3A3E4024C5E7469
:10540C00F71221C89003F0E0F875F004A4C8AAF0D4
:10541C002AF974F228F8740339F9E82405FAE93406
:10542C0000FB8A828B83E0FCA3E0FD88828983A346
:10543C00A3A3A3A3A3A3A3A3ECF0A3EDF088828959
:10544C0083A3A3A3A3A3A3A3E024FFF8A3E034FFA7
:10545C00F98A828B83E8F0A3E90256B074F7122123
:10546C00C8EAFEEBFF9061D0E0600302554575D9A8
:10547C000E75D90375D904EE248CF582EF3400F542
:10548C0083E5822408F8E5833400F9E0F5D9A3E834
:10549C0065827003E9658370F2EE2484F582EF3443
:1054AC0000F583E5822404F8E5833400F9E0F5D9AE
:1054BC00A3E865827003E9658370F275E19579085C
:1054CC00EE248CFAEF3400FB120D5B7904EE24848D
:1054DC00FAEF3400FB120D5B7C00EEF8EFF9ECFAFE
:1054EC00C3E49AFA95E0FBEE2AFAEF3BFBEA248B35
:1054FC00F582EB3400F583E0C0E0E824ABF582E9FB
:10550C003400F583D0E0F00C88828983A3A882A9AB
:10551C0083ECC3940840C7EE2470F582EF3400F599
:10552C0083E0F8A3E0F9EE2472F582EF3400F58302
:10553C00E8F0A3E9F07901800279000256B1C0824B
:10554C00C08375D90275D90375D90575E195EA241F
:10555C0070F582EB3400F583E0F8A3E0F9EA2472ED
:10556C00F582EB3400F583E8F0A3E9F07901024C05
:10557C006174F61221C8EAFEEBFF9005607406F028
:10558C0075086075090578081223DB7C0179031214
:10559C000DA3740212218775D90675D90375826023
:1055AC00758305E0F5D9A3E58264657004E5836431
:1055BC000570F075E1959003C2E06408701EEE244E
:1055CC0070F582EF3400F583E0F8A3E0F9EE247275
:1055DC00F582EF3400F583E8F0A3E9F07901025786
:1055EC007D74F61221C8EAFEEBFF9061D0E0706684
:1055FC007801900560740BF09003C2E06407701999
:10560C0075086075090578081223DB7C0179031293
:10561C000DA374021221877805740128F5D975D968
:10562C0003758260758305E8FAE0F5D9A31AEA7070
:10563C00F875E195EE2470F582EF3400F583E0F80F
:10564C00A3E0F9EE2472F582EF3400F583E8F0A3C1
:10565C00E9F079018002790002577D74F71221C8B4
:10566C00EAFEEBFF75D90375D90375D90DEE24DE6F
:10567C00F582EF3400F583E0F5D975E195790412E4
:10568C000EBDEE2470F582EF3400F583E0F8A3E054
:10569C00F9EE2472F582EF3400F583E8F0A3E9F01B
:1056AC0079018001F07F0102229A74F61221C8EA76
:1056BC00FEEBFF9061D0E0F87480C398FAEE24837F
:1056CC00F582EF3400F583E0600478048002780002
:1056DC00E8240BF8EAC398500302577B7D09900528
:1056EC0060EDF0EE24E3F8EF3400F97A617B057C91
:1056FC000888828983E08A828B83F088828983A3DD
:10570C00A882A9838A828B83A3AA82AB831CEC70A8
:10571C00E0EE2483F582EF3400F583E0601D75081C
:10572C006075090578081223DB7C097903EEFAEF22
:10573C00FB120DA374021221877D0D74012DF5D976
:10574C0075D9037582607583058D08E0F5D9A315AD
:10575C0008E50870F675E1957904120EBDEE241D6E
:10576C00F582EF3400F583E4F0A3F079018002793F
:10577C00007F0202229A74F61221C8EAFEEBFF9017
:10578C0061D0E0F87480C398FAEE2483F582EF348C
:10579C0000F583E06004780480027800E82408F8BF
:1057AC00EAC39850030258827D06900560740CF091
:1057BC009003DFE0900561F07AE07B037862790575
:1057CC007C028A828B83E088828983F08A828B8335
:1057DC00A3AA82AB8388828983A3A882A9831CECA9
:1057EC0070E07AE27B037C028A828B83E088828978
:1057FC0083F08A828B83A3AA82AB8388828983A35A
:10580C00A882A9831CEC70E0EE2483F582EF3400AF
:10581C00F583E0601D75086075090578081223DBB7
:10582C007C067903EEFAEFFB120DA37402122187AA
:10583C007D0A74012DF5D975D903758260758305C0
:10584C008D08E0F5D9A31508E50870F675E1957992
:10585C0004120EBDEE2470F582EF3400F583E0F8EF
:10586C00A3E0F9EE2472F582EF3400F583E8F0A39F
:10587C00E9F079018002790002577D74F61221C893
:10588C00EAFEEBFF9061D0E0F87480C398FAEE2446
:10589C0083F582EF3400F583E060047804800278AD
:1058AC0000E82404F8EAC398500302596178029086
:1058BC000560E8F0EE24F5F582EF3400F583E09016
:1058CC000561F0EE2483F582EF3400F583E0601B74
:1058DC0075086075090578081223DB7C027903EEE4
:1058EC00FA120DA374021221877806740128F5D9D7
:1058FC0075D9037582607583058808E0F5D9A31501
:10590C0008E50870F675E195EE2474F582EF340025
:10591C00F583E4F0EE2480F582EF3400F583E4F0B7
:10592C00EE241DF582EF3400F583E4F0A3F0790446
:10593C00120EBDEE240DF582EF3400F583E0F8A3D2
:10594C00E0F9EE2472F582EF3400F583E8F0A3E978
:10595C00F079018002790002577D74F61221C8900B
:10596C0061D0E0F87480C398FCEA2483F582EB34B0
:10597C0000F583E06004780480027800E82404F8E1
:10598C00ECC398405B79029005607407F0EA24F64A
:10599C00F582EB3400F583E0900561F0EA2483F5A1
:1059AC0082EB3400F583E0601875086075090578A2
:1059BC00081223DB7C0209120DA3740212218779D1
:1059CC0006740129F5D975D903758260758305E9CB
:1059DC00F8E0F5D9A318E870F875E1957901800223
:1059EC00790002577D74F51221C8E9FCA2AFE433AB
:1059FC00F50AC2AF7D0080010DEA246FF582EB340D
:105A0C0000F583E0F8EDC398501A8D08EA2508F8E4
:105A1C00EB3400F9E8246BF582E93400F583E06C93
:105A2C0070D68024EA246FF8EB3400F9E0FEEA2EFD
:105A3C00FAEB3400FBEA246BF582EB3400F583ECD3
:105A4C00F088828983E004F0E50AA2E092AF7F033C
:105A5C0002229A74F61221C8A2AFE433FDC2AFEA57
:105A6C00246FF582EB3400F583E014F07C00603693
:105A7C008C08EA2508F8EB3400F9E8246CF582E987
:105A8C003400F583E0C0E0E8246BF582E93400F5DE
:105A9C0083D0E0F00CEA246FF582EB3400F583E060
:105AAC00F8ECC39840CAEA246EF582EB3400F58317
:105ABC0074FFF0EA246AF582EB3400F583E4F0ED30
:105ACC00A2E092AF02577DC082C083E5A8F8C2AFB6
:105ADC00EA246BF582EB3400F583E9F0EA246AF5ED
:105AEC0082EB3400F583E4F0E8A2E792AF024C615C
:105AFC0074F31221C8EAFEEBFFECFAEDFB8A828B01
:105B0C0083A3A3A3A3E0541FF0EE2436F582EF3455
:105B1C0000F583E4F0F50AEEFCEFFD8A828B83E05E
:105B2C00C0E0EC245DF582ED3400F583D0E0F07537
