:020000040000FA
:0600000002011D02283A76
:03002B00022EEBB7
:03003300022ECDCD
:030053000228B0D0
:03006B00022EA4BE
:1000830002272BE5C754F84401F5C7790122000084
:100093000080FB120086B90003020107E47921788E
:1000A30008B800028004F709D8FCE479297802B87B
:1000B30000028004F709D8FCE4900281785B790898
:1000C3008002F0A3D8FCD9FA781A90014D7A01BACC
:1000D30000028007E493A3F608DAF99009DBAA8209
:1000E300AB8390014E787D79058015E493A3AC82B0
:1000F300AD838A828B83F0A3AA82AB838C828D83A8
:10010300D8E9D9E775825D7583D3740312012F751E
:100113008291758300740012012F75D00075813FA1
:10012300751881751902759F00020096C09FF59F8F
:10013300E473D09F22D083D082C09FE493C0E07445
:100143000193C0E0740293F59F2201FF0000B40005
:100153000028002800283075A000A000A000A000FF
:1001630000080008E001F00010001000100010006B
:100173001000100050005000500010001000D00775
:100183000000000000000F000100050030750700AB
:100193001000010081FF0000FFC807E607CE07FF3C
:1001A30002020208025000A0000000E80302BC940F
:1001B300010000819402B894010000300A02B29455
:1001C300010000B20202B894010000310A02B094A7
:1001D300010000C80202B894010000320A02AE9482
:1001E300010000CA0202B894010000330A02AC9471
:1001F300080000CB0202B894010000340A02AA945A
:10020300010000350AFF0100FF2002BC9401000039
:100213007E9402B894010000990A02A89400000099
:10022300000002DE940300001803F80DF80DF80D2A
:10023300F80DF80DF80DF80DF80DF80DF80DF80D93
:10024300F80DF80DCE10E610C810FFFF110199014B
:100253000F1264040102BC940100008D9402B8944F
:10026300010000E10A029894010000E20A02DE9410
:10027300030000840702A694010000E30A020202BD
:10028300020202020202010D000000100102BC94EE
:100293000100008A9402B8940100000D0B029C94A3
:1002A3000100008A0702B8940100000E0B029E941D
:1002B3000100002F9202B8940100000F0B02A094DA
:1002C300010000149202B894010000100B02A294E2
:1002D300010000679102B894010000110B02A4947D
:1002E3000100001F9102B894010000120B02B494A4
:1002F300010000559102B894010000130B02D89439
:10030300010000319102B894010000140B02DA9449
:10031300010000F89102B894010000150B029294B9
:10032300010000160B000101020203040405060686
:10033300070708090901E803053F10FF00013075AD
:10034300030201060000000000000000000000009E
:10035300000000000000000000000000000000009A
:10036300FFFF0600800CE80302010609414D4F4DD3
:10037300435502F0FF081600001A160A436861721B
:100383006163746572697374696320310002436841
:100393006172616374657269737469632032000802
:1003A300436861726163746572697374696320334E
:1003B3000010436861726163746572697374696381
:1003C3002034000A54656D7065726174757265201E
:1003D30055706461746520436F6E666967001A43E4
:1003E300757272656E742054656D70657261747593
:1003F3007265000A446576696365204E616D652008
:10040300436F6E666967000A54656D706572617447
:1004130075726520416C6572740002414443342057
:100423004144433520526561642056616C756520F3
:100433003134426974000A50574D20436F6E666928
:10044300670002BC94010000849402B89401000088
:100453000B0C02C494030000980902B69401000037
:100463000C0C02B8940100001D0C02C6940100009C
:10047300990902B6940100001E0C02B89401000011
:100483002F0C02C8940200009A0902B694010000DE
:10049300300C02B894010000410C02CA9400000021
:1004A3009B0902DE940300009C0902B6940100003C
:1004B300420C02B894010000530C02CC94030000D8
:1004C300A20902B694010000540C02B89401000082
:1004D3006E0C02CE94030000A70902DE9403000011
:1004E300AC0902B6940100006F0C02B8940100003D
:1004F300830C02D094030000B20902B694010000F9
:10050300840C02B894010000970C02D294030000FB
:10051300C70902B694010000980C02B894010000C8
:10052300AA0C02D494010000CC0902B69401000085
:10053300AB0C02B894010000C60C02D69403000071
:10054300CF0902B694010000C70C104B6579205007
:10055300726573732053746174650002BC94010067
:1005630000879402B894010000DA0D02949400000D
:1005730000D40902DE94030000D50902B6940100F9
:1005830000DB0D30313233343536373839414243AD
:1005930044454600286E756C6C20706F696E7465F7
:1005A3007229003F3F3F000000807F0000803FF939
:1005B300021550B743BA5100E7DB2E0000A04010EC
:1005C30000000008000000120138B3C10312013813
:1005D300CAC103120138F9C10312013832C203122E
:1005E30001385AC20312013888C2031201389FC26C
:1005F30003120138B6C203120138CCC20312013808
:10060300F3C20312013806C3031201381CC30312D9
:1006130001382FC30312013854C30312013875B1D3
:100623000212013874B202120138A9B2021201385F
:10063300CAB202120138DAB202120138FBB2021254
:10064300013807B402120138D4B40212013847B595
:1006530002120138CDB50212013810B60212013868
:1006630047B602120138CDB6021201389FB7021203
:100673000138FDB70212013815B8021201388FB8DC
:100683000212013892B80212013895B802120138E9
:100693003CB90212013854B90212013884B902126A
:1006A3000138A4B90212013892BA0212013848BBC8
:1006B30002120138928E03120138BA8E03120138E6
:1006C300E88E031201381F8F03120138878F03123C
:1006D3000138D08F031201381B900312013859904F
:1006E30003120138969003120138C49003120138A3
:1006F3006B91031201387591031201388291031231
:100703000138B591031201387792031201388392AD
:10071300031201389B9203120138A5920312013888
:10072300F2CE0312013800CF0312013818CF03129F
:10073300013830CF03120138A9C60112013847C767
:1007430001120138BFC701120138D4C801120138A0
:100753000EC901120138B7C9011201388CCA01123E
:100763000138F0CB0112013847CC01120138CECC4D
:1007730001120138B5CD0112013802CE0112013840
:1007830090CE01120138B4CE0112013889D0011282
:100793000138CAD001120138ECD0011201386DD1F1
:1007A3000112013857D2011201381DD30112013849
:1007B3004EEE0212013820EF02120138C9EF021285
:1007C30001380CF00212013899F00212013825F1B8
:1007D3000212013806F20212013835F20212013810
:1007E30031F30212013879F3021201387BF4021259
:1007F3000138BFF402120138E5F40212013857D26E
:10080300031201387BA30312013891A303120138A9
:10081300B7A303120138DFA403120138E9A40312BA
:10082300013842A60312013842A70312013800809F
:10083300031201383581031201386881031201382C
:10084300B2810312013870830312013893700012CE
:100853000138F670001201383B72001201384B72F6
:10086300001201386E7200120138B9720012013899
:100873005E73001201385474001201381E750012A1
:100883000138967600120138D8760012013876774F
:1008930000120138C37700120138E97700120138DA
:1008A300D77900120138DC7900120138BD7B0012C0
:1008B3000138117C00120138737C001201389B7CD3
:1008C300001201383F7D00120138017E0012013809
:1008D300327E00120138357E001201387D7E00120F
:1008E3000138BF7E00120138267F00120138A8B3F9
:1008F30003120138BBB303120138D4B30312013816
:100903001FB403120138FAB40312013889B5031274
:100913000138D4B503120138102F001201381C2FEF
:1009230000120138552F001201389A2F0012013896
:10093300513000120138D730001201383C31001217
:100943000138683100120138A13100120138B53382
:10095300001201389135001201387C37001201383A
:10096300B33800120138133B00120138FF3B001269
:100973000138453D00120138523E001201386F3EE6
:1009830000120138A73E00120138C13E001201389F
:10099300293F00120138C343001201386444001296
:1009A3000138B54400120138DC44001201382A45ED
:1009B300001201384845001201389C4500120138E5
:1009C300754600120138FC470012013884480012B2
:1009D3000138E88903120138F28903120138BD8A0C
:1009E30003120138D88A03120138FE8A0312013830
:1009F300428B031201387A8B03120138A38B031243
:100A030001381C8C03120138318C03120138468CD7
:100A1300031201387D8C03120138918C03120138C3
:100A2300C28C03120138FC8C03120138288D031287
:100A330001387E8D03120138D28D031201381B8ECB
:100A430003120138458E031201386A8E03120138EE
:100A5300AB9B03120138759C03120138589D031296
:100A63000138CE9D03120138109E031201383D9FB9
:100A730003120138D59902120138FE990212013886
:100A8300179A021201385C9B021201383A9C021237
:100A93000138599C02120138E69C02120138299D43
:100AA30002120138769E02120138159F0212013894
:100AB30094A1021201382BA202120138FFA20212E2
:100AC3000138E1A3021201384DA502120138E0A555
:100AD3000212013802CB031201386BCB0312013827
:100AE300BFCB03120138E6CB031201383A9303124A
:100AF3000138A79303120138F29303120138E794E4
:100B030003120138E39503120138CD96031201381D
:100B130057CE0212013899CE0212013873CF021256
:100B230001384CD00212013847D10212013826D2C3
:100B33000212013892D20212013859D3021201383B
:100B4300C4D3021201382BD40212013856D4021234
:100B53000138C7D4021201385AD502120138C3D55D
:100B630002120138D8D50212013820D602120138F8
:100B730039D6021201389ED602120138A1D60212CA
:100B83000138E2AA031201380AAB0312013848AB59
:100B93000312013806AC0312013871AC0312013899
:100BA3008DAC03120138B5AC03120138E5AC031266
:100BB3000138F4AC031201386EAD0312013894AD61
:100BC3000312013881B7011201381EB9011201382D
:100BD30004BB01120138CEBB0112013815BC01124E
:100BE30001385CBC011201386EBC01120138AEBC85
:100BF30001120138DDBC0112013829BD011201388F
:100C030061BD011201388FBD01120138E0BD01122F
:100C130001386FBE011201385DC10112013837C3BB
:100C23000112013873C301120138CDC40112013816
:100C330014C50112013889C501120138D7C5011243
:100C430001380EC60112013854C50212013871C5AC
:100C5300021201380BCB021201380DCC02120138FB
:100C630087CD0212013835CE02120138CB5C001257
:100C73000138145D00120138415D00120138745DC2
:100C830000120138815D001201388D5D00120138B8
:100C93009F5D00120138745E00120138D25E0012AB
:100CA3000138075F00120138A36000120138F060B9
:100CB30000120138146100120138816100120138F9
:100CC300266200120138E2620012013861630012E9
:100CD3000138256400120138346400120138B56408
:100CE300001201385465001201388665001201387C
:100CF3002166001201387F6600120138B9660012BE
:100D030001383A6700120138036800120138AC68F1
:100D1300001201383369001201388B69001201385F
:100D2300EC6900120138156A00120138CB6A00120F
:100D33000138156C00120138586C00120138756CBB
:100D430000120138946C00120138DF6C0012013874
:100D5300046D001201382D6D001201389C6D0012D4
:100D63000138DE6D00120138E26E001201387C6F2B
:100D73000012013848700012013861700012013806
:100D8300B3BB0212013806BC0212013812BC0212B4
:100D93000138E7BC021201380EBD0212013849BD09
:100DA30002120138B5BD02120138E9BD0212013841
:100DB30022BE021201383ABE0212013893BE021259
:100DC3000138ACBE02120138F5BE0212013808BF69
:100DD3000212013822BF0212013838BF0212013851
:100DE30054C00212013865C102120138B2C20212A4
:100DF300013897C302120138F07F00120138EF8CDB
:100E030002120138238D021201388E90021201382A
:100E1300D89102120138A292021201382C940212C4
:100E23000138079502120138419502120138649581
:100E330002120138A69502120138AF950212013849
:100E4300F99502120138039602120138AF96021285
:100E53000138839702120138D79702120138399863
:100E6300021201388C9802120138BB980212013821
:100E7300FA9802120138E294011201383C9D0112E2
:100E83000138429D01120138FDA201120138E3A687
:100E9300011201384CA703120138C2A7031201380B
:100EA300D8A70312013815A8031201384DA803125D
:100EB3000138CAA80312013805A90312013880A911
:100EC30003120138BCA903120138C5A90312013862
:100ED300D1A903120138EBA90312013810AA031296
:100EE300013826AA031201384FAA03120138B2AA05
:100EF300031201382685031201383985031201389C
:100F03005385031201387C8503120138BF85031210
:100F13000138FE85031201383C8603120138A1868D
:100F230003120138B68603120138C1860312013851
:100F3300CE8603120138E58603120138F3860312C5
:100F43000138FE86031201380A87031201381D8710
:100F5300031201382887031201384B870312013823
:100F6300F487031201380488031201381E88031220
:100F730001383B88031201385788031201387C88F3
:100F8300031201388688031201389A880312013844
:100F9300B988031201381A89031201382089031210
:100FA30001382689031201382C8903120138388944
:100FB300031201386B89031201380BF20112013855
:100FC3008DF20112013836F3011201387EF4011259
:100FD30001388CF60112013872F701120138A7F7B4
:100FE30001120138C9F70112013872F801120138F0
:100FF30042FA011201386BFA01120138E3FA0112C5
:10100300013815FB0112013822FB011201386DFB77
:101013000112013891FB01120138E2FD011201387E
:10102300ECFE0112013848FF0112013852D50112BA
:10103300013863D60112013847D70112013851D75D
:101043000112013873D7011201387FD70112013819
:1010530023D90112013850D90112013866DA01127D
:101063000138BBDA011201380ADC01120138DFDC76
:10107300011201383BDD01120138A6DD01120138EE
:10108300DBDD011201381EDE01120138E8E0011236
:10109300013800E10112013891E1011201389FE1A9
:1010A30001120138ECE101120138FAE101120138B1
:1010B30066E201120138E1E20112013838E301125C
:1010C300013857A60212013879A6021201388AA8FC
:1010D3000212013849AB0212013873AC0212013813
:1010E30031AD021201381DAE02120138FABF0312EC
:1010F30001381FC00312013895C00312013831E7CC
:10110300021201383AE70212013843E702120138AA
:101113001BE802120138CCE902120138FCE9021281
:10112300013827EA0212013857EA0212013882EA2B
:1011330002120138B6EA02120138E2EA0212013859
:1011430025EB0212013850EB0212013897EB021221
:101153000138ECEB021201382EEC0212013888EC54
:1011630002120138B3EC0212013802ED0212013807
:1011730032ED021201385DED021201388BED0212DD
:101183000138AEED02120138E0D2031201380CD35C
:101193000312013839D30312013843D30312013840
:1011A30053D3031201389DC603120138D2C603126A
:1011B30001381DC703120138FBDE0212013805DFB7
:1011C3000212013846DF021201388FDF02120138A2
:1011D300C9DF021201381FE00212013840E0021297
:1011E3000138EFE202120138F8E2021201384CE34F
:1011F3000212013875E3021201387FE3021201384B
:10120300EDE3021201387DE402120138D8E4021240
:10121300013806E5021201388EE502120138CDE5E8
:101223000212013802E60212013814E602120138F2
:1012330033E6021201383CE60212013803E70212D8
:10124300013819CD031201387FBA03120138B5BA38
:1012530003120138E9BA0312013836BC031201380C
:10126300C1D103120138D7D103120138E1D10312DE
:1012730001382BD20312013895FF011201385DFBAF
:101283000212013870FB0212013831FC02120138DC
:1012930070FC021201388DFC02120138C6FC0212E6
:1012A300013813FD0212013845FD021201387CFD9D
:1012B3000212013885FF02120138F1FF02120138D0
:1012C3002FC80312013852C80312013881C8031210
:1012D300013819C90312013831C90312013873C91E
:1012E30003120138DCAD0312013813AE03120138C7
:1012F3002AAE03120138D6AE031201386FAF0312C0
:101303000138F7AF03120138C4B003120138E9B052
:101313000312013813B1031201383FBE031201381F
:1013230057BE0312013893BE03120138D5BE031210
:10133300013825BF031201383DBF03120138B5D36D
:1013430003120138EB4800120138C94A0012013870
:10135300684C00120138134D00120138934D0012EE
:101363000138184E00120138414E001201381C5248
:1013730000120138935200120138AA5300120138A7
:10138300E453001201382554001201386C55001241
:101393000138C255001201380B56001201387A5633
:1013A30000120138E65600120138175700120138AF
:1013B3002F570012013848580012013858580012AC
:1013C30001380E5A00120138255A00120138575AB3
:1013D30000120138F95B001201388D5C00120138EC
:1013E300C9CF03120138DACF031201387AD00312BE
:1013F30001380BD4031201384AD403120138FDD447
:101403000312013810CE0312013820CE0312013823
:1014130038CE03120138ECCE0312013817CC031275
:1014230001389CCC0312013800CD0312013866C386
:10143300031201388FC303120138F2C303120138B8
:1014430012C40312013863C403120138BEC4031269
:101453000138F8C403120138FBC403120138979F03
:1014630003120138BC9F03120138D99F03120138BC
:10147300F69F031201381BA0031201383CA003128C
:10148300013866A00312013823A103120138A1A178
:1014930003120138C8A103120138D2A10312013883
:1014A300F7A2031201388F9703120138A69703128C
:1014B3000138209803120138049903120138DB9A8A
:1014C30003120138409B03120138979B0312013822
:1014D300F87F0012013845B803120138D5B9031259
:1014E300013836BA031201387CBA031201380ED51B
:1014F3000312013813D5031201381AD50312013828
:101503001CD50312013825D10312013827D1031248
:101513000138ABD103120138B6D10312013805C526
:101523000312013857C503120138CAC50312013823
:1015330037C603120138FEB50312013828B6031269
:101543000138F7B603120138D3B703120138C5D6F1
:101553000212013891D702120138D2D70212013890
:101563000CD8021201386AD802120138BED802120E
:1015730001381CD902120138B2D902120138BADA81
:101583000212013844DC02120138E2DC0212013893
:1015930049DD021201385CDD0212013850DE02120D
:1015A300013899DE021201380080021201383283B9
:1015B30002120138C384021201381A85021201385B
:1015C300378502120138B7850212013833870212B8
:1015D30001380288021201386F8B02120138598CCC
:1015E30002120138BCC903120138D0E301120138D9
:1015F30020E40112013834E401120138BCE701127E
:10160300013876E8011201381CE90112013879EA40
:1016130001120138A9EB011201383FED0112013823
:1016230040F101120138C2F1011201385AF50212D8
:101633000138AAF502120138C7F502120138B8F6CB
:1016430002120138C0F702120138B8F80212013849
:1016530019FB0212013870BC03120138B5BC031226
:10166300013809BD031201388EBD0312013806BECD
:10167300031201388AD40312013885D003120138CA
:10168300AFD00312013854D403120138B7D4031274
:101693000138DFD40312013832A70112013850ACEC
:1016A30001E066701008A3E066700A08A3E06670A4
:1016B3000408A3E06622C008C3E096F50808A3E087
:1016C30096420808A3E096420808A3E0964208A2BF
:1016D300D265D033E5087001D3D00822C3E796085A
:1016E30009E7960809E7960809E79622C3E09608F2
:1016F300A3E09608A3E09608A3E09622C008C3E0FF
:1017030096F50808A3E096420808A3E09642080865
:10171300A3E09645087001D3D00822080808E630F4
:10172300E711121FDA121736080808C64480C618D4
:10173300181822181818E9799EC608CAC608CBC615
:1017430008CCC6C370207996CACBCC7019798ECBDE
:10175300CC70137986CC700EF9802ACA33CACB3386
:10176300CBCC33CC331930E7F2CCCBCA3350147023
:1017730004EA30E00DE4CA3ACACB3BCBCC3CCC50B4
:101783000209C3E913C6CC182313C6CB18C6CA185B
:10179300C6F9221217D620F01430E72B74FFFCFB96
:1017A300FA747F8022E4FCFBFA7480801AB4800808
:1017B300BC00F2BB00EF800F50EBF9E4C39AFAE4EC
:1017C3009BFBE49CFCE499C6CC18C6CB18C6CA188C
:1017D300C6F922E4C9C608CAC608CBC6D333030870
:1017E300CCC63392F0C3947F402E94184019C9B9E4
:1017F3000704CACBCC225025C309CA33CACB33CB87
:10180300CC33CC33D9F422F4600DC9CCC313CB133E
:10181300CBCA13CAD9F6CC22E4FCFBFA2214FCFB94
:10182300FA22E6C33318461846184622E7C333198B
:10183300471947194722181818E6084608700AE698
:1018430008C3337005E633F4220822191919E7098E
:101853004709700AE709C3337005E733F422092205
:10186300E6084608C3134608336002E633F422E76A
:10187300094709C3134709336002E733F4221218F7
:101883006360251218726020121825700302182F46
:10189300080808E76670101819E766700A1819E750
:1018A3006670041819E76622F422121863601C128A
:1018B30018726017121825700712182F7001D3229F
:1018C300C0D012182F7006D0D0B322C32233D0D089
:1018D300501430E0F6C3E7960809E7960809E7963F
:1018E3000809E796B32220E0D5E6970809E69708AA
:1018F30009E6970809E697B322121863601B1218CA
:10190300726016121825700712182F600CB322C0CC
:10191300D012182F7005D0D022C32233D0D0501349
:1019230030E0EBC3E7960809E7960809E79608094C
:10193300E7962220E0E4E6970809E6970809E69788
:101943000809E6972200121863604F12187260129A
:10195300E7548066F6121839701112182F703B097C
:101963000909F4F618F618F618F62212184E70152F
:1019730012182508080860EAE6447FF618768018EE
:10198300E4F618F622121825601612182F7012E4C6
:10199300F608F608F608E65480F609090918181837
:1019A30022EAC0E0EBC0E0ECC0E0EDC0E0E687F087
:1019B300A4FBACF008E687F0A42CFCE435F0FA189D
:1019C30009E687F0A42C4B60027401CA35F0FCE4ED
:1019D30033FB09E687F0D2F7A42CCB35F0FC1908CA
:1019E300E687F0A42BCC35F0FBE433FD0819E6873A
:1019F300F0D2E7A42C4ACB35F0CD3400FC09E687BE
:101A0300F0D2E7A42DCC35F0FDE433FA0918E687CC
:101A1300F0D2F7A42CCD35F0CA3400FC08E687F0E9
:101A2300D2E7D2F7A42ACC35F07A7E20E70B0ACB93
:101A330033CBCD33CDCC33CC33CB3350147004ED17
:101A430030E00ED2F1E4CD3DCDCC3CCC3B5005DAB9
:101A530005C2F1EB547FC63308E63392F0FBE7335C
:101A630009E733C39A502D2B70190C0D4C4D70158B
:101A73001806E608C333700D20F10AA2F013F6E44A
:101A830018800B4024E4F630F002768018F618F63E
:101A930018F68024D33B14501074FFA2F013F618E9
:101AA3007680E418F618F6800FA2F013F618E633E2
:101AB30003F618ECF618EDF6D0E0FDD0E0FCD0E02C
:101AC300FBD0E0FA221218726046121863603DE9F7
:101AD300687008F618F618F618F622748067F7127D
:101AE3001AFC090909748067F722121863601D1232
:101AF30018727005191919801A121839701F1218E3
:101B03004EC37003E66733191919400718181822D2
:101B130008080874FFF618F618F618F62212184E7D
:101B2300601712182F702192F01218257019501790
:101B330020F014080808090909E7F61819E7F61848
:101B430019E7F61819E7F62212182560E6E8697016
:101B53001F0808E62480F608E436F618547FB47F9D
:101B63000CE654806007F6E418F618F622181822DB
:101B7300E9C6CC08C6CD08C6CE08C6CFC0E0E8C0CB
:101B8300E0EAC0E0EBC0E009E9F809E7FA09E7FB9E
:101B9300E6F918E6F8C3EC98ED99EE9AEBC2E7F58F
:101BA300F0EFC2E795F0500E600CEBCFFBEACEFAF4
:101BB300E9CDF9E8CCF8EAA2E7D2E7FAEB33FB1375
:101BC300F5F0EEA2E7D2E7FEEF33FFC5F013A2E78D
:101BD30030E601B313C5F0C3C0E0C0F07F00C39B80
:101BE300FB605B9418600C401AD0E023F9D0E0F856
:101BF300021CCB8AF0E9486003D2F0E4AFF0FAF9B3
:101C0300F8803BEB30E40D89F0EA6003D2F0E4AFF7
:101C1300F0F9CAF8EB30E30D88F0EF6002D2F0AFD1
:101C2300F0E4CAC9F8EB54076014FBC3EA13FAE9FA
:101C330013F9E813F8EF135002D2E0FFDBEDD0E025
:101C4300C0E030E739C3E49FFFF5F0EC98FC42F0C5
:101C5300ED99FD42F0EE9AFE42F0D0E0F9D0E0F8C3
:101C6300E5F0607AE923F9EE20E742D8028067C302
:101C7300EF33FFEC33FCED33FDEE33FE80EAEC286B
:101C8300FCED39FDEE3AFED0E023F9D0E0F8400256
:101C9300801BC3EE13FEED13FDEC13FCEF13500298
:101CA300D2E0FF08B800067F7F74FF802EEF335029
:101CB300178CF020F00260100CBC000C0DBD000866
:101CC3000EBE000408E860DFE933E813FFEE2313D8
:101CD300FE4F4D4C8008E95480FFE4FEFDFCEE33DB
:101CE300EF33F47004FCFD7E80D0E0FBD0E0FAD04B
:101CF300E0F8D0E0CFC618CEC618CDC618CCC6F9CA
:101D030022121863700418181822121872700D74B6
:101D1300FFF61819F61819F61819F622E754806613
:101D2300F6121825700F12182F70F014F608F60823
:101D3300F608F680D112182F700CF608F608768094
:101D430008E6447F80EC121851700C12183C60BFF7
:101D5300E65480F6E480BB12183C7005191919800B
:101D6300A5E869700C763F18768018F618F6E8F93E
:101D730022E6CDC0E018ECC0E0E633CD33CDD3137B
:101D8300F6E719FCE7191933CC33C3947F400ECD22
:101D93009D502408E65480F6E418F6800FF4043DC1
:101DA30014501408E6447FF6187680E418F618F603
:101DB300D0E0FCD0E0FD22CCD313CCFD18E4C6CB9D
:101DC300C0E018E4C6CAC0E00808ED08C633E6134D
:101DD300F618E433C675F003C3CA97CA09CB97CB89
:101DE300199C40047D08802EBD0003021EAD16B66B
:101DF300FF050606081618C3CA33CACB33CB33CA4A
:101E030027CA09CB37CB193CC37D08803E187D0810
:101E130020E75CC633C6CA33CACB33CB33DDF1D537
:101E2300F0EB30E77BCA97CA09CB974ACB199C40A2
:101E33006F4B7025E620E0218066187D08C3CA97A2
:101E4300CA09CB97CB199CD3C633C6CA33CACB3383
:101E5300CB3350C9DDE7D5F0E1D3E4C636C608C6B7
:101E630036C608C636C608C636C61818188031C323
:101E7300CA97CA09CB97CB199CB34097C633C6CA36
:101E830033CACB33CB33DD34D5F02EC6A2E0C64004
:101E9300C8CA27CA09CB37194A70BECB3CB480B92C
:101EA3000808E63308E633601F181818D0E0FAD0A4
:101EB300E0FBD0E0FCD0E0FD22187D08CA27CA0968
:101EC300CB37CB193CD3808013F618E4B67F11F6D9
:101ED30018B6FF0EF618C60470D20808768080CABA
:101EE300F618F618F680C5080808EAC0E0EBC0E06B
:101EF30086F0E7A4FA180986F0E7A42AFA180986F7
:101F0300F0E7A42AFA180986F0E7A42AFA1986F05A
:101F1300E7A4FBE5F02AFA190886F0E7A42BFBE512
:101F2300F03AFA190886F0E7A42BFBE5F03AFA1821
:101F3300180986F0E7A4C5F02BFBE43AFA1908E781
:101F4300C5F0C6A426F6E5F03BFBE43AFA1886F0A2
:101F5300E7A4F6E5F00826F6E43B08F6E43A08F6CB
:101F6300D0E0FBD0E0FA22E4CFC0E0E4CEC0E0E46E
:101F7300CDC0E0E4CCC0E075F020C3E633F608E65C
:101F830033F608E633F608E633F6181818EC33FC94
:101F9300ED33FDEE33FEEF33FFC3EC9709ED970905
:101FA300EE9709EF97191919400FFFEC97FC09ED0C
:101FB30097FD09EE97FE191906D5F0BEECF709ED6A
:101FC300F709EEF709EFF7191919D0E0FCD0E0FD96
:101FD300D0E0FED0E0FF22181818E4C396F608E418
:101FE30096F608E496F608E496F6226016080808C2
:101FF300C6C313C618C613C618C613C618C613C657
:10200300D5E0EA227009080808226016181818C6D5
:10201300C333C608C633C608C633C608C633C6D5D7
:10202300E0EA22E627F60809E637F60809E637F676
:102033000809E637F622E026F608A3E036F608A3F9
:10204300E036F608A3E036F622E026F008A3E036F1
:10205300F008A3E036F008A3E036F022C3E697F6D3
:102063000809E697F60809E697F60809E697F622BF
:10207300C3E096F008A3E096F008A3E096F008A367
:10208300E096F022E056F608A3E056F608A3E056E1
:10209300F608A3E056F622E056F008A3E056F0084F
:1020A300A3E056F008A3E056F022E647F60809E657
:1020B30047F60809E647F60809E647F622E0F60878
:1020C300A3E0F608A3E0F608A3E0F622E6F008A3EF
:1020D300E6F008A3E6F008A3E6F022E0FAA3E0FBAB
:1020E300A3E0FCA3E0FD22EAF0A3EBF0A3ECF0A352
:1020F300EDF022CAC0E0E6F0A308DAFAD0E0FA2253
:10210300CAC0E0E0A3C582CCC582C583CDC583F038
:10211300A3C582CCC582C583CDC583DAE6D0E0CA28
:1021230022C3E498F8E499F91221658026C3E49A5E
:10213300FAE49BFBE920E7E9122165E498F8E499C6
:10214300F922C3E498F8E499F9122165E498F8E4D4
:1021530099F9C3E49AFAE49BFB22EB20E7CFE92049
:10216300E7E0B90010BB0008E88AF084F8AAF0227F
:10217300E4FBC8FA22EB70227B10C833C8C933C909
:10218300335007C39AC3DBF280069A50012ADBEA75
:10219300C833F4C8C933F4C9FA2275F008E4C83364
:1021A300C8C933C933C99AC99B5004C92AC93BD585
:1021B300F0ECFBC833F4C8E4C9FA22600D08C6A2E8
:1021C300E713C618C613C6D5E0F322600C08C6C3CE
:1021D30013C618C613C6D5E0F422700422600D1886
:1021E300C6C333C608C633C6D5E0F4182225181073
:1021F300AF08F518400215198008F51840021519A3
:10220300D2AF22C0D0251810AF08F5185002051917
:102213008008F51850020519D2AFD0D0222518F541
:102223008210AF08F518400215198008F51840020E
:102233001519D2AF851983222518F582E43519F5CE
:102243008322E4732518C582C0E0E51934FFC583F2
:10225300C0E0E518C3958224F810AF08858319857B
:1022630082188008858319858218D2AFCEF0A3E542
:1022730020F0A37808E608F0A3DEFAEFF0A3E581E7
:1022830024FAF8E608F0A3E608F0A3E608F0A308AA
:1022930008E608F0A3E608F0A315811581D0E0FE57
:1022A300D0E0F8158115811581E8C0E0EEC0E02289
:1022B3002518C582C0E0E51934FFC583C0E0E518E1
:1022C300C3958224F910AF08858319858218800885
:1022D300858319858218D2AFCEF0A3E520F0A378C9
:1022E30008E608F0A3DEFAEFF0A3E58124FBF8E6A5
:1022F30008F0A3E608F0A30808E608F0A3E608F050
:10230300A315811581D0E0FED0E0F815811581E891
:10231300C0E0EEC0E022851983851882E0A3FEE0C9
:10232300A3F5207808E0A3F608DFFAE0A3FFE0A313
:10233300C0E0E0A3C0E0E0A3C0E0E0A3C0E0E0A30E
:10234300C0E010AF0885821885831980088582183C
:10235300858319D2AFD083D0820201358519838555
:102363001882E0A3FEE0A3F5207808E0A3F608DFD7
:10237300FAE0A3FFE0A3C0E0E0A3C0E0E0A3C0E075
:10238300E0A3C0E010AF0885821885831980088513
:102393008218858319D2AFD083D08222C0D025186A
:1023A300C582C0E0E51934FFC583C0E0E518C395D5
:1023B3008224F310AF0885831985821880088583EA
:1023C30019858218D2AFC8F0A3E9F0A3EAF0A3EB12
:1023D300F0A37908E709F0A3D8FAECF0A3EDF0A392
:1023E300EEF0A3EFF0A3D0E0F0A3D0E0F0A3D0E0B1
:1023F300F0A3E520F0A3E5F0F0A322851983851867
:1024030082E0C0E0A3E0F9A3E0FAA3E0FBA378082D
:10241300E0F608A3DFFAE0FCA3E0FDA3E0FEA3E0FF
:10242300FFA3E0C0E0A3E0C0E0A3E0F5D0A3E0F5A4
:1024330020A3E0A3F5F010AF0885831985821880E7
:1024430008858319858218D2AFD082D083D0E0F873
:10245300D0E03274048006740280027401C0E0F498
:1024630004122220D0E01220F622740480047402A5
:102473008000CCC0E0EDC0E0E518C39CCCAD1950A2
:10248300011D10AF068C188D1980068C188D19D27A
:10249300AF122103D0E0FDD0E0FC22D083D082E94B
:1024A300C0E0E493A3C386F0C5F095F0F908E49384
:1024B300A386F0C5F095F0700BE493A3C399400590
:1024C300E9048002A3E475F002A42582F582E5F015
:1024D3003583F583D0E0F9E493A3C0E0E493C0E04F
:1024E30022D083D082ECC0E0EDC0E0E493A3FCE40F
:1024F30093A3FDED4C600D122530EC24FFFCED346D
:10250300FFFD80EFE493A3FCE493A3FDED4C600D8A
:1025130012256FEC24FFFCED34FFFD80EFD0E0FDCE
:10252300D0E0FCE493A3C0E0E493C0E022C0E0C3A6
:10253300E49396087401939618400FE49366700829
:1025430008740193661870007019A3A3C3E49396EB
:10255300087401939618A3A3400DD0E0D0E0D0E017
:10256300022520A3A3A3A3A3A3D0E022C0E0C0F02D
:1025730088F0E4936670080874019366187000A8E5
:10258300F0A3A3700BD0F0D0E0D0E0D0E002252080
:07259300A3A3D0F0D0E02269
:10259C0074F51222B3EAFEEBFFEE2434F8EF3400AC
:1025AC00F988088909EE24351226D4F8EE2437125E
:1025BC0026D4F50AEC850AF0A4FCAAF0850AF0ED05
:1025CC00A42AFDE82CF8E43DF97A257B001221655C
:1025DC00EA850882850983F05407F87401B8000273
:1025EC008004C333D8FCC0E0E0131313541FF8EE7F
:1025FC0028F8EF3400F9E8245DF582E93400F5831E
:10260C00D0E0F8E0586008850882850983801DEECB
:10261C0024361226D4F5F0EA84A8F0EE28F8EF342C
:10262C0000F9E82438F582E93400F583E0F97F04F9
:10263C0002235F74F51222B3EAFEEBFFEE24341290
:10264C0026D4C0E0EE2435F582EF3400F583D0E0DB
:10265C00F08E828F83A3A3A3A3A3E0FAA3E0FB8E47
:10266C00828F83A3A3A3A3A3A3A3E0FCA3E0FDEC0D
:10267C00C39AF50AED9BF50BEE2480F508EF3400B8
:10268C00F509850882F583E06401702BEE2481F551
:10269C0082EF3400F5831224711226DD74021222AB
:1026AC0006E960137CFD7D04EEFAEFFB120D268526
:1026BC000882850983E4F0AC0AAD0BEEFAEFFB124D
:1026CC00259C122E9602263AF582EF3400F583E013
:1026DC0022C082C083851882851983E0F8A3E0F9B3
:1026EC00C3EA9CEB9D5012C3EC98ED994019C3EAD8
:1026FC0098EB99501279018010C3EA98EB9940F548
:10270C00C3EC98ED9950EE7900D083D08222EAC3C5
:10271C009CFAEB9DFB2200008521878522C622C0F6
:10272C00E074EF12239F759B00906182E0A2E6405B
:10273C00030227ECE591A2E640030227EC7591BF5A
:10274C009003C2E064057008120EC4120ED0800310
:10275C00120ECA752100120F3CE99003C3F07900E8
:10276C00120F30120C907A017B009003C1E0F91229
:10277C001218907803E06442600302283590055FDC
:10278C00E014F06003022835C2AF12279900782AB2
:10279C00D0E0F618D0E0F6E59F5407F97005909458
:1027AC0022800390944E78081220C0E9C4C0E078CF
:1027BC0029E65508F50808E65509F509740B78085B
:1027CC001221CED0E02508F8906270E0A2E740F824
:1027DC00E8C333906272F0906270E0D2E0F080490E
:1027EC00E0A2E55024E591A2E5501E7591DF90031F
:1027FC00C2E0640D70139003E4E004F064287002EE
:10280C00E4F07A00E0F9120FAE906181E0A2E3509F
:10281C0009E5E9A2E3500375E9F7A3E0A2E7500943
:10282C00E591A2E7500375917F7F040223FEC0E07F
:10283C00C0D0C082C083906183E0A2E05009E5BFA4
:10284C00A2E0500375BFFEE0A2E15009E5BFA2E192
:10285C00500375BFFDE0A2E25009E5BFA2E25003B0
:10286C0075BFFBE0A2E35009E5BFA2E3500375BFBF
:10287C00F7E0A2E45009E5BFA2E4500375BFEFE016
:10288C00A2E55009E5BFA2E5500375BFDFE0A2E663
:10289C005009E5BFA2E6500375BFBFD083D082D0EC
:1028AC00D0D0E032C0E074F212239FE5A7A2E4502E
:1028BC000FE5A1A2E4500953A7EF75A1EF1229046B
:1028CC00E5A7A2E5500CE5A1A2E5500653A7DF75DC
:1028DC00A1DFE5A7A2E15009E5A1A2E1500375A192
:1028EC00FDE5A7A2E2500CE5A1A2E2500653A7FB1E
:1028FC0075A1FB7F010223FE74F81222B37521012E
:10290C009003C2E0640670077A007B00120EACA242
:10291C00AFE433FED2AF9003C8E0640170187A20A4
:10292C007B009003C1E0F91212A27A207B00900385
:10293C00C1E0F912121E906182E0D2E6F090055EC1
:10294C00E0602185C62280169003C7E06401700800
:10295C00E5C654F84405F5C653BEFC122724740191
:10296C00652160E4EEA2E092AF7F0102235F0000DC
:10297C008E238F2485822885832785188285198349
:10298C00E0CEA3E0CF852882852783EBC9EAC8ED8A
:10299C00CBECCA75F010C3E833C8E933C9EA33CAC3
:1029AC00EB33CBC3EA9EF526EB9FF525B35004AB76
:1029BC0025AA26EC33CCED33CDD5F0DAAE23AF24FB
:1029CC002274E91222B374FA1221F0EAFEEBFF8CA6
:1029DC00088D099003C2E024F7C394055006909328
:1029EC00E6022AF4120E288A0A8B0BEA450B7003B6
:1029FC00022AF1120EE28A0C8B0D120EE2EA650C21
:102A0C007003EB650D60ECEEFCEFFD85188285190B
:102A1C0083AA82AB83120EE8850A82850B83A3A35B
:102A2C00780C1220C0909402780C122087851882A2
:102A3C0085198378141220C0909402781412208780
:102A4C00780C79141216DF501F780C791412205F51
:102A5C009093EE780C1216FF4047850C10850D11E3
:102A6C00850E12850F13804185141085151185165E
:102A7C00128517137810790C12205F9093EE781052
:102A8C001216FF501C75100075110075120075138D
:102A9C00017810791412205F7810790C122026809E
:102AAC00089093E678101220C07409781012200751
:102ABC0090941A780C1220C07810790C121F6A901E
:102ACC0003C2E06408600AE064066005E064057017
:102ADC001C9093FE78101216FF501290947A781076
:102AEC00122039800890947278101220C0850882C8
:102AFC0085098378101220CF74061222067F1002EB
:102B0C00235F74F71222B3120EFA90055CE0640195
:102B1C007010906245E4F0A3F053F4F343FE0C53B1
:102B2C0090F3120E9AE5C654804449F5C6E59E54BE
:102B3C007F644970F8906185740FF090055AE0F449
:102B4C007002A3E0602C75080175090090055AE02D
:102B5C0078081221DDE508F4FAA3E0600814600A95
:102B6C0014600C800DEA52808008EA52908003EACF
:102B7C0052A079007F0202235F74F71222B3E9FEA0
:102B8C00EAFF74016E700C7A807B009003C1E0F94F
:102B9C00121218902F08E493F46008E493F9120CC5
:102BAC0072800953C680E59E547F70FA120EA09075
:102BBC00055CE064017003120CA890055AE0F470F7
:102BCC0002A3E0602A75080175090090055AE078A7
:102BDC00081221DDAA08A3E0600814600A14600C36
:102BEC00800DEA42808008EA42908003EA42A012FB
:102BFC000E288A088B09A808A909E8496017E5E19D
:102C0C0070FCE82414F582E93400F583E0F874FFD5
:102C1C0068600288E174016F700A7A019003C1E068
:102C2C00F912126C022B8074F11222B38A088B09F0
:102C3C008C0A8D0B740F12223B780C1220C09094CE
:102C4C00027808122087909402780C12208778085A
:102C5C00790C1216DF50157808790C12205F9093BE
:102C6C00EE78081216FF401579018013780C79085C
:102C7C0012205F9093EE780C1216FF40EB79007FD8
:102C8C000802235F74ED1222B38A088B098C0A8D1B
:102C9C000B741312223B780C1220C090940278080B
:102CAC00122087909402780C122087780C790812E5
:102CBC0016DF40117808790C12205FAA08AB09AC1A
:102CCC000AAD0B802275100075110075120075137A
:102CDC00017810790C12205F78107908122026AA3E
:102CEC0010AB11AC12AD137F0C02235F90940278E1
:102CFC00081220C08A828B83780812209A7F0402E3
:102D0C00235F74F51222B38C828D8378081220C055
:102D1C008A828B837808122073122D62C3E098F09C
:102D2C00A3E099122D54401E9093DA78081220C01B
:102D3C008A828B83780812204C8E828F83E0242029
:102D4C00F0A3E0344EF080A4F08E828F83C3E09425
:102D5C0020A3E0944E22EA2404F8EB3400F9E8FEB8
:102D6C00E9FF8C828D83A3A3A3A3E0F8A3E0F98EE3
:102D7C00828F832274F51222B3E9FE900514E0FAD7
:102D8C00A3E0FBEEC333F8E433F9749B28F58274AB
:102D9C009139F583E02AF508A3E03BF50978081290
:102DAC00245A9093D61220DE12297C740212220629
:102DBC008A088B098C0A8D0B74107808121FEEAAE6
:102DCC0008AB097F0402235F74F11222B38A0C8BC7
:102DDC000D8C0E8D0F740F12223BE0FAA3E0FB74E6
:102DEC001112223BE0F508A3E0F509741312223B03
:102DFC00E0FEA3E0FF780812245AEA2401F508EB60
:102E0C003400F509E4F50AF50B780C7908121EEA82
:102E1C009093C678081220C0780C7908121EEAAA82
:102E2C000CAB0DAC0EAD0F12297C74021222068B6A
:102E3C0009EA450960047A0180027A00EC2AFCED6B
:102E4C003400FDECF8EDF97A717B021221658808EB
:102E5C008909E4F50AF50B8E828F8378081220CF4E
:102E6C00ECF8EDF97A717B021221658A088B0974F2
:102E7C000578081221DD8E828F83A3A3A3A3E50816
:102E8C00F0A3E509F07F0802235FC082C083E990BC
:102E9C006000F0D083D08222C0E074F212239FA293
:102EAC00AFE433FED2AFE589A2E1500312144C75A6
:102EBC008900C2C5751A00EEA2E092AF7F01022311
:102ECC00FEC0E074F212239FA2AFE433FED2AFE552
:102EDC008BA2E0500312144C758B00C2E880D5C055
:102EEC00E0C0D0E8C0E0E5A8D2AFC2C7751A00A216
:0B2EFC00E792AFD0E0F8D0D0D0E03279
:102F0800FFFFFFFFFFFFFFFFC082C083E9900A9821
:102F1800F002319474F7122247E99002E0F07C182D
:102F28007D037AFF7BFF1209A89002E174FFF0A3EA
:102F3800F0A3E4F0A3F079051209309002E0E0F97B
:102F48001208587AC67B09120B88023EA274F41242
:102F580022478A088B09EB548060309002E0E0F940
:102F68001212008A0A8B0BAE0AAF0BEE4F60138E5B
:102F7800828F83E064B07003120948EEFAEFFB1207
:102F880011EEAA08E5096480FB80047A007B000240
:102F9800316374F212224774FC1221F0EAFEEBFF4F
:102FA800741212223B124389EE4F700302303D74B3
:102FB8000212223BEEF0A3EF12339EECF0A3ED12C7
:102FC800339EAA82AB83120852E9F50A706AE508B3
:102FD800450960648E828F8312436FEE4F60567A84
:102FE800067B001212548A0C8B0DA80CA90DE84917
:102FF8007005750A13804188828983E412304AEE8D
:10300800F0A3EF12439AE508F0A3E509F09002E671
:103018001230D19002E67005123E4C801B123E3AE7
:103028008003EAFCEBFD8C828D831230D170F38C27
:10303800828D8380E3750A02A90A740412220602AB
:103048004589F0A3124340A32274F2122247890A49
:10305800E975F017A4FEAFF09002E5E4F09002E302
:103068001230D1600A12125A9002E3E4F0A3F0EE93
:10307800FAEFFB1212548A088B09EA4509602FEE11
:10308800FCEFFD79001211D69002E3E508F0A3E504
:1030980009F07B0080081230BBE4F0A3F00BEBC30F
:1030A800950A40F2E50A9002E5F07900800279136A
:1030B800024589EB75F017A4F8A9F09002E3E0281F
:1030C800FAA3E0398A82F58322123ADEEA4B2274A7
:1030D800F4122247740C12223B124364FEE9FF7576
:1030E8000800750900800CE5082401F508E5093495
:1030F80000F509C3E5089CE5099D503285080A8555
:10310800090B7403780A1221DDEA250AF8EB350B5E
:10311800F988828983A3A3A3A3A3A3123F21EE6501
:103128000A7003EF650B70BFE8FAE9FB80047A00C8
:103138007B00802774F41222477900EAA2E0501B32
:103148007508B0750993780812245A7C047D007AB2
:103158009A7B0A12092A74021222067F0402231992
:10316800C082C0839002E612319B601C88828983EA
:10317800A3A3E06A7003A3E06B8882898370E8A345
:10318800A3A3A3123ADA80047A007B00D083D0820A
:1031980002013512466FE8492274EE12224774FC88
:1031A8001221F0EAFEEBFF851882851983E4F0A36B
:1031B800F0EE2402123E2CEE2405124347EE2404BE
:1031C800F50EEF123753E024FE603924FC604624E4
:1031D800FE605224FE605E24FE70030232B424FEB8
:1031E800700302331824FE700302332724FE700391
:1031F80002333624FC700302334524FE7003023385
:10320800540233919002FF7417F0A3E41233A6120C
:1032180005D0023391851882851983AC82AD83125B
:10322800094E023361851882851983AC82AD8312F9
:103238000954023361850C08850D09740212223B7A
:10324800AC82AD83850882850983123ADA12087642
:103258008A0C8B0DAC0CAD0DEC4D603BE4F50CF518
:103268000D780C12245A750CFF750D02780C122477
:103278005A750C00750D03780C12245A7408122222
:103288003B1224711247EB122206E9F50C700B125F
:103298003AD01205E8800F750C01850882850983EC
:1032A800123394123E4C850C0802336474021222C5
:1032B8003BAC82AD83850C82850D831238A5603CBA
:1032C800850C82850D83A3A31224717510FF7511D7
:1032D80002781012245A7510007511037810122400
:1032E8005A740812223B1224711247EB122206E983
:1032F800F509700B123AD01205EE800F7509018599
:103308000C82850D83123394123E4C850908804C3B
:10331800851882851983AC82AD8312095A803A8553
:103328001882851983AC82AD83120960802B8518B9
:1033380082851983AC82AD83120966801C85188248
:10334800851983AC82AD8312096C800D851882853E
:103358001983AC82AD83120972E9F508E508602982
:103368008E828F83A3E06414601F850E82850F838D
:10337800E09002FF12339E12466B900300123E4CFF
:10338800E508A31233A61205CA023D3B12466F8513
:10339800188285198322F085188285198322F07C8A
:1033A800FF7D02850A82850B83123ADE2274EE12B3
:1033B800224774FC1221F08A0A8B0B8C0E8D0FEABF
:1033C8002405F508EB3400F5097C157D0079007AB1
:1033D800FF7B021211D6E5082402F50CE509124319
:1033E8004A85188285198385821085831178101281
:1033F800245A850882850983A3A3A3A312389C12A3
:10340800245AE5082405F510E5093400F51178106B
:1034180012245A850C82850D83123BF112087074B0
:10342800061222068A108B11AE10AF11E50A24028B
:10343800F50AE50B123E2FEE4F7003023573801725
:10344800740212223B123ADA88828983EAF0A3EBEB
:10345800F09002FFE004F09002FFE0C394054003FF
:10346800023573E4F510F511781012245A7510E836
:10347800751102781012245A7510E9751102781026
:1034880012245A740612223B1224717910EEFCEFB2
:10349800FD1247ED122206E9705E850882850983D0
:1034A800A3A3A3A3A3A3A3E0F89002E8E06870484D
:1034B80012389C12245A7CE97D02E5082408FAE5B2
:1034C800093400FB1211D07402122206E960298E19
:1034D800828F83A3A3A3A3123ADA9002FFE0F51028
:1034E800740278101221DD74002510F582740335FA
:1034F80011F583EAF0A3EBF0740212223B858210E7
:10350800858311781012245A740212223B122471F6
:10351800850C82850D83123B001222068A108B11BE
:10352800AE10AF119002FFE0F5107511007402782B
:10353800101221DD74FF2510F874023511F9888204
:103548008983A31230D1700302343FE824030808AA
:1035580008E93400F9EE4F60030234488882898311
:1035680074FFF0A3F09002FFE004F09002FFE06027
:103578000A123AD01205DC7900800B850882850989
:1035880083123E43790A023D3B74EA12224774FED5
:103598001221F08C128D13EA2405F50CEB1247D595
:1035A800124373750800750900EA2402F510EB341C
:1035B80000F51185188285198385820A85830B7821
:1035C8000A12245A850C82850D83A3A3A3A312375C
:1035D8006912245AE50C2405F50AE50D123E2F78E8
:1035E8000A12245A850C82850D8312376D120870D1
:1035F80074061222068A0A8B0BEA450B70030237FF
:103608000EEA2404F50EEB1237531243738A828BA9
:1036180083A3A3A3E0F9851082851183123AE4609D
:103628000302370EE4F514F515781412245A7514AC
:10363800E8751502781412245A7514E9751502787C
:103648001412245A740612223B1224717913AC0AFC
:10365800AD0B8510828511831247F3122206E9F516
:1036680009600302370E9002E8E0F8E5087009E007
:103678002402900300F08014900300E0FCE8240288
:10368800FAE43400FBEA6C7001EB707E850882AACC
:1036980082123893941412388B506B850E82850FE2
:1036A80083E0C0E074012A12374AD0E0F0050885AB
:1036B8000E82850F83A3E0C0E085080A7401250AFD
:1036C80012374AD0E0F005089002E8123769122450
:1036D8005A7CE97D0285080A7401250A12375D12B1
:1036E80022069002E8E02508F50874FF6E7003745E
:1036F800FF6F6012EE24010EEF3400FFE508C3945B
:103708001450030235BBE5086013123AEE851082A7
:10371800851183123ADA1205E279008014E50970FE
:103728000375090A851282851383EEF0A3EFF0A9C9
:103738000974021222067F0E02231985080C7401EF
:10374800250CF58274033400F583223400F50F85C7
:103758000E82F58322FA74033400FB1211BE740240
:10376800221243A922A3A312377322123E3AFDEE76
:10377800FAEFFB2274EE12224774FE1221F08C0E2F
:103788008D0FEA2405F50CEB12434A750B009002E5
:10379800FFE4F0F50AEA2402F508EB3400F50980A5
:1037A800449002FFE0FA9002E8E0F8123893941788
:1037B80012388B400D9002FFE0F87416C3989002FF
:1037C800E8F012389C12245A7CE97D0274002AFA27
:1037D80074031237601222069002E8E0F89002FFA4
:1037E800E028F0050AE50C2416F582E50D12374E9F
:1037F800E0F8E50AC39850749002FFE0C3941650AD
:103808006BE50AC333F8E433F9E50C28FEE50D3916
:10381800FF851882851983AC82AD838E828F8312CF
:1038280038A57008750B01123E3F8050E4F510F57D
:1038380011781012245A7510E875110278101224A4
:103848005A7510E9751102781012245A740612225A
:103858003B12247179168508828509831247F31271
:103868002206E9F50B70030237A980BB7CFF7D02B5
:10387800850882850983123ADA1205F4A90B7402C5
:10388800023D3DE99400C365D03322EA28F8E434C8
:1038980000F9E822E0F510751100781022123D3287
:1038A8008A108B11AC10AD11EC4D2274EA1222472C
:1038B80074FC1221F08A0C8B0D8C128D13EA2405EE
:1038C800F50AEB123E2F750800750900E50A240277
:1038D800F510E50B3400F511740212223B85820EB7
:1038E80085830F780E12245A850A82850B83A3A339
:1038F800A3A312434F12245AE50A2405F50EE50B3B
:103908003400F50F780E12245A851082851183121F
:103918003E35123AD412087074061222068A0E8BAB
:103928000FAE0EAF0FE50C2402F50EE50D3400F5D1
:103938000F80388882898374FFF005081237437432
:10394800FFF005089002E8E0F50C750D00780C1200
:10395800245A7CE97D0285080C7401250C12375D18
:103968001222069002E8E02508F508EE4F60278E3F
:10397800828F83A3A3A3E0F9850E82850F83123A71
:10398800E4EE2404124347E96027850C82850D8301
:10399800123AC6123E4CE5087003023AAC123AEEEF
:1039A800850E82850F83123ADA1205FA7900023AF7
:1039B800C1E4F514F515781412245A7514E8751530
:1039C80002781412245A7514E97515027814122411
:1039D8005A740812223B1224717911EEFCEFFD850E
:1039E8000E82850F831247F3122206E9F509709AB1
:1039F800850882AA82EA9002E87009E0240490030C
:103A080000F08025E0F8900300E0F514E82404FCB9
:103A1800E43400FDEC65147001ED70811238939464
:103A28001212388B40030239A5850C82850D83E07C
:103A3800C0E074012A12374AD0E0F00508850C82EC
:103A4800850D83A3E0C0E0123743D0E0123B09851F
:103A5800820C85830D780C12245A740412223B12AE
:103A68002471851082851183123B001222068A0C6C
:103A78008B0DAE0CAF0D85080C7401250CF8740382
:103A88003400F9EE4F700302393B8518828519839B
:103A9800E088828983123B09A3E0C0E0123743D053
:103AA800E0023949E509700375090A850A82850B20
:103AB80083123AC6123E4CA909740402373B1246D7
:103AC8006F851282851383227CFF7D02850A828599
:103AD8000B83123ADE22E0FAA3E0FB22123ADE124E
:103AE800085EE9F50922900300E0F5F0E508849006
:103AF80002FFF07CFF7D022212377312087C7404E7
:103B080022F005088518828519832274EC12224751
:103B180074FE1221F08A088B098C0E8D0FEA240599
:103B2800FEEB3400FF123D1CEE2418124347EA4511
:103B38000B7003023BBF123D055029123BE48A106B
:103B48008B11EA4511606B7912AC0AAD0B850882BE
:103B5800850983123ADA851082851183122245E994
:103B6800F50A7058E4F50AF50B780A12245A8E8281
:103B78008F83A3A3E0F50A780A12245AEE240312CD
:103B88003E2C780A12245A8E828F83123BF1120936
:103B9800967406122206E9F50A7021850C82850DB5
:103BA80083E0701F850882850983123ADA120600BD
:103BB8008011750A0E8009750A018004E50A600300
:103BC800123E3F850C82850D83E0600479008002F7
:103BD800A90A74021222067F0C022319851882850D
:103BE8001983123ADE12098422123E3AFD850882B0
:103BF800850983123ADE2274EE12224774FE1221DE
:103C0800F08A088B098C0C8D0DEA2405FEEB340034
:103C1800FF750E00123D1CEA450B7003023CE312CF
:103C28003D05502C123BE48A0E8B0FEA450F604A83
:103C38007912AC0AAD0B850882850983123ADA85B8
:103C48000E82850F83122245E9F50E6003023CE6D9
:103C5800850882850983123F21AA0AFB123CF77066
:103C6800147AFF7BFF123CF7606C88828983E50A2F
:103C7800F0A3E50BF0750A008007750E0E805F054E
:103C88000A9002E5E0FAE50AC39A504AE50A75F097
:103C980017A4FAABF088828983A3A3E02AFAA3E0E9
:103CA8003BFB8A828B83123E35EC4D70D2750A1726
:103CB800750B00780A12245AEEFCEFFD1211BE743F
:103CC80002122206EEFCEFFD850882850983123A6E
:103CD800DA1206068014750E098003750E01124665
:103CE80067850C82850D83123E4CA90E0238861218
:103CF80009788A108B11A810A911E84922E508242F
:103D080002F508E5093400F5098A828B83A3A3A389
:103D1800E0A2E522851882851983AC82AD838E8264
:103D28008F83123D328A0A8B0B22E0FAA3E0FB1242
:103D380008762274041222067F0A02231974EC12F0
:103D480022478C108D11EA2405F50CEB12434A75B5
:103D58000F00EA2402F50AEB123E2F850A82F5834A
:103D6800123ADA1248797003023E21750E0080710A
:103D7800850C82850D83E06401704F8E828F83A34A
:103D8800A31224718E828F83A3A3A3A3E0F51275D7
:103D98001300781212245AEE2405F512EF3400F5B8
:103DA80013781212245A123AD4120996740612225F
:103DB80006E9F50F6014850C82850D83E4F0124640
:103DC80067851082851183123E4C7C177D0079002F
:103DD800EEFAEFFB1211D68E828F83E4F0A3F00582
:103DE8000E9002E5E0F8E50EC398501EE50E75F05A
:103DF80017A4F8A9F0850882850983A3A31247DFD1
:103E0800123E35EC4D6003023D78850882850983B2
:103E180074FFF0A3F0E50F7006123AD412060CA94D
:103E28000F023BDFF50AEF3400F50B22A3123E3AEE
:103E3800FD22E0FCA3E0228E828F8312466F850E5E
:103E480082850F83E8F0A3E9F022C082C083900244
:103E5800E1E06A7003A3E06B70067AE17B028004FC
:103E68007A007B0002319474F71222477F00EF75C5
:103E7800F003A4F8A9F0EC28F8ED39F988828983D1
:103E8800E06A7003A3E06B7006E8FAE9FB800B0FA9
:103E9800EFC3940240D87A007B007F010223197493
:103EA800F612224712445870067A007B008007A356
:103EB800A3A3A3123ADA02451974F2122247E9FEC3
:103EC800740E12223B123F21741012223B124389B6
:103ED8008C828D83E06402703BA312466B888289D2
:103EE80083E0F50CA3E0F9A80C7402687003742948
:103EF800697021750C02750D00780C12245A780827
:103F080012245A780A12245AEEF91209BA740612BF
:103F1800220680027901024589E0F50AA3E0F50B43
:103F28002274E812224774FB1221F0E98518828571
:103F38001983F08A168B178C0E8D0F741F12223B73
:103F4800124389742112223B123F21742312223B0F
:103F58001243737510008C828D83A3A3A3E0A2E49F
:103F6800502A741D12223B123BEA8A828B83E58217
:103F780045837003024035790AAC0EAD0FAA16AB23
:103F880017122245E9F5106003024038850E828534
:103F98000F83E0640260030242EEA312466B8508B9
:103FA80082850983A3858212858313E50E2406F58D
:103FB8000CE50F12434A88828983E0FAA3E0F9EA04
:103FC8002400F514E439F51578141224E4010000EE
:103FD800280128FD3F07000228D440032844400058
:103FE80029FE41012926420229CD410329FE410427
:103FF800298F42EE42EE4F703E850C82850D83126A
:104008004364FAE9FB8A828B83E0850A82850B8305
:104018001243A012245A8A828B83A3123E3AFDAA25
:1040280008AB091211BE7402122206800375100E25
:10403800A91074050247CD75100B80F4EE4F70F788
:10404800850A82850B837401F0124379850882857D
:104058000983F07C007D00850E82850F83A3A3A3CE
:10406800A3E02401FAA3E03400FB120876EA4B60CF
:10407800418A828B83E02402F8850A82850B83E0DB
:1040880028F0EA2404F8EB3400F988828983E08573
:1040980012828513831243B21243A012245A8A82D1
:1040A8008B83123E34E5082403FAE5093400FB0249
:1040B800402B850A82850B83E02404F07C047D0074
:1040C8007900AA12AB131211D6024038EE4F6003E2
:1040D80002403F124379FEA3E0FF850A82850B83E5
:1040E8007404F0EE850882850983F0EF85128285D5
:1040F8001383F0740312223BAC82AD83EEFAEFFB1C
:1041080012444670030241AA8A828B83A3A31243F6
:104118006F740112223B85820E85830F780E12245C
:104128005A740512223B1224717CFF7DFF12087C11
:1041380074041222068B0FEA450F7033850C8285B2
:104148000D8312434F12245A850C82850D83A312C6
:1041580024717C027D007ABA7B941206A87404123A
:104168002206E9700A740112223B74FFF0A3F08E54
:10417800828F83E064027034750C02750D00780C30
:1041880012245A8E828F83123E34E5082404FAE5FD
:1041980009123760122206850A82850B83E0240201
:1041A8008009740112223BEEF0A3EFF07401122291
:1041B8003B124360F0740112223BA3124358A3A39D
:1041C800A3F0024038EE4F600302403F850C828521
:1041D8000D83123E35AA16AB171209AE850A8285E1
:1041E8000B837402F0EA850882850983F0851282C0
:1041F800851383EB80CBEE4F600302403F12437977
:10420800F8A3E0F9850A82850B837402F0E8850833
:1042180082850983F0E985128285138380A3850C42
:1042280082850D83123ADA1211B8EAFC8C82A882D0
:10423800C39EE49F404BE86E7001EF70047C0080E1
:104248001F851882851983E0FAEE2AFAEF3400FBFD
:10425800C3EA98EB94005003E08004EECCC39CFCC6
:10426800EC850A82850B83F08C0A750B00780A129C
:10427800245A850C82850D83E02EFCA3E03F024082
:1042880026751007024038EE4F600302403F850C48
:1042980082850D8312466B850A82850B837407F02D
:1042A80088828983124358124340E085128285131D
:1042B80083F0E82402FAE93400FB8A828B831243F4
:1042C80058124391124360A312439A124369F0E8CB
:1042D8002405F8E93400F988828983124369A31216
:1042E80043B2A30241C6741D12223B12445170030B
:1042F80002403512466B880C890DE8450D700302A3
:1043080040358E108F11781012245A780A12245AC8
:10431800780812245A740612223BE0F9AC0EAD0F4D
:10432800AA16AB17850C82850D83122245740612D6
:104338002206E9F510024038F088828983A322F525
:104348000CEF3400F50D22E0F50E750F00780E2203
:10435800E0850882850983221243B92212466FE854
:10436800221243B9A3A322A3A3A3A3E0FEA3E0FFC1
:1043780022850C82850D83E0F8A3E0F5838882E02E
:1043880022E0F508A3E0F50922A3A3F08A828B8333
:10439800A32212304CA3A322F08A828B831243A952
:1043A80022E0F50A750B00780A221243401243B93D
:1043B80022E0850882850983A3A32274EE1222478E
:1043C80074FE1221F08A0A8B0BECFAEDFB741412BE
:1043D800223BE0F510A3E0F511741612223BE0FE33
:1043E800741812223BE0F50EA3E0F50F85188285BC
:1043F8001983AC82AD83124446603E8518828519C4
:1044080083124451602FA3A3124389E5084509602C
:1044180024780E12245A781012245AEEF9AC0CADF6
:104428000DAA0AAB0B8508828509831222457404FC
:104438001222068006790E80027901023886120857
:10444800768A0C8B0DEA450D22123ADE1244582268
:104458001209428A828B83E58245832274F61222EE
:104468004774FE1221F0740C12223B124364851823
:1044780082851983F0740112223BE9F0E4F508F50E
:1044880009780812245A750802780812245A740404
:1044980012223B858208858309780812245A12095A
:1044A8009674061222067402122206806474F712A9
:1044B8002247EAFEEBFF89087C187D031209AEEA61
:1044C8005402600BA908EEFAEFFB12086A80027921
:1044D80001023EA274F612224774FF6A700374FF49
:1044E8006B701C7B00EB75F003A4F8A9F0EC28F8BE
:1044F800ED39F912451E0BEBC39402501480E612F5
:10450800097E8A088B09A808A909E84960031245A9
:104518001E7F020223198882898374FF12304AE4BD
:10452800F02274F612224712097E8A828B83E58272
:1045380045836006A3A3E0FA80027A007B0080D15D
:1045480074F21222478A088B09ECFEEDFF740E12F2
:10455800223BE0F50A12458E701CEEFCEFFD7AFF57
:104568007BFF12458E70047911801688828983E555
:1045780008F0A3E509F088828983A3A3E50AF07906
:10458800007F0602231912097E8A0C8B0DA80CA93C
:104598000DE8492274EE122247EAFEEBFF8C088DE3
:1045A80009890C741212223B12466B741412223BB6
:1045B800123E35741612223B123ADA750D00EC4D94
:1045C800600302465F7402650C600302465A8882E3
:1045D8008983123E3AF9EC2400F50EE439F50FEA26
:1045E800F4F8EBF4F9EC58F8E50F59F9E849705D7F
:1045F800E5082406F8E5093400F9880A890B888259
:10460800F58312376F1209AE8A108B11E50E65100B
:104618007004E50F65116042780E12245A850A82EB
:10462800850B8312376F1209B47402122206E9F55A
:104638000D7027780E12245A850882850983A3A352
:1046480012376D1209CC7402122206800D750D8086
:104658008008750D0D8003750D0BA90D023D408E68
:10466800828F8312466F22E0F8A3E0F92274E812E1
:10467800224774E71221F0851882851983EAF0A38E
:10468800EBF08C168D17890E743112223BE0F5126F
:10469800A3E0F513743312223BE0F514A3E0F515FB
:1046A800743512223BE0F50F750800750900E5091D
:1046B80075F003A4F8A9F08518828519831247DFDD
:1046C800E0F47003A3E0F470030247BDEE2402F5A2
:1046D8000CEF1247D5E070030247BD85160A85170F
:1046E8000B780A12245AAC14AD15AA12AB1312098E
:1046F8003674021222068A0A8B0BEA450B700302F3
:1047080047BDE4F510F511781012245A74061222E8
:104718003B858210858311781012245A740912225D
:104728003B858210858311781012245A8512828560
:104738001383A3A3A3A31224717914AC0AAD0B8E1F
:10474800828F831247F3122206E97069850A8285EF
:104758000B83A3A3A3A312466B740212223B123E3F
:104768004C850C82850D83E0A2E05018A90E7402D6
:1047780012223BAC82AD838E828F83123ADA120802
:104788008EE94208850C82850D83E0A2E15026E57A
:104798000FF50A780A12245EA90E740312223BACA4
:1047A80082AD838E828F83123ADA120888740112DE
:1047B8002206E942080509E509C3940250030246A6
:1047C800B6A90874191222067F100223193400F5BD
:1047D8000D850C82F58322E028FEA3E039FF8E8246
:1047E8008F83227916850A82850B83123ADE120995
:1047F8009074082274F2122247EAFEEBFF890B74C8
:1048080001650B600E7402650B70637901120BA6CB
:10481800E9705BEEFAEFFB1248796047750A008091
:104828000B7C177D0079001211D6050A9002E5E08D
:10483800F8E50AC3985021E50A75F017A4F8A9F01D
:10484800850882850983A3A3E028FAA3E039FB8AB7
:10485800828B8312319B70C985088285098374FF16
:10486800F0A3F07C187D03EEFAEFFB1209A80245CD
:10487800891209788A088B09EA45092274F21222FA
:10488800478A088B09ECFEEDFF740E12223B123F9B
:1048980021900A98E0F4603D7A097B001211E8EA59
:1048A8004B60328A828B8374B1F0A3E4124393A3E2
:1048B800124391A3E508F0A3E5091248E0EEF0A33E
:1048C800EF1248E0A3A3E50AF0A3E50BF0900A98DD
:1048D800E0F91211F4024589F08A828B83A3A3A31D
:1048E800A3A32274F4122247E9FF7E008A088B09E9
:1048F800780812249E00040D9C4A1E493A494F49E3
:10490800644979498E49AA49C349D549034A254A80
:10491800414A5D4A7B4A74016F70128C828D83E034
:10492800C394035008E0900BC5F0024ABA7E1802FF
:104938004ABA74026F70F68C828D831251F8900B0C
:10494800C6E8F0A3E980E274016F70E18C828D8380
:10495800E0C3940250D7E090079580CD74016F7042
:10496800CC8C828D83E0C3940550C2E0900796807A
:10497800B874016F70B78C828D83E0C3940250AD18
:10498800E090079780A374106F70A27508108E09C5
:10499800780812245A7A987B071255BC122206020C
:1049A8004ABA74016F70868C828D83E0C39402408A
:1049B80003024935E09007A802493174016F60038A
:1049C8000249358C828D83E0900BC9808D74046F09
:1049D80060030249359093D678081220C08D838CE5
:1049E8008278081216EF40030249358C828D8312B3
:1049F80020DE9007AA1220EA024ABAEF60030249B1
:104A080035120816E9700E1213AA79501215A2125F
:104A1800139E024ABA90083D740102493174016F2D
:104A280060030249358C828D83E0C39402400302FF
:104A38004935E09007A902493174016F60030249C2
:104A4800358C828D83E0C3940A4003024935E09097
:104A58000BC802493174016F60030249358C828D9D
:104A680083E024F9C3940A4003024935E0900BCA55
:104A780002493174016F600302493590083CE0F83F
:104A88008C828D83E090083CF0E87026E064017029
:104A980021024A17C3EA9426EB9400501374026F5C
:104AA800700E8C828D831251F21206B4E9FE8002D8
:104AB8000E0EEEF9024AC4740E1222067F04022377
:104AC8001974F012224774CC1221F08C0A8D0B74E1
:104AD8004412223BE0FE742012223BAC82AD837567
:104AE800839375829E7406122103742012223BACB4
:104AF80082AD83121350E9F508C3940A4003024CAF
:104B08002D75F006E9A4F509742612223BAC82AD96
:104B1800837A0E7420250912567470097432122291
:104B28003BE0FF80027F00900BC5E06402700474D4
:104B3800018001E4F50D780D12245EEEFDEFFCA96D
:104B480008AA0AAB0B1213D474011222067C147D36
:104B5800007900740C12223BAA82AB831211D6741E
:104B68000C12223BAC82AD837A10742425091256AC
:104B78007470377C1079FF740C12223B1253A170A9
:104B880029741C12223BAC82AD837A047425250952
:104B9800F912159C740C12223BAC82AD83EFA2E093
:104BA800E433F9AA0AAB0B12073E851882851983EC
:104BB800AC82AD837A0C74702508125674705585D2
:104BC8001882851983AA82AB83121380750800E5C1
:104BD8000875F003A4F8A9F0851882851983E58281
:104BE80028F8E5831253DD1251F2EC4D601D8882DE
:104BF8008983A3A3E0F50E750F00780E12245AAA34
:104C08000AAB0B12099C74021222060508E508C3B8
:104C1800940440BBEFA2E1500C900794E0F9AA0A73
:104C2800AB0B1209A274046E702A900BC5E06402E3
:104C380070229007A8E060047A0180027A00900749
:104C480095E06004780480027800E84AF9AA0AAB83
:104C58000B1207FE790074341222067F080223190A
:104C680074F0122247EAFEEBFF8C088D09750A0AD8
:104C7800E9600C14600914602E14607F024D0E1256
:104C88001392E9F50AC3940A507CE5084509607651
:104C9800750E06750F00780E12245AEEFCEFFD1201
:104CA80055B8122206805F750B00750E06750F0049
:104CB800780E12245AEEFCEFFDE50B75F00EA4F801
:104CC800A9F074B628FA740739FB1211D0740212CD
:104CD8002206E9601B850B0AE50AC3940A5027E5FA
:104CE8000845096021AA08AB09A90A12138C801685
:104CF800050BE50BC3940A500D80AF121398E9F524
:104D08000AC3940A40D9A90A024C6374F4122247D0
:104D1800890875091574FF6A700374FF6B70277E24
:104D280000AC087A027B00EEF912136EE960037595
:104D380009000EEEC3940A40E8E50860497AC27B90
:104D480013120BB88040120B9A8A0A8B0BAE0AAF6B
:104D58000BEE4F602E7C007D00EE2405FAEF340048
:104D6800FB8E828F83124E0A500CAC087A027B00AD
:104D780012136E750900E508600CEEFAEFFB1213CA
:104D8800C28003750914A909024AC474F2122247A1
:104D9800ECFEEDFF740E12223B1251E575081574F6
:104DA800FF6A700374FF6B7021750900AC0AAD0BC4
:104DB800EEFAEFFBA909121374E960037508000500
:104DC80009E509C3940A503580E2120B9A8A828B4E
:104DD80083E582458360237C007D00E5822405FA13
:104DE800E5833400FB124E0A5013AC0AAD0BEEFA01
:104DF800EFFB1213747508008003750814A90802E4
:104E08005BE3A3A3A3A3E0F9121350E9C3940A2216
:104E1800C082C0839007AEEAF0A3EBF0900794E05D
:104E2800FC7D007A257B001206B4900794E0F91205
:104E38000918D083D08202013574EA12224774EC33
:104E48001221F0EAFEEBFFEE240CF514EF3400F526
:104E580015EE240AF510EF3400F511EE2405F50ED1
:104E6800EF3400F50FEE2409F50AEF3400F50BEEE8
:104E78002403F508EF3400F5098E828F83A3A3E09D
:104E880024FA70030251AE24FD70030250DD147041
:104E980003024F2C14601024FD70030250AE1470EE
:104EA800030251120251CC125211604AE0F5838874
:104EB800821251F8880C890DE8450D6039851482F5
:104EC800851583E0F50E780E12245EEE240BF5822C
:104ED800EF3400F583E0F9850A82850B831251F2DD
:104EE8000A0A0AAB09850C82850D831222457401D2
:104EF8001222060251CC850A82850B8312247190F6
:104F080007AA1220DE1207507402122206E9700363
:104F18000251CC7901850A82850B83125A0812073F
:104F28004A0251CC8E828F83A3858212858313E037
:104F38006003025087850E82850F83E0A2E040035C
:104F48000250877C0E7D007900851882851983AA16
:104F580082AB831211D6EE2408F50AEF3400F50B64
:104F6800850A82F5831252146019750C06750D00B6
:104F7800780C12245A850A82850B83E02410FCA33E
:104F8800E0801A1251D6EA4B70030251CC750C0618
:104F9800750D00780C12245AEA2405FCEB3400FD48
:104FA800740212223BAA82AB831255BC12220685D8
:104FB8000E82850F83E0A2E25004D2F08002C2F094
:104FC800A2F0E433F8740C12223BE048F08510821A
:104FD8008511831252146015851082851183E0248F
:104FE80010F8A3E03400F98882898380039093DA6B
:104FF800780C1220C0851082851183125214600F1C
:10500800851082851183E0F510A3E0F511800675FF
:105018001000751100850A82850B83125214600BEB
:10502800850A82850B831251E58006750A00750B87
:1050380000780C122456781012245A780A12245A2E
:105048008514828515831224718E828F83A3125151
:10505800ED740A12223BAA82AB83121386740A12D9
:1050680022068508828509831251F890083EE8F0E7
:10507800A3E9F07A017B00900794E0F91212181264
:10508800521170030251CC1251FE70030251CC85AB
:105098001282851383E0FC7901125A028E828F8373
:1050A8001222450251CC12521170030251CCE0F584
:1050B800838882A3A31251F8890BE8450B70030279
:1050C80051CC8E828F83A3E0FC7902125A02888227
:1050D800850B8380CB7C007D00EE2404FAEF34003E
:1050E800FB850882850983E0F9121350E9F8C39417
:1050F8000A40030251CCAC10AD117A0475F006E8F1
:10510800A42425F91215960251CC9007A9E0600E47
:10511800900BC8E0F9850882850983024F23900B1C
:10512800C5E07004790580ED1251D68A0C8B0DA864
:105138000CA90DE82404F50CE93400F50D8E828FD6
:1051480083A3A3A3A3A3A3A3E0A2E05036E84960E6
:1051580073850C82850D83E0FE6028850A82850BA5
:1051680083E05410701D740E12223BAC82AD83E8AC
:105178002405FAE93400FBEEF9121350E9700479BA
:10518800038092AC0EAD0F850C82850D83E0F91279
:105198005A021213CE125211602A1251FE60257C57
:1051A8000079000250A1120816E9701890083DE035
:1051B800640170081213AA90083DE4F079501215A2
:1051C800A212139E74141222067F0E022319850858
:1051D80082850983E0FAA3E0FB120B9A22E0F50A24
:1051E800A3E0F50B22A3A3A3A3A3E0FCA3E0FD2265
:1051F800E0F8A3E0F922E0F5838882A3A3E0F8A30E
:10520800E0F9E8FEE9FFEE4F229007AEE0F8A3E0F0
:10521800F9E8492274F412224774F21221F0EAFEE6
:105228008C0B75F006E9A42420F5088518828519E9
:1052380083AC82AD837A0E125674704A7C06125380
:10524800997043740C12223B1251F8E8F509E50BEA
:105258006005EE42098004EEF45209850982AA82AB
:10526800E86A7001E9601B740C12223BEAF0A3E4BF
:10527800F0851882851983AC82AD837A0EA908124D
:105288001596790180027900024ABF74F21222470A
:1052980074E61221F0890A8A088B09ECFEEDFF7486
:1052A8000C12223B125667600302534D7C0679FFAD
:1052B800740C12223B1253A1600302534D747025E3
:1052C8000AF50B851882851983AC82AD837A0C1296
:1052D80056746003025392851882851983AA82AB9B
:1052E80083121380E508450970217C0C790012535C
:1052F8009B60030253927C0C7D007900851882859F
:105308001983AA82AB831211D68061851882851908
:1053180083AC82AD83AA08AB0912137A8A0C8B0D71
:10532800A80CA90DE849702CEE4F601985188285E4
:105338001983AC82AD837A007B0012137AEAF8EB0A
:10534800F9EA4B70047900804388828983E508F084
:10535800A3E509F0125419FAEE6A7001EF602BEE1A
:10536800F04F700888828983E4F0A3F0851882855D
:105378001983AA82AB83121380851882851983AC9E
:1053880082AD837A0CA90B1215967901741A025B07
:10539800E079FF851882851983AA82AB8312123CB3
:1053A800E92274F71222477F00EF75F003A4F8A9E9
:1053B800F0EC28F8ED1253DDE06A7003A3E06B709F
:1053C80006E8FAE9FB800B0FEFC3940440DB7A0090
:1053D8007B0002571239F9888289832274F71222D6
:1053E800477E00EE75F003A4F8A9F0EA28F8EB125E
:1053F80053DDE0F4FCA3E0F4FD88828983ECF0A39C
:10540800EDF0125419F4F00EEEC3940440D502578F
:1054180012E82402F582E93400F583E02274EE12E2
:10542800224774F41221F0EAFEEBFF8C0A8D0B740C
:105438001E12223BE0F50CA3E0F50D742012223B6E
:10544800E0F508A3E0F509742212223BE0F510A369
:10545800E0F511EE4F7005790A02554A121392E9E8
:10546800F50EC3940A4023750F007C0679FFE50FFB
:1054780075F00EA4FAABF074B02AFA74073BFB126D
:1054880053A57003025554850F0EE50EC3940A40C8
:105498000302554875F006E50EA4F50FEEFCEFFD86
:1054A8007A0E7420125565E50A450B600BAC0AADFF
:1054B8000B7A1B7421125565E50C450D600BAC0C7D
:1054C800AD0D7A1B7422125565E5084509600BACD1
:1054D80008AD097A107423125565E5104511601B53
:1054E800AC10AD117A107424125565742412223B45
:1054F800AC82AD837A0474251255657C0C7D0079E5
:10550800FF125C717A0C7470250EF91215967508E5
:105518000E750900780812245AEEFCEFFDE50E75A9
:10552800F00EA4F8A9F074B028FA740739FB1255E4
:10553800BC12220690083CE060031213DA1213C86A
:10554800A90E740C1222067F0A022319050FE50F13
:10555800C3940A5003025472750E0A80E3250FF9AA
:105568001215962274F412224774F21221F0EAFE00
:10557800EBFFE9C3940A5004EE4F70047902802DC2
:10558800851882851983125667F508701E750A06F4
:10559800750B00780A12245A740212223BAC82ADB1
:1055A80083EEFAEFFB1255BC122206A908024ABF85
:1055B800AA08AB091211BE74022274F4122247EA37
:1055C800FEEBFF750800750A06750B00780A1224B1
:1055D8005AEEFCEFFDE50875F00EA4F8A9F074B0DA
:1055E80028FA740739FB1211D07402122206E960F6
:1055F80004A908800B0508E508C3940A40C8790A7D
:10560800024AC474F712224774F01221F0EAFEEB42
:10561800FF750800851882851983AC82AD837A10DE
:1056280075F006E508A42423125674701F7C101226
:1056380053997018EEFCEFFD851882851983AA82AC
:10564800AB83120720E97004A908800B0508E50858
:10565800C3940A40BF790A7410122206025712AC8A
:1056680082AD837A0E75F006E9A42420F912159C00
:10567800E92274F7122247750800E50875F00EA4B0
:10568800F8A9F074B028FE740739FFEEFCEFFD7A34
:105698000E75F006E508125671602C7C067D0079BF
:1056A800FFEEFAEFFB1211D67C067D0079FFEE249F
:1056B80006FAEF3400FB1211D6EE240CF582EF3413
:1056C80000F583E4F0A3F00508E508C3940A40AAAE
:1056D80090083CE060031213DA1213C8802C74F7A8
:1056E8001222477E007F007C0679FFEF75F00EA43A
:1056F800FAABF074B02AFA74073BFB1253A5700199
:105708000E0FEFC3940A40DFEEF97F0102231974EC
:10571800F71222477E00EEF91213B00EEEC3940A78
:105728005003E960F180E374F312224774CB12212D
:10573800F0E9FF75F006A4F50874202508FE742723
:1057480012223BAC82AD837A0EEE125674600302CD
:1057580058317C0679FF742712223B1253A160034B
:105768000258317C0E7D0079FF742712223BAA82F1
:10577800AB831211D67C1B7D0079FF740C12223B7F
:10578800AA82AB831211D67C0C7D0079FF85188222
:10579800851983AA82AB831211D6742712223BACD7
:1057A80082AD837A0EEEF9121596E9F509740C129A
:1057B800223BAC82AD837A1B7421125840FE740CD4
:1057C80012223BAC82AD837A1B7422125840F50A30
:1057D800740C12223BAC82AD837A107423125840A9
:1057E800F50B740C12223BAC82AD837A1074241230
:1057F8005840F50C740C12223BAC82AD837A0474C9
:1058080025125840F508851882851983AC82AD8326
:105818007A0C74702FF9121596E9F8EE450A450BC3
:10582800450C45084842098003750900A9097435E3
:105838001222067F050223192508F9121596E92276
:1058480074F7122247E9900794F012139E02571238
:1058580074F212224774FB1221F08A088B09EB5468
:105868008070030258FC900794E0F91212008A0A2B
:105878008B0BA80AA90BE8FEE9FFE849606CEE2447
:1058880004F8EF3400F98E828F83E02450603814D6
:10589800600624E1604A804B88828983E070448EE8
:1058A800828F83A3A3A3A3A3A3A31224718E828FA1
:1058B800831251ED8E828F83A3A3125A0812135CB0
:1058C8007402122206801C88828983E0641E701389
:1058D80079008E828F83A3A3125A0812135680036D
:1058E800121368EEFAEFFB1211EEAA08E5096480BC
:1058F800FB0259FDEAA2E040030259F990083E1262
:1059080051E5740312223B85820C85830D780C12B5
:10591800245A750C02750D00780C12245A750CDE89
:10592800750D94780C12245A7CFF7DFF7A017B0058
:1059380012087074061222060259E1E4F50CF50DFE
:10594800780C12245A740412223B85820C85830D2C
:10595800780C12245A740412223B85820C85830D1C
:10596800780C12245A740912223B1224717902EE1F
:10597800FCEFFDAA0AAB0B1209907408122206E983
:105988007035851882851983E0FA740112223BE08C
:10599800F9EA2400F50CE439F50DEA450D601878AC
:1059A8000C12245A8E828F831251EEAA0AAB0B1264
:1059B800135C7402122206E4F50CF50D780C12241F
:1059C8005A740512223B1224717CFF7DFFEEFAEF18
:1059D800FB12087C74041222068A0C8B0DAE0CAFE5
:1059E8000DEE4F6003025943E5086401FAAB0980E4
:1059F800047A007B007405025BE0850882850983D0
:105A0800E0FAA3E0FB22C082C083900794E0F98A01
:105A1800828B83A3125A081209A2024E3AC082C08E
:105A28008374FF1221F01213A4E9C394028518822B
:105A3800851983400474028002740AF0AC82AD8335
:105A48007A01790512082E7401122206024E3A7460
:105A5800F212224774E81221F0EAFEEBFF890A8C61
:105A6800088D097C187D007900125C79EEF0A3EFAF
:105A7800F0900796E0C0E0740212223BD0E0F0906C
:105A88000797E0C0E0740312223BD0E0F0900BCA05
:105A9800E0C0E0741712223BD0E0F0741512223BEC
:105AA800E054FEF8A3E0F9900BC9E0A2E0E433FA71
:105AB800E84AF8741512223B125BEFA2E15004D2B7
:105AC800F08002C2F0E854FDFAA2F0E43333F8EAB9
:105AD80048F8741512223B125BEFA2E35004D2F08F
:105AE8008002C2F0E854F7FAA2F0E433F50C750D21
:105AF800007403780C1221DD125BE812223B125B62
:105B0800EFA2E45004D2F08002C2F0E854EFFAA207
:105B1800F0E433F50C7404780C1221DD125BE81202
:105B2800223B125BEFA2E55004D2F08002C2F0E8FB
