:020000040000FA
:0600000002010A0225BA0C
:03002B0002283771
:0300330002281987
:03003B0002285048
:030043000227CDC4
:0300530002263052
:03006B000227F376
:100083000224ABE5C754F84401F5C7790122000007
:100093000080FB120086B900030200F4E4791A78A9
:1000A30002B800028004F709D8FCE4791C7802B88E
:1000B30000028004F709D8FCE490028178AB790F41
:1000C3008002F0A3D8FCD9FA90112BAA82AB8390BB
:1000D300013A781679028015E493A3AC82AD838A42
:1000E300828B83F0A3AA82AB838C828D83D8E9D9D8
:1000F300E77582EA7583E4740312011C75829175B6
:100103008300740012011C75D00075813F7518813E
:10011300751902759F00020096C09FF59FE473D086
:100123009F22D083D082C09FE493C0E0740193C028
:10013300E0740293F59F22DB03ED031704E103FF51
:100143000000B4000028002800283075A000A0009B
:10015300A000A00000080008E001F000100010005B
:10016300100010001000100050005000500010004C
:100173001000D0070000000000000F000100050080
:10018300307507001000010081FF0000FF0202022A
:100193003F9601000038960241960100008111024A
:1001A3004F96010000B10202419601000082110244
:1001B3005196010000C702FFFF0100FF20023F9696
:1001C3000100002C96024196010000B011024996ED
:1001D3000000000000024D96030000A403C70BC7F4
:1001E3000BC70BC70BC70BC70BC70BC70BC70BC77C
:1001F3000BC70BC70BC70BDD0DFB0DD70DFFFF01A6
:10020300E803053F1002FF0030313233343536370F
:10021300383941424344454600286E756C6C207062
:100223006F696E74657229003F3F3F000000807F55
:100233000000803FF9021550B743BA510000204136
:1002430000E7DB2E0000A040080000001201254853
:10025300DD031201255EDD031201258BDD0312018F
:1002630025BBDD03120125D2DD03120125F3DD03D6
:1002730012012524DE0312012575DE031201258CEC
:10028300DE03120125FED60312012515D703120141
:100293002544D7031201257DD703120125A5D703D2
:1002A300120125D3D703120125EAD7031201250131
:1002B300D80312012517D8031201253ED8031201D2
:1002C3002551D80312012567D8031201258FD803BE
:1002D30012012569B60212012568B702120125929F
:1002E300B702120125E7B70212012508B80212016D
:1002F3002521B80212012523B80212012544B802B0
:1003030012012547B90212012504BA02120125D1AF
:10031300BA0212012535BB02120125CCBB02120120
:1003230025CFBB0212012555BC0212012598BC0240
:10033300120125EABC02120125EDBC02120125249B
:10034300BD021201254BBD02120125E1BD021201BE
:10035300256ABE02120125B3BE02120125C0BE02E8
:10036300120125C3BE0212012521BF021201253944
:10037300BF02120125B3BF02120125B6BF0212014B
:1003830025D9BF02120125DCBF0212012583C00259
:10039300120125A6C002120125BEC002120125EEDC
:1003A300C002120125FBC002120125FEC002120188
:1003B300256AC10212012558C2021201250EC30289
:1003C300120125BDCD0212012598CE02120125C6C8
:1003D300CE0212012546CF0212012566CF02120179
:1003E30025A4CF02120125F7CF021201255FD00207
:1003F300120125F0D002120125BBD102120125CA38
:10040300D40212012536D60212012559D602120151
:1004130025F7BD0312012588BF03120125D9BF03A8
:1004230012012538C00312012546C0031201256FAE
:10043300C003120125819203120125A9920312011F
:1004430025D792031201250E9303120125769303F8
:10045300120125BF93031201250A940312012548B3
:100463009403120125859403120125B39403120109
:10047300255A9503120125649503120125719503ED
:10048300120125A495031201256696031201257214
:1004930096031201258A96031201259496031201ED
:1004A30025129703120125A9E103120125B7E103E0
:1004B300120125CFE103120125E7E103120125FF14
:1004C300E1031201250080021201259E8002120120
:1004D300251681021201252B820212012565820253
:1004E3001201250E8302120125E38302120125471F
:1004F30085021201259E850212012525860212011D
:10050300250C8702120125598702120125E787026C
:100513001201250B8802120125E08902120125210F
:100523008A02120125438A02120125088B02120155
:1005330025CE8B02120125038E0212012575B60307
:100543001201258BB603120125B1B603120125D979
:10055300B703120125E3B7031201253CB9031201C6
:10056300253CBA0312012579A1031201251BA2031D
:100573001201254EA20312012598A203120125524E
:10058300A4031201256EBD01120125ECBD01120168
:1005930025FCBD01120125DFBE01120125E9BE01C3
:1005A30012012517BF0112012522BF01120125FBEC
:1005B300BF011201255DC001120125F9C00112011D
:1005C30025FDC201120125B4C40112012530C50164
:1005D3001201250DC6011201253BC901120125D9BE
:1005E300C90112012536CB01120125A9CC01120143
:1005F3002552CD011201259BCD01120125D2CD013A
:1006030012012577CE01120125F5CE01120125C86D
:10061300E1011201251DE20112012562E30112012C
:100623002572E30112012595E301120125E0E3019F
:1006330012012585E4011201257BE50112012545FF
:10064300E601120125BDE701120125FFE7011201B1
:10065300259DE801120125C3E801120125B1EA0134
:10066300120125B6EA0112012597EC01120125EBCF
:10067300EC011201254DED0112012575ED01120169
:100683002519EE01120125DBEE011201250CEF0104
:100693001201250FEF0112012557EF0112012599D0
:1006A300EF0112012500F001120125F5D00312011B
:1006B3002508D10312012511D1031201252AD103E3
:1006C30012012575D10312012550D203120125DF32
:1006D300D2031201252AD303120125C428001201D3
:1006E30025D428001201253729001201257C290071
:1006F3001201252C2A00120125052B001201252E9B
:100703002B001201255E2B00120125722D00120110
:10071300254E2F001201252E3100120125663200CD
:10072300120125DF3400120125CB350012012511FA
:1007330037001201251E380012012560380012010E
:1007430025983800120125B238001201251A390004
:10075300120125B43D00120125553E00120125A9C1
:100763003E00120125D03E001201250E3F0012016A
:10077300252D3F00120125813F00120125894000EC
:10078300120125124100120125BD8C03120125C758
:100793008C03120125638D031201252E8E03120192
:1007A300254D8E03120125738E03120125B28E038C
:1007B300120125EA8E03120125138F031201254D21
:1007C3008F03120125628F031201252F900312015B
:1007D3002552900312012574900312012589900379
:1007E3001201251391031201254D9103120125C115
:1007F30091031201250A9203120125349203120177
:100803002559920312012589B20312012553B3031B
:1008130012012536B403120125ACB403120125EEEF
:10082300B4031201251BB603120125128E02120115
:10083300253B8E02120125548E02120125998F0247
:1008430012012577900212012596900212012523A9
:1008530091021201256691021201259E9202120154
:10086300250A93021201250095021201258E970293
:10087300120125219802120125F5980212012598EB
:100883009902120125AB9A02120125419B02120122
:1008930025A3DE031201250CDF0312012560DF030C
:1008A3001201258FDF03120125F5A503120125622D
:1008B300A603120125ADA603120125A2A703120167
:1008C300259EA80312012588A90312012588F80291
:1008D300120125CFF802120125A8F902120125A35E
:1008E300FA0212012582FB02120125EEFB0212011C
:1008F300250AFD0212012571FD0212012574FD0274
:100903001201259FFD0212012510FE02120125B3DB
:10091300FE02120125C8FE0212012510FF02120178
:100923002529FF021201252CFF0212012587C1038D
:10093300120125C3C10312012501C203120125CBF4
:10094300C2031201253EC30312012579C303120119
:1009530025B7C303120125E7C3031201250EC40300
:1009630012012579C403120125BBC40312012555C5
:100973009601120125179801120125AF9901120161
:1009830025569A011201259D9A01120125E19A012A
:10099300120125F39A01120125339B0112012562ED
:1009A3009B01120125AD9B01120125ED9B01120153
:1009B300251B9C011201256C9C01120125F99C0148
:1009C300120125429E01120125369F01120125EBDA
:1009D300A0011201258EA501120125D7A50112013F
:1009E300251EA60112012534A8011201254FCE03AD
:1009F300120125C1CE0312012517CF031201255B76
:100A0300CF031201257BCF03120125C8CF031201A7
:100A13002510D00312012563D003120125B4D0039E
:100A2300120125794100120125C24100120125EF6F
:100A33004100120125224200120125324200120117
:100A4300253E42001201254F420012012524430096
:100A5300120125824300120125B7430012012553D9
:100A63004500120125A54500120125F34500120199
:100A7300254F46001201254B4700120125D148009E
:100A8300120125A84900120125B84900120125D4F5
:100A93004900120125D74900120125914A0012018C
:100AA300255A4B00120125004C001201255F4C0012
:100AB300120125E74C001201254C4D00120125DBE4
:100AC3004D00120125A44E00120125414F001201D1
:100AD30025C84F001201251F500012012580500028
:100AE300120125BA50001201256851001201256038
:100AF3005300120125B05300120125F353001201D4
:100B030025685400120125F454001201253F5500B5
:100B1300120125645500120125B55500120125D790
:100B230055001201251C56001201258B5600120197
:100B330025CD5600120125CD570012012555580029
:100B43001201252659001201253F59001201259152
:100B5300D702120125E4D702120125F0D7021201B0
:100B630025C5D802120125ECD80212012527D90286
:100B730012012593D902120125C7D90212012500BA
:100B8300DA0212012518DA0212012571DA021201C2
:100B9300258ADA02120125D3DA02120125E6DA02E6
:100BA30012012500DB0212012516DB021201253298
:100BB300DC0212012543DD0212012590DE0212013F
:100BC3002575DF02120125F97F00120125A49C037C
:100BD30012012516A0031201252EA1031201254798
:100BE300A9021201253AAF0212012540AF021201F8
:100BF30025C0B102120125A397031201254E9803C4
:100C0300120125FE98031201252399031201251AC7
:100C13009B031201256D9C03120125A9CF0112012B
:100C230025DDCF0112012531D8011201257DD9011E
:100C33001201259ADA0112012524DC01120125068D
:100C4300DD0112012540DD0112012563DD011201E1
:100C530025A5DD01120125EFDD01120125F9DD01D5
:100C6300120125A5DE0112012579DF01120125CD2F
:100C7300DF011201252FE00112012582E00112019B
:100C830025B1E001120125F0E00112012503C5039E
:100C930012012579C5031201258FC503120125CC45
:100CA300C50312012504C60312012581C6031201DF
:100CB30025BCC60312012537C70312012573C703D9
:100CC3001201257CC70312012588C703120125A23F
:100CD300C703120125C7C703120125DDC70312018C
:100CE3002521C80312012500800312012513800367
:100CF3001201252D80031201255680031201259927
:100D03008003120125D880031201251681031201E5
:100D1300257B8103120125908103120125A78103FD
:100D2300120125B58103120125C48103120125D9BE
:100D33008103120125EE8103120125F981031201BA
:100D43002505820312012512820312012525820340
:100D5300120125308203120125558203120125FE5B
:100D63008203120125138303120125288303120131
:100D7300254283031201255D83031201257A830330
:100D83001201258583031201254184031201252DB8
:100D930085031201255285031201255C8503120187
:100DA300257085031201258F8503120125F0850324
:100DB300120125F68503120125FC85031201250284
:100DC30086031201250E86031201254186031201B3
:100DD3002586C302120125B2C30212012596C4025D
:100DE30012012530C70212012546C80212012563EC
:100DF300C90212012506CA02120125ACCA02120158
:100E030025BD9B021201253F9C02120125E89C028D
:100E1300120125309E021201253EA0021201252453
:100E2300A10212012559A1021201257BA10212017F
:100E33002524A202120125F4A3021201251DA402F6
:100E430012012595A402120125C7A402120125D47B
:100E5300A4021201251FA50212012543A5021201B6
:100E63002594A7021201259EA802120125FAA802C1
:100E7300120125CAF001120125DBF101120125BF80
:100E8300F201120125C9F201120125EBF20112014F
:100E930025F7F2011201259BF401120125C8F40183
:100EA300120125DEF50112012533F6011201258217
:100EB300F70112012557F801120125B3F8011201B8
:100EC300251EF90112012553F90112012596F90195
:100ED30012012560FC0112012578FC01120125098C
:100EE300FD0112012517FD0112012564FD01120107
:100EF3002572FD01120125DEFD0112012559FE01B6
:100F0300120125B0FE0112012545D5031201256A00
:100F1300D503120125E0D50312012599F10212012F
:100F230025A2F102120125ABF10212012583F2027F
:100F330012012534F40212012564F4021201258FF3
:100F4300F402120125BFF402120125EAF402120190
:100F5300251EF5021201254AF5021201258DF5021F
:100F6300120125B8F502120125FFF50212012554DD
:100F7300F60212012596F602120125F0F60212017D
:100F8300251BF7021201256AF7021201259AF702BF
:100F9300120125C5F702120125E8F70212012535D2
:100FA300E30312012561E3031201258EE30312011A
:100FB3002598E303120125A8E30312012568E9023A
:100FC30012012572E902120125B3E902120125FC7F
:100FD300E90212012536EA021201258CEA02120106
:100FE30025ADEA021201255CED0212012565ED0231
:100FF300120125B9ED02120125E2ED02120125ECE1
:10100300ED021201255AEE02120125EAEE02120147
:101013002545EF0212012573EF02120125FBEF02B2
:101023001201253AF0021201256FF0021201258107
:10103300F002120125A0F002120125A9F00212010B
:10104300256BF102120125B2E00312012554D303EB
:101053001201258AD303120125BED3031201250BE6
:10106300D50312012521E40312012537E4031201FC
:101073002541E4031201254AAA031201255DAA03AF
:1010830012012521AB0312012560AB031201257D5B
:10109300AB03120125B6AB0312012503AC03120106
:1010A3002535AC031201256CAC031201257FAE0379
:1010B3001201258BE40312012539DA031201255CA1
:1010C300DA031201258BDA0312012523DB03120154
:1010D300253BDB031201257DDB03120125BE8603BD
:1010E300120125008703120125808703120125932E
:1010F3008703120125E887031201253C88031201A7
:10110300258188031201259088031201253F890355
:101113001201259A8903120125E989031201254346
:101123008A03120125508B03120125488C031201F7
:1011330025858C03120125B2E303120125715900A1
:101143001201256F5B001201250C5D00120125B908
:101153005D00120125395E00120125BB5E001201FC
:1011630025E45E00120125365F001201256F63003E
:10117300120125E66300120125FD640012012537E3
:101183006500120125786500120125BF6600120172
:1011930025EE66001201254467001201258D6700C4
:1011A300120125F967001201256D68001201259BC4
:1011B3006800120125B36800120125CC69001201F1
:1011C30025DC6900120125976B00120125AE6B0027
:1011D300120125E06B001201257D6D00120125111E
:1011E3006E0012012548FF0112012559FF0112016A
:1011F300253DE5031201257CE50312012502E603E3
:1012030012012598E203120125A8E203120125C366
:10121300E2031201252BE303120125B0DF031201C0
:101223002535E00312012599E003120125C6DB03EE
:10123300120125EFDB0312012557DC03120125A858
:10124300DC0312012503DD031201258CAE03120119
:1012530025B1AE03120125CEAE03120125EBAE0379
:1012630012012510AF0312012531AF031201255BD3
:10127300AF0312012518B00312012596B003120122
:1012830025BDB003120125C7B00312012500B20327
:1012930012012546BA031201255DBA03120125D7AF
:1012A300BA03120125BBBB0312012592BD03120130
:1012B3002551C803120125EBC80312012587C90371
:1012C30012012518CA03120125C8CA03120125D623
:1012D300CA0312012554CB031201256ACB03120161
:1012E3002574CB031201259E7E001201251E7F006B
:1012F300120125297F00120125437F00120125A138
:10130300D803120125F3D80312012566D90312016C
:1013130025D3D90312012577CB03120125A1CB03D2
:1013230012012570CC031201254CCD03120125DDDA
:10133300CD0312012532E102120125FEE102120161
:10134300253FE20212012579E202120125D7E202CA
:101353001201252BE30212012589E3021201251F45
:10136300E40212012527E502120125B1E60212016A
:10137300254FE702120125B6E702120125C9E7024C
:10138300120125BDE80212012506E90212012561B9
:10139300AA01120125C1AB0112012523AD011201DE
:1013A3002530AE011201256FB001120125BAB0013B
:1013B3001201259CB2011201250DB301120125FC76
:1013C300B60112012553B701120125F1B70112012C
:1013D3002548BA01120125EEBA011201257DBB0190
:1013E300120125B1BC01120125CC7F001201255049
:1013F300FF021201257AFF0212012586E50312017D
:1014030025BCE503120125E4E5031201254F6E0017
:101413001201256D7300E066701008A3E066700A80
:1014230008A3E066700408A3E06622C008C3E09640
:10143300F50808A3E096420808A3E096420808A32B
:10144300E0964208A2D265D033E5087001D3D008F4
:1014530022C3E7960809E7960809E7960809E7967D
:1014630022C3E09608A3E09608A3E09608A3E096BB
:1014730022C008C3E096F50808A3E096420808A333
:10148300E096420808A3E09645087001D3D00822ED
:10149300080808E630E711121D4F1214AB080808BC
:1014A300C64480C618181822181818E9799EC60869
:1014B300CAC608CBC608CCC6C370207996CACBCCA3
:1014C3007019798ECBCC70137986CC700EF9802A83
:1014D300CA33CACB33CBCC33CC331930E7F2CCCBC2
:1014E300CA3350147004EA30E00DE4CA3ACACB3B65
:1014F300CBCC3CCC500209C3E913C6CC182313C68A
:10150300CB18C6CA18C6F92212154B20F01430E7BF
:101513002B74FFFCFBFA747F8022E4FCFBFA7480DB
:10152300801AB48008BC00F2BB00EF800F50EBF9C7
:10153300E4C39AFAE49BFBE49CFCE499C6CC18C68A
:10154300CB18C6CA18C6F922E4C9C608CAC608CB4E
:10155300C6D3330308CCC63392F0C3947F402E9492
:10156300184019C9B90704CACBCC225025C309CAEC
:1015730033CACB33CBCC33CC33D9F422F4600DC98B
:10158300CCC313CB13CBCA13CAD9F6CC22E4FCFBCE
:10159300FA2214FCFBFA22E6C3331846184618460F
:1015A30022E7C33319471947194722181818E608C1
:1015B3004608700AE608C3337005E633F4220822AE
:1015C300191919E7094709700AE709C3337005E7D1
:1015D30033F4220922E6084608C31346083360029F
:1015E300E633F422E7094709C3134709336002E7E7
:1015F30033F4221215D860251215E7602012159ACC
:1016030070030215A4080808E76670101819E76646
:10161300700A1819E76670041819E76622F4221293
:1016230015D8601C1215E7601712159A700712156A
:10163300A47001D322C0D01215A47006D0D0B32257
:10164300C32233D0D0501430E0F6C3E7960809E73D
:10165300960809E7960809E796B32220E0D5E697AE
:101663000809E6970809E6970809E697B3221215D1
:10167300D8601B1215E7601612159A70071215A48D
:10168300600CB322C0D01215A47005D0D022C3229F
:1016930033D0D0501330E0EBC3E7960809E7960840
:1016A30009E7960809E7962220E0E4E6970809E6A9
:1016B300970809E6970809E69722001215D8604FA4
:1016C3001215E76012E7548066F61215AE70111218
:1016D30015A4703B090909F4F618F618F618F62252
:1016E3001215C3701512159A08080860EAE6447FBC
:1016F300F618768018E4F618F62212159A60161278
:1017030015A47012E4F608F608F608E65480F60904
:10171300090918181822EAC0E0EBC0E0ECC0E0EDBC
:10172300C0E0E687F0A4FBACF008E687F0A42CFC4D
:10173300E435F0FA1809E687F0A42C4B6002740133
:10174300CA35F0FCE433FB09E687F0D2F7A42CCBCF
:1017530035F0FC1908E687F0A42BCC35F0FBE43315
:10176300FD0819E687F0D2E7A42C4ACB35F0CD3437
:1017730000FC09E687F0D2E7A42DCC35F0FDE43375
:10178300FA0918E687F0D2F7A42CCD35F0CA340055
:10179300FC08E687F0D2E7D2F7A42ACC35F07A7EAC
:1017A30020E70B0ACB33CBCD33CDCC33CC33CB3388
:1017B30050147004ED30E00ED2F1E4CD3DCDCC3CBD
:1017C300CC3B5005DA05C2F1EB547FC63308E63350
:1017D30092F0FBE73309E733C39A502D2B70190CB2
:1017E3000D4C4D70151806E608C333700D20F10A31
:1017F300A2F013F6E418800B4024E4F630F00276EE
:101803008018F618F618F68024D33B14501074FF92
:10181300A2F013F6187680E418F618F6800FA2F0FB
:1018230013F618E63303F618ECF618EDF6D0E0FDE0
:10183300D0E0FCD0E0FBD0E0FA221215E7604612BC
:1018430015D8603DE9687008F618F618F618F62200
:10185300748067F7121871090909748067F72212F7
:1018630015D8601D1215E77005191919801A12157C
:10187300AE701F1215C3C37003E6673319191940FD
:10188300071818182208080874FFF618F618F6182F
:10189300F6221215C360171215A4702192F01215C7
:1018A3009A7019501720F014080808090909E7F677
:1018B3001819E7F61819E7F61819E7F62212159A18
:1018C30060E6E869701F0808E62480F608E436F647
:1018D30018547FB47F0CE654806007F6E418F618BA
:1018E300F622181822E9C6CC08C6CD08C6CE08C60B
:1018F300CFC0E0E8C0E0EAC0E0EBC0E009E9F809E6
:10190300E7FA09E7FBE6F918E6F8C3EC98ED99EE78
:101913009AEBC2E7F5F0EFC2E795F0500E600CEBDF
:10192300CFFBEACEFAE9CDF9E8CCF8EAA2E7D2E7B1
:10193300FAEB33FB13F5F0EEA2E7D2E7FEEF33FF4A
:10194300C5F013A2E730E601B313C5F0C3C0E0C08E
:10195300F07F00C39BFB605B9418600C401AD0E0DF
:1019630023F9D0E0F8021A408AF0E9486003D2F084
:10197300E4AFF0FAF9F8803BEB30E40D89F0EA606C
:1019830003D2F0E4AFF0F9CAF8EB30E30D88F0EFDF
:101993006002D2F0AFF0E4CAC9F8EB54076014FB5D
:1019A300C3EA13FAE913F9E813F8EF135002D2E08C
:1019B300FFDBEDD0E0C0E030E739C3E49FFFF5F093
:1019C300EC98FC42F0ED99FD42F0EE9AFE42F0D025
:1019D300E0F9D0E0F8E5F0607AE923F9EE20E74298
:1019E300D8028067C3EF33FFEC33FCED33FDEE33F6
:1019F300FE80EAEC28FCED39FDEE3AFED0E023F957
:101A0300D0E0F84002801BC3EE13FEED13FDEC1390
:101A1300FCEF135002D2E0FF08B800067F7F74FF8B
:101A2300802EEF3350178CF020F00260100CBC00B6
:101A33000C0DBD00080EBE000408E860DFE933E8C2
:101A430013FFEE2313FE4F4D4C8008E95480FFE44F
:101A5300FEFDFCEE33EF33F47004FCFD7E80D0E03A
:101A6300FBD0E0FAD0E0F8D0E0CFC618CEC618CD50
:101A7300C618CCC6F9221215D870041818182212E9
:101A830015E7700D74FFF61819F61819F61819F6FC
:101A930022E7548066F612159A700F1215A470F09F
:101AA30014F608F608F608F680D11215A4700CF6A1
:101AB30008F608768008E6447F80EC1215C6700CA1
:101AC3001215B160BFE65480F6E480BB1215B17005
:101AD3000519191980A5E869700C763F18768018E6
:101AE300F618F6E8F922E6CDC0E018ECC0E0E633DC
:101AF300CD33CDD313F6E719FCE7191933CC33C330
:101B0300947F400ECD9D502408E65480F6E418F6E9
:101B1300800FF4043D14501408E6447FF6187680D1
:101B2300E418F618F6D0E0FCD0E0FD22CCD313CCB9
:101B3300FD18E4C6CBC0E018E4C6CAC0E00808ED4F
:101B430008C633E613F618E433C675F003C3CA9721
:101B5300CA09CB97CB199C40047D08802EBD000396
:101B6300021C2216B6FF050606081618C3CA33CA96
:101B7300CB33CB33CA27CA09CB37CB193CC37D0838
:101B8300803E187D0820E75CC633C6CA33CACB3310
:101B9300CB33DDF1D5F0EB30E77BCA97CA09CB979E
:101BA3004ACB199C406F4B7025E620E021806618D4
:101BB3007D08C3CA97CA09CB97CB199CD3C633C632
:101BC300CA33CACB33CB3350C9DDE7D5F0E1D3E415
:101BD300C636C608C636C608C636C608C636C618CA
:101BE30018188031C3CA97CA09CB97CB199CB34045
:101BF30097C633C6CA33CACB33CB33DD34D5F02EC5
:101C0300C6A2E0C640C8CA27CA09CB37194A70BE64
:101C1300CB3CB480B90808E63308E633601F1818D4
:101C230018D0E0FAD0E0FBD0E0FCD0E0FD22187D34
:101C330008CA27CA09CB37CB193CD3808013F618BF
:101C4300E4B67F11F618B6FF0EF618C60470D20874
:101C530008768080CAF618F618F680C5080808EAE0
:101C6300C0E0EBC0E086F0E7A4FA180986F0E7A429
:101C73002AFA180986F0E7A42AFA180986F0E7A4D5
:101C83002AFA1986F0E7A4FBE5F02AFA190886F088
:101C9300E7A42BFBE5F03AFA190886F0E7A42BFB3F
:101CA300E5F03AFA18180986F0E7A4C5F02BFBE42F
:101CB3003AFA1908E7C5F0C6A426F6E5F03BFBE4BB
:101CC3003AFA1886F0E7A4F6E5F00826F6E43B08AE
:101CD300F6E43A08F6D0E0FBD0E0FA22E4CFC0E025
:101CE300E4CEC0E0E4CDC0E0E4CCC0E075F020C3B6
:101CF300E633F608E633F608E633F608E633F61875
:101D03001818EC33FCED33FDEE33FEEF33FFC3EC79
:101D13009709ED9709EE9709EF97191919400FFFE6
:101D2300EC97FC09ED97FD09EE97FE191906D5F01E
:101D3300BEECF709EDF709EEF709EFF7191919D01A
:101D4300E0FCD0E0FDD0E0FED0E0FF22181818E45C
:101D5300C396F608E496F608E496F608E496F622A7
:101D63006016080808C6C313C618C613C618C613D8
:101D7300C618C613C6D5E0EA22700908080822600F
:101D830016181818C6C333C608C633C608C633C6E2
:101D930008C633C6D5E0EA22E627F60809E637F691
:101DA3000809E637F60809E637F622E026F608A31F
:101DB300E036F608A3E036F608A3E036F622E0267E
:101DC300F008A3E036F008A3E036F008A3E036F00D
:101DD30022C3E697F60809E697F60809E697F60898
:101DE30009E697F622C3E096F008A3E096F008A36D
:101DF300E096F008A3E096F022E657F60809E657C6
:101E0300F60809E657F60809E657F622E056F608FB
:101E1300A3E056F608A3E056F608A3E056F622E040
:101E230056F008A3E056F008A3E056F008A3E056E6
:101E3300F022E066F608A3E066F608A3E066F6087B
:101E4300A3E066F622E0F608A3E0F608A3E0F608AE
:101E5300A3E0F622E6F008A3E6F008A3E6F008A361
:101E6300E6F022E0FAA3E0FBA3E0FCA3E0FD22EA14
:101E7300F0A3EBF0A3ECF0A3EDF022CAC0E0E6F090
:101E8300A308DAFAD0E0FA22CAC0E0E0A3C582CC04
:101E9300C582C583CDC583F0A3C582CCC582C58366
:101EA300CDC583DAE6D0E0CA22C3E498F8E499F911
:101EB300121EED8026C3E49AFAE49BFBE920E7E9CE
:101EC300121EEDE498F8E499F922C3E498F8E49932
:101ED300F9121EEDE498F8E499F9C3E49AFAE49B45
:101EE300FB22EB20E7CFE920E7E0B90010BB0008B5
:101EF300E88AF084F8AAF022E4FBC8FA22EB702205
:101F03007B10C833C8C933C9335007C39AC3DBF244
:101F130080069A50012ADBEAC833F4C8C933F4C9EE
:101F2300FA2275F008E4C833C8C933C933C99AC95A
:101F33009B5004C92AC93BD5F0ECFBC833F4C8E471
:101F4300C9FA22600D08C6A2E713C618C613C6D580
:101F5300E0F322600C08C6C313C618C613C6D5E047
:101F6300F422700422600D18C6C333C608C633C6F4
:101F7300D5E0F41822251810AF08F51840021519FA
:101F83008008F51840021519D2AF22C0D0251810C9
:101F9300AF08F518500205198008F5185002051905
:101FA300D2AFD0D0222518F58210AF08F518400221
:101FB30015198008F51840021519D2AF8519832227
:101FC3002518F582E43519F58322E4732518C582B3
:101FD300C0E0E51934FFC583C0E0E518C39582244A
:101FE300F810AF08858319858218800885831985C1
:101FF3008218D2AFCEF0A3E520F0A37808E608F06C
:10200300A3DEFAEFF0A3E58124FAF8E608F0A3E6ED
:1020130008F0A3E608F0A30808E608F0A3E608F032
:10202300A315811581D0E0FED0E0F8158115811547
:1020330081E8C0E0EEC0E0222518C582C0E0E519C2
:1020430034FFC583C0E0E518C3958224F910AF08B7
:102053008583198582188008858319858218D2AFF4
:10206300CEF0A3E520F0A37808E608F0A3DEFAEFAC
:10207300F0A3E58124FBF8E608F0A3E608F0A30843
:1020830008E608F0A3E608F0A315811581D0E0FE69
:10209300D0E0F815811581E8C0E0EEC0E022851993
:1020A30083851882E0A3FEE0A3F5207808E0A3F679
:1020B30008DFFAE0A3FFE0A3C0E0E0A3C0E0E0A3F1
:1020C300C0E0E0A3C0E0E0A3C0E010AF0885821841
:1020D3008583198008858218858319D2AFD083D070
:1020E30082020122851983851882E0A3FEE0A3F50D
:1020F300207808E0A3F608DFFAE0A3FFE0A3C0E03E
:10210300E0A3C0E0E0A3C0E0E0A3C0E010AF088517
:1021130082188583198008858218858319D2AFD0E8
:1021230083D08222C0D02518C582C0E0E51934FFD0
:10213300C583C0E0E518C3958224F310AF088583F7
:10214300198582188008858319858218D2AFC8F053
:10215300A3E9F0A3EAF0A3EBF0A37908E709F0A35E
:10216300D8FAECF0A3EDF0A3EEF0A3EFF0A3D0E0E8
:10217300F0A3D0E0F0A3D0E0F0A3E520F0A3E5F0D6
:10218300F0A322851983851882E0C0E0A3E0F9A3B8
:10219300E0FAA3E0FBA37808E0F608A3DFFAE0FC8B
:1021A300A3E0FDA3E0FEA3E0FFA3E0C0E0A3E0C043
:1021B300E0A3E0F5D0A3E0F520A3E0A3F5F010AF92
:1021C300088583198582188008858319858218D22A
:1021D300AFD082D083D0E0F8D0E0327404800674AC
:1021E3000280027401C0E0F404121FA8D0E0121EA2
:1021F3007E227404800474028000CCC0E0EDC0E051
:10220300E518C39CCCAD1950011D10AF068C188D79
:102213001980068C188D19D2AF121E8BD0E0FDD019
:10222300E0FC22D083D082E9C0E0E493A3C386F02C
:10223300C5F095F0F908E493A386F0C5F095F07026
:102243000BE493A3C3994005E9048002A3E475F06A
:1022530002A42582F582E5F03583F583D0E0F9E425
:1022630093A3C0E0E493C0E022D083D082ECC0E02B
:10227300EDC0E0E493A3FCE493A3FDED4C600D12E9
:1022830022B8EC24FFFCED34FFFD80EFE493A3FCC4
:10229300E493A3FDED4C600D1222F7EC24FFFCED5B
:1022A30034FFFD80EFD0E0FDD0E0FCE493A3C0E079
:1022B300E493C0E022C0E0C3E493960874019396CC
:1022C30018400FE493667008087401936618700051
:1022D3007019A3A3C3E49396087401939618A3A358
:1022E300400DD0E0D0E0D0E00222A8A3A3A3A3A393
:1022F300A3D0E022C0E0C0F088F0E4936670080841
:1023030074019366187000A8F0A3A3700BD0F0D0EB
:0F231300E0D0E0D0E00222A8A3A3D0F0D0E022D7
:1023240074F512203BEAFEEBFFEE2434F8EF3400A0
:10233400F988088909EE243512245CF8EE24371252
:10234400245CF50AEC850AF0A4FCAAF0850AF0EDF9
:10235400A42AFDE82CF8E43DF97A257B00121EED51
:10236400EA850882850983F05407F87401B80002ED
:102374008004C333D8FCC0E0E0131313541FF8EEF9
:1023840028F8EF3400F9E8245DF582E93400F58398
:10239400D0E0F8E0586008850882850983801DEE46
:1023A400243612245CF5F0EA84A8F0EE28F8EF3421
:1023B40000F9E82438F582E93400F583E0F97F0474
:1023C4000220E774F512203BEAFEEBFFEE24341200
:1023D400245CC0E0EE2435F582EF3400F583D0E0D0
:1023E400F08E828F83A3A3A3A3A3E0FAA3E0FB8EC2
:1023F400828F83A3A3A3A3A3A3A3E0FCA3E0FDEC88
:10240400C39AF50AED9BF50BEE2480F508EF340032
:10241400F509850882F583E06401702BEE2481F5CB
:1024240082EF3400F5831221F91224657402121F1D
:102434008EE960137CE27D07EEFAEFFB120AE38576
:102444000882850983E4F0AC0AAD0BEEFAEFFB12C7
:1024540023241227BF0223C2F582EF3400F583E060
:1024640022C082C083851882851983E0F8A3E0F92D
:10247400C3EA9CEB9D5012C3EC98ED994019C3EA52
:1024840098EB99501279018010C3EA98EB9940F5C2
:10249400C3EC98ED9950EE7900D083D082220000ED
:1024A400851A87851BC622C0E074EF122127759B0D
:1024B40000906182E0A2E6400302256CE591A2E669
:1024C400400302256C7591BF900499E0640570087F
:1024D400120CBD120CC98003120CC3751A00120D24
:1024E40035E990049AF07900120D17120A477A011F
:1024F4007B00900498E0F912101D907803E0644288
:1025040060030225B5900817E014F060030225B5B6
:10251400C2AF12251900781DD0E0F618D0E0F6E518
:102524009F5407F970059095D480039095CC780852
:10253400121E48E9C4C0E0781CE65508F50808E610
:102544005509F509740B7808121F56D0E02508F8D0
:10255400906270E0A2E740F8E8C333906272F090B2
:102564006270E0D2E0F08049E0A2E55024E591A257
:10257400E5501E7591DF900499E0640D701390048A
:10258400BBE004F064287002E4F07A00E0F9120D74
:10259400C5906181E0A2E35009E5E9A2E350037527
:1025A400E9F7A3E0A2E75009E591A2E7500375918A
:1025B4007F7F04022186C0E0C0D0C082C0839061C6
:1025C40083E0A2E05009E5BFA2E0500375BFFEE03E
:1025D400A2E15009E5BFA2E1500375BFFDE0A2E20C
:1025E4005009E5BFA2E2500375BFFBE0A2E3500926
:1025F400E5BFA2E3500375BFF7E0A2E45009E5BFCD
:10260400A2E4500375BFEFE0A2E55009E5BFA2E5DF
:10261400500375BFDFE0A2E65009E5BFA2E6500310
:1026240075BFBFD083D082D0D0D0E032C0E074F286
:10263400122127E5A7A2E4500FE5A1A2E450095313
:10264400A7EF75A1EF122684E5A7A2E5500CE5A13A
:10265400A2E5500653A7DF75A1DFE5A7A2E1500963
:10266400E5A1A2E1500375A1FDE5A7A2E2500CE5A6
:10267400A1A2E2500653A7FB75A1FB7F01022186AC
:1026840074F812203B751A01900499E064067007EF
:102694007A007B00120CA5A2AFE433FED2AF900403
:1026A4009FE0640170187A207B00900498E0F9128E
:1026B400109B7A207B00900498E0F912102390611B
:1026C40082E0D2E6F0900816E0602185C61B8016F1
:1026D40090049EE064017008E5C654F84405F5C60C
:1026E40053BEFC1224A47401651A60E4EEA2E092C5
:1026F400AF7F010220E774F112203B8A088B098C1A
:102704000A8D0B740F121FC3780C121E4890961476
:102714007808121E0F909614780C121E0F78087900
:102724000C12145450157808790C121DD49095B4D9
:102734007808121474401579018013780C79081202
:102744001DD49095B4780C12147440EB79007F0872
:102754000220E774ED12203B8A088B098C0A8D0B4A
:102764007413121FC3780C121E4890961478081222
:102774001E0F909614780C121E0F780C7908121400
:102784005440117808790C121DD4AA08AB09AC0A7C
:10279400AD0B8022751000751100751200751301C0
:1027A4007810790C121DD478107908121D9BAA1088
:1027B400AB11AC12AD137F0C0220E7C082C083E9D9
:1027C400906000F0D083D08222C0E074F2122127FE
:1027D400A2AFE433FED2AFC2C0E5D1A2E4500653A7
:1027E400D1EF1212E1EEA2E092AF7F01022186C086
:1027F400E074F2122127A2AFE433FED2AFE589A23E
:10280400E15003121245758900C2C5EEA2E092AFF1
:102814007F01022186C0E074F2122127A2AFE433C3
:10282400FED2AFE58BA2E05003121245758B00C2B5
:10283400E880D8C0E0C0D0E8C0E0E5A8D2AFC2C705
:10284400A2E792AFD0E0F8D0D0D0E032C0E0C0D060
:10285400E8C0E0E9C0E0C008C009C082C083A2AFFC
:10286400E433F9D2AF901061E0F8A3E06870085344
:102874009AFBA374018026C2E9901061E0F5087404
:10288400012508F074E12508F582740F3400F583FE
:10289400E0F5C1901061E0C394804002E4F0E9A245
:1028A400E092AFD083D082D009D008D0E0F9D0E054
:0628B400F8D0D0D0E032A4
:1028BC00FFFFFFFFFFFFFFFFC082C083E99011AF56
:1028CC00F0D083D08202012274F6121FCFE990035C
:1028DC0064F07CA47D037AFF7BFF1207657A008A83
:1028EC000875090074027808121F6574652508F8CC
:1028FC0074033509122923A3F00AEAC3940340DFB9
:10290C0079051206F3900364E0F912061B7A7D7BBD
:10291C0007120933023EA4F98882898374FF1229B5
:10292C0030E4F022F0A3123D31A32274F4121FCF35
:10293C008A088B09EB54806030900364E0F9121024
:10294C00058A0A8B0BAE0AAF0BEE4F60138E828F8B
:10295C0083E064B07003120705EEFAEFFB120FF37D
:10296C00AA08E5096480FB80047A007B00022B0036
:10297C0074F2121FCF74FC121F78EAFEEBFF741274
:10298C00121FC3123D7AEE4F7003022A1F740212FB
:10299C001FC3EEF0A3EF122D5BECF0A3ED122D5B39
:1029AC00AA82AB83120615E9F50A706AE508450997
:1029BC0060648E828F83123D5BEE4F60567A067B8D
:1029CC00001210598A0C8B0DA80CA90DE849700542
:1029DC00750A13804188828983E4122930EEF0A3B2
:1029EC00EF123D8BE508F0A3E509F0900372122A73
:1029FC00FA9003727005123818801B123806800387
:102A0C00EAFCEBFD8C828D83122AFA70F38C828D9A
:102A1C008380E3750A02A90A7404121F8E023F6EAA
:102A2C0074F2121FCF890AE975F045A4FEAFF0903D
:102A3C000371E4F0900367122AFA602812105F7990
:102A4C0000890875090074027808121F65746725DF
:102A5C0008F58274033509F583E4F0A3F009E9C3A2
:102A6C00940340DDEEFAEFFB1210598A088B09EA49
:102A7C0045096075EEFCEFFD7900120FDB7D008DD2
:102A8C000C750D007402780C121F657467250CF818
:102A9C007403350DF9E50AF5F0EDA475F017A4FAF9
:102AAC00ABF0E5082AFAE5093BFB88828983EAF05A
:102ABC00A3EBF07E00801BEE75F017A4FAABF08848
:102ACC00828983E02AFCA3E03B8C82F583E4F0A3AB
:102ADC00F00EEEC3950A40DF0DEDC3940340A0E564
:102AEC000A900371F0790080027913023F6E123460
:102AFC00AAEA4B227F040220A174F4121FCF7900A2
:102B0C00EAA2E0501B75087975099578081221E244
:102B1C007C047D007AB17B111206ED7402121F8EBB
:102B2C0080D2C082C083900372123D7549601C88AC
:102B3C00828983A3A3E06A7003A3E06B88828983F4
:102B4C0070E7A3A3A3A31234A680047A007B00022F
:102B5C0028CD74EE121FCF74FC121F78EAFEEBFF27
:102B6C00851882851983E4F0A3F0EE24021237F85D
:102B7C00EE2405123D38EE2404F50EEF123105E07B
:102B8C0024FE603924FC604624FE605224FE605E04
:102B9C0024FE7003022C7124FE7003022CD524FE3B
:102BAC007003022CE424FE7003022CF324FC70034B
:102BBC00022D0224FE7003022D11022D4E90038B68
:102BCC007417F0A3E4122D6312028B022D4E85189C
:102BDC0082851983AC82AD8312070B022D1E8518DA
:102BEC0082851983AC82AD83120711022D1E850CD0
:102BFC0008850D097402121FC3AC82AD838508824F
:102C0C008509831234A61206398A0C8B0DAC0CADD7
:102C1C000DEC4D603BE4F50CF50D780C1221E275D2
:102C2C000C8B750D03780C1221E2750C8C750D0351
:102C3C00780C1221E27408121FC31221F912407889
:102C4C00121F8EE9F50C700B12349C1202A3800F2C
:102C5C00750C01850882850983122D51123818854F
:102C6C000C08022D217402121FC3AC82AD83850C9B
:102C7C0082850D83123258603C850C82850D83A3AE
:102C8C00A31221F975108B75110378101221E275BE
:102C9C00108C75110378101221E27408121FC312E4
:102CAC0021F9124078121F8EE9F509700B12349C31
:102CBC001202A9800F750901850C82850D83122DD6
:102CCC0051123818850908804C851882851983ACF7
:102CDC0082AD83120717803A851882851983AC82DE
:102CEC00AD8312071D802B851882851983AC82ADAC
:102CFC0083120723801C851882851983AC82AD83CF
:102D0C00120729800D851882851983AC82AD831238
:102D1C00072FE9F508E50860298E828F83A3E0640C
:102D2C0014601F850E82850F83E090038B122D5B40
:102D3C0012405090038C123818E508A3122D631220
:102D4C00028502370712405485188285198322F0B8
:102D5C0085188285198322F07C8B7D03850A8285F8
:102D6C000B831234AA2274EE121FCF74FC121F783C
:102D7C008A0A8B0B8C0E8D0FEA2405F508EB3400B8
:102D8C00F5097C157D0079007A8B7B03120FDBE54E
:102D9C00082402F50CE509123D3B85188285198340
:102DAC0085821085831178101221E28508828509AD
:102DBC0083A3A3A3A312324F1221E2E5082405F545
:102DCC0010E5093400F51178101221E2850C82858A
:102DDC000D831235BD1206337406121F8E8A108BAA
:102DEC0011AE10AF11E50A2402F50AE50B1237FB00
:102DFC00EE4F7003022F3080177402121FC312346F
:102E0C00A688828983EAF0A3EBF090038BE004F0B0
:102E1C0090038BE0C394054003022F30E4F510F5CA
:102E2C001178101221E275107475110378101221AB
:102E3C00E275107575110378101221E27406121FD9
:102E4C00C31221F97910EEFCEFFD12407A121F8E9D
:102E5C00E9705E850882850983A3A3A3A3A3A3A31A
:102E6C00E0F8900374E068704812324F1221E27C53
:102E7C00757D03E5082408FAE5093400FB120FD52B
:102E8C007402121F8EE960298E828F83A3A3A3A3E1
:102E9C001234A690038BE0F51074027810121F65A3
:102EAC00748C2510F58274033511F583EAF0A3EBCD
:102EBC00F07402121FC385821085831178101221C1
:102ECC00E27402121FC31221F9850C82850D831244
:102EDC0034CC121F8E8A108B11AE10AF1190038B55
:102EEC00E0F51075110074027810121F65748B25B3
:102EFC0010F874033511F988828983A3122AFA70A9
:102F0C0003022DFCE82403080808E93400F9EE4F0D
:102F1C006003022E058882898374FFF0A3F090036E
:102F2C008BE004F090038BE0600A12349C12029741
:102F3C007900800B85088285098312380F790A0283
:102F4C00370774EA121FCF74FE121F788C128D1380
:102F5C00EA2405F50CEB124062123D5F7508007512
:102F6C000900EA2402F510EB3400F511851882856E
:102F7C00198385820A85830B780A1221E2850C82DB
:102F8C00850D83A3A3A3A312311B1221E2E50C240C
:102F9C0005F50AE50D1237FB780A1221E2850C8241
:102FAC00850D8312311F1206337406121F8E8A0A86
:102FBC008B0BEA450B70030230D0EA2404F50EEBC0
:102FCC00123105123D5F8A828B83A3A3A3E0F9859E
:102FDC0010828511831234B060030230D0E4F514F2
:102FEC00F51578141221E275147475150378141202
:102FFC0021E275147575150378141221E27406120A
:10300C001FC31221F97913AC0AAD0B8510828511FF
:10301C0083124080121F8EE9F50960030230D090B4
:10302C000374E0F8E5087009E0240290038CF0804A
:10303C001790038CE0FCE82402FAE43400FBEA6C01
:10304C007001EB60030230D4850882AA82123246EA
:10305C00941412323E506D850E82850F83E0C0E0D1
:10306C00123476D0E0F00508850E82850F83A3E03C
:10307C00C0E085080A748D250AF58274033400F5C6
:10308C0083D0E0F0050890037412311B1221E27C0E
:10309C00757D0385080A748D250A12310F121F8E57
:1030AC00900374E02508F50874FF6E700374FF6FCD
:1030BC006012EE24010EEF3400FFE508C3941450A7
:1030CC0003022F78E50860131234BA85108285113B
:1030DC00831234A612029D79008014E509700375E1
:1030EC00090A851282851383EEF0A3EFF0A9097407
:1030FC0002121F8E7F0E0220A13400F50F850E8266
:10310C00F58322FA74033400FB120FC374022212EB
:10311C003D9A22A3A312312522123806FDEEFAEFB6
:10312C00FB2274EE121FCF74FE121F788C0E8D0FC3
:10313C00EA2405F50CEB123D3B750B0090038BE478
:10314C00F0F50AEA2402F508EB3400F50980449006
:10315C00038BE0FA900374E0F812324694171232A3
:10316C003E400D90038BE0F87416C398900374F0F6
:10317C0012324F1221E27C757D03748C2AFA74038F
:10318C00123112121F8E900374E0F890038BE0281A
:10319C00F0050AE50C2416F582E50D3400F583E004
:1031AC00F8E50AC398507490038BE0C39416506BE7
:1031BC00E50AC333F8E433F9E50C28FEE50D39FFD5
:1031CC00851882851983AC82AD838E828F831232EF
:1031DC00587008750B0112380B8050E4F510F5117E
:1031EC0078101221E275107475110378101221E217
:1031FC0075107575110378101221E27406121FC335
:10320C001221F97916850882850983124080121FD4
:10321C008EE9F50B700302315B80BB7C8B7D0385E3
:10322C0008828509831234A61202AFA90B7402021C
:10323C003709E99400C365D03322EA28F8E4340056
:10324C00F9E822E0F5107511007810221236FE8A8A
:10325C00108B11AC10AD11EC4D2274EA121FCF740F
:10326C00FC121F788A0C8B0D8C128D13EA2405F539
:10327C000AEB1237FB750800750900E50A2402F504
:10328C0010E50B3400F5117402121FC385820E85F4
:10329C00830F780E1221E2850A82850B83A3A3A3E8
:1032AC00A3123D401221E2E50A2405F50EE50B348C
:1032BC0000F50F780E1221E28510828511831238E9
:1032CC00011234A01206337406121F8E8A0E8B0F55
:1032DC00AE0EAF0FE50C2402F50EE50D3400F50F24
:1032EC0080388882898374FFF0050812348274FF59
:1032FC00F00508900374E0F50C750D00780C1221A4
:10330C00E27C757D0385080C748D250C12310F122F
:10331C001F8E900374E02508F508EE4F60278E820F
:10332C008F83A3A3A3E0F9850E82850F831234B09B
:10333C00EE2404123D38E96027850C82850D83123A
:10334C003492123818E508700302345C1234BA85D2
:10335C000E82850F831234A61202B57900023471E5
:10336C00E4F514F51578141221E27514747515032F
:10337C0078141221E275147575150378141221E274
:10338C007408121FC31221F97911EEFCEFFD850EA2
:10339C0082850F83124080121F8EE9F509709A8581
:1033AC000882AA82EA9003747009E0240490038CCA
:1033BC00F08025E0F890038CE0F514E82404FCE49C
:1033CC003400FDEC65147001ED70811232469412DC
:1033DC0012323E4003023358850C82850D83E0C0C7
:1033EC00E0123476D0E0F00508850C82850D83A3BD
:1033FC00E0C0E0123482D0E01234D585820C858393
:10340C000D780C1221E27404121FC31221F98510DD
:10341C00828511831234CC121F8E8A0C8B0DAE0C4C
:10342C00AF0D85080C748D250CF874033400F9EE7F
:10343C004F70030232EE851882851983E0888289E9
:10344C00831234D5A3E0C0E0123482D0E00232FC07
:10345C00E509700375090A850A82850B831234927B
:10346C00123818A90974040230FD748D2AF582747F
:10347C00033400F5832285080C748D250CF58274B9
:10348C00033400F583221240548512828513832263
:10349C007C8B7D03850A82850B831234AA22E0FA89
:1034AC00A3E0FB221234AA120621E9F509229003AB
:1034BC008CE0F5F0E5088490038BF07C8B7D032287
:1034CC0012312512063F740422F0050885188285F6
:1034DC0019832274EC121FCF74FE121F788A088B8A
:1034EC00098C0E8D0FEA2405FEEB3400FF1236E832
:1034FC00EE2418123D38EA450B700302358B123658
:10350C00D150291235B08A108B11EA4511606B79B4
:10351C0012AC0AAD0B8508828509831234A685107E
:10352C0082851183121FCDE9F50A7058E4F50AF56E
:10353C000B780A1221E28E828F83A3A3E0F50A781E
:10354C000A1221E2EE24031237F8780A1221E28ED5
:10355C00828F831235BD1207537406121F8EE9F544
:10356C000A7021850C82850D83E0701F8508828589
:10357C0009831234A61202BB8011750A0E800975DC
:10358C000A018004E50A600312380B850C82850D54
:10359C0083E0600479008002A90A7402121F8E7FF6
:1035AC000C0220A18518828519831234AA120741B6
:1035BC0022123806FD8508828509831234AA2274EA
:1035CC00EE121FCF74FE121F788A088B098C0C8D9B
:1035DC000DEA2405FEEB3400FF750E001236E8EA06
:1035EC00450B70030236AF1236D1502C1235B08A0F
:1035FC000E8B0FEA450F604A7912AC0AAD0B8508A9
:10360C00828509831234A6850E82850F83121FCD05
:10361C00E9F50E60030236B28508828509831239FA
:10362C0012AA0AFB1236C370147AFF7BFF1236C340
:10363C00606C88828983E50AF0A3E50BF0750A00BB
:10364C008007750E0E805F050A900371E0FAE50A9B
:10365C00C39A504AE50A75F017A4FAABF088828930
:10366C0083A3A3E02AFAA3E03BFB8A828B83123864
:10367C0001EC4D70D2750A17750B00780A1221E215
:10368C00EEFCEFFD120FC37402121F8EEEFCEFFD69
:10369C008508828509831234A61202C18014750E26
:1036AC00098003750E0112404C850C82850D831226
:1036BC003818A90E0232391207358A108B11A8104E
:1036CC00A911E84922E5082402F508E5093400F5BA
:1036DC00098A828B83A3A3A3E0A2E52285188285A5
:1036EC001983AC82AD838E828F831236FE8A0A8B4D
:1036FC000B22E0FAA3E0FB120639227404121F8E8F
:10370C007F0A0220A174EC121FCF8C108D11EA24B9
:10371C0005F50CEB123D3B750F00EA2402F50AEBA4
:10372C001237FB850A82F5831234A6124107700307
:10373C000237ED750E008071850C82850D83E06477
:10374C0001704F8E828F83A3A31221F98E828F83F7
:10375C00A3A3A3A3E0F51275130078121221E2EED5
:10376C002405F512EF3400F51378121221E212340D
:10377C00A01207537406121F8EE9F50F6014850C06
:10378C0082850D83E4F012404C85108285118312E2
:10379C0038187C177D007900EEFAEFFB120FDB8EE8
:1037AC00828F83E4F0A3F0050E900371E0F8E50E30
:1037BC00C398501EE50E75F017A4F8A9F085088281
:1037CC00850983A3A312406C123801EC4D600302EF
:1037DC00374485088285098374FFF0A3F0E50F70E8
:1037EC00061234A01202C7A90F0235ABF50AEF344A
:1037FC0000F50B22A3123806FD22E0FCA3E0228E7A
:10380C00828F83124054850E82850F83E8F0A3E9E2
:10381C00F02274F6121FCF7C008C0875090074021C
:10382C007808121F651238506A7003A3E06B70069B
:10383C00E8FAE9FB800B0CECC3940340DC7A007BC8
:10384C0000023EA474652508F874033509F98882D2
:10385C008983E02274F7121FCF7F00EF75F003A469
:10386C00F8A9F0EC28F8ED39F988828983E06A70C0
:10387C0003A3E06B7006E8FAE9FB800B0FEFC3942F
:10388C000440D87A007B007F010220A174F6121F3D
:10389C00CF123E4970067A007B008007A3A3A3A336
:1038AC001234A6023EA474F2121FCFE9FE740E125B
:1038BC001FC31239127410121FC3123D7A8C828DE1
:1038CC0083E06402703BA312405088828983E0F548
:1038DC000CA3E0F9A80C74026870037429697021B8
:1038EC00750C02750D00780C1221E278081221E299
:1038FC00780A1221E2EEF91207777406121F8E80F5
:10390C00027901023F6EE0F50AA3E0F50B2274E8A0
:10391C00121FCF74FB121F78E9851882851983F06A
:10392C008A168B178C0E8D0F741F121FC3123D7AC3
:10393C007421121FC31239127423121FC3123D5F5C
:10394C007510008C828D83A3A3A3E0A2E4502A748B
:10395C001D121FC31235B68A828B83E58245837094
:10396C0003023A26790AAC0EAD0FAA16AB17121F3A
:10397C00CDE9F5106003023A29850E82850F83E0AC
:10398C0064026003023CDFA3124050850882850963
:10399C0083A3858212858313E50E2406F50CE50FAF
:1039AC00123D3B88828983E0FAA3E0F9EA2400F512
:1039BC0014E439F515781412226C01000028012842
:1039CC00EE3907000228C53A0328353A0029EF3BA7
:1039DC000129173C0229BE3B0329EF3B0429803CFB
:1039EC00DF3CEE4F703E850C82850D83123D75FADF
:1039FC00E9FB8A828B83E0850A82850B83123D91D9
:103A0C001221E28A828B83A3123806FDAA08AB0925
:103A1C00120FC37402121F8E800375100EA910743E
:103A2C000502405A75100B80F4EE4F70F7850A8230
:103A3C00850B837401F0123D65850882850983F03E
:103A4C007C007D00850E82850F83A3A3A3A3E024B5
:103A5C0001FAA3E03400FB120639EA4B60418A827A
:103A6C008B83E02402F8850A82850B83E028F0EA38
:103A7C002404F8EB3400F988828983E0851282856E
:103A8C001383123DA3123D911221E28A828B831281
:103A9C003800E5082403FAE5093400FB023A1C85DA
:103AAC000A82850B83E02404F07C047D007900AA53
:103ABC0012AB13120FDB023A29EE4F6003023A30BD
:103ACC00123D65FEA3E0FF850A82850B837404F02A
:103ADC00EE850882850983F0EF851282851383F0C9
:103AEC007403121FC3AC82AD83EEFAEFFB123E37A8
:103AFC007003023B9B8A828B83A3A3123D5B7401F0
:103B0C00121FC385820E85830F780E1221E2740575
:103B1C00121FC31221F97CFF7DFF12063F740412A1
:103B2C001F8E8B0FEA450F7033850C82850D831227
:103B3C003D401221E2850C82850D83A31221F97C74
:103B4C00027D007A3D7B961203B77404121F8EE936
:103B5C00700A7401121FC374FFF0A3F08E828F835E
:103B6C00E064027034750C02750D00780C1221E2C1
:103B7C008E828F83123800E5082404FAE50912318D
:103B8C0012121F8E850A82850B83E0240280097431
:103B9C0001121FC3EEF0A3EFF07401121FC3123D0C
:103BAC0051F07401121FC3A3123D49A3A3A3F00249
:103BBC003A29EE4F6003023A30850C82850D831250
:103BCC003801AA16AB1712076B850A82850B837412
:103BDC0002F0EA850882850983F0851282851383B9
:103BEC00EB80CBEE4F6003023A30123D65F8A3E058
:103BFC00F9850A82850B837402F0E88508828509B1
:103C0C0083F0E985128285138380A3850C82850D50
:103C1C00831234A6120FBDEAFC8C82A882C39EE4E8
:103C2C009F404BE86E7001EF70047C00801F85187C
:103C3C0082851983E0FAEE2AFAEF3400FBC3EA9886
:103C4C00EB94005003E08004EECCC39CFCEC850AA2
:103C5C0082850B83F08C0A750B00780A1221E285A1
:103C6C000C82850D83E02EFCA3E03F023A17751001
:103C7C0007023A29EE4F6003023A30850C82850D1B
:103C8C0083124050850A82850B837407F0888289E1
:103C9C0083123D49123D31E0851282851383F0E891
:103CAC002402FAE93400FB8A828B83123D49123DCF
:103CBC0082123D51A3123D8B123D55F0E82405F8BC
:103CCC00E93400F988828983123D55A3123DA3A3E0
:103CDC00023BB7741D121FC3123E427003023A26F8
:103CEC00124050880C890DE8450D7003023A268E5F
:103CFC00108F1178101221E2780A1221E278081242
:103D0C0021E27406121FC3E0F9AC0EAD0FAA16AB7C
:103D1C0017850C82850D83121FCD7406121F8EE938
:103D2C00F510023A29F088828983A322F50CEF342E
:103D3C0000F50D22E0F50E750F00780E22E08508D7
:103D4C008285098322123DAA22123DAAA3A322A393
:103D5C00A3A3A3E0FEA3E0FF22850C82850D83E0E4
:103D6C00F8A3E0F5838882E022124054E822E0F5C3
:103D7C0008A3E0F50922A3A3F08A828B83A3221265
:103D8C002932A3A322F08A828B83123D9A22E0F57A
:103D9C000A750B00780A22123D31123DAA22E085E9
:103DAC000882850983A3A32274EE121FCF74FE121E
:103DBC001F788A0A8B0BECFAEDFB7414121FC3E00C
:103DCC00F510A3E0F5117416121FC3E0FE7418125F
:103DDC001FC3E0F50EA3E0F50F851882851983AC9F
:103DEC0082AD83123E37603E851882851983123E60
:103DFC0042602FA3A3123D7AE50845096024780E92
:103E0C001221E278101221E2EEF9AC0CAD0DAA0AE7
:103E1C00AB0B850882850983121FCD7404121F8E8B
:103E2C008006790E800279010232391206398A0C29
:103E3C008B0DEA450D221234AA123E49221206FFBE
:103E4C008A828B83E58245832274F6121FCF74FE1F
:103E5C00121F78740C121FC3123D758518828519B8
:103E6C0083F07401121FC3E9F0E4F508F509780832
:103E7C001221E275080278081221E27404121FC3A1
:103E8C0085820885830978081221E212075374068B
:103E9C00121F8E7402121F8E7F020220A174F71261
:103EAC001FCFEAFEEBFF89087CA47D0312076BEAA7
:103EBC005402600BA908EEFAEFFB12062D80027972
:103ECC000102389374F6121FCF74FF6A700374FFEB
:103EDC006B701B7B00EB75F003A4F8A9F0EC28F8D1
:103EEC00ED391229230BEBC39404501480E712070D
:103EFC003B8A088B09A808A909E849600312292400
:103F0C00809674F6121FCF12073B8A828B83E58250
:103F1C0045836006A3A3E0FA80027A007B00023E90
:103F2C00A474F2121FCF8A088B09ECFEEDFF740EFD
:103F3C00121FC3E0F50A123F73701CEEFCEFFD7A02
:103F4C00FF7BFF123F73700479118016888289837E
:103F5C00E508F0A3E509F088828983A3A3E50AF0BC
:103F6C0079007F060220A112073B8A0C8B0DA80C4E
:103F7C00A90DE8492274EE121FCFEAFEEBFF8C0864
:103F8C008D09890C7412121FC31240507414121F25
:103F9C00C31238017416121FC31234A6750D00EC2F
:103FAC004D60030240447402650C600302403F887C
:103FBC00828983123806F9EC2400F50EE439F50FEA
:103FCC00EAF4F8EBF4F9EC58F8E50F59F9E8497014
:103FDC005DE5082406F8E5093400F9880A890B88A0
:103FEC0082F58312312112076B8A108B11E50E6555
:103FFC00107004E50F65116042780E1221E2850AFB
:10400C0082850B831231211207717402121F8EE903
:10401C00F50D7027780E1221E2850882850983A39D
:10402C00A312311F1207837402121F8E800D750D9F
:10403C00808008750D0D8003750D0BA90D02370CD2
:10404C008E828F8312405422E0F8A3E0F922121FD3
:10405C008E7F100220A13400F50D850C82F5832291
:10406C00E028FEA3E039FF8E828F83227916850A21
:10407C0082850B831234AA12074D74082274F21233
:10408C001FCFEAFEEBFF890B7401650B600E740207
:10409C00650B70647901120951E9705CEEFAEFFB63
:1040AC001241076048750A00800B7C177D0079006F
:1040BC00120FDB050A900371E0F8E50AC398502251
:1040CC00E50A75F017A4F8A9F0850882850983A381
:1040DC00A3E028FAA3E039FB8A828B83123D754951
:1040EC0070C885088285098374FFF0A3F07CA47DD9
:1040FC0003EEFAEFFB120765023F6E1207358A08D2
:10410C008B09EA45092274F2121FCF8A088B09EC3D
:10411C00FEEDFF740E121FC31239129011AFE0F4B2
:10412C00603D7A097B00120FEDEA4B60328A828B7C
:10413C008374B1F0A3E4123D84A3123D82A3E5087D
:10414C00F0A3E50912416EEEF0A3EF12416EA3A3AA
:10415C00E50AF0A3E50BF09011AFE0F9120FF902AC
:10416C003F6EF08A828B83A3A3A3A3A322C082C039
:10417C00839061907404F0A37448F0A3E4F0906110
:10418C00807440F09061BC7407F09061877469F0A2
:10419C009061B67416F07900120A4D7902120A5326
:1041AC009028BCE493F46006E493F9120A2979058B
:1041BC00120DA70245DFC082C083E9540FF990614C
:1041CC0085E0696012E5C654804449F5C6E59E5405
:1041DC007F644970F8E9F053C680E59E547F70FA0D
:1041EC000245DF74F7121FCFE5A8FE53A87E120A12
:1041FC0035C2BA539AFEC289759B00C2C2120A3BE1
:10420C0075A91175B905120A41D2BA439A01748085
:10421C005E42A80254E2C082C083906181E4F0A3A4
:10422C00F0A3F00245DF75E90075910075BF00023F
:10423C000122C082C083906181E4F0A374C0F0A31A
:10424C00E480DFC082C08374F8121F7890049B1244
:10425C004C55E849700302430690049BE0544060BF
:10426C00237908851882851983AA82AB83120B5B8C
:10427C00851882851983AA82AB831207EF90049B61
:10428C00E054BFF0E054806010790C7A387B08124F
:10429C000B5B90049BE0547FF0E0A2E050087900A7
:1042AC0012430E54FEF0E054026008790112430EE2
:1042BC0054FDF0E054046008790012431954FBF0EB
:1042CC00E054086008790112431954F7F0E05410D7
:1042DC006008790212431954EFF0E0542060087919
:1042EC000312431954DFF0A3E05401600D120A5F6E
:1042FC0012080190049CE054FEF07408121F8E0208
:10430C0045DF120A4D1207F590049BE022120A5366
:10431C001207FB90049BE022C082C083E960051465
:10432C00602A804F90619A7433F0A37455F09061B9
:10433C00A0743AF0900814E064017009C2919004E2
:10434C009D7467802D90049D7461802690619A7491
:10435C003FF0A3745AF09061A0747FF0900814E0C1
:10436C0064017009D29190049D7471800590049D34
:10437C00746AF00245DFC082C083E9600B14600DE3
:10438C0014600F14601180209028C080159028C1F3
:10439C0080109028C2800B900814E0640160F390A8
:1043AC0028C3E493906186F00245DF74EE121FCFB0
:1043BC0074F4121F78851882851983AC82AD8375CD
:1043CC0083957582F07404121E8B9028C093F46050
:1043DC0003024549907808E0C39402500302452932
:1043EC007404121FC3AC82AD83758395758262749D
:1043FC0008121E8BF97AFF7BFF7FFF7E0089828576
:10440C008210801874086E70030244DE74096E709A
:10441C00030244DE740A6E70030244DEE510C333FB
:10442C00FCE433FD7404121FC3E5822CF582E58392
:10443C003DF583E0F50EA3E0F50F8E0875090074C9
:10444C00027808121F6574482508FC74783509FD3C
:10445C008C828D837808121E4874087808121D63AC
:10446C0085080C85090D8C828D837808121E487482
:10447C00187808121D63E50C4508F508E50DF509DB
:10448C00C3E50E9508E50F95098C828D837808128B
:10449C001E488C828D837808121E48741878084048
:1044AC0014121D63E50C4508FCAD0DE50EC39CFC18
:1044BC00E50F9D800F121D63E50C4508C3950EFC9E
:1044CC00E50D950FFDC3EC9AED9B5006ECFAEDFB58
:1044DC00EEFF0EEEC39413500302441074FF6A7087
:1044EC000374FF6B602D8F0874027808121F6574BB
:1044FC004812516374783509F5837808121E488583
:10450C001882851983E5822510F582E5831250A166
:10451C00E508F009E9C3940450030244017508014D
:10452C0075090078081221E27402121FC3AC82AD27
:10453C00837A307B0A1212217402121F8E740C12B1
:10454C001F8E7F0A0220A1C082C083906186E0F892
:10455C009028C3E4936870099028C2E49390618614
:10456C00F09061AE7468F0A3746AF090624574FBCD
:10457C00F0A304F053F4FD43FE029008147401F010
:10458C009061A0E0643A7004790080027901120A0B
:10459C004D0245DF7F040220A1C082C0839007F248
:1045AC00E0640170179007F8E0F87401686009E89E
:1045BC00700AA3E064017004790C8012900809E081
:1045CC006401700890080FE0640160EC79008003CE
:1045DC0012473CD083D082020122124CAD940622A9
:1045EC00E0C4333354C022C082C0839007FC7425CE
:1045FC00F09007FA7401F0A3E4F07A01FB120D239A
:10460C009007E8E024161246407483F0A3740AF075
:10461C009007F9E0640170169007F8E070107901CA
:10462C00120D83120D53120D7D7900120D8F024560
:10463C00DFE02414F8A3E0124647223400F9888204
:10464C0089832274F6121FCF74FA121F789007F127
:10465C00E064017008120A6B9007F1E4F075E1F167
:10466C009007E8E024151246407401F09007F3E03F
:10467C0064017053909591C082851882851983AC22
:10468C0082AD83758395D0827406121E8B75D90DFD
:10469C009007EA1245EC4403F5D97800880874EBCE
:1046AC0012516374071245E640F2780088088518A9
:1046BC0082851983E582125163E5831245E640EC4D
:1046CC0075E195790180027900120D299011D112B2
:1046DC00474274FDF0A3740BF0A3124742124742F9
:1046EC001248A17403F0A3740C1248B69007EAE0C8
:1046FC00F97AEB7B07120D059007FC12473C790108
:10470C00120D2F9095F8121E66120D4790962012DE
:10471C001E66120D117900120D9B9007E812463D92
:10472C007416F09004997405F004121F8E024D3E1D
:10473C00E0F91227BF2274F7F0A3740BF0A32274D4
:10474C00F4121FCF8908A808124885900801E0F9D7
:10475C007A027B08120D0590080FE0701A7900128E
:10476C000D659007DBE0700B79007ADC7B07120D8E
:10477C000B8009790180F37901120D6575E1F175F2
:10478C00D9239008011245EC4405F5D97800880A24
:10479C007402250AF58274081245E640F175D900B9
:1047AC0075D90075D90075D90075D90075D9007AFD
:1047BC00001259112422124BD040F67A00125911D2
:1047CC002426F582E9124D460AEAC3940340EEEE24
:1047DC00242B124D437A00125911242C124BD64023
:1047EC00F67A00125911242E124BD640F67A00128A
:1047FC0059112430124BD640F67A0012591124323A
:10480C00124BD640F67A008A0AEE250AF8EF1251BE
:10481C0051124BE3940540EFEE24371253A3541F6F
:10482C00F8EE242A1253A3C43354E048F5D975E1A9
:10483C00959011D174CDF0A3740BF0A374D3F0A3A5
:10484C00740B12489874D9F0A3740B1248B69008E4
:10485C000E12473C9095F8121E66120D479096204A
:10486C00121E66120D1190600DE4F07901120D9B71
:10487C009004997406F00245A0E875F006A4C8AA45
:10488C00F02AF974C928FE740439FF22F0A31248E7
:10489C00A11248A1221248A52274C7F0A3740BF0F0
:1048AC00A374C7F0A3740BF0A3221248BA22F090A1
:1048BC0011DF1248C6A31248C6221248A574C7F0CD
:1048CC00A3740BF02274EC121FCF9007FF125459F3
:1048DC007810121E48900810E0FAF875F006A4C87B
:1048EC00ACF02CF974F728F582740439F583E0FEEA
:1048FC00A3E0FFEEC333FEEF33FF8E0CF50D750E08
:10490C0000750F0085100885110985120A85130B97
:10491C009095DC7808121DAE78081221DE851008FF
:10492C0085110985120A85130B7808790C121D9BC9
:10493C007810790C121CDFE4F50EF50F7808790C61
:10494C00121DD48A0C750D007403780C121F657837
:10495C0008790C121D9B9096147808121E0FAA0849
:10496C00AB09AC0AAD0B1227577404121F8E8A08C0
:10497C008B09A808A909C3EE98EF995006E82EF800
:10498C00E93FF9E890600EF0E9A3F0EEA3F0EFA395
:10499C00F090600D74C1F07F0C0220A1C082C08326
:1049AC009007E81249C89007FC0245DCC082C0831E
:1049BC009007FF1249C890080E0245DC12545DA303
:1049CC00A3A3A3E4F0A3F02202012274F2121FCFDE
:1049DC00124B22F50AEF124E99600478048002788B
:1049EC0000E8240EF8EAC3985003024A8075080CBC
:1049FC00900818E4F0EE24771253A3900819F0797C
:104A0C0002EE2478FCEF3400FD7A1A7B08120B4975
:104A1C007902EE247A124A85247C124A85247EFC83
:104A2C00EF3400FD120B49EE2475124B38850A82C7
:104A3C00850B83E060167508187509087808122133
:104A4C00E27C0C124FAD121F8E75081074012508F4
:104A5C00F5D975D90378008009880A7418250A12CB
:104A6C004B17E8C3950840F175E1957904120D4D8B
:104A7C0079018002790002514CFCEF3400FD120BDD
:104A8C00497902EE2274F2121FCF124B22F508EF75
:104A9C003400F509850882F583E06004780480020F
:104AAC007800E8240AF8EAC3984055750A0890087B
:104ABC00187401F079057CE27D077A197B08120BDA
:104ACC0049EE2481124B38850882850983E06016F3
:104ADC0075081875090878081221E27C08124FAD88
:104AEC00121F8E750A0C124DA08003124B11E8C3D5
:104AFC00950A40F775E1957904120D4D7901800204
:104B0C00790002514C880874182508F58274081233
:104B1C0053AAF5D90822124B2622EAFEEBFF90612C
:104B2C00D0E0F87480C398FAEE248322FCEF3400B2
:104B3C00FD8E828F83A3A3A3A3A3124C598C828DC9
:104B4C0083E028F0A3E039F07902120B492274F6C5
:104B5C00121FCFEAFEEBFF9061D0E0706275D9189E
:104B6C0075D90375D9037A008A08EE2508125916EF
:104B7C00249C124BFA40F17A008A08EE250812594F
:104B8C001624A4124BD640F17A008A08EE2508129E
:104B9C0059162494124BFA40F17A008A08EE250833
:104BAC001259162488124BD040F175E1957908EE14
:104BBC002494124BF32488124BEA124CC5800279D0
:104BCC0000024D3E124BDC940422124BDC94022268
:104BDC00F582E93400F583E0F5D90AEAC322FAEF4D
:104BEC003400FB120B4F22124BEA7904EE22124BCB
:104BFC00DC94082274F6121FCFEAFEEBFF90081823
:104C0C007406124CB81221E27C017903124FB312D4
:104C1C001F8E75D90675D9037800124C9D40FB7513
:104C2C00E195900499E064087017EE2470F582EF1A
:104C3C00124C52EE2472F582EF1250A1E8F0A3E967
:104C4C00F07901024D3E12515E124C5922E0F8A34C
:104C5C00E0F92274F6121FCFEAFEEBFF9061D0E070
:104C6C00702A900818740A124CB81221E27C01794F
:104C7C0003124FB3121F8E75D90675D90378001223
:104C8C004C9D40FB75E195124CCA80027900024D97
:104C9C003E880874182508F5827408124CAD9405EA
:104CAC00223400F583E0F5D908E8C322F075081822
:104CBC0075090878082275E1957904120D4DEE24DA
:104CCC0070F582EF12515E124C59EE2472F582EFA0
:104CDC0012515EE8F0A3E9F079012274F6121FCFAD
:104CEC00EAFEEBFF9061D0E07043790190081874F4
:104CFC000BF0900499E06407701775081875090893
:104D0C0078081221E27C010909124FB3121F8E7927
:104D1C0005740129F5D975D90378008003124B115C
:104D2C00E8C39940F875E195124CCA80027900806D
:104D3C0001F07F020220A1F582EF1253AAF5D922CD
:104D4C0074F5121FCF124DCF6004780480027800E6
:104D5C00E8240BF8EAC3984036750A0990081874D1
:104D6C0008F0F9124DB86014750818750908780820
:104D7C001221E2124FAB121F8E750A0D124DA0803C
:104D8C0003124B11E8C3950A40F7124CC28002790A
:104D9C000002501A7401250AF5D975D9037800223E
:104DAC00EE241DF582EF1250B3A3F022EE24E5FCA5
:104DBC00EF3400FD7A197B08120B498508828509AE
:104DCC0083E022124B26F8EF12552DF583E0227466
:104DDC00F3121FCF8A088B09124FBEFAE508248301
:104DEC00F50AEB124E996004780480027800E824EE
:104DFC0008F8EAC3985003024E92750C06900818F6
:104E0C00740CF09004B6E0900819F07402C0E0F94C
:104E1C007CB77D047A1A7B08120B49D0E0F97CB977
:104E2C007D04120B49850A82850B83E0601C750A90
:104E3C0018750B08780A1221E27C067903AA08ABD4
:104E4C0009124FB3121F8E750C0A7401250CF5D97B
:104E5C0075D90378008009880A7418250A124B1733
:104E6C00E8C3950C40F175E1957904120D4DE508F8
:104E7C002470F582E509124C52E5082472F582E59E
:104E8C0009124CDC800279007F050220A13400F568
:104E9C000B850A82F583E02274F6121FCFEAFEEB33
:104EAC00FF124FBEFCEE2483F8EF124FB960047A68
:104EBC000480027A00EA2404FAECC39A405E7A0277
:104ECC00900818EAF0EE24F7F582EF124F346019CF
:104EDC0075081875090878081221E27C027903EE2E
:104EEC00FA124FB3121F8E7A0674012AF5D975D9AE
:104EFC000378008003124B11E8C39A40F875E195D2
:104F0C00EE2474124F2DEE2480124F2D124DAC79DD
:104F1C0004120D4DEE240D124CCD80027900024D81
:104F2C003EF582EF1250B3221253AA900819F08862
:104F3C00828983E02274F6121FCF124FBEFEEA2440
:104F4C0083F8EB124FB960047C0480027C00EC24E3
:104F5C0004FCEEC39C40437C029008187407F0EAF2
:104F6C0024F8F582EB124F34601575081875090892
:104F7C0078081221E27903124FB3121F8E7C06744B
:104F8C00012CF5D975D90378008003124B11E8C3B5
:104F9C009C40F875E195790180027900024D3E7CC8
:104FAC00097903EEFAEFFB120BBB7402221246478F
:104FBC00E0229061D0E0F87480C3982274F5121F3F
:104FCC00CFE9FEA2AFE433F50AC2AF7F00EA246F4B
:104FDC00F8EB3400F980010F88828983E0FCEFC381
:104FEC009C50188F08EA2508FCEB3400FDEC246B70
:104FFC00F582ED1253A66E70DE800DEA2CFAEB12E0
:10500C005336EE124F3A04F0E50AA2E092AF7F035A
:10501C000220A174F6121FCFA2AFE433FFC2AFEA95
:10502C00246FF8EB125918FCE9FD8C828D83E01487
:10503C00F07E00801E8E08EA2508F8EB1259182421
:10504C006CF582E91253A6C0E0E8246B12509ED096
:10505C00E0F00E8C828D83E0F8EEC39840D7EA2402
:10506C006EF582EB1250A174FF1250A5EFA2E092E4
:10507C00AF024D3EC082C083E5A8F8C2AFEA246BF4
:10508C00F582EB1250A1E91250A5E8A2E792AF020B
:10509C0045DFF582E912515E22F0EA246AF582EBD3
:1050AC001250B322F582E93400F583E4F02274F255
:1050BC00121FCF8C828D83A3A3A3A3E0541FF0EA0D
:1050CC0024361256608E828F83E4F0F50C850C82A8
:1050DC0085820AEC250AF8ED125529F583E0C0E02B
:1050EC00EA250AF8EB125151D0E0F0750D00850855
:1050FC0082850983E0F50A750B00E50D780A121F0D
:10510C0046E50AA2E05027E50C33333354F8250D5D
:10511C00C0E08E828F83E0F8EA28F8EB125918244D
:10512C003812509ED0E0F08E828F83E004F0050D93
:10513C00E50DC3940840B7050CE50CC39405408DF0
:10514C007F060220A13400F9E8245D12515B22F5A0
:10515C0082E93400F583222508F5822274F6121FA9
:10516C00CF9004C5E0640370077A007B00024D3ECB
:10517C007C00ECF875F006A4C8AAF02AF974CB28C8
:10518C00F582740439F583E0600302531A1255A2B8
:10519C00125348E4F0E82404FAE93400FBEAFEEB8D
:1051AC00FFEC8E828F83F0E8246212532724651261
:1051BC005357246812509E125348A3A3E4F0A31231
:1051CC0053ECA312535B240F125327243512532F85
:1051DC00121E66E8241812509E121E72E8241C122D
:1051EC005343241D125357248012534324741253D7
:1051FC0043246912509E7480F0E8246A12534324AD
:10520C006F125343246712534324ED12534324EE7D
:10521C0012534324EF12534324F012534324F1123C
:10522C00535724F312535724F61253432483125327
:10523C004324D312534324D412532F121E66E82452
:10524C00D512509E121E729095F4121E66E824D947
:10525C0012509E121E72E824DF12534324E11253A3
:10526C004324DD12534324E212534324E3125343E9
:10527C0024F912535724FB12535724FD125357246D
:10528C00FFF582E9124DB2FC8C08E82508FAE91208
:10529C00533674FFF00CECC3940440EC7C008C820D
:1052AC00AA8274E22AF58274071253A6C0E0E82A97
:1052BC00FAE93400FBEA245DF582EB1250A1D0E050
:1052CC00F00CECC3940540D67C008C82AA8274ADA1
:1052DC002AF58274041253A6C0E0E82AFAE93400D5
:1052EC00FBEA24E5F582EB1250A1D0E0F00CECC304
:1052FC00940840D69004C5E004F0640170098E82D5
:10530C008F83E09004C7F0E8FAE9FB0251790CECCA
:10531C00C39403400302517502517E12515B740118
:10532C00F0E8221250B09095F4223400FBEA246B82
:10533C00F582EB12515E221250B0E8227401125326
:10534C004E22F088828983A3A3A32212515BE4F03E
:10535C00A3F0E822C082C083EA2403F582EB125347
:10536C00A66008E4F09004C6E014F09004C5E014C4
:10537C00F070069004C774FFF08A828B83A3A3E4B9
:10538C00F09007E7E0700D9004C6E06401700579B9
:10539C0000120D170245DFF582EF1253AA223400DA
:1053AC00F583E022C082C0837B00EBF875F006A485
:1053BC00C8AAF02AF974C528F874041255ACA3A332
:1053CC00A3A3A3E41253ECF00BEBC3940340DB90C8
:1053DC0004C5E4F0A3F0A374FFF075E1F10245DF1E
:1053EC0012534EA3A3A32274F5121FCF7508007598
:1053FC000900750A00A80A1248858E828F83A3A320
:10540C00A3E0602DE5084509700AEEF8EFF988086D
:10541C008909801D8508828509831254591221F54A
:10542C00125455121E661226FA7404121F8EE9606D
:10543C00D9050AE50AC3940340BB85088285098314
:10544C00A3A3A3A3E0F902501A8E828F8312545D9A
:10545C0022E0F8A3E0F5838882A3A32274F7121F3D
:10546C00CF78FF79FF7F00EFFC75F006A4CCAEF08F
:10547C002EFD74C92CFC74043DFD8C828D83A3A37A
:10548C00A3E06040EC2474F582ED1253A6FE74FF89
:10549C0068700374FF69701574016E700BEC247ADC
:1054AC00F582ED124C52801CEC242E80F374016EAC
:1054BC00700AEC247A1254E7500A80E1EC242E1284
:1054CC0054E740E40FEFC39403409CC3EA98EB9974
:1054DC004004E8FAE9FB7F010220A1F582ED1251AC
:1054EC005EC3E098A3E0992274F6121FCFEAFEEB9C
:1054FC00FF120AEFEE2465F8EF125529125537EC1E
:10550C004D60109004C712584D850882850983E4BC
:10551C00F0A3F0EEFAEFFB120C3F024D3E12552DAC
:10552C00223400F988088909888222F583E0FCA3DB
:10553C00E0FD2274F7121FCFEAFEEBFF8E828F8301
:10554C00A3A3A3A3E0FA7B0012086DEEFAEFFB1203
:10555C000B07120C210254E2C082C0837B00EBF8D3
:10556C0075F006A4C8AAF02AF91255A2A3E0601A95
:10557C00E8246FF582E91253A6600FE8246BF582DC
:10558C00E91253A67004790180090BEBC394034014
:10559C00CD79000245DF74C928F874041255AC2289
:1055AC0039F988828983A3A32274F6121FCF78005D
:1055BC00880874AD1251637404124F3008E8C39418
:1055CC000840ED9004AD7401024D3DC082C083745F
:1055DC00FC121F789095F4121E668518828519832B
:1055EC00121E72120B55E9851882851983F0120B65
:1055FC00557401121FC3E9F0120B557402121FC32C
:10560C00E9F0851882851983121E6674040243081A
:10561C0074F6121FCFEA240D125660EC2403F8ED39
:10562C003400F988088909EC2407F8ED125918FCA4
:10563C00E9FD12566A121EED8E828F83E8F0A3E903
:10564C00F012566A121EED8B09EA450960031256D8
:10565C007D024D3EF8EB3400F9E8FEE9FF228C8226
:10566C008D83124C59850882850983E0FAA3E0FBEF
:10567C00228E828F83E02401F0A3E03400F02274A8
:10568C00F6121FCFEA242EF582EB3400125537EABE
:10569C002470125660780079FAECFAEDFB121EEDCC
:1056AC008E828F83E8F0A3E9F0780079FAECFAEDBA
:1056BC00FB121EED8B09EA4509600312567D024D63
:1056CC003E74F0121FCFEAFEEBFF7410121FC3786A
:1056DC0008121E48120CD58A0C8B0D8C0E8D0F9057
:1056EC0095D8780C121DAE909614780C121E0F786B
:1056FC000C1221DE125455121E661226FA74041274
:10570C001F8EE960030257B18E828F83E02402F86A
:10571C00A3E0125918FAE9FB8A828B837808121DD0
:10572C00C19096147808121E488A828B83780812CE
:10573C001E22EE240BF582EF1250A1C082C0838E84
:10574C00828F83A3A3A3A3A3E02401F8A3E03400D6
:10575C00F9D083D082E0687003A3E069700479010A
:10576C008045EE2407F8EF124647125681EE24745A
:10577C0012591D7014EE24751257B87003A3E06D06
:10578C0070078A828B83125681EE248012591D7009
:10579C0014EE24811257B87003A3E06D70078A824F
:1057AC008B8312568179007F080220A1FAEF340016
:1057BC00FB8A828B83E0FCA3E0FD88828983E06C0A
:1057CC002274F3121FCF9004C7E0F8124886EE241F
:1057DC0004F50AEF3400F50BEE2465F508EF340000
:1057EC00F5098010125539850882850983E4F0A3E8
:1057FC00F0125847850882850983125539EC4D60A3
:10580C0030EE24641253A3F50C780C1221E6EE242E
:10581C00631253A3F9EEFAEFFB120B3D7401121F46
:10582C008EE985088285098360BA124C55E8497067
:10583C00077C007D00125847024E94850A82850B26
:10584C0083E0FA7B001208252274F2121FCFEAFEC5
:10585C00EBFF890A740E121FC3E0FAEE2462125990
:10586C001D600302590C124FBEF50CEE248312532B
:10587C00A3FB60047804800278008908E928F8E426
:10588C0012591824020808E93400F9E50C98E49937
:10589C00A2D265D0334065EA7005750B02800375A2
:1058AC000B01EB603375090078081221E27A187B42
:1058BC0008120B857402121F8E750818750908786A
:1058CC00081221E2AC0AA90B124FAF121F8E7404FE
:1058DC00250AF50A7C187D087401250AF5D9850B73
:1058EC00D97800800A8808EC125163ED124B1BE842
:1058FC00C3950A40F075E19579008006790780021E
:10590C0079FF02514C8A0AEE250AF8EF3400F9E8C7
:10591C0022F582EF1253AA640122C082C083800355
:10592C00125954E9F874FF28190470F4ECFAEDFBE1
:10593C000245DFC082C0838003125954E9F874FF1A
:10594C0028190470F40245DF8C828D83E08A828BE7
:10595C0083F08C828D83A3AC82AD838A828B83A3EC
:10596C00AA82AB832274F4121FCFE9FF7E008A084F
:10597C008B09780812222600040F425BA859C459DF
:10598C00D959EE59035A185A345A4D5A5F5A8D5AEE
:10599C00AF5ACB5AE75A055B425B265B74016F70BA
:1059AC00128C828D83E0C394035008E09011F3F0C5
:1059BC00025B607E18025B6074026F70F68C828DE5
:1059CC00831263519011F4E8F0A3E980E274016F43
:1059DC0070E18C828D83E0C3940250D7E0900DDC93
:1059EC0080CD74016F70CC8C828D83E0C394055094
:1059FC00C2E0900DDD80B874016F70B78C828D831E
:105A0C00E0C3940250ADE0900DDE80A374106F7073
:105A1C00A27508108E0978081221E27ADF7B0D122C
:105A2C00673E121F8E025B6074016F70868C828DD4
:105A3C0083E0C3940240030259BFE0900DEF02597A
:105A4C00BB74016F60030259BF8C828D83E090118F
:105A5C00F7808D74046F60030259BF909604780828
:105A6C00121E488D838C82780812146440030259EC
:105A7C00BF8C828D83121E66900DF1121E72025B1A
:105A8C0060EF60030259BF12054FE9700E1211AF9F
:105A9C0079501213891211A3025B60900E84740169
:105AAC000259BB74016F60030259BF8C828D83E075
:105ABC00C3940240030259BFE0900DF00259BB742D
:105ACC00016F60030259BF8C828D83E0C3940A403E
:105ADC00030259BFE09011F60259BB74016F6003C9
:105AEC000259BF8C828D83E024F9C3940A400302CF
:105AFC0059BFE09011F80259BB74016F6003025951
:105B0C00BF900E83E0F88C828D83E0900E83F0E8DA
:105B1C007042E06401703D025AA174016F6003028F
