:020000040000FA
:0600000002010A02274282
:03002B000224228A
:03003300022404A0
:03003B0002243B61
:030043000223B8DD
:030053000227B8C9
:03006B000223DE8F
:10008300022633E5C754F84401F5C779012200007D
:100093000080FB120086B900030200F4E4792178A2
:1000A30008B800028004F709D8FCE479297802B87B
:1000B30000028004F709D8FCE490028178AC790946
:1000C3008002F0A3D8FCD9FA900B2CAA82AB8390C0
:1000D300013A787979048015E493A3AC82AD838ADD
:1000E300828B83F0A3AA82AB838C828D83D8E9D9D8
:1000F300E77582267583BE740312011C75829175A0
:100103008300740012011C75D00075813F7518813E
:10011300751902759F00020096C09FF59FE473D086
:100123009F22D083D082C09FE493C0E0740193C028
:10013300E0740293F59F22FFFF0202020202020211
:100143000202010D00000010010275930100004C32
:10015300930287930100002E0B026F930100009E10
:10016300020287930100002F0B025D93010000FF41
:1001730091028793010000300B025F93010000E4BA
:1001830091028793010000310B026193010000513A
:1001930091028793010000320B0263930100006315
:1001A30091028793010000330B0265930100002D38
:1001B30091028793010000340B0267930100003F13
:1001C30091028793010000350B026993010000D669
:1001D30091028793010000360B026B9301000037F5
:1001E3000B01E803053F10FF000130750302010610
:1001F30000000000000000000000000000000000FC
:10020300000000000000000000000000FFFF0600E7
:10021300800CE803140953696D706C65424C4550BA
:1002230065726970686572616C05120600060002EA
:100233000A000201060302F0FF416D6F4D63752052
:10024300424C45205065726970686572616C8A081A
:10025300000090080A436861726163746572697390
:10026300746963203100024368617261637465726B
:10027300697374696320320008436861726163744F
:100283006572697374696320330010436861726136
:10029300637465726973746963203400024368612F
:1002A3007261637465726973746963203500164300
:1002B300686172616374657269737469632036007F
:1002C3000275930100004393028793010000490CD8
:1002D3000259930300000F060285930100004A0CA4
:1002E3000287930100005B0C025793010000100684
:1002F3000285930100005C0C0287930100006D0CE2
:10030300024F9302000011060285930100006E0C58
:100313000287930100007F0C0289930000001206FC
:100323000283930300001306028593010000800CEF
:10033300028793010000910C0253930400001906F5
:10034300028593010000920C028793010000A30C25
:100353000255930300001E06028393030000320636
:10036300028593010000A40CFF0000B400002800E4
:100373002800283075A000A000A000A000000800FD
:1003830008E001F000100010001000100010001031
:100393000050005000500010001000D00700000073
:1003A3000000000F00010005003075070010000178
:1003B3000081FF0000FFCA0AE80AD00AFF02020216
:1003C30008025000A0000000E8030275930100003A
:1003D3004993028793010000B20D0281930100004B
:1003E3008306028793010000B30D027F930100008F
:1003F3009906028793010000B40D027D930100006A
:100403009B06028793010000B50D027B9308000051
:100413009C06028793010000B60D02799301000048
:10042300B70DFF0100FF2002759301000046930200
:1004330087930100001B0E02779300000000000267
:100443008393030000E906FA10FA10FA10FA10FA7F
:1004530010FA10FA10FA10FA10FA10FA10FA10FA49
:1004630010CA13E213C413303132333435363738FC
:100473003941424344454600286E756C6C20706FC9
:10048300696E74657229003F3F3F000000807F0062
:1004930000803FF9021550B743BA510000204100D4
:1004A300E7DB2E0000A0401000000008000000124F
:1004B30001250CD20212012516D20212012557D2B0
:1004C30002120125A0D202120125DAD2021201255D
:1004D30030D30212012551D30212012500D6021294
:1004E300012509D6021201255DD60212012586D601
:1004F3000212012590D602120125FED60212012511
:100503008ED702120125E9D70212012517D802124C
:1005130001259FD802120125DED80212012513D925
:100523000212012525D90212012544D902120125FF
:100533004DD9021201250FDA0212012520B9031247
:10054300012525AE031201255BAE031201258FAEF3
:1005530003120125DCAF0312012507BD0312012598
:100563001DBD0312012527BD0312012571BD031211
:100573000125FD8803120125108903120125D48961
:1005830003120125138A03120125308A0312012560
:10059300698A03120125B68A03120125E88A031228
:1005A30001251F8B03120125328D031201251AB574
:1005B300031201253DB5031201256CB50312012574
:1005C30004B6031201251CB6031201255EB60312FD
:1005D3000125A4A603120125C9A603120125F3A62A
:1005E30003120125D0BD031201252B45001201255D
:1005F300094700120125A84800120125534900129A
:100603000125D34900120125584A00120125814AC8
:10061300001201255C4E00120125D34E0012012564
:10062300EA4F0012012524500012012565500012E3
:100633000125AC51001201250252001201254B5233
:1006430000120125BA52001201252653001201257A
:100653005753001201256F530012012588540012CD
:1006630001259854001201254E56001201256556A6
:100673000012012597560012012539580012012551
:10068300CD580012012517BA0312012528BA031207
:100693000125AEFF02120125EDFF0212012522BF43
:1006A30003120125C8BA03120125D8BA0312012582
:1006B300F3BA031201255BBB031201251EB8031213
:1006C3000125A3B80312012507B903120125A7B613
:1006D30003120125D0B60312012538B703120125F1
:1006E30089B703120125E4B7031201252B910312E5
:1006F30001255091031201256D91031201258A9161
:1007030003120125AF9103120125D0910312012594
:10071300FA9103120125B7920312012535930312AF
:1007230001255C93031201256693031201258B9423
:1007330003120125AB9C03120125C29C0312012560
:100743003C9D03120125209E03120125F79F0312EE
:100753000125E09803120125709903120125F999E7
:1007630003120125959A03120125269B03120125E5
:10077300D69B03120125E49B03120125629C0312FD
:100783000125759C031201258B9C03120125959C61
:1007930003120125A89C0312012565BB0312012541
:1007A30067BB03120125EBBB03120125F6BB031242
:1007B300012582B303120125D4B30312012547B4E3
:1007C30003120125B4B403120125DEAB0312012584
:1007D30008AC03120125D7AC03120125B3AD0312F4
:1007E3000125D6C902120125A2CA02120125E3CAB4
:1007F300021201251DCB021201257BCB021201251A
:10080300CFCB021201252DCC02120125C3CC02123B
:100813000125CBCD0212012555CF02120125F3CFBD
:10082300021201255AD0021201256DD002120125B0
:1008330061D102120125AAD10212012519ED01127B
:1008430001254BF001120125DCF10112012533F2E0
:100853000112012550F201120125D0F201120125E6
:100863004CF4011201251BF50112012588F8011230
:10087300012572F9011201253DDA02120125CFDCAF
:100883000212012582DD0212012542DE0212012538
:10089300AEDF0212012518E1021201259AE10212CC
:1008A300012508FA0112012554FA0112012571FAF2
:1008B30001120125C0FB0112012560FC0112012573
:1008C30085FD011201250EFF01120125CFB103128F
:1008D3000125E6B10312012515B2031201254EB21B
:1008E3000312012576B203120125A4B203120125D6
:1008F300BBB203120125D2B203120125E8B20312DF
:1009030001250FB30312012522B30312012538B3C6
:10091300031201254BB30312012570B30312012502
:1009230086A40212012585A502120125BAA5021289
:100933000125DBA502120125EBA5021201250CA658
:100943000212012518A702120125E5A702120125AB
:1009530058A802120125DEA80212012521A90212BC
:10096300012558A902120125DEA902120125B0AA08
:10097300021201250EAB0212012526AB021201253C
:10098300A0AB02120125A3AB02120125A6AB0212F2
:1009930001254DAC0212012565AC0212012595AC6F
:1009A30002120125B5AC02120125A3AD02120125E5
:1009B30059AE02120125008003120125288003127B
:1009C30001255680031201258D8003120125F58030
:1009D300031201253E81031201258981031201259A
:1009E300C7810312012504820312012532820312F7
:1009F3000125D98203120125E38203120125F08226
:100A030003120125238303120125E5830312012524
:100A1300F1830312012509840312012513840312B0
:100A23000125237F00120125317F00120125497F13
:100A330000120125617F0012012563C20112012505
:100A430001C30112012579C3011201258EC40112CC
:100A53000125C8C40112012571C50112012546C62D
:100A630001120125AAC70112012501C8011201259E
:100A730088C8011201256FC901120125BCC90112E1
:100A830001254ACA011201256ECA0112012543CC70
:100A93000112012584CC01120125A6CC01120125E6
:100AA30027CD0112012511CE01120125D7CE011246
:100AB3000125FBE802120125CDE90212012576EAA0
:100AC30002120125B9EA0212012546EB02120125A1
:100AD300D2EB02120125B3EC02120125E2EC021261
:100AE3000125DEED0212012526EE0212012528EF73
:100AF300021201256CEF0212012592EF0212012569
:100B030001BC031201250F9503120125259503123C
:100B130001254B95031201257396031201257D963A
:100B230003120125D69703120125D6980312012536
:100B330007F0021201253CF1021201256FF10212A6
:100B43000125B9F10212012577F302120125DEA373
:100B53000112012541A40112012586A501120125D7
:100B630096A501120125B9A50112012504A60112BA
:100B73000125A9A6011201259FA70112012569A834
:100B830001120125E1A90112012523AA0112012560
:100B9300C1AA011201250EAB0112012534AB0112CA
:100BA300012522AD0112012527AD0112012508AF50
:100BB300011201255CAF01120125BEAF011201250F
:100BC300E6AF011201258AB0011201254CB10112D1
:100BD30001257DB10112012580B101120125C8B1A2
:100BE300011201250AB20112012571B20112012578
:100BF30088A9031201259BA903120125B4A9031295
:100C03000125FFA903120125DAAA0312012569AB05
:100C130003120125B4AB03120125502B0012012549
:100C23005C2B00120125952B00120125DA2B0012F3
:100C33000125912C00120125172D001201257C2D71
:100C430000120125A82D00120125E12D0012012516
:100C5300F52F00120125D13100120125BC330012FA
:100C63000125F334001201255337001201253F38C3
:100C730000120125853900120125923A001201253F
:100C8300AF3A00120125E73A00120125013B001299
:100C93000125693B00120125034000120125A440F0
:100CA30000120125F540001201251C410012012507
:100CB3006A4100120125884100120125DC4100121E
:100CC3000125B542001201253C4400120125C4440C
:100CD30000120125EFF902120125F9F9021201258B
:100CE300C4FA02120125DFFA0212012505FB0212E2
:100CF300012549FB0212012581FB02120125AAFBF2
:100D03000212012523FC0212012538FC02120125DF
:100D13004DFC0212012584FC0212012598FC0212EB
:100D23000125C9FC0212012503FD021201252FFD35
:100D33000212012585FD02120125D9FD02120125AA
:100D430022FE021201254CFE0212012571FE02123F
:100D530001253F8D03120125098E03120125EC8E17
:100D630003120125628F03120125A48F03120125AB
:100D7300D19003120125E68C021201250F8D021278
:100D83000125288D021201256D8E021201254B8F3C
:100D9300021201256A8F02120125F78F0212012523
:100DA3003A9002120125879102120125269202121E
:100DB3000125A594021201253C95021201251096E6
:100DC30002120125F296021201255E9802120125F4
:100DD300F1980212012599FE0212012502FF021267
:100DE300012556FF021201257DFF02120125A88469
:100DF30003120125158503120125608503120125C0
:100E03005586031201255187031201253B880312DE
:100E1300012568C102120125AAC10212012584C25B
:100E2300021201255DC30212012558C402120125D5
:100E330037C502120125A3C5021201256AC6021293
:100E43000125D5C6021201253CC70212012567C739
:100E530002120125D8C7021201256BC8021201250F
:100E6300D4C802120125E9C80212012531C90212B0
:100E730001254AC902120125AFC902120125B2C9CF
:100E830002120125AAA303120125D2A303120125ED
:100E930010A403120125CEA40312012539A50312C0
:100EA300012555A5031201257DA503120125ADA535
:100EB30003120125BCA50312012536A60312012541
:100EC3005CA6031201253BB301120125D8B401121C
:100ED3000125BEB60112012588B701120125CFB73E
:100EE3000112012516B80112012528B801120125A6
:100EF30068B80112012597B801120125E3B8011260
:100F030001251BB90112012549B9011201259AB91D
:100F13000112012529BA0112012517BD011201256C
:100F2300F1BE011201252DBF0112012587C0011257
:100F33000125CEC00112012543C10112012591C132
:100F430001120125C8C10112012565B8021201254C
:100F530082B8021201251CBE021201251EBF021215
:100F6300012598C00212012546C1021201250B5921
:100F7300001201255459001201258159001201253F
:100F8300B45900120125C15900120125CD5900128F
:100F93000125DF5900120125B45A00120125125B05
:100FA30000120125475B00120125E35C00120125B5
:100FB300305D00120125545D00120125C15D001250
:100FC3000125665E00120125225F00120125A15F43
:100FD30000120125656000120125746000120125CD
:100FE300F56000120125946100120125C66100120B
:100FF3000125616200120125BF6200120125F96219
:10100300001201257A6300120125436400120125B1
:10101300EC6400120125736500120125CB650012F3
:1010230001252C66001201255566001201250B6768
:101033000012012555680012012598680012012548
:10104300B56800120125D468001201251F6900123A
:1010530001254469001201256D6900120125DC692F
:10106300001201251E6A00120125226B00120125C0
:10107300BC6B00120125886C00120125A16C0012C3
:101083000125C4AE0212012517AF0212012523AFB9
:1010930002120125F8AF021201251FB00212012529
:1010A3005AB002120125C6B002120125FAB002128B
:1010B300012533B1021201254BB102120125A4B15E
:1010C30002120125BDB10212012506B20212012549
:1010D30019B20212012533B20212012549B20212DA
:1010E300012565B30212012576B402120125C3B5A9
:1010F30002120125A8B602120125FA7F001201256A
:101103000080021201253480021201259F830212FE
:101113000125E98402120125B385021201253D87C9
:101123000212012518880212012552880212012594
:10113300758802120125B78802120125C0880212A0
:1011430001250A8902120125148902120125C08989
:1011530002120125948A02120125E88A021201254E
:101163004A8B021201259D8B02120125CC8B0212A0
:1011730001250B8C02120125D36C001201252D755C
:1011830000120125337500120125EE7A00120125A4
:10119300D47E001201255CA003120125D2A0031204
:1011A3000125E8A00312012525A1031201255DA154
:1011B30003120125DAA10312012515A20312012549
:1011C30090A203120125CCA203120125D5A203127A
:1011D3000125E1A203120125FBA20312012520A38D
:1011E3000312012536A3031201257AA30312012555
:1011F3002DF50212012540F5021201255AF50212BE
:10120300012583F502120125C6F50212012505F613
:101213000212012543F602120125A8F60212012546
:10122300BDF602120125C8F602120125D5F60212F7
:101233000125ECF602120125FAF60212012505F743
:101243000212012511F70212012524F702120125CA
:101253002FF70212012552F702120125FBF70212A2
:1012630001250BF80212012525F80212012542F887
:10127300021201255EF80212012583F802120125EC
:101283008DF802120125A1F802120125C0F80212FD
:10129300012521F90212012527F9021201252DF951
:1012A3000212012533F9021201253FF90212012529
:1012B30072F9021201258FDF0112012511E00112DB
:1012C3000125BAE00112012502E20112012510E411
:1012D30001120125F6E4011201252BE50112012576
:1012E3004DE501120125F6E501120125C6E70112BC
:1012F3000125EFE70112012567E80112012599E8AD
:1013030001120125A6E801120125F1E801120125C8
:1013130015E90112012566EB0112012570EC01129A
:101323000125CCEC011201250CD1011201251DD29E
:101333000112012501D3011201250BD3011201254D
:101343002DD30112012539D301120125DDD4011258
:1013530001250AD50112012520D60112012575D6D2
:1013630001120125C4D70112012599D801120125C3
:10137300F5D80112012560D90112012595D9011271
:101383000125D8D901120125A2DC01120125BADCFD
:10139300011201254BDD0112012559DD0112012541
:1013A300A6DD01120125B4DD0112012520DE0112A3
:1013B30001259BDE01120125F2DE01120125689948
:1013C300021201258A99021201259B9B0212012513
:1013D3005A9E02120125849F0212012542A0021285
:1013E30001252EA10212012516B0031201253BB0DF
:1013F30003120125B1B003120125DEE1021201251A
:10140300E7E102120125F0E102120125C8E202120E
:10141300012579E402120125A9E402120125D4E48D
:101423000212012504E5021201252FE5021201250E
:1014330063E5021201258FE502120125D2E50212AE
:101443000125FDE50212012544E60212012599E674
:1014530002120125DBE60212012535E702120125FE
:1014630060E702120125AFE702120125DFE702124E
:1014730001250AE80212012538E8021201255BE87A
:10148300021201258ABC03120125B6BC03120125F1
:10149300E3BC03120125EDBC03120125FDBC0312BD
:1014A3000125AFBE0312012552FF011201257CFF66
:1014B3000112012579BE03120125DCBE03120125A9
:1014C30004BF031201258F9301120125AD9801E09A
:1014D30066701008A3E066700A08A3E0667004084B
:1014E300A3E06622C008C3E096F50808A3E096428D
:1014F3000808A3E096420808A3E0964208A2D26532
:10150300D033E5087001D3D00822C3E7960809E772
:10151300960809E7960809E79622C3E09608A3E030
:101523009608A3E09608A3E09622C008C3E096F5C8
:101533000808A3E096420808A3E096420808A3E03F
:101543009645087001D3D00822080808E630E71151
:10155300121E08121564080808C64480C618181815
:1015630022181818E9799EC608CAC608CBC608CC43
:10157300C6C370207996CACBCC7019798ECBCC7048
:10158300137986CC700EF9802ACA33CACB33CBCCFD
:1015930033CC331930E7F2CCCBCA3350147004EA9E
:1015A30030E00DE4CA3ACACB3BCBCC3CCC50020969
:1015B300C3E913C6CC182313C6CB18C6CA18C6F979
:1015C3002212160420F01430E72B74FFFCFBFA748C
:1015D3007F8022E4FCFBFA7480801AB48008BC008C
:1015E300F2BB00EF800F50EBF9E4C39AFAE49BFBE4
:1015F300E49CFCE499C6CC18C6CB18C6CA18C6F935
:1016030022E4C9C608CAC608CBC6D3330308CCC66E
:101613003392F0C3947F402E94184019C9B907043C
:10162300CACBCC225025C309CA33CACB33CBCC3364
:10163300CC33D9F422F4600DC9CCC313CB13CBCA7A
:1016430013CAD9F6CC22E4FCFBFA2214FCFBFA22DF
:10165300E6C33318461846184622E7C33319471919
:1016630047194722181818E6084608700AE608C3FF
:10167300337005E633F4220822191919E7094709DB
:10168300700AE709C3337005E733F4220922E60839
:101693004608C3134608336002E633F422E70947DA
:1016A30009C3134709336002E733F422121691602A
:1016B300251216A06020121653700302165D080847
:1016C30008E76670101819E766700A1819E766705C
:1016D300041819E76622F422121691601C1216A050
:1016E3006017121653700712165D7001D322C0D013
:1016F30012165D7006D0D0B322C32233D0D050145B
:1017030030E0F6C3E7960809E7960809E796080963
:10171300E796B32220E0D5E6970809E6970809E69D
:10172300970809E697B322121691601B1216A06060
:1017330016121653700712165D600CB322C0D01236
:10174300165D7005D0D022C32233D0D0501330E0C1
:10175300EBC3E7960809E7960809E7960809E796B1
:101763002220E0E4E6970809E6970809E6970809C6
:10177300E6972200121691604F1216A06012E754EA
:101783008066F6121667701112165D703B0909091F
:10179300F4F618F618F618F62212167C70151216BF
:1017A3005308080860EAE6447FF618768018E4F6E2
:1017B30018F622121653601612165D7012E4F6081C
:1017C300F608F608E65480F609090918181822EAFB
:1017D300C0E0EBC0E0ECC0E0EDC0E0E687F0A4FBC6
:1017E300ACF008E687F0A42CFCE435F0FA1809E61F
:1017F30087F0A42C4B60027401CA35F0FCE433FB80
:1018030009E687F0D2F7A42CCB35F0FC1908E6875C
:10181300F0A42BCC35F0FBE433FD0819E687F0D2B6
:10182300E7A42C4ACB35F0CD3400FC09E687F0D28F
:10183300E7A42DCC35F0FDE433FA0918E687F0D29E
:10184300F7A42CCD35F0CA3400FC08E687F0D2E7C4
:10185300D2F7A42ACC35F07A7E20E70B0ACB33CB20
:10186300CD33CDCC33CC33CB3350147004ED30E0D7
:101873000ED2F1E4CD3DCDCC3CCC3B5005DA05C2D4
:10188300F1EB547FC63308E63392F0FBE73309E705
:1018930033C39A502D2B70190C0D4C4D701518062F
:1018A300E608C333700D20F10AA2F013F6E41880A2
:1018B3000B4024E4F630F002768018F618F618F69A
:1018C3008024D33B14501074FFA2F013F6187680D3
:1018D300E418F618F6800FA2F013F618E63303F6B1
:1018E30018ECF618EDF6D0E0FDD0E0FCD0E0FBD02C
:1018F300E0FA221216A06046121691603DE9687064
:1019030008F618F618F618F622748067F712192AE3
:10191300090909748067F722121691601D1216A037
:101923007005191919801A121667701F12167CC3D5
:101933007003E667331919194007181818220808A5
:101943000874FFF618F618F618F62212167C6017BC
:1019530012165D702192F01216537019501720F071
:1019630014080808090909E7F61819E7F61819E72A
:10197300F61819E7F62212165360E6E869701F0895
:1019830008E62480F608E436F618547FB47F0CE6A4
:1019930054806007F6E418F618F622181822E9C6F0
:1019A300CC08C6CD08C6CE08C6CFC0E0E8C0E0EA82
:1019B300C0E0EBC0E009E9F809E7FA09E7FBE6F95B
:1019C30018E6F8C3EC98ED99EE9AEBC2E7F5F0EF61
:1019D300C2E795F0500E600CEBCFFBEACEFAE9CDEF
:1019E300F9E8CCF8EAA2E7D2E7FAEB33FB13F5F018
:1019F300EEA2E7D2E7FEEF33FFC5F013A2E730E62E
:101A030001B313C5F0C3C0E0C0F07F00C39BFB600C
:101A13005B9418600C401AD0E023F9D0E0F8021A66
:101A2300F98AF0E9486003D2F0E4AFF0FAF9F880FC
:101A33003BEB30E40D89F0EA6003D2F0E4AFF0F958
:101A4300CAF8EB30E30D88F0EF6002D2F0AFF0E4B8
:101A5300CAC9F8EB54076014FBC3EA13FAE913F994
:101A6300E813F8EF135002D2E0FFDBEDD0E0C0E063
:101A730030E739C3E49FFFF5F0EC98FC42F0ED99B1
:101A8300FD42F0EE9AFE42F0D0E0F9D0E0F8E5F046
:101A9300607AE923F9EE20E742D8028067C3EF3387
:101AA300FFEC33FCED33FDEE33FE80EAEC28FCED76
:101AB30039FDEE3AFED0E023F9D0E0F84002801B76
:101AC300C3EE13FEED13FDEC13FCEF135002D2E053
:101AD300FF08B800067F7F74FF802EEF3350178C0A
:101AE300F020F00260100CBC000C0DBD00080EBE0F
:101AF300000408E860DFE933E813FFEE2313FE4F29
:101B03004D4C8008E95480FFE4FEFDFCEE33EF33D7
:101B1300F47004FCFD7E80D0E0FBD0E0FAD0E0F866
:101B2300D0E0CFC618CEC618CDC618CCC6F922123F
:101B330016917004181818221216A0700D74FFF66F
:101B43001819F61819F61819F622E7548066F612D2
:101B53001653700F12165D70F014F608F608F608A7
:101B6300F680D112165D700CF608F608768008E64A
:101B7300447F80EC12167F700C12166A60BFE65425
:101B830080F6E480BB12166A700519191980A5E85E
:101B930069700C763F18768018F618F6E8F922E695
:101BA300CDC0E018ECC0E0E633CD33CDD313F6E778
:101BB30019FCE7191933CC33C3947F400ECD9D50E4
:101BC3002408E65480F6E418F6800FF4043D14501C
:101BD3001408E6447FF6187680E418F618F6D0E089
:101BE300FCD0E0FD22CCD313CCFD18E4C6CBC0E07F
:101BF30018E4C6CAC0E00808ED08C633E613F618B1
:101C0300E433C675F003C3CA97CA09CB97CB199CB3
:101C130040047D08802EBD0003021CDB16B6FF05C1
:101C23000606081618C3CA33CACB33CB33CA27CA2E
:101C330009CB37CB193CC37D08803E187D0820E7CC
:101C43005CC633C6CA33CACB33CB33DDF1D5F0EB35
:101C530030E77BCA97CA09CB974ACB199C406F4B95
:101C63007025E620E0218066187D08C3CA97CA095B
:101C7300CB97CB199CD3C633C6CA33CACB33CB332A
:101C830050C9DDE7D5F0E1D3E4C636C608C636C68B
:101C930008C636C608C636C61818188031C3CA9790
:101CA300CA09CB97CB199CB34097C633C6CA33CA6C
:101CB300CB33CB33DD34D5F02EC6A2E0C640C8CA41
:101CC30027CA09CB37194A70BECB3CB480B9080880
:101CD300E63308E633601F181818D0E0FAD0E0FBAB
:101CE300D0E0FCD0E0FD22187D08CA27CA09CB3713
:101CF300CB193CD3808013F618E4B67F11F618B6DF
:101D0300FF0EF618C60470D20808768080CAF6184B
:101D1300F618F680C5080808EAC0E0EBC0E086F0D4
:101D2300E7A4FA180986F0E7A42AFA180986F0E767
:101D3300A42AFA180986F0E7A42AFA1986F0E7A478
:101D4300FBE5F02AFA190886F0E7A42BFBE5F03A45
:101D5300FA190886F0E7A42BFBE5F03AFA181809FC
:101D630086F0E7A4C5F02BFBE43AFA1908E7C5F0BF
:101D7300C6A426F6E5F03BFBE43AFA1886F0E7A49E
:101D8300F6E5F00826F6E43B08F6E43A08F6D0E078
:101D9300FBD0E0FA22E4CFC0E0E4CEC0E0E4CDC063
:101DA300E0E4CCC0E075F020C3E633F608E633F692
:101DB30008E633F608E633F6181818EC33FCED336F
:101DC300FDEE33FEEF33FFC3EC9709ED9709EE9772
:101DD30009EF97191919400FFFEC97FC09ED97FDCF
:101DE30009EE97FE191906D5F0BEECF709EDF709D0
:101DF300EEF709EFF7191919D0E0FCD0E0FDD0E0B8
:101E0300FED0E0FF22181818E4C396F608E496F60D
:101E130008E496F608E496F6226016080808C6C396
:101E230013C618C613C618C613C618C613C6D5E0FC
:101E3300EA227009080808226016181818C6C33366
:101E4300C608C633C608C633C608C633C6D5E0EAD5
:101E530022E627F60809E637F60809E637F6080901
:101E6300E637F622E026F608A3E036F608A3E036C6
:101E7300F608A3E036F622E026F008A3E036F008E1
:101E8300A3E036F008A3E036F022C3E697F608098C
:101E9300E697F60809E697F60809E697F622C3E0FF
:101EA30096F008A3E096F008A3E096F008A3E09666
:101EB300F022E056F608A3E056F608A3E056F6082B
:101EC300A3E056F622E056F008A3E056F008A3E09C
:101ED30056F008A3E056F022E0F608A3E0F608A3C4
:101EE300E0F608A3E0F622E6F008A3E6F008A3E68E
:101EF300F008A3E6F022E0FAA3E0FBA3E0FCA3E0F2
:101F0300FD22EAF0A3EBF0A3ECF0A3EDF022CAC0AC
:101F1300E0E6F0A308DAFAD0E0FA22CAC0E0E0A3D0
:101F2300C582CCC582C583CDC583F0A3C582CCC58C
:101F330082C583CDC583DAE6D0E0CA22C3E498F82C
:101F4300E499F9121F808026C3E49AFAE49BFBE923
:101F530020E7E9121F80E498F8E499F922C3E49892
:101F6300F8E499F9121F80E498F8E499F9C3E49A24
:101F7300FAE49BFB22EB20E7CFE920E7E0B900106E
:101F8300BB0008E88AF084F8AAF022E4FBC8FA222E
:101F9300EB70227B10C833C8C933C9335007C39AC7
:101FA300C3DBF280069A50012ADBEAC833F4C8C9BE
:101FB30033F4C9FA2275F008E4C833C8C933C93306
:101FC300C99AC99B5004C92AC93BD5F0ECFBC83355
:101FD300F4C8E4C9FA22600D08C6A2E713C618C6FE
:101FE30013C6D5E0F322600C08C6C313C618C61384
:101FF300C6D5E0F422700422600D18C6C333C608A8
:10200300C633C6D5E0F41822251810AF08F51840DA
:102013000215198008F51840021519D2AF22C0D055
:10202300251810AF08F518500205198008F5185047
:10203300020519D2AFD0D0222518F58210AF08F5CA
:1020430018400215198008F51840021519D2AF85FA
:102053001983222518F582E43519F58322E47325C3
:1020630018C582C0E0E51934FFC583C0E0E518C395
:10207300958224F810AF0885831985821880088516
:102083008319858218D2AFCEF0A3E520F0A3780898
:10209300E608F0A3DEFAEFF0A3E58124FAF8E608F8
:1020A300F0A3E608F0A3E608F0A30808E608F0A307
:1020B300E608F0A315811581D0E0FED0E0F8158184
:1020C30015811581E8C0E0EEC0E0222518C582C065
:1020D300E0E51934FFC583C0E0E518C3958224F910
:1020E30010AF088583198582188008858319858236
:1020F30018D2AFCEF0A3E520F0A37808E608F0A34A
:10210300DEFAEFF0A3E58124FBF8E608F0A3E60886
:10211300F0A30808E608F0A3E608F0A315811581EB
:10212300D0E0FED0E0F815811581E8C0E0EEC0E014
:1021330022851983851882E0A3FEE0A3F5207808A1
:10214300E0A3F608DFFAE0A3FFE0A3C0E0E0A3C04A
:10215300E0E0A3C0E0E0A3C0E0E0A3C0E010AF086C
:102163008582188583198008858218858319D2AFE3
:10217300D083D082020122851983851882E0A3FED1
:10218300E0A3F5207808E0A3F608DFFAE0A3FFE078
:10219300A3C0E0E0A3C0E0E0A3C0E0E0A3C0E01080
:1021A300AF0885821885831980088582188583196D
:1021B300D2AFD083D08222C0D02518C582C0E0E53B
:1021C3001934FFC583C0E0E518C3958224F310AF2B
:1021D300088583198582188008858319858218D21A
:1021E300AFC8F0A3E9F0A3EAF0A3EBF0A37908E703
:1021F30009F0A3D8FAECF0A3EDF0A3EEF0A3EFF00F
:10220300A3D0E0F0A3D0E0F0A3D0E0F0A3E520F06A
:10221300A3E5F0F0A322851983851882E0C0E0A32B
:10222300E0F9A3E0FAA3E0FBA37808E0F608A3DF54
:10223300FAE0FCA3E0FDA3E0FEA3E0FFA3E0C0E01F
:10224300A3E0C0E0A3E0F5D0A3E0F520A3E0A3F56D
:10225300F010AF0885831985821880088583198556
:102263008218D2AFD082D083D0E0F8D0E0327404A9
:102273008006740280027401C0E0F40412203BD093
:10228300E0121F11227404800474028000CCC0E0A9
:10229300EDC0E0E518C39CCCAD1950011D10AF068D
:1022A3008C188D1980068C188D19D2AF121F1ED071
:1022B300E0FDD0E0FC22D083D082E9C0E0E493A328
:1022C300C386F0C5F095F0F908E493A386F0C5F052
:1022D30095F0700BE493A3C3994005E9048002A32E
:1022E300E475F002A42582F582E5F03583F583D009
:1022F300E0F9E493A3C0E0E493C0E022D083D0826A
:10230300ECC0E0EDC0E0E493A3FCE493A3FDED4C4B
:10231300600D12234BEC24FFFCED34FFFD80EFE452
:1023230093A3FCE493A3FDED4C600D12238AEC24EC
:10233300FFFCED34FFFD80EFD0E0FDD0E0FCE49343
:10234300A3C0E0E493C0E022C0E0C3E49396087422
:1023530001939618400FE49366700808740193661E
:102363001870007019A3A3C3E4939608740193969D
:1023730018A3A3400DD0E0D0E0D0E002233BA3A3F9
:10238300A3A3A3A3D0E022C0E0C0F088F0E4936647
:1023930070080874019366187000A8F0A3A3700B6B
:1023A300D0F0D0E0D0E0D0E002233BA3A3D0F0D024
:0223B300E02226
:1023B800C0E074F21221BAA2AFE433FED2AFC2C0B9
:1023C800E5D1A2E4500653D1EF120794EEA2E092B1
:1023D800AF7F01022219C0E074F21221BAA2AFE461
:1023E80033FED2AFE589A2E150031206E6758900F3
:1023F800C2C5EEA2E092AF7F01022219C0E074F2DA
:102408001221BAA2AFE433FED2AFE58BA2E05003AB
:102418001206E6758B00C2E880D8C0E0C0D0E8C0DC
:10242800E0E5A8D2AFC2C7A2E792AFD0E0F8D0D01B
:10243800D0E032C0E0C0D0E8C0E0E9C0E0C008C0E9
:1024480009C082C083A2AFE433F9D2AF90052CE073
:10245800F8A3E0687008539AFBA374018026C2E9C8
:1024680090052CE0F50874012508F074AC2508F5F2
:102478008274043400F583E0F5C190052CE0C39420
:10248800804002E4F0E9A2E092AFD083D082D00984
:10249800D008D0E0F9D0E0F8D0D0D0E03274F5120E
:1024A80020CEEAFEEBFFEE2434F8EF3400F988087A
:1024B8008909EE24351225DDF8EE24371225DDF5DD
:1024C8000AEC850AF0A4FCAAF0850AF0EDA42AFD1E
:1024D800E82CF8E43DF97A257B00121F80EA85088C
:1024E80082850983F05407F87401B800028004C398
:1024F80033D8FCC0E0E0131313541FF8EE28F8EFAC
:102508003400F9E8245DF582E93400F583D0E0F879
:10251800E0586008850882850983801DEE243612FC
:1025280025DDF5F0EA84A8F0EE28F8EF3400F9E8A4
:102538002438F582E93400F583E0F97F0402217A32
:1025480074F51220CEEAFEEBFFEE24341225DDC02E
:10255800E0EE2435F582EF3400F583D0E0F08E828A
:102568008F83A3A3A3A3A3E0FAA3E0FB8E828F83A8
:10257800A3A3A3A3A3A3A3E0FCA3E0FDECC39AF544
:102588000AED9BF50BEE2480F508EF3400F509857C
:102598000882F583E06401702BEE2481F582EF3424
:1025A80000F58312228C1225E67402122021E960BC
:1025B800137CCE7D08EEFAEFFB1210288508828581
:1025C8000983E4F0AC0AAD0BEEFAEFFB1224A51276
:1025D8002B38022543F582EF3400F583E022C082D0
:1025E800C083851882851983E0F8A3E0F9C3EA9CC3
:1025F800EB9D5012C3EC98ED994019C3EA98EB99FA
:10260800501279018010C3EA98EB9940F5C3EC9811
:10261800ED9950EE7900D083D08222EAC39CFAEB80
:102628009DFB22008521878522C622C0E074EF1217
:1026380021BA759B00906182E0A2E640030226F46D
:10264800E591A2E640030226F47591BF900793E056
:10265800640570081211C61211D280031211CC75CC
:102668002100121238E9900794F0790012122C1206
:102678000F927A017B00900792E0F9120512907888
:1026880003E06442600302273D900930E014F060E3
:102698000302273DC2AF1226A100782AD0E0F6181F
:1026A800D0E0F6E59F5407F970059092E380039017
:1026B80092C37808121EDBE9C4C0E07829E6550801
:1026C800F50808E65509F509740B7808121FE9D0D2
:1026D800E02508F8906270E0A2E740F8E8C333907C
:1026E8006272F0906270E0D2E0F08049E0A2E550BA
:1026F80024E591A2E5501E7591DF900793E0640DE3
:1027080070139007B5E004F064287002E4F07A00D2
:10271800E0F91212AA906181E0A2E35009E5E9A26A
:10272800E3500375E9F7A3E0A2E75009E591A2E7B2
:10273800500375917F7F04022219C0E0C0D0C08287
:10274800C083906183E0A2E05009E5BFA2E0500396
:1027580075BFFEE0A2E15009E5BFA2E1500375BFD5
:10276800FDE0A2E25009E5BFA2E2500375BFFBE01D
:10277800A2E35009E5BFA2E3500375BFF7E0A2E466
:102788005009E5BFA2E4500375BFEFE0A2E5500988
:10279800E5BFA2E5500375BFDFE0A2E65009E5BF3B
:1027A800A2E6500375BFBFD083D082D0D0D0E0322C
:1027B800C0E074F21221BAE5A7A2E4500FE5A1A285
:1027C800E4500953A7EF75A1EF12280CE5A7A2E57D
:1027D800500CE5A1A2E5500653A7DF75A1DFE5A7D8
:1027E800A2E15009E5A1A2E1500375A1FDE5A7A268
:1027F800E2500CE5A1A2E2500653A7FB75A1FB7FAE
:102808000102221974F81220CE752101900793E075
:10281800640670077A007B001211AEA2AFE433FEA3
:10282800D2AF900799E0640170187A207B00900776
:1028380092E0F91205967A207B00900792E0F9124F
:102848000518906182E0D2E6F090092FE0602185BA
:10285800C6228016900798E064017008E5C654F80F
:102868004405F5C653BEFC12262C7401652160E4AC
:10287800EEA2E092AF7F0102217A00008E238F241E
:10288800858228858327851882851983E0CEA3E071
:10289800CF852882852783EBC9EAC8EDCBECCA75BA
:1028A800F010C3E833C8E933C9EA33CAEB33CBC302
:1028B800EA9EF526EB9FF525B35004AB25AA26EC36
:1028C80033CCED33CDD5F0DAAE23AF242274F11238
:1028D80020CE8A088B098C0A8D0B740F122056782B
:1028E8000C121EDB90930F7808121EB590930F7888
:1028F8000C121EB57808790C12150D501578087948
:102908000C121E8D9092FF780812152D4015790132
:102918008013780C7908121E8D9092FF780C12158E
:102928002D40EB79007F0802217A74ED1220CE8ABF
:10293800088B098C0A8D0B7413122056780C121E02
:10294800DB90930F7808121EB590930F780C121E27
:10295800B5780C790812150D40117808790C121EFB
:102968008DAA08AB09AC0AAD0B8022751000751151
:10297800007512007513017810790C121E8D7810ED
:102988007908121E54AA10AB11AC12AD137F0C02B9
:10299800217A90930F7808121EDB8A828B8378083D
:1029A800121EC87F0402217A74F51220CE8C828D03
:1029B800837808121EDB8A828B837808121EA11284
:1029C8002A04C3E098F0A3E0991229F6401E9092D9
:1029D800CF7808121EDB8A828B837808121E7A8EC3
:1029E800828F83E02420F0A3E0344EF080A4F08EA0
:1029F800828F83C3E09420A3E0944E22EA2404F853
:102A0800EB3400F9E8FEE9FF8C828D83A3A3A3A32E
:102A1800E0F8A3E0F98E828F832274F51220CEE9C4
:102A2800FE9008E5E0FAA3E0FBEEC333F8E433F9DF
:102A380074A728F582749139F583E02AF508A3E094
:102A48003BF50978081222759092D3121EF91228C4
:102A58008474021220218A088B098C0A8D0B741049
:102A68007808121E1CAA08AB097F0402217A74F1A7
:102A78001220CE8A0C8B0D8C0E8D0F740F122056DF
:102A8800E0FAA3E0FB7411122056E0F508A3E0F584
:102A9800097413122056E0FEA3E0FF78081222758D
:102AA800EA2401F508EB3400F509E4F50AF50B789A
:102AB8000C7908121D189093237808121EDB780CE5
:102AC8007908121D18AA0CAB0DAC0EAD0F12288494
:102AD80074021220218B09EA450960047A018002F8
:102AE8007A00EC2AFCED3400FDECF8EDF97A717B04
:102AF80002121F8088088909E4F50AF50B8E828F77
:102B0800837808121EEAECF8EDF97A717B02121F3D
:102B1800808A088B0974057808121FF88E828F83C3
:102B2800A3A3A3A3E508F0A3E509F07F0802217A8F
:0E2B3800C082C083E9906000F0D083D082227A
:102B4800FFFFFFFFFFFFFFFFC082C083E9900E1A5F
:102B5800F0022DD474F7122062E99006B1F07CE9F6
:102B68007D067AFF7BFF120CAA9006B274FFF0A3D1
:102B7800F0A3E4F0A3F07905120C329006B1E0F965
:102B8800120B5A7AC87B0C120E8A023AE274F412BB
:102B980020628A088B09EB548060309006B1E0F916
:102BA8001204FA8A0A8B0BAE0AAF0BEE4F60138E33
:102BB800828F83E064B07003120C4AEEFAEFFB12C6
:102BC80004E8AA08E5096480FB80047A007B000217
:102BD8002DA374F212206274FC12200BEAFEEBFFA4
:102BE8007412122056123FC9EE4F7003022C7D74E6
:102BF80002122056EEF0A3EF122FDEECF0A3ED1236
:102C08002FDEAA82AB83120B54E9F50A706AE50835
:102C1800450960648E828F83123FAFEE4F60567A0B
:102C2800067B0012054E8A0C8B0DA80CA90DE849ED
:102C38007005750A13804188828983E4122C8AEE14
:102C4800F0A3EF123FDAE508F0A3E509F09006B724
:102C5800122D119006B77005123A8C801B123A7A21
:102C68008003EAFCEBFD8C828D83122D1170F38CAE
:102C7800828D8380E3750A02A90A74041220210256
:102C880041C9F0A3123F80A32274F2122062890A7C
:102C9800E975F017A4FEAFF09006B6E4F09006B41C
:102CA800122D11600A1205549006B4E4F0A3F0EE58
:102CB800FAEFFB12054E8A088B09EA4509602FEEE8
:102CC800FCEFFD79001204D09006B4E508F0A3E506
:102CD80009F07B008008122CFBE4F0A3F00BEBC397
:102CE800950A40F2E50A9006B6F079008002791359
:102CF8000241C9EB75F017A4F8A9F09006B4E028D2
:102D0800FAA3E0398A82F5832212371EEA4B22742D
:102D1800F4122062740C122056123FA4FEE9FF75CB
:102D28000800750900800CE5082401F508E5093458
:102D380000F509C3E5089CE5099D503285080A8518
:102D4800090B7403780A121FF8EA250AF8EB350B09
:102D5800F988828983A3A3A3A3A3A3123B61EE6589
:102D68000A7003EF650B70BFE8FAE9FB80047A008C
:102D78007B00802774F41220627900EAA2E0501BDD
:102D880075089875099278081222757C047D007A76
:102D98001C7B0E120C2C74021220217F0402213499
:102DA800C082C0839006B7122DDB601C888289839D
:102DB800A3A3E06A7003A3E06B8882898370E8A309
:102DC800A3A3A312371A80047A007B00D083D08291
:102DD8000201221242AFE8492274EE12206274FC0A
:102DE80012200BEAFEEBFF851882851983E4F0A315
:102DF800F0EE2402123A6CEE2405123F87EE24040A
:102E0800F50EEF123393E024FE603924FC6046246B
:102E1800FE605224FE605E24FE7003022EF424FE3F
:102E28007003022F5824FE7003022F6724FE7003DC
:102E3800022F7624FC7003022F8524FE7003022FD4
:102E480094022FD19006D07417F0A3E4122FE61243
:102E580008D2022FD1851882851983AC82AD8312DE
:102E68000C50022FA1851882851983AC82AD83127C
:102E78000C56022FA1850C08850D097402122056E4
:102E8800AC82AD8385088285098312371A120B78C4
:102E98008A0C8B0DAC0CAD0DEC4D603BE4F50CF5DC
:102EA8000D780C122275750CD0750D06780C12224F
:102EB80075750CD1750D06780C12227574081220E0
:102EC8005612228C12442B122021E9F50C700B1299
:102ED80037101208EA800F750C018508828509836E
:102EE800122FD4123A8C850C08022FA474021220D7
:102EF80056AC82AD83850C82850D831234E5603C27
:102F0800850C82850D83A3A312228C7510D07511B0
:102F18000678101222757510D175110678101222D4
:102F280075740812205612228C12442B122021E9A3
:102F3800F509700B1237101208F0800F750901851A
:102F48000C82850D83122FD4123A8C850908804C87
:102F5800851882851983AC82AD83120C5C803A8512
:102F68001882851983AC82AD83120C62802B851878
:102F780082851983AC82AD83120C68801C85188207
:102F8800851983AC82AD83120C6E800D85188285FD
:102F98001983AC82AD83120C74E9F508E508602941
:102FA8008E828F83A3E06414601F850E82850F8351
:102FB800E09006D0122FDE1242AB9006D1123A8C66
:102FC800E508A3122FE61208CC02397B1242AF851E
:102FD800188285198322F085188285198322F07C4E
:102FE800D07D06850A82850B8312371E2274EE1265
:102FF800206274FC12200B8A0A8B0B8C0E8D0FEA50
:103008002405F508EB3400F5097C157D0079007A74
:10301800D07B061204D0E5082402F50CE509123F1E
:103028008A85188285198385821085831178101204
:103038002275850882850983A3A3A3A31234DC1211
:103048002275E5082405F510E5093400F511781016
:10305800122275850C82850D83123831120B727419
:10306800061220218A108B11AE10AF11E50A240236
:10307800F50AE50B123A6FEE4F70030231B3801771
:10308800740212205612371A88828983EAF0A3EB59
:10309800F09006D0E004F09006D0E0C39405400319
:1030A8000231B3E4F510F51178101222757510B9D4
:1030B80075110678101222757510BA7511067810F8
:1030C800122275740612205612228C7910EEFCEF2B
:1030D800FD12442D122021E9705E8508828509833E
:1030E800A3A3A3A3A3A3A3E0F89006B9E06870483C
:1030F8001234DC1222757CBA7D06E5082408FAE54C
:10310800093400FB1204CA7402122021E960298ED6
:10311800828F83A3A3A3A312371A9006D0E0F510D9
:1031280074027810121FF874D12510F582740635D0
:1031380011F583EAF0A3EBF0740212205685821091
:103148008583117810122275740212205612228C6F
:10315800850C82850D831237401220218A108B112D
:10316800AE10AF119006D0E0F5107511007402781A
:1031780010121FF874D02510F874063511F98882DA
:103188008983A3122D11700302307FE824030808F5
:1031980008E93400F9EE4F60030230888882898399
:1031A80074FFF0A3F09006D0E004F09006D0E06041
:1031B8000A1237101208DE7900800B85088285090B
:1031C80083123A83790A02397B74EA12206274FE08
:1031D80012200B8C128D13EA2405F50CEB12441502
:1031E800123FB3750800750900EA2402F510EB34A4
:1031F80000F51185188285198385820A85830B78E5
:103208000A122275850C82850D83A3A3A3A312330A
:10321800A9122275E50C2405F50AE50D123A6F7816
:103228000A122275850C82850D831233AD120B723A
:1032380074061220218A0A8B0BEA450B70030233AD
:103248004EEA2404F50EEB123393123FB38A828BB5
:1032580083A3A3A3E0F98510828511831237246024
:103268000302334EE4F514F515781412227575141B
:10327800B975150678141222757514BA751506787D
:1032880014122275740612205612228C7913AC0A75
:10329800AD0B851082851183124433122021E9F584
:1032A80009600302334E9006B9E0F8E5087009E0BA
:1032B80024029006D1F080149006D1E0FCE82402A4
:1032C800FAE43400FBEA6C7001EB707E850882AA90
:1032D800821234D394141234CB506B850E82850F2E
:1032E80083E0C0E074D22A12338AD0E0F005088562
:1032F8000E82850F83A3E0C0E085080A74D2250AF0
:1033080012338AD0E0F005089006B91233A91222C8
:10331800757CBA7D0685080A74D2250A12339D1277
:1033280020219006B9E02508F50874FF6E70037433
:10333800FF6F6012EE24010EEF3400FFE508C3941E
:103348001450030231FBE508601312372E851082F2
:1033580085118312371A1208E479008014E5097080
:103368000375090A851282851383EEF0A3EFF0A98D
:103378000974021220217F0E02213485080C74D2B0
:10338800250CF58274063400F583223400F50F8588
:103398000E82F58322FA74063400FB1204B8740214
:1033A80022123FE922A3A31233B322123A7AFDEE86
:1033B800FAEFFB2274EE12206274FE12200B8C0EC0
:1033C8008D0FEA2405F50CEB123F8A750B00900669
:1033D800D0E4F0F50AEA2402F508EB3400F5098098
:1033E800449006D0E0FA9006B9E0F81234D3941766
:1033F8001234CB400D9006D0E0F87416C3989006AE
:10340800B9F01234DC1222757CBA7D0674D12AFA1E
:1034180074061233A01220219006B9E0F89006D065
:10342800E028F0050AE50C2416F582E50D12338E26
:10343800E0F8E50AC39850749006D0E0C39416509B
:103448006BE50AC333F8E433F9E50C28FEE50D39DA
:10345800FF851882851983AC82AD838E828F831293
:1034680034E57008750B01123A7F8050E4F510F5C9
:103478001178101222757510B9751106781012227C
:10348800757510BA75110678101222757406122017
:103498005612228C791685088285098312443312C4
:1034A8002021E9F50B70030233E980BB7CD07D064F
:1034B80085088285098312371A1208F6A90B740247
:1034C80002397DE99400C365D03322EA28F8E43450
:1034D80000F9E822E0F5107511007810221239720F
:1034E8008A108B11AC10AD11EC4D2274EA122062D7
:1034F80074FC12200B8A0C8B0D8C128D13EA240598
:10350800F50AEB123A6F750800750900E50A2402FE
:10351800F510E50B3400F511740212205685820E61
:1035280085830F780E122275850A82850B83A3A3E3
:10353800A3A3123F8F122275E50A2405F50EE50BA9
:103548003400F50F780E12227585108285118312CA
:103558003A75123714120B7274061220218A0E8BD8
:103568000FAE0EAF0FE50C2402F50EE50D3400F595
:103578000F80388882898374FFF0050812338374BA
:10358800FFF005089006B9E0F50C750D00780C12EF
:1035980022757CBA7D0685080C74D2250C12339DE1
:1035A8001220219006B9E02508F508EE4F60278E15
:1035B800828F83A3A3A3E0F9850E82850F83123738
:1035C80024EE2404123F87E96027850C82850D8349
:1035D800123706123A8CE50870030236EC12372EC1
:1035E800850E82850F8312371A1208FC790002377C
:1035F80001E4F514F51578141222757514B97515CA
:103608000678141222757514BA75150678141222E4
:1036180075740812205612228C7911EEFCEFFD8584
:103628000E82850F83124433122021E9F509709A1E
:10363800850882AA82EA9006B97009E024049006F7
:10364800D1F08025E0F89006D1E0F514E82404FCD8
:10365800E43400FDEC65147001ED70811234D394EC
:10366800121234CB40030235E5850C82850D83E0C8
:10367800C0E074D22A12338AD0E0F00508850C82A3
:10368800850D83A3E0C0E0123383D0E0123749856B
:10369800820C85830D780C12227574041220561240
:1036A800228C8510828511831237401220218A0CC2
:1036B8008B0DAE0CAF0D85080C74D2250CF8740672
:1036C8003400F9EE4F700302357B85188285198323
:1036D800E088828983123749A3E0C0E0123383D09F
:1036E800E0023589E509700375090A850A82850BA8
:1036F80083123706123A8CA909740402337B1242EA
:10370800AF851282851383227CD07D06850A828547
:103718000B8312371E22E0FAA3E0FB2212371E1297
:103728000B60E9F509229006D1E0F5F0E5088490F0
:1037380006D0F07CD07D06221233B3120B7E7404BF
:1037480022F005088518828519832274EC122062FC
:1037580074FE12200B8A088B098C0E8D0FEA240543
:10376800FEEB3400FF12395CEE2418123F87EA455D
:103778000B70030237FF12394550291238248A107A
:103788008B11EA4511606B7912AC0AAD0B85088282
:1037980085098312371A851082851183122060E902
:1037A800F50A7058E4F50AF50B780A1222758E822C
:1037B8008F83A3A3E0F50A780A122275EE24031278
:1037C8003A6C780A1222758E828F83123831120C65
:1037D800987406122021E9F50A7021850C82850D5E
:1037E80083E0701F85088285098312371A1209023F
:1037F8008011750A0E8009750A018004E50A6003C4
:10380800123A7F850C82850D83E06004790080027E
:10381800A90A74021220217F0C022134851882859E
:10382800198312371E120C8622123A7AFD850882F5
:1038380085098312371E2274EE12206274FE12204C
:103848000B8A088B098C0C8D0DEA2405FEEB3400DD
:10385800FF750E0012395CEA450B7003023923121A
:103868003945502C1238248A0E8B0FEA450F604ACE
:103878007912AC0AAD0B85088285098312371A853F
:103888000E82850F83122060E9F50E600302392647
:10389800850882850983123B61AA0AFB12393770B1
:1038A800147AFF7BFF123937606C88828983E50AB6
:1038B800F0A3E50BF0750A008007750E0E805F0512
:1038C8000A9006B6E0FAE50AC39A504AE50A75F086
:1038D80017A4FAABF088828983A3A3E02AFAA3E0AD
:1038E8003BFB8A828B83123A75EC4D70D2750A17AE
:1038F800750B00780A122275EEFCEFFD1204B874FD
:1039080002122021EEFCEFFD85088285098312371B
:103918001A1209088014750E098003750E011242E7
:10392800A7850C82850D83123A8CA90E0234C61223
:103938000C7A8A108B11A810A911E84922E50824ED
:1039480002F508E5093400F5098A828B83A3A3A34D
:10395800E0A2E522851882851983AC82AD838E8228
:103968008F831239728A0A8B0B22E0FAA3E0FB12CA
:103978000B782274041220217F0A02213474EC127D
:1039880020628C108D11EA2405F50CEB123F8A7524
:103998000F00EA2402F50AEB123A6F850A82F583D2
:1039A80012371A1244B97003023A61750E00807119
:1039B800850C82850D83E06401704F8E828F83A30E
:1039C800A312228C8E828F83A3A3A3A3E0F5127582
:1039D80013007812122275EE2405F512EF3400F563
:1039E800137812122275123714120C9874061220CA
:1039F80021E9F50F6014850C82850D83E4F01242ED
:103A0800A7851082851183123A8C7C177D00790076
:103A1800EEFAEFFB1204D08E828F83E4F0A3F00558
:103A28000E9006B6E0F8E50EC398501EE50E75F048
:103A380017A4F8A9F0850882850983A3A312441F57
:103A4800123A75EC4D60030239B8850882850983FE
:103A580074FFF0A3F0E50F700612371412090EA9CF
:103A68000F02381FF50AEF3400F50B22A3123A7A39
:103A7800FD22E0FCA3E0228E828F831242AF850EE6
:103A880082850F83E8F0A3E9F022C082C083900604
:103A9800B2E06A7003A3E06B70067AB27B0680041A
:103AA8007A007B00022DD474F71220627F00EF7534
:103AB800F003A4F8A9F0EC28F8ED39F98882898395
:103AC800E06A7003A3E06B7006E8FAE9FB800B0F6D
:103AD800EFC3940240D87A007B007F01022134743E
:103AE800F612206212409870067A007B008007A3C5
:103AF800A3A3A312371A02415974F2122062E9FEF5
:103B0800740E122056123B617410122056123FC9CF
:103B18008C828D83E06402703BA31242AB88828959
:103B280083E0F50CA3E0F9A80C740268700374290B
:103B3800697021750C02750D00780C1222757808D1
:103B4800122275780A122275EEF9120CBC7406124C
:103B58002021800279010241C9E0F50AA3E0F50BB2
:103B68002274E812206274FB12200BE98518828502
:103B78001983F08A168B178C0E8D0F741F1220561E
:103B8800123FC97421122056123B61742312205629
:103B9800123FB37510008C828D83A3A3A3E0A2E427
:103BA800502A741D12205612382A8A828B83E58285
:103BB80045837003023C75790AAC0EAD0FAA16ABAB
:103BC80017122060E9F5106003023C78850E8285A3
:103BD8000F83E064026003023F2EA31242AB850804
:103BE80082850983A3858212858313E50E2406F551
:103BF8000CE50F123F8A88828983E0FAA3E0F9EA8C
:103C08002400F514E439F51578141222FF01000098
:103C18002801283D3C07000228143D0328843C0065
:103C2800293E3E0129663E02290D3E03293E3E04F7
:103C380029CF3E2E3FEE4F703E850C82850D8312B4
:103C48003FA4FAE9FB8A828B83E0850A82850B838D
:103C5800123FE01222758A828B83A3123A7AFDAA58
:103C680008AB091204B87402122021800375100EE3
:103C7800A910740502440D75100B80F4EE4F70F70F
:103C8800850A82850B837401F0123FB98508828505
:103C98000983F07C007D00850E82850F83A3A3A392
:103CA800A3E02401FAA3E03400FB120B78EA4B608E
:103CB800418A828B83E02402F8850A82850B83E09F
:103CC80028F0EA2404F8EB3400F988828983E08537
:103CD8001282851383123FF2123FE01222758A8204
:103CE8008B83123A74E5082403FAE5093400FB02D1
:103CF8003C6B850A82850B83E02404F07C047D00FC
:103D08007900AA12AB131204D0023C78EE4F60037C
:103D1800023C7F123FB9FEA3E0FF850A82850B8330
:103D28007404F0EE850882850983F0EF8512828598
:103D38001383F07403122056AC82AD83EEFAEFFBC6
:103D48001240867003023DEA8A828B83A3A3123F46
:103D5800AF740112205685820E85830F780E1222C9
:103D680075740512205612228C7CFF7DFF120B7E83
:103D780074041220218B0FEA450F7033850C82855D
:103D88000D83123F8F122275850C82850D83A31235
:103D9800228C7C027D007A8B7B931209AA74041210
:103DA8002021E9700A740112205674FFF0A3F08EE6
:103DB800828F83E064027034750C02750D00780CF4
:103DC8001222758E828F83123A74E5082404FAE56C
:103DD800091233A0122021850A82850B83E0240270
:103DE80080097401122056EEF0A3EFF0740112203E
:103DF80056123FA0F07401122056A3123F98A3A3B5
:103E0800A3F0023C78EE4F6003023C7F850C82856C
:103E18000D83123A75AA16AB17120CB0850A828563
:103E28000B837402F0EA850882850983F085128283
:103E3800851383EB80CBEE4F6003023C7F123FB9C2
:103E4800F8A3E0F9850A82850B837402F0E88508F7
:103E580082850983F0E985128285138380A3850C06
:103E680082850D8312371A1204B2EAFC8C82A8826A
:103E7800C39EE49F404BE86E7001EF70047C0080A5
:103E88001F851882851983E0FAEE2AFAEF3400FBC1
:103E9800C3EA98EB94005003E08004EECCC39CFC8A
:103EA800EC850A82850B83F08C0A750B00780A1260
:103EB8002275850C82850D83E02EFCA3E03F023C31
:103EC80066751007023C78EE4F6003023C7F850C54
:103ED80082850D831242AB850A82850B837407F0B5
:103EE80088828983123F98123F80E0851282851369
:103EF80083F0E82402FAE93400FB8A828B83123FBC
:103F080098123FD1123FA0A3123FDA123FA9F0E85E
:103F18002405F8E93400F988828983123FA9A3129D
:103F28003FF2A3023E06741D122056124091700300
:103F3800023C751242AB880C890DE8450D700302EE
:103F48003C758E108F117810122275780A1222751E
:103F580078081222757406122056E0F9AC0EAD0FDF
:103F6800AA16AB17850C82850D8312206074061281
:103F78002021E9F510023C78F088828983A322F594
:103F88000CEF3400F50D22E0F50E750F00780E22C7
:103F9800E085088285098322123FF9221242AFE8A0
:103FA80022123FF9A3A322A3A3A3A3E0FEA3E0FF49
:103FB80022850C82850D83E0F8A3E0F5838882E0F2
:103FC80022E0F508A3E0F50922A3A3F08A828B83F7
:103FD800A322122C8CA3A322F08A828B83123FE99E
:103FE80022E0F50A750B00780A22123F80123FF989
:103FF80022E0850882850983A3A32274EE12206239
:1040080074FE12200B8A0A8B0BECFAEDFB74141267
:104018002056E0F510A3E0F5117416122056E0FEC4
:104028007418122056E0F50EA3E0F50F8518828566
:104038001983AC82AD83124086603E85188285194B
:1040480083124091602FA3A3123FC9E50845096078
:1040580024780E1222757810122275EEF9AC0CAD88
:104068000DAA0AAB0B8508828509831220607404A7
:104078001220218006790E800279010234C6120BC3
:10408800788A0C8B0DEA450D2212371E12409822B1
:10409800120C448A828B83E58245832274F61220AF
:1040A8006274FE12200B740C122056123FA485185D
:1040B80082851983F07401122056E9F0E4F508F5B9
:1040C8000978081222757508027808122275740496
:1040D8001220568582088583097808122275120CE9
:1040E8009874061220217402122021806474F71239
:1040F8002062EAFEEBFF89087CE97D06120CB0EA33
:104108005402600BA908EEFAEFFB120B6C800279DF
:1041180001023AE274F612206274FF6A700374FFB7
:104128006B701C7B00EB75F003A4F8A9F0EC28F881
:10413800ED39F912415E0BEBC39402501480E6127C
:104148000C808A088B09A808A909E849600312416C
:104158005E7F020221348882898374FF122C8AE4EC
:10416800F02274F6122062120C808A828B83E58218
:1041780045836006A3A3E0FA80027A007B0080D121
:1041880074F21220628A088B09ECFEEDFF740E129D
:104198002056E0F50A1241CE701CEEFCEFFD7AFFC6
:1041A8007BFF1241CE70047911801688828983E5DD
:1041B80008F0A3E509F088828983A3A3E50AF079CA
:1041C800007F06022134120C808A0C8B0DA80CA9E2
:1041D8000DE8492274EE122062EAFEEBFF8C088D8E
:1041E80009890C74121220561242AB74141220560C
:1041F800123A75741612205612371A750D00EC4DC6
:10420800600302429F7402650C600302429A88822E
:104218008983123A7AF9EC2400F50EE439F50FEAAD
:10422800F4F8EBF4F9EC58F8E50F59F9E849705D42
:10423800E5082406F8E5093400F9880A890B88821C
:10424800F5831233AF120CB08A108B11E50E65108E
:104258007004E50F65116042780E122275850A8296
:10426800850B831233AF120CB67402122021E9F5C4
:104278000D7027780E122275850882850983A3A3FD
:104288001233AD120CCE7402122021800D750D80F0
:104298008008750D0D8003750D0BA90D0239808EF0
:1042A800828F831242AF22E0F8A3E0F92274E81269
:1042B800206274E712200B851882851983EAF0A31F
:1042C800EBF08C168D17890E7431122056E0F5121A
:1042D800A3E0F5137433122056E0F514A3E0F515A6
:1042E8007435122056E0F50F750800750900E509C8
:1042F80075F003A4F8A9F085188285198312441F64
:10430800E0F47003A3E0F470030243FDEE2402F529
:104318000CEF124415E070030243FD85160A851759
:104328000B780A122275AC14AD15AA12AB13120C35
:104338003874021220218A0A8B0BEA450B7003029B
:1043480043FDE4F510F51178101222757406122059
:1043580056858210858311781012227574091220EF
:1043680056858210858311781012227585128285F0
:104378001383A3A3A3A312228C7914AC0AAD0B8ECA
:10438800828F83124433122021E97069850A82855D
:104398000B83A3A3A3A31242AB7402122056123AB2
:1043A8008C850C82850D83E0A2E05018A90E74025A
:1043B800122056AC82AD838E828F8312371A120B6D
:1043C80090E94208850C82850D83E0A2E15026E53C
:1043D8000FF50A780A122279A90E7403122056AC36
:1043E80082AD838E828F8312371A120B8A74011260
:1043F8002021E942080509E509C394025003024255
:10440800F6A90874191220217F100221343400F50E
:104418000D850C82F58322E028FEA3E039FF8E8209
:104428008F83227916850A82850B8312371E120C18
:104438009274082274F2122062EAFEEBFF890B7470
:1044480001650B600E7402650B70637901120EA88A
:10445800E9705BEEFAEFFB1244B96047750A008019
:104468000B7C177D0079001204D0050A9006B6E08F
:10447800F8E50AC3985021E50A75F017A4F8A9F0E1
:10448800850882850983A3A3E028FAA3E039FB8A7B
:10449800828B83122DDB70C985088285098374FF9E
:1044A800F0A3F07CE97D06EEFAEFFB120CAA0241BC
:1044B800C9120C7A8A088B09EA45092274F212207B
:1044C800628A088B09ECFEEDFF740E122056123B2F
:1044D80061900E1AE0F4603D7A097B001204E2EA6A
:1044E8004B60328A828B8374B1F0A3E4123FD3A36A
:1044F800123FD1A3E508F0A3E509124520EEF0A389
:10450800EF124520A3A3E50AF0A3E50BF0900E1ADD
:10451800E0F91204EE0241C9F08A828B83A3A3A3B7
:10452800A3A32274F4122062E9FF7E008A088B0993
:1045380078081222B900040DDC465E457A458F459D
:10454800A445B945CE45EA45034615464346654662
:1045580081469D46BB4674016F70128C828D83E044
:10456800C394035008E0900BD6F00246FA7E180276
:1045780046FA74026F70F68C828D83124E38900B57
:10458800D7E8F0A3E980E274016F70E18C828D8333
:10459800E0C3940250D7E09002A780CD74016F70F9
:1045A800CC8C828D83E0C3940550C2E09002A88031
:1045B800B874016F70B78C828D83E0C3940250ADDC
:1045C800E09002A980A374106F70A27508108E097C
:1045D80078081222757AAA7B021251FC1220210255
:1045E80046FA74016F70868C828D83E0C394024012
:1045F80003024575E09002BA02457174016F6003C9
:104608000245758C828D83E0900BDA808D74046F7F
:1046180060030245759092D37808121EDB8D838C57
:1046280082780812151D40030245758C828D83120D
:104638001EF99002BC121F050246FAEF60030245FC
:1046480075120B18E9700E120650795012083612BE
:1046580006440246FA90034F740102457174016FD3
:1046680060030245758C828D83E0C3940240030287
:104678004575E09002BB02457174016F6003024505
:10468800758C828D83E0C3940A4003024575E090DF
:104698000BD902457174016F60030245758C828DD8
:1046A80083E024F9C3940A4003024575E0900BDBCC
:1046B80002457174016F600302457590034EE0F87E
:1046C8008C828D83E090034EF0E87026E0640170E0
:1046D80021024657C3EA9426EB9400501374026FE4
:1046E800700E8C828D83124E321209B6E9FE80025A
:1046F8000E0EEEF9024704740E1220217F040221E7
:104708003474F012206274CC12200B8C0A8D0B7456
:1047180044122056E0FE7420122056AC82AD8375F8
:1047280083927582AA7406121F1E7420122056AC3A
:1047380082AD831205F6E9F508C3940A40030248DE
:104748006D75F006E9A4F5097426122056AC82AD01
:10475800837A0E742025091252B47009743212201B
:1047680056E0FF80027F00900BD6E064027004746C
:10477800018001E4F50D780D122279EEFDEFFCA918
:1047880008AA0AAB0B12067A74011220217C147D48
:10479800007900740C122056AA82AB831204D074DC
:1047A8000C122056AC82AD837A107424250912525B
:1047B800B470377C1079FF740C122056124FE170D8
:1047C80029741C122056AC82AD837A0474252509FD
:1047D800F9120830740C122056AC82AD83EFA2E0B7
:1047E800E433F9AA0AAB0B120A40851882851983AB
:1047F800AC82AD837A0C747025081252B47055855A
:104808001882851983AA82AB83120626750800E5EB
:104818000875F003A4F8A9F0851882851983E58244
:1048280028F8E58312501D124E32EC4D601D888227
:104838008983A3A3E0F50E750F00780E122275AADE
:104848000AAB0B120C9E74021220210508E508C35E
:10485800940440BBEFA2E1500C9002A6E0F9AA0A2A
:10486800AB0B120CA474046E702A900BD6E0640291
:1048780070229002BAE060047A0180027A00900205
:10488800A7E06004780480027800E84AF9AA0AAB35
:104898000B120B00790074341220217F0802213496
:1048A80074F0122062EAFEEBFF8C088D09750A0A83
:1048B800E9600C14600914602E14607F02494E12DE
:1048C8000638E9F50AC3940A507CE508450960767C
:1048D800750E06750F00780E122275EEFCEFFD12AC
:1048E80051F8122021805F750B00750E06750F00B8
:1048F800780E122275EEFCEFFDE50B75F00EA4F8AC
:10490800A9F074C828FA740239FB1204CA74021296
:104918002021E9601B850B0AE50AC3940A5027E5A4
:104928000845096021AA08AB09A90A1206328016AF
:10493800050BE50BC3940A500D80AF12063EE9F54E
:104948000AC3940A40D9A90A0248A374F41220623F
:10495800890875091574FF6A700374FF6B70277EE8
:1049680000AC087A027B00EEF9120614E9600375C0
:1049780009000EEEC3940A40E8E50860497A687BAE
:1049880006120EBA8040120E9C8A0A8B0BAE0AAF32
:104998000BEE4F602E7C007D00EE2405FAEF34000C
:1049A800FB8E828F83124A4A500CAC087A027B0035
:1049B800120614750900E508600CEEFAEFFB120602
:1049C800688003750914A90902470474F212206269
:1049D800ECFEEDFF740E122056124E257508157464
:1049E800FF6A700374FF6B7021750900AC0AAD0B88
:1049F800EEFAEFFBA90912061AE96003750800052B
:104A080009E509C3940A503580E2120E9C8A828B0C
:104A180083E582458360237C007D00E5822405FAD6
:104A2800E5833400FB124A4A5013AC0AAD0BEEFA88
:104A3800EFFB12061A7508008003750814A908020E
:104A48005823A3A3A3A3E0F91205F6E9C3940A2205
:104A5800C082C0839002C0EAF0A3EBF09002A6E007
:104A6800FC7D007A257B001209B69002A6E0F912B7
:104A78000C1AD083D08202012274EA12206274ECEC
:104A880012200BEAFEEBFFEE240CF514EF3400F5D0
:104A980015EE240AF510EF3400F511EE2405F50E95
:104AA800EF3400F50FEE2409F50AEF3400F50BEEAC
:104AB8002403F508EF3400F5098E828F83A3A3E061
:104AC80024FA7003024DEE24FD7003024D1D14708C
:104AD80003024B6C14601024FD7003024CEE14703A
:104AE80003024D52024E0C124E51604AE0F5838883
:104AF80082124E38880C890DE8450D60398514827C
:104B0800851583E0F50E780E122279EE240BF582D6
:104B1800EF3400F583E0F9850A82850B83124E3263
:104B28000A0A0AAB09850C82850D8312206074017C
:104B3800122021024E0C850A82850B8312228C904A
:104B480002BC121EF9120A527402122021E97003E3
:104B5800024E0C7901850A82850B83125648120A87
:104B68004C024E0C8E828F83A3858212858313E0BC
:104B78006003024CC7850E82850F83E0A2E04003E4
:104B8800024CC77C0E7D007900851882851983AA9E
:104B980082AB831204D0EE2408F50AEF3400F50B3B
:104BA800850A82F583124E546019750C06750D003E
:104BB800780C122275850A82850B83E02410FCA3E9
:104BC800E0801A124E16EA4B7003024E0C750C0662
:104BD800750D00780C122275EA2405FCEB3400FDF3
:104BE8007402122056AA82AB831251FC122021852E
:104BF8000E82850F83E0A2E25004D2F08002C2F058
:104C0800A2F0E433F8740C122056E048F0851082C4
:104C1800851183124E546015851082851183E02416
:104C280010F8A3E03400F98882898380039092CF3A
:104C3800780C121EDB851082851183124E54600F8A
:104C4800851082851183E0F510A3E0F511800675C3
:104C58001000751100850A82850B83124E54600B73
:104C6800850A82850B83124E258006750A00750B0E
:104C780000780C1222717810122275780A122275A7
:104C880085148285158312228C8E828F83A3124EFF
:104C98002D740A122056AA82AB8312062C740A12AB
:104CA8002021850882850983124E38900350E8F048
:104CB800A3E9F07A017B009002A6E0F9120512122E
:104CC8004E517003024E0C124E3E7003024E0C857C
:104CD8001282851383E0FC79011256428E828F83FB
:104CE800122060024E0C124E517003024E0CE0F579
:104CF800838882A3A3124E38890BE8450B70030200
:104D08004E0C8E828F83A3E0FC7902125642888271
:104D1800850B8380CB7C007D00EE2404FAEF340001
:104D2800FB850882850983E0F91205F6E9F8C39442
:104D38000A4003024E0CAC10AD117A0475F006E877
:104D4800A42425F912082A024E0C9002BBE0600E3A
:104D5800900BD9E0F9850882850983024B63900B93
:104D6800D6E07004790580ED124E168A0C8B0DA8DA
:104D78000CA90DE82404F50CE93400F50D8E828F9A
:104D880083A3A3A3A3A3A3A3E0A2E05036E84960AA
:104D980073850C82850D83E0FE6028850A82850B69
:104DA80083E05410701D740E122056AC82AD83E857
:104DB8002405FAE93400FBEEF91205F6E9700479E6
:104DC800038092AC0EAD0F850C82850D83E0F9123D
:104DD8005642120674124E51602A124E3E60257CCD
:104DE800007900024CE1120B18E9701890034FE0AB
:104DF8006401700812065090034FE4F079501208CD
:104E08003612064474141220217F0E0221348508BC
:104E180082850983E0FAA3E0FB120E9C22E0F50AE2
:104E2800A3E0F50B22A3A3A3A3A3E0FCA3E0FD2228
:104E3800E0F8A3E0F922E0F5838882A3A3E0F8A3D1
:104E4800E0F9E8FEE9FFEE4F229002C0E0F8A3E0A7
:104E5800F9E8492274F412206274F212200BEAFE77
:104E68008C0B75F006E9A42420F5088518828519AD
:104E780083AC82AD837A0E1252B4704A7C06124F0C
:104E8800D97043740C122056124E38E8F509E50B18
:104E98006005EE42098004EEF45209850982AA826F
:104EA800E86A7001E9601B740C122056EAF0A3E46A
:104EB800F0851882851983AC82AD837A0EA9081211
:104EC800082A7901800279000246FF74F2122062F2
:104ED80074E612200B890A8A088B09ECFEEDFF7430
:104EE8000C1220561252A76003024F8D7C0679FFE0
:104EF800740C122056124FE16003024F8D74702516
:104F08000AF50B851882851983AC82AD837A0C1259
:104F180052B46003024FD2851882851983AA82ABE6
:104F280083120626E508450970217C0C7900124F8A
:104F3800DB6003024FD27C0C7D00790085188285E6
:104F48001983AA82AB831204D080618518828519DF
:104F580083AC82AD83AA08AB091206208A0C8B0D9C
:104F6800A80CA90DE849702CEE4F601985188285A8
:104F78001983AC82AD837A007B00120620EAF8EB35
:104F8800F9EA4B70047900804388828983E508F048
:104F9800A3E509F0125059FAEE6A7001EF602BEEA2
:104FA800F04F700888828983E4F0A3F08518828521
:104FB8001983AA82AB83120626851882851983ACC9
:104FC80082AD837A0CA90B12082A7901741A025847
:104FD8002079FF851882851983AA82AB831205364A
:104FE800E92274F71220627F00EF75F003A4F8A994
:104FF800F0EC28F8ED12501DE06A7003A3E06B7026
:1050080006E8FAE9FB800B0FEFC3940440DB7A0053
:105018007B0002535239F9888289832274F712205F
:10502800627E00EE75F003A4F8A9F0EA28F8EB1206
:10503800501DE0F4FCA3E0F4FD88828983ECF0A322
:10504800EDF0125059F4F00EEEC3940440D502531B
:1050580052E82402F582E93400F583E02274EE1266
:10506800206274F412200BEAFEEBFF8C0A8D0B749D
:105078001E122056E0F50CA3E0F50D742012205600
:10508800E0F508A3E0F5097422122056E0F510A314
:10509800E0F511EE4F7005790A02518A120638E9D7
:1050A800F50EC3940A4023750F007C0679FFE50FBF
:1050B80075F00EA4FAABF074C22AFA74023BFB1224
:1050C8004FE57003025194850F0EE50EC3940A4014
:1050D8000302518875F006E50EA4F50FEEFCEFFD0E
:1050E8007A0E74201251A5E50A450B600BAC0AAD87
:1050F8000B7A1B74211251A5E50C450D600BAC0C05
:10510800AD0D7A1B74221251A5E5084509600BAC58
:1051180008AD097A1074231251A5E5104511601BDA
:10512800AC10AD117A1074241251A57424122056B3
:10513800AC82AD837A0474251251A57C0C7D00796C
:10514800FF1258B17A0C7470250EF912082A7508E6
:105158000E7509007808122275EEFCEFFDE50E7554
:10516800F00EA4F8A9F074C228FA740239FB12519F
:10517800FC12202190034EE0600312068012066E96
:10518800A90E740C1220217F0A022134050FE50FA5
:10519800C3940A50030250B2750E0A80E3250FF932
:1051A80012082A2274F412206274F212200BEAFE0A
:1051B800EBFFE9C3940A5004EE4F70047902802D86
:1051C8008518828519831252A7F508701E750A067C
:1051D800750B00780A1222757402122056AC82AD43
:1051E80083EEFAEFFB1251FC122021A9080246FFB8
:1051F800AA08AB091204B874022274F4122062EAF5
:10520800FEEBFF750800750A06750B00780A122276
:1052180075EEFCEFFDE50875F00EA4F8A9F074C270
:1052280028FA740239FB1204CA7402122021E960B8
:1052380004A908800B0508E508C3940A40C8790A40
:1052480002470474F712206274F012200BEAFEEB96
:10525800FF750800851882851983AC82AD837A10A2
:1052680075F006E508A424231252B4701F7C1012AE
:105278004FD97018EEFCEFFD851882851983AA8234
:10528800AB83120A22E97004A908800B0508E50817
:10529800C3940A40BF790A7410122021025352ACF9
:1052A80082AD837A0E75F006E9A42420F91208303D
:1052B800E92274F7122062750800E50875F00EA45B
:1052C800F8A9F074C228FE740239FFEEFCEFFD7AEB
:1052D8000E75F006E5081252B1602C7C067D007947
:1052E800FFEEFAEFFB1204D07C067D0079FFEE2476
:1052F80006FAEF3400FB1204D0EE240CF582EF34EA
:1053080000F583E4F0A3F00508E508C3940A40AA71
:1053180090034EE0600312068012066E802C74F72C
:105328001220627E007F007C0679FFEF75F00EA4E4
:10533800FAABF074C22AFA74023BFB124FE5700113
:105348000E0FEFC3940A40DFEEF97F010221347497
:10535800F71220627E00EEF91206560EEEC3940A8A
:105368005003E960F180E374F312206274CB1220D9
:105378000BE9FF75F006A4F50874202508FE7427CC
:10538800122056AC82AD837A0EEE1252B46003023C
:1053980054717C0679FF7427122056124FE160037E
:1053A8000254717C0E7D0079FF7427122056AA8260
:1053B800AB831204D07C1B7D0079FF740C1220563D
:1053C800AA82AB831204D07C0C7D0079FF851882F9
:1053D800851983AA82AB831204D07427122056AC95
:1053E80082AD837A0EEEF912082AE9F509740C12D7
:1053F8002056AC82AD837A1B7421125480FE740C43
:10540800122056AC82AD837A1B7422125480F50A9E
:10541800740C122056AC82AD837A10742312548017
:10542800F50B740C122056AC82AD837A10742412DA
:105438005480F50C740C122056AC82AD837A047437
:1054480025125480F508851882851983AC82AD83AE
:105458007A0C74702FF912082AE9F8EE450A450B00
:10546800450C45084842098003750900A9097435A7
:105478001220217F050221342508F912082AE92281
:1054880074F7122062E99002A6F012064402535201
:1054980074F212206274FB12200B8A088B09EB54F9
:1054A80080700302553C9002A6E0F91204FA8A0AB9
:1054B8008B0BA80AA90BE8FEE9FFE849606CEE240B
:1054C80004F8EF3400F98E828F83E024506038149A
:1054D800600624E1604A804B88828983E070448EAC
:1054E800828F83A3A3A3A3A3A3A312228C8E828F4C
:1054F80083124E2D8E828F83A3A312564812060262
:105508007402122021801C88828983E0641E701333
:1055180079008E828F83A3A31256481205FC80035C
:1055280012060EEEFAEFFB1204E8AA08E5096480F9
:10553800FB02563DEAA2E04003025639900350129E
:105548004E25740312205685820C85830D780C1223
:105558002275750C02750D00780C122275750C8376
:10556800750D93780C1222757CFF7DFF7A017B0004
:10557800120B727406122021025621E4F50CF50D67
:10558800780C122275740412205685820C85830DBE
:10559800780C122275740412205685820C85830DAE
:1055A800780C122275740912205612228C7902EE98
:1055B800FCEFFDAA0AAB0B120C927408122021E929
:1055C8007035851882851983E0FA7401122056E037
:1055D800F9EA2400F50CE439F50DEA450D60187870
:1055E8000C1222758E828F83124E2EAA0AAB0B12D2
:1055F80006027402122021E4F50CF50D780C122233
:1056080075740512205612228C7CFF7DFFEEFAEF8E
:10561800FB120B7E74041220218A0C8B0DAE0CAF8A
:105628000DEE4F6003025583E5086401FAAB09806B
:10563800047A007B00740502582085088285098356
:10564800E0FAA3E0FB22C082C0839002A6E0F98AB8
:10565800828B83A3125648120CA4024A7AC082C0D5
:105668008374FF12200B12064AE9C394028518823C
:10567800851983400474028002740AF0AC82AD83F9
:105688007A017905120B307401122021024A7A74CA
:10569800F212206274E812200BEAFEEBFF890A8CF2
:1056A800088D097C187D0079001258B9EEF0A3EF37
:1056B800F09002A8E0C0E07402122056D0E0F0900A
:1056C80002A9E0C0E07403122056D0E0F0900BDB92
:1056D800E0C0E07417122056D0E0F074151220567E
:1056E800E054FEF8A3E0F9900BDAE0A2E0E433FA24
:1056F800E84AF8741512205612582FA2E15004D225
:10570800F08002C2F0E854FDFAA2F0E43333F8EA7C
:1057180048F8741512205612582FA2E35004D2F0FC
:105728008002C2F0E854F7FAA2F0E433F50C750DE4
:10573800007403780C121FF81258281220561258B9
:105748002FA2E45004D2F08002C2F0E854EFFAA28B
:10575800F0E433F50C7404780C121FF81258281270
:10576800205612582FA2E55004D2F08002C2F0E869
:1057780054DFFAA2F0E433F50C7405780C121FF824
:1057880012582812205612582FA2E25004D2F08044
:1057980002C2F0E854FBFAA2F0E433F50C74027884
:1057A8000C121FF8125828122056E8F0A3E9F090BE
:1057B80002A9E0601B750C10780C1222757CAA7D7A
:1057C800027406122056AA82AB831251FC122021C1
:1057D8009002BAE06011E50A60097415122056E0DB
:1057E8004402F07801800278007414122056E048D0
:1057F800F09002A7E0600478048002780074141224
:105808002056E048F0AC08AD09851882851983AAAE
:1058180082AB83120A4674181220217F06022134B3
:10582800EA450CF8741522E8F0A3E9F0900BDAE0E9
:105838002274F312206274E512200BEAFEEBFF8C4F
:10584800098D0A7428122056E0F50C75F006E9A4B3
:10585800F87408650A700474228002742128F50B14
:105868007C1B7D0079001258B17A1BA90B1252B526
:105878007032741A122056E024F9C3940A5025E5B0
:105888000CF50B780B1222797401122056AC82ADFC
:1058980083E509A2E0E433F9EEFAEFFB120A587443
:1058A80001122021741B0254781258B9AC82AD83BE
:1058B80022851882851983AA82AB831204D08518A1
:1058C800828519832274F7122062120D167508005A
:1058D800E50875F00EA4F8A9F074C228FE74023920
:1058E800FF7C0679FFEEFAEFFB124FE57009EEFA3E
:1058F800EFFB7900120D1C0508E508C3940A40D097
:10590800025352C082C0839061907404F0A374481B
:10591800F0A3E4F09061807440F09061BC7407F0EB
:105928009061877469F09061B67416F07900120F6F
:10593800987902120F9E902B48E493F46006E49342
:10594800F9120F74790512128C025D4DC082C08362
:10595800E9540FF9906185E0696012E5C654804406
:1059680049F5C6E59E547F644970F8E9F053C6804E
:10597800E59E547F70FA025D4D74F7122062E5A827
:10598800FE53A87E120F80C2BA539AFEC289759B35
:1059980000C2C2120F8675A91175B905120F8CD2F3
:1059A800BA439A0174805E42A80262DAC082C08358
:1059B800906181E4F0A3025D4A75E9007591007574
:1059C800BF00020122C082C083906181E4F0A37409
:1059D800C0F0A3E4025D4CC082C08374F812200BAF
:1059E8009007951261BCE8497003025A9690079592
:1059F800E0544060237908851882851983AA82AB10
:105A08008312108E851882851983AA82AB83120DA2
:105A18003A900795E054BFF0E054806010790C7A12
:105A2800517B0912108E900795E0547FF0E0A2E0B8
:105A380050087900125A9E54FEF0E054026008792A
:105A480001125A9E54FDF0E0540460087900125A7D
:105A5800A954FBF0E0540860087901125AA954F7D8
:105A6800F0E0541060087902125AA954EFF0E0549B
:105A78002060087903125AA954DFF0A3E0540160AA
:105A88000D120FAA120D4C900796E054FEF0740800
:105A9800122021025D4D120F98120D40900795E0DB
:105AA80022120F9E120D46900795E022C082C083F5
:105AB800E9600514602A804F90619A7433F0A374EA
:105AC80055F09061A0743AF090092DE064017009D6
:105AD800C2919007977467802D900797746180260C
:105AE80090619A743FF0A3745AF09061A0747FF0AB
:105AF80090092DE064017009D29190079774718024
:105B080005900797746AF0025D4DC082C083E96012
:105B18000B14600D14600F1460118020902B4C80C2
