:020000040000FA
:0600000002011D0228C3ED
:03002B000230069A
:03003300022FE8B1
:0300530002293649
:03006B00022FBFA2
:10008300022777E5C754F84401F5C7790122000038
:100093000080FB120086B90003020107E47921788E
:1000A30008B800028004F709D8FCE479297802B87B
:1000B30000028004F709D8FCE4900281785B790898
:1000C3008002F0A3D8FCD9FA781A90014D7A01BACC
:1000D30000028007E493A3F608DAF99009DBAA8209
:1000E300AB8390014E787D79058015E493A3AC82B0
:1000F300AD838A828B83F0A3AA82AB838C828D83A8
:10010300D8E9D9E77582C87583DB740312012F75AB
:100113008291758300740012012F75D00075813FA1
:10012300751881751902759F00020096C09FF59F8F
:10013300E473D09F22D083D082C09FE493C0E07445
:100143000193C0E0740293F59F2201FF0000B40005
:100153000028002800283075A000A000A000A000FF
:1001630000080008E001F00010001000100010006B
:100173001000100050005000500010001000D00775
:100183000000000000000F000100050030750700AB
:100193001000010081FF0000FFC807E607CE07FF3C
:1001A30002020208025000A0000000E80302BC861D
:1001B300010000818602B886010000300A02DE8653
:1001C300010000B20202B886010000310A02B086C3
:1001D300010000C80202B886010000320A02AE869E
:1001E300010000CA0202B886010000330A02AC868D
:1001F300080000CB0202B886010000340A02AA8676
:10020300010000350AFF0100FF2002BC8601000047
:100213007E8602B886010000990A02A886000000C3
:10022300000002B4860300001803AA0DAA0DAA0D4C
:10023300AA0DAA0DAA0DAA0DAA0DAA0DAA0DAA0D03
:10024300AA0DAA0D381050103210FFFF11019901A9
:100253000F1264040102BC860100008D8602B88679
:10026300010000E10A029886010000E20A02B48656
:10027300030000840702A686010000E30A020202CB
:10028300020202020202010D000000100102BC86FC
:100293000100008A8602B8860100000D0B029C86CD
:1002A3000100008A0702B8860100000E0B029E8639
:1002B300010000318402B8860100000F0B02A08602
:1002C300010000FA8302B886010000100B02A28627
:1002D3000100000F8302B886010000110B02A486FF
:1002E300010000338302B886010000120B02B286BC
:1002F300010000578302B886010000130B02D88661
:10030300010000458302B886010000140B02DA865F
:10031300010000168402B886010000150B029286C4
:10032300010000160B000101020203040405060686
:10033300070708090901E803053F10FF00013075AD
:10034300030201060000000000000000000000009E
:10035300000000000000000000000000000000009A
:10036300FFFF0600800CE80302010609414D4F4DD3
:10037300435502F0FF7215000084150A4368617249
:100383006163746572697374696320310002436841
:100393006172616374657269737469632032000802
:1003A300436861726163746572697374696320334E
:1003B3000010436861726163746572697374696381
:1003C3002034000A54656D7065726174757265201E
:1003D30055706461746520436F6E666967001A43E4
:1003E300757272656E742054656D70657261747593
:1003F3007265000A446576696365204E616D652008
:10040300436F6E666967000A54656D706572617447
:1004130075726520416C6572740002414443342057
:100423004144433520526561642056616C756520F3
:100433003134426974000A50574D20436F6E666928
:10044300670002BC86010000848602B886010000B2
:100453000B0C02C486030000980902B68601000053
:100463000C0C02B8860100001D0C02C686010000B8
:10047300990902B6860100001E0C02B8860100002D
:100483002F0C02C8860200009A0902B686010000FA
:10049300300C02B886010000410C02CA860000003D
:1004A3009B0902B4860300009C0902B68601000082
:1004B300420C02B886010000530C02CC86030000F4
:1004C300A20902B686010000540C02B8860100009E
:1004D3006E0C02CE86030000A70902B48603000057
:1004E300AC0902B6860100006F0C02B88601000059
:1004F300830C02D086030000B20902B68601000015
:10050300840C02B886010000970C02D28603000017
:10051300C70902B686010000980C02B886010000E4
:10052300AA0C02D486010000CC0902B686010000A1
:10053300AB0C02B886010000C60C02D6860300008D
:10054300CF0902B686010000C70C104B6579205015
:10055300726573732053746174650002BC86010075
:1005630000878602B886010000DA0D029486000037
:1005730000D40902B486030000D50902B68601003F
:1005830000DB0D30313233343536373839414243AD
:1005930044454600286E756C6C20706F696E7465F7
:1005A3007229003F3F3F000000807F0000803FF939
:1005B300021550B743BA5100E7DB2E0000A04010EC
:1005C300000000080000001201389BCA0312013822
:1005D300B2CA03120138E1CA031201381ACB03125B
:1005E300013842CB0312013870CB0312013887CB99
:1005F300031201389ECB03120138B4CB0312013826
:10060300DBCB03120138EECB0312013804CC031207
:10061300013817CC031201383CCC031201388FDAAE
:10062300021201388EDB02120138C3DB02120138D9
:10063300E4DB02120138F4DB0212013815DC02128A
:10064300013821DD02120138EEDD0212013861DECC
:1006530002120138E7DE021201382ADF02120138E2
:1006630061DF02120138E7DF02120138B9E002123A
:10067300013817E1021201382FE102120138A9E112
:1006830002120138ACE102120138AFE10212013863
:1006930056E2021201386EE2021201389EE20212A1
:1006A3000138BEE202120138ACE30212013862E4FF
:1006B30002120138DC90031201380491031201384D
:1006C300329103120138699103120138D191031257
:1006D30001381A9203120138659203120138A3926A
:1006E30003120138E092031201380E93031201380A
:1006F300B59303120138BF9303120138CC9303124D
:100703000138FF9303120138C19403120138CD94C9
:1007130003120138E59403120138EF9403120138F0
:10072300DAD703120138E8D70312013800D80312CD
:10073300013818D8031201381FCE01120138BDCE7B
:100743000112013835CF011201384AD001120138A4
:1007530084D0011201382DD10112013802D20112C5
:10076300013866D301120138BDD30112013844D4D4
:10077300011201382BD50112013878D50112013845
:1007830006D6011201382AD601120138FFD7011209
:10079300013840D80112013862D801120138E3D878
:1007A30001120138CDD90112013893DA011201384F
:1007B300008003120138D280031201387B810312B7
:1007C3000138BE81031201384B8203120138D782EC
:1007D30003120138B88303120138E7830312013887
:1007E300E384031201382B85031201382D8603128B
:1007F30001387186031201389786031201383FDBF3
:1008030003120138B2AE03120138C8AE0312013825
:10081300EEAE0312013816B00312013820B00312F2
:10082300013879B10312013879B2031201380C8708
:100833000312013841880312013874880312013806
:10084300BE88031201387C8A03120138C2BE01122A
:10085300013825BF011201386AC0011201387AC07C
:10086300011201389DC001120138E8C0011201389C
:100873008DC10112013883C2011201384DC3011227
:100883000138C5C40112013807C501120138A5C5D5
:1008930001120138F2C50112013818C601120138DC
:1008A30006C8011201380BC801120138ECC9011244
:1008B300013840CA01120138A2CA01120138CACA5A
:1008C300011201386ECB0112013830CC011201380C
:1008D30061CC0112013864CC01120138ACCC011295
:1008E3000138EECC0112013855CD01120138A7FDB4
:1008F30002120138BAFD02120138D3FD0212013887
:100903001EFE02120138F9FE0212013888FF02129C
:100913000138D3FF021201382C300012013838306D
:1009230000120138713000120138B630001201385C
:100933006D3100120138F3310012013858320012C0
:100943000138843200120138BD3200120138D1342B
:1009530000120138AD360012013898380012013800
:10096300CF39001201382F3C001201381B3D001211
:100973000138613E001201386E3F001201388B3F8F
:1009830000120138C33F00120138DD3F0012013865
:10099300454000120138DF4400120138804500123F
:1009A3000138D14500120138F84500120138464696
:1009B30000120138644600120138B84600120138AB
:1009C300914700120138184900120138A04900125A
:1009D3000138328C031201383C8C03120138078D25
:1009E30003120138228D03120138488D0312013896
:1009F3008C8D03120138C48D03120138ED8D03125F
:100A03000138668E031201387B8E03120138908EF3
:100A130003120138C78E03120138DB8E031201382B
:100A23000C8F03120138468F03120138728F0312A1
:100A33000138C88F031201381C90031201386590E6
:100A4300031201388F9003120138B4900312013856
:100A5300E2A603120138ACA7031201388FA80312D0
:100A6300013805A90312013847A90312013874AAF2
:100A7300031201387EB602120138A7B602120138FA
:100A8300C0B60212013805B802120138E3B80212E7
:100A9300013802B9021201388FB902120138D2B9F2
:100AA300021201381FBB02120138BEBB0212013809
:100AB3003DBE02120138D4BE02120138A8BF021291
:100AC30001388AC002120138F6C10212013889C204
:100AD30002120138EAD30312013853D40312013846
:100AE300A7D403120138CED403120138259A031276
:100AF3000138929A03120138DD9A03120138D29B0E
:100B030003120138CE9C03120138B89D0312013839
:100B1300CDE4021201380FE502120138E9E50212B1
:100B23000138C2E602120138BDE7021201389CE81F
:100B33000212013808E902120138CFE90212013822
:100B43003AEA02120138A1EA02120138CCEA02128F
:100B530001383DEB02120138D0EB0212013839ECB7
:100B6300021201384EEC0212013896EC02120138DF
:100B7300AFEC0212013814ED0212013817ED021224
:100B8300013820B60312013848B60312013886B67D
:100B93000312013844B703120138AFB70312013807
:100BA300CBB703120138F3B70312013823B803128A
:100BB300013832B803120138ACB803120138D2B885
:100BC30003120138008002120138DD81021201385C
:100BD300D88302120138AB8402120138F684021260
:100BE3000138418502120138538502120138938579
:100BF30002120138C8850212013814860212013824
:100C0300438602120138668602120138B386021245
:100C130001383C8702120138498902120138348BAA
:100C230002120138778B02120138DC8C0212013870
:100C33001D8D02120138908D02120138DC8D0212D3
:100C43000138078E0212013800C3021201382BC388
:100C53000212013812CA0212013836CC02120138CC
:100C6300F1CD021201384ECF02120138074A0012A9
:100C730001389E4A00120138CB4A00120138114B49
:100C830000120138504C00120138E74D00120138B0
:100C9300614E001201387C4E00120138F14E0012F1
:100CA30001382050001201387B51001201387D5267
:100CB30000120138DA5300120138F35300120138DD
:100CC3005054001201383255001201386555001294
:100CD3000138D555001201384F56001201389E567F
:100CE300001201386A57001201386F580012013898
:100CF3004E5900120138D95900120138475A0012CF
:100D03000138BB5A00120138E45A00120138A35BC0
:100D1300001201381D5D001201383A5D00120138DE
:100D2300595D00120138EA5D001201380F5E0012AE
:100D33000138375E00120138B25E001201380C5FD1
:100D4300001201386060001201381D610012013881
:100D5300F06100120138318E02120138818E0212C5
:100D630001388D8E021201386A8F021201389A8F70
:100D730002120138D28F0212013851900212013847
:100D8300899002120138DB90021201381891021285
:100D930001383D93021201386995021201386497B4
:100DA300021201383F9902120138F07F0012013814
:100DB300C29A011201380C9B01120138EBA00112F7
:100DC30001386CA201120138CBA801120138C6A95F
:100DD3000112013803AA0112013826AA01120138AF
:100DE30068AA0112013871AA011201387BAA011203
:100DF300013867AB011201385BAC011201381E6286
:100E030000120138966C001201389C6C00120138F4
:100E1300A8730012013883B20312013819B3031205
:100E230001382FB303120138A9B303120138FFB3FA
:100E3300031201383DB4031201389AB40312013886
:100E430017B50312013820B5031201382CB503126C
:100E530001383FB5031201387BB50312013891B550
:100E630003120138F0B5031201387A9E03120138D8
:100E7300879E03120138A19E03120138E09E0312DC
:100E830001381E9F03120138839F03120138989F74
:100E930003120138A39F03120138B09F03120138D4
:100EA300C79F03120138D59F03120138E09F031235
:100EB3000138EC9F03120138FB9F0312013806A08F
:100EC3000312013829A003120138D2A003120138FA
:100ED300E2A003120138FCA00312013819A1031286
:100EE300013835A1031201385AA10312013864A154
:100EF3000312013878A10312013897A103120138B4
:100F0300F8A103120138FEA10312013804A203124F
:100F130001380AA20312013816A20312013849A2AA
:100F230003120138059C02120138879C0212013812
:100F3300309D02120138789E0212013886A00212F7
:100F430001386CA102120138A1A102120138C3A118
:100F5300021201386CA2021201383CA402120138B9
:100F630065A402120138DDA4021201380FA5021292
:100F730001381CA50212013867A5021201388BA59E
:100F830002120138DCA702120138E6A80212013866
:100F930042A902120138C8DC01120138D9DD01125D
:100FA3000138BDDE01120138C7DE01120138E9DE66
:100FB30001120138F5DE0112013899E001120138FE
:100FC300C6E001120138DCE10112013831E20112FD
:100FD300013880E30112013855E401120138B1E40C
:100FE300011201381CE50112013851E501120138E3
:100FF30094E5011201385EE80112013876E8011226
:10100300013807E90112013815E90112013862E9D3
:101013000112013870E901120138DCE901120138CB
:1010230057EA01120138AEEA0112013871CF0212F8
:10103300013893CF02120138A4D10212013863D4CC
:10104300021201388DD5021201384BD60212013833
:1010530037D702120138E2C80312013807C9031255
:1010630001387DC9031201386378001201386C78A6
:10107300001201387578001201384D7900120138D9
:10108300FE7A001201382E7B00120138597B0012C0
:101093000138897B00120138B47B00120138E87BE8
:1010A30000120138147C00120138577C00120138F9
:1010B300827C00120138C97C001201381E7D0012A7
:1010C3000138607D00120138BA7D00120138E57DD8
:1010D30000120138347E00120138647E0012013898
:1010E3008F7E00120138BD7E00120138E07E0012AF
:1010F30001387FFF01120138ABFF01120138D8FF1D
:1011030001120138E2FF01120138F2FF0112013826
:1011130085CF03120138BACF0312013805D0031269
:1011230001383BED0212013845ED0212013886ED1C
:1011330002120138CFED0212013809EE0212013812
:101143005FEE0212013880EE021201382FF1021213
:10115300013838F1021201388CF102120138B5F16D
:1011630002120138BFF1021201382DF202120138C6
:10117300BDF20212013818F30212013846F30212CB
:101183000138CEF3021201380DF40212013842F491
:101193000212013854F40212013873F402120138B6
:1011A3007CF40212013843F50212013801D603120E
:1011B300013867C3031201389DC303120138D1C339
:1011C300031201381EC503120138A9DA03120138CC
:1011D300BFDA03120138C9DA0312013813DB031231
:1011E3000138807F001201388495031201389795E6
:1011F30003120138589603120138979603120138E7
:10120300B49603120138ED96031201383A9703128C
:1012130001386C9703120138A39703120138AC9974
:1012230003120138189A0312013817D10312013837
:101233003AD10312013869D10312013801D20312E2
:10124300013819D2031201385BD2031201381AB9DB
:101253000312013851B90312013868B90312013876
:1012630014BA03120138ADBA0312013835BB0312A5
:10127300013802BC0312013827BC0312013851BCE8
:101283000312013827C7031201383FC7031201387D
:101293007BC703120138BDC7031201380DC80312FF
:1012A300013825C80312013820DC03120138E28615
:1012B30001120138C088011201385F8A0112013816
:1012C3000A8B011201388A8B011201380F8C01122B
:1012D3000138388C011201381390011201388A90B9
:1012E30001120138A19101120138DB910112013879
:1012F3001C9201120138639301120138B993011250
:101303000138029401120138719401120138DD94FD
:10131300011201380E950112013826950112013888
:101323003F96011201384F960112013805980112B8
:1013330001381C98011201384E9801120138F099B6
:1013430001120138849A01120138B1D8031201380D
:10135300C2D80312013862D90312013876DC0312B2
:101363000138B5DC03120138DF7F00120138F8D6EB
:101373000312013808D70312013820D703120138AA
:10138300D4D703120138FFD40312013884D50312D2
:101393000138E8D5031201384ECC0312013877CC5B
:1013A30003120138DACC03120138FACC03120138E4
:1013B3004BCD03120138A6CD03120138E0CD031241
:1013C3000138E3CD03120138CEAA03120138F3AA80
:1013D3000312013810AB031201382DAB031201388D
:1013E30052AB0312013873AB031201389DAB0312E6
:1013F30001385AAC03120138D8AC03120138FFACE0
:101403000312013809AD031201382EAE031201385D
:10141300C6A203120138DDA20312013857A3031237
:1014230001383BA40312013812A60312013877A630
:1014330003120138CEA603120138F87F00120138D7
:101443002DC103120138BDC2031201381EC303129A
:10145300013864C30312013868DD031201386DDDFE
:101463000312013874DD0312013876DD03120138EB
:101473000DDA031201380FDA0312013893DA03127B
:1014830001389EDA03120138EDCD031201383FCE45
:1014930003120138B2CE031201381FCF03120138F1
:1014A300E6BE0312013810BF03120138DFBF031277
:1014B3000138BBC00312013871F5021201383DF641
:1014C300021201387EF602120138B8F60212013810
:1014D30016F7021201386AF702120138C8F702122E
:1014E30001385EF80212013866F902120138F0FA87
:1014F300021201388EFB02120138F5FB0212013889
:1015030008FC02120138FCFC0212013845FD0212EC
:1015130001388FA902120138C1AC0212013852AE50
:1015230002120138A9AE02120138C6AE0212013806
:1015330046AF02120138C2B00212013891B1021251
:101543000138FEB402120138E8B502120138A4D200
:101553000312013846EB0112013896EB01120138F0
:10156300AAEB0112013832EF01120138ECEF01123C
:10157300013892F001120138EFF1011201381FF323
:1015830001120138B5F401120138B6F8011201381D
:1015930038F9011201387CF901120138CCF9011232
:1015A3000138E9F901120138DAFA01120138E2FBD4
:1015B30001120138DAFC011201383BFF0112013834
:1015C30058C5031201389DC503120138F1C5031232
:1015D300013876C603120138EEC603120138F5DC72
:1015E300031201386DD90312013897D90312013858
:1015F300BFDC0312013822DD031201384ADD031276
:10160300013873AE0112013891B301E0667010081E
:10161300A3E066700A08A3E066700408A3E06622EC
:10162300C008C3E096F50808A3E096420808A3E0C3
:1016330096420808A3E0964208A2D265D033E50893
:101643007001D3D00822C3E7960809E7960809E793
:10165300960809E79622C3E09608A3E09608A3E05C
:101663009608A3E09622C008C3E096F50808A3E015
:1016730096420808A3E096420808A3E0964508703E
:1016830001D3D00822080808E630E711121F4412DC
:1016930016A0080808C64480C61818182218181877
:1016A300E9799EC608CAC608CBC608CCC6C3702053
:1016B3007996CACBCC7019798ECBCC70137986CC42
:1016C300700EF9802ACA33CACB33CBCC33CC33194F
:1016D30030E7F2CCCBCA3350147004EA30E00DE4A7
:1016E300CA3ACACB3BCBCC3CCC500209C3E913C6A4
:1016F300CC182313C6CB18C6CA18C6F92212174032
:1017030020F01430E72B74FFFCFBFA747F8022E493
:10171300FCFBFA7480801AB48008BC00F2BB00EFB3
:10172300800F50EBF9E4C39AFAE49BFBE49CFCE4DE
:1017330099C6CC18C6CB18C6CA18C6F922E4C9C6BE
:1017430008CAC608CBC6D3330308CCC63392F0C34A
:10175300947F402E94184019C9B90704CACBCC22F0
:101763005025C309CA33CACB33CBCC33CC33D9F4DA
:1017730022F4600DC9CCC313CB13CBCA13CAD9F659
:10178300CC22E4FCFBFA2214FCFBFA22E6C3331856
:10179300461846184622E7C3331947194719472203
:1017A300181818E6084608700AE608C3337005E6F9
:1017B30033F4220822191919E7094709700AE709BE
:1017C300C3337005E733F4220922E6084608C3133E
:1017D3004608336002E633F422E7094709C3134797
:1017E30009336002E733F4221217CD60251217DCA8
:1017F300602012178F7003021799080808E76670B4
:10180300101819E766700A1819E76670041819E7C3
:101813006622F4221217CD601C1217DC6017121710
:101823008F70071217997001D322C0D012179970C5
:1018330006D0D0B322C32233D0D0501430E0F6C345
:10184300E7960809E7960809E7960809E796B32299
:1018530020E0D5E6970809E6970809E6970809E620
:1018630097B3221217CD601B1217DC601612178F65
:101873007007121799600CB322C0D0121799700524
:10188300D0D022C32233D0D0501330E0EBC3E7963D
:101893000809E7960809E7960809E7962220E0E495
:1018A300E6970809E6970809E6970809E6972200EC
:1018B3001217CD604F1217DC6012E7548066F612E0
:1018C30017A37011121799703B090909F4F618F65A
:1018D30018F618F6221217B8701512178F08080891
:1018E30060EAE6447FF618768018E4F618F62212CA
:1018F300178F60161217997012E4F608F608F608A7
:10190300E65480F609090918181822EAC0E0EBC06A
:10191300E0ECC0E0EDC0E0E687F0A4FBACF008E645
:1019230087F0A42CFCE435F0FA1809E687F0A42C20
:101933004B60027401CA35F0FCE433FB09E687F01F
:10194300D2F7A42CCB35F0FC1908E687F0A42BCCF6
:1019530035F0FBE433FD0819E687F0D2E7A42C4AFF
:10196300CB35F0CD3400FC09E687F0D2E7A42DCCCB
:1019730035F0FDE433FA0918E687F0D2F7A42CCD4D
:1019830035F0CA3400FC08E687F0D2E7D2F7A42A80
:10199300CC35F07A7E20E70B0ACB33CBCD33CDCCDD
:1019A30033CC33CB3350147004ED30E00ED2F1E47A
:1019B300CD3DCDCC3CCC3B5005DA05C2F1EB547F99
:1019C300C63308E63392F0FBE73309E733C39A5093
:1019D3002D2B70190C0D4C4D70151806E608C333EA
:1019E300700D20F10AA2F013F6E418800B4024E4F2
:1019F300F630F002768018F618F618F68024D33BFA
:101A030014501074FFA2F013F6187680E418F61839
:101A1300F6800FA2F013F618E63303F618ECF61867
:101A2300EDF6D0E0FDD0E0FCD0E0FBD0E0FA2212EE
:101A330017DC60461217CD603DE9687008F618F6AA
:101A430018F618F622748067F7121A6609090974E2
:101A53008067F7221217CD601D1217DC7005191964
:101A630019801A1217A3701F1217B8C37003E66701
:101A73003319191940071818182208080874FFF6B3
:101A830018F618F618F6221217B86017121799707D
:101A93002192F012178F7019501720F014080808BC
:101AA300090909E7F61819E7F61819E7F61819E707
:101AB300F62212178F60E6E869701F0808E6248093
:101AC300F608E436F618547FB47F0CE654806007BA
:101AD300F6E418F618F622181822E9C6CC08C6CD83
:101AE30008C6CE08C6CFC0E0E8C0E0EAC0E0EBC05D
:101AF300E009E9F809E7FA09E7FBE6F918E6F8C3AC
:101B0300EC98ED99EE9AEBC2E7F5F0EFC2E795F0AA
:101B1300500E600CEBCFFBEACEFAE9CDF9E8CCF836
:101B2300EAA2E7D2E7FAEB33FB13F5F0EEA2E7D232
:101B3300E7FEEF33FFC5F013A2E730E601B313C5A9
:101B4300F0C3C0E0C0F07F00C39BFB605B941860F0
:101B53000C401AD0E023F9D0E0F8021C358AF0E9F2
:101B6300486003D2F0E4AFF0FAF9F8803BEB30E4DD
:101B73000D89F0EA6003D2F0E4AFF0F9CAF8EB3074
:101B8300E30D88F0EF6002D2F0AFF0E4CAC9F8EBDE
:101B930054076014FBC3EA13FAE913F9E813F8EFE7
:101BA300135002D2E0FFDBEDD0E0C0E030E739C3F1
:101BB300E49FFFF5F0EC98FC42F0ED99FD42F0EE66
:101BC3009AFE42F0D0E0F9D0E0F8E5F0607AE9233C
:101BD300F9EE20E742D8028067C3EF33FFEC33FC12
:101BE300ED33FDEE33FE80EAEC28FCED39FDEE3AF1
:101BF300FED0E023F9D0E0F84002801BC3EE13FED1
:101C0300ED13FDEC13FCEF135002D2E0FF08B80014
:101C1300067F7F74FF802EEF3350178CF020F00285
:101C230060100CBC000C0DBD00080EBE000408E8DB
:101C330060DFE933E813FFEE2313FE4F4D4C8008BA
:101C4300E95480FFE4FEFDFCEE33EF33F47004FC53
:101C5300FD7E80D0E0FBD0E0FAD0E0F8D0E0CFC644
:101C630018CEC618CDC618CCC6F9221217CD7004EB
:101C7300181818221217DC700D74FFF61819F618CD
:101C830019F61819F622E7548066F612178F700FAB
:101C930012179970F014F608F608F608F680D112B8
:101CA3001799700CF608F608768008E6447F80ECF6
:101CB3001217BB700C1217A660BFE65480F6E480BF
:101CC300BB1217A6700519191980A5E869700C765F
:101CD3003F18768018F618F6E8F922E6CDC0E0182A
:101CE300ECC0E0E633CD33CDD313F6E719FCE719A7
:101CF3001933CC33C3947F400ECD9D502408E65452
:101D030080F6E418F6800FF4043D14501408E644FA
:101D13007FF6187680E418F618F6D0E0FCD0E0FDE4
:101D230022CCD313CCFD18E4C6CBC0E018E4C6CA5A
:101D3300C0E00808ED08C633E613F618E433C675A9
:101D4300F003C3CA97CA09CB97CB199C40047D08FB
:101D5300802EBD0003021E1716B6FF0506060816E1
:101D630018C3CA33CACB33CB33CA27CA09CB37CB41
:101D7300193CC37D08803E187D0820E75CC633C646
:101D8300CA33CACB33CB33DDF1D5F0EB30E77BCAB3
:101D930097CA09CB974ACB199C406F4B7025E62015
:101DA300E0218066187D08C3CA97CA09CB97CB196F
:101DB3009CD3C633C6CA33CACB33CB3350C9DDE752
:101DC300D5F0E1D3E4C636C608C636C608C636C65D
:101DD30008C636C61818188031C3CA97CA09CB97E4
:101DE300CB199CB34097C633C6CA33CACB33CB3364
:101DF300DD34D5F02EC6A2E0C640C8CA27CA09CB37
:101E030037194A70BECB3CB480B90808E63308E6FC
:101E130033601F181818D0E0FAD0E0FBD0E0FCD0F4
:101E2300E0FD22187D08CA27CA09CB37CB193CD35A
:101E3300808013F618E4B67F11F618B6FF0EF61875
:101E4300C60470D20808768080CAF618F618F680A1
:101E5300C5080808EAC0E0EBC0E086F0E7A4FA187A
:101E63000986F0E7A42AFA180986F0E7A42AFA18E3
:101E73000986F0E7A42AFA1986F0E7A4FBE5F02A1D
:101E8300FA190886F0E7A42BFBE5F03AFA1908865D
:101E9300F0E7A42BFBE5F03AFA18180986F0E7A45B
:101EA300C5F02BFBE43AFA1908E7C5F0C6A426F6F9
:101EB300E5F03BFBE43AFA1886F0E7A4F6E5F00810
:101EC30026F6E43B08F6E43A08F6D0E0FBD0E0FA65
:101ED30022E4CFC0E0E4CEC0E0E4CDC0E0E4CCC077
:101EE300E075F020C3E633F608E633F608E633F68A
:101EF30008E633F6181818EC33FCED33FDEE33FE29
:101F0300EF33FFC3EC9709ED9709EE9709EF9719A4
:101F13001919400FFFEC97FC09ED97FD09EE97FEA9
:101F2300191906D5F0BEECF709EDF709EEF709EF3D
:101F3300F7191919D0E0FCD0E0FDD0E0FED0E0FFA6
:101F430022181818E4C396F608E496F608E496F601
:101F530008E496F6226016080808C6C313C618C616
:101F630013C618C613C618C613C6D5E0EA227009ED
:101F7300080808226016181818C6C333C608C633E3
:101F8300C608C633C608C633C6D5E0EA22E627F636
:101F93000809E637F60809E637F60809E637F622B0
:101FA300E026F608A3E036F608A3E036F608A3E039
:101FB30036F622E026F008A3E036F008A3E036F078
:101FC30008A3E036F022C3E697F60809E697F60879
:101FD30009E697F60809E697F622C3E096F008A308
:101FE300E096F008A3E096F008A3E096F022E0560E
:101FF300F608A3E056F608A3E056F608A3E056F663
:1020030022E056F008A3E056F008A3E056F008A338
:10201300E056F022E647F60809E647F60809E647E0
:10202300F60809E647F622E0F608A3E0F608A3E07F
:10203300F608A3E0F622E6F008A3E6F008A3E6F02C
:1020430008A3E6F022E0FAA3E0FBA3E0FCA3E0FD93
:1020530022EAF0A3EBF0A3ECF0A3EDF022CAC0E078
:10206300E6F0A308DAFAD0E0FA22CAC0E0E0A3C59A
:1020730082CCC582C583CDC583F0A3C582CCC5827E
:10208300C583CDC583DAE6D0E0CA22C3E498F8E479
:1020930099F91220CF8026C3E49AFAE49BFBE92046
:1020A300E7E91220CFE498F8E499F922C3E498F819
:1020B300E499F91220CFE498F8E499F9C3E49AFA81
:1020C300E49BFB22EB20E7CFE920E7E0B90010BB5C
:1020D3000008E88AF084F8AAF022E4FBC8FA22EBAD
:1020E30070227B10C833C8C933C9335007C39AC39E
:1020F300DBF280069A50012ADBEAC833F4C8C933FD
:10210300F4C9FA2275F008E4C833C8C933C933C91E
:102113009AC99B5004C92AC93BD5F0ECFBC833F4D8
:10212300C8E4C9FA22600D08C6A2E713C618C6138D
:10213300C6D5E0F322600C08C6C313C618C613C67F
:10214300D5E0F422700422600D18C6C333C608C656
:1021530033C6D5E0F41822251810AF08F51840024D
:1021630015198008F51840021519D2AF22C0D025E1
:102173001810AF08F518500205198008F518500219
:102183000519D2AFD0D0222518F58210AF08F51863
:10219300400215198008F51840021519D2AF8519A8
:1021A30083222518F582E43519F58322E473251873
:1021B300C582C0E0E51934FFC583C0E0E518C395C7
:1021C3008224F810AF0885831985821880088583D7
:1021D30019858218D2AFCEF0A3E520F0A37808E6E4
:1021E30008F0A3DEFAEFF0A3E58124FAF8E608F09D
:1021F300A3E608F0A3E608F0A30808E608F0A3E6C0
:1022030008F0A315811581D0E0FED0E0F815811503
:10221300811581E8C0E0EEC0E0222518C582C0E048
:10222300E51934FFC583C0E0E518C3958224F9108E
:10223300AF088583198582188008858319858218DC
:10224300D2AFCEF0A3E520F0A37808E608F0A3DE32
:10225300FAEFF0A3E58124FBF8E608F0A3E608F023
:10226300A30808E608F0A3E608F0A315811581D0BA
:10227300E0FED0E0F815811581E8C0E0EEC0E02271
:10228300851983851882E0A3FEE0A3F5207808E092
:10229300A3F608DFFAE0A3FFE0A3C0E0E0A3C0E0F9
:1022A300E0A3C0E0E0A3C0E0E0A3C0E010AF088576
:1022B30082188583198008858218858319D2AFD047
:1022C30083D082020135851983851882E0A3FEE05D
:1022D300A3F5207808E0A3F608DFFAE0A3FFE0A364
:1022E300C0E0E0A3C0E0E0A3C0E0E0A3C0E010AF23
:1022F300088582188583198008858218858319D2F9
:10230300AFD083D08222C0D02518C582C0E0E519A2
:1023130034FFC583C0E0E518C3958224F310AF08EA
:102323008583198582188008858319858218D2AF21
:10233300C8F0A3E9F0A3EAF0A3EBF0A37908E70957
:10234300F0A3D8FAECF0A3EDF0A3EEF0A3EFF0A323
:10235300D0E0F0A3D0E0F0A3D0E0F0A3E520F0A319
:10236300E5F0F0A322851983851882E0C0E0A3E09D
:10237300F9A3E0FAA3E0FBA37808E0F608A3DFFAE9
:10238300E0FCA3E0FDA3E0FEA3E0FFA3E0C0E0A325
:10239300E0C0E0A3E0F5D0A3E0F520A3E0A3F5F0CF
:1023A30010AF088583198582188008858319858273
:1023B30018D2AFD082D083D0E0F8D0E0327404805A
:1023C30006740280027401C0E0F40412218AD0E092
:1023D300122060227404800474028000CCC0E0EDFB
:1023E300C0E0E518C39CCCAD1950011D10AF068C9D
:1023F300188D1980068C188D19D2AF12206DD0E07C
:10240300FDD0E0FC22D083D082E9C0E0E493A3C3F3
:1024130086F0C5F095F0F908E493A386F0C5F0952E
:10242300F0700BE493A3C3994005E9048002A3E48D
:1024330075F002A42582F582E5F03583F583D0E0BB
:10244300F9E493A3C0E0E493C0E022D083D082EC0C
:10245300C0E0EDC0E0E493A3FCE493A3FDED4C6086
:102463000D12249AEC24FFFCED34FFFD80EFE4937E
:10247300A3FCE493A3FDED4C600D1224D9EC24FFDF
:10248300FCED34FFFD80EFD0E0FDD0E0FCE493A34E
:10249300C0E0E493C0E022C0E0C3E4939608740173
:1024A300939618400FE493667008087401936618B6
:1024B30070007019A3A3C3E493960874019396184C
:1024C300A3A3400DD0E0D0E0D0E002248AA3A3A3CD
:1024D300A3A3A3D0E022C0E0C0F088F0E493667029
:1024E300080874019366187000A8F0A3A3700BD0BA
:1024F300F0D0E0D0E0D0E002248AA3A3D0F0D0E073
:102503002274F512221DEAFEEBFFEE2434F8EF34B9
:1025130000F988088909EE2435F582EF3400F58344
:10252300E0F8EE2437F582EF3400F583E0F50AECAA
:10253300850AF0A4FCAAF0850AF0EDA42AFDE82C94
:10254300F8E43DF97A257B001220CFEA85088285DD
:102553000983F05407F87401B800028004C333D828
:10256300FCC0E0E0131313541FF8EE28F8EF340017
:10257300F9E8245DF582E93400F583D0E0F8E0580A
:102583006008EE2434F582EF801EEE2436F582EFE8
:102593003400F583E0F5F0EA84A8F0EE28F8EF3490
:1025A30000F9E82438F582E93400F583E0F97F0483
:1025B3000222C974F512221DEAFEEBFFEE2434F564
:1025C30082EF3400F583E0C0E0EE2435F582EF348A
:1025D30000F583D0E0F08E828F83A3A3A3A3A3A3EC
:1025E300A3C082C0838E828F83A3A3A3A3A3E0F897
:1025F300A3E0F9D083D082E0C398F508A3E099F56E
:1026030009EE2480F582EF3400F583E064017069FC
:10261300EE2481F582EF3400F583E0F8A3E0F98E30
:10262300828F83A3A3A3A3A3A3A3E0FCA3E0FD8EB4
:10263300828F83A3A3A3A3A3E0FAA3E0FBC3EA9C33
:10264300EB9D5027C3EC98ED99402EC3EA98EB9984
:1026530050277CFD7D04EEFAEFFB120D08EE24807B
:10266300F582EF3400F583E4F0800EC3EA98EB992A
:1026730040E0C3EC98ED9950D9EE2434F8EF3400E0
:10268300F9E8FCE9FDEE2435F582EF3400F583E04B
:10269300F8EE2437F582EF3400F583E0F50AE50818
:1026A300850AF0A4F508AAF0850AF0E509A42AF53D
:1026B30009E82508F8E43509F97A257B001220CFCB
:1026C300EA8C828D83F05407F87401B80002800409
:1026D300C333D8FCC0E0E0131313541FF8EE28F8FB
:1026E300EF3400F9E8245DF582E93400F583D0E0A6
:1026F300F8E0586008EE2434F582EF801EEE2436AD
:10270300F582EF3400F583E0F5F0EA84A8F0EE28D3
:10271300F8EF3400F9E82438F582E93400F583E072
:10272300F9122FB10225B1C082C0838518828519A1
:1027330083E0F8A3E0F9C3EA9CEB9D5012C3EC9845
:10274300ED994019C3EA98EB99501279018010C3AF
:10275300EA98EB9940F5C3EC98ED9950EE7900D0E7
:1027630083D08222EAC39CFAEB9DFB22008521875A
:102773008522C622C0E0C0D0E8C0E0E9C0E0EAC0DC
:10278300E0EBC0E0ECC0E0EDC0E0C008C009C00A67
:10279300C00BC082C083C0F0759B00906182E0A231
:1027A300E64003022855E591A2E640030228557549
:1027B30091BF9003C2E064057008120E40120E4CE4
:1027C3008003120E46752100120EA6E99003C3F092
:1027D3007900120E9A120C7E7A017B009003C1E0FD
:1027E300F9121182907803E06442600302289E90FC
:1027F300055FE014F0600302289EC2AF12280200B6
:10280300782AD0E0F618D0E0F6E59F5407F9700572
:10281300908622800390864E780812202AE9C4C04D
:10282300E07829E65508F50808E65509F509740B1B
:102833007808122138D0E02508F8906270E0A2E70A
:1028430040F8E8C333906272F0906270E0D2E0F037
:102853008049E0A2E55024E591A2E5501E7591DF81
:102863009003C2E0640D70139003E4E004F0642865
:102873007002E4F07A00E0F9120F18906181E0A28F
:10288300E35009E5E9A2E3500375E9F7A3E0A2E702
:102893005009E591A2E7500375917FD0F0D083D022
:1028A30082D00BD00AD009D008D0E0FDD0E0FCD014
:1028B300E0FBD0E0FAD0E0F9D0E0F8D0D0D0E032BD
:1028C300C0E0C0D0C082C083906183E0A2E0500921
:1028D300E5BFA2E0500375BFFEE0A2E15009E5BFEA
:1028E300A2E1500375BFFDE0A2E25009E5BFA2E2F9
:1028F300500375BFFBE0A2E35009E5BFA2E3500319
:1029030075BFF7E0A2E45009E5BFA2E4500375BF29
:10291300EFE0A2E55009E5BFA2E5500375BFDFE094
:10292300A2E65009E5BFA2E6500375BFBFD083D02E
:10293300828088C0E0C0D0E8C0E0E9C0E0EAC0E03F
:10294300EBC0E0ECC0E0EDC0E0C0F0E5A7A2E650CC
:102953000FE5A1A2E6500953A7BF75A1BF12299B9A
:10296300E5A7A2E5500CE5A1A2E5500653A7DF7544
:10297300A1DFE5A7A2E15009E5A1A2E1500375A1FA
:10298300FDE5A7A2E2500CE5A1A2E2500653A7FB86
:1029930075A1FBD0F00228AC74F812221D75210139
:1029A3009003C2E064067015120DD48A828B83A350
:1029B300A3A3A3A3A3E0FAA3E0FB120E2EA2AFE40A
:1029C30033FED2AF9003C8E0640170187A207B0015
:1029D3009003C1E0F912120C7A207B009003C1E04E
:1029E300F9121188906182E0D2E6F090055EE06012
:1029F3002185C62280169003C7E064017008E5C6EE
:102A030054F84405F5C653BEFC12277074016521C2
:102A130060E4EEA2E092AF7F010222C9008E238F11
:102A230024858228858327851882851983E0CEA390
:102A3300E0CF852882852783EBC9EAC8EDCBECCAB2
:102A430075F010C3E833C8E933C9EA33CAEB33CBB3
:102A5300C3EA9EF526EB9FF525B35004AB25AA26C2
:102A6300EC33CCED33CDD5F0DAAE23AF242274EBC7
:102A730012221D74FA12215A8A088B098C148D159F
:102A83009003C2E024F7C3940550069085E6022B19
:102A9300D3120DD48A0A8B0BAE0AAF0BEE4F700321
:102AA300022BD0AC08AD09851882851983AA82ABA5
:102AB30083120E5E8E828F83A3A3780812202A903E
:102AC30086027808121FF1851882851983780C1203
:102AD300202A908602780C121FF17808790C1216BE
:102AE30049501F7808790C121FC99085F278081293
:102AF30016694047850810850911850A12850B134D
:102B03008041850C10850D11850E12850F137810E9
:102B13007908121FC99085F27810121669501C7536
:102B230010007511007512007513017810790C12DD
:102B33001FC978107908121F9080089085E67810D5
:102B430012202A74097810121F7190861A780812BD
:102B5300202A78107908121ED48E828F83A3A3A310
:102B6300A3A3A3E0F8A3E0F97AD07B031220CF88D4
:102B7300088909E4F50AF50B78107908121F907497
:102B8300041221A5E0F8A3E0F97AD07B031220CF49
:102B9300E8FA8A08E4F5097810790812164950070B
:102BA30078107908121FC99003C2E06408600AE034
:102BB30064066005E06405701C9085EE78101216BB
:102BC30069501290867A7810121FA380089086723B
:102BD300781012202A8514828515837810122039E3
:102BE30074061221707F0E0222C974F712221D127D
:102BF3000E7090055CE064017010906245E4F0A3F0
:102C0300F053F4F343FE0C5390F3120E1CE5C65439
:102C1300804449F5C6E59E547F644970F890618508
:102C2300740FF090055AE0F47002A3E0604E900533
:102C33005BE0600814601B14602E8040750801750A
:102C4300090090055AE07808122147E508F45280FC
:102C5300802A75080175090090055AE07808122149
:102C630047E508F452908014750801750900900532
:102C73005AE07808122147E508F452A079007F0250
:102C83000222C974F712221DE9FEEAFF74016E7075
:102C93000C7A807B009003C1E0F9121182903024FA
:102CA300E493F46008E493F9120C72800953C6802C
:102CB300E59E547F70FA120E2290055CE064017069
:102CC30003120C8A90055AE0F47002A3E0604B9063
:102CD300055BE0600814601A14602C803D750801E0
:102CE30075090090055AE07808122147E5084280EB
:102CF300802875080175090090055AE078081221AB
:102D030047E5084290801375080175090090055A3C
:102D1300E07808122147E50842A0120E70120DD484
:102D23008A088B09A808A909E8496015E5E170FC40
:102D3300E82414F582E93400F583E0F46003E0F558
:102D4300E174016F700A7A019003C1E0F91211D6A0
:102D5300022C8174F112221D8A088B098C0A8D0BB7
:102D6300740F1221A5780C12202A9086027808127B
:102D73001FF1908602780C121FF17808790C121655
:102D83004950157808790C121FC99085F2780812FA
:102D93001669401579018013780C7908121FC990C0
:102DA30085F2780C12166940EB79007F080222C97C
:102DB30074ED12221D8A088B098C0A8D0B74131271
:102DC30021A5780C12202A9086027808121FF19010
:102DD3008602780C121FF1780C79081216494011FB
:102DE3007808790C121FC9AA08AB09AC0AAD0B808D
:102DF3002275100075110075120075130178107992
:102E03000C121FC978107908121F90AA10AB11ACCD
:102E130012AD137F0C0222C9908602780812202A71
:102E23008A828B8378081220047F040222C974F5F6
:102E330012221D8C828D83780812202A8A828B832A
:102E43007808121FDDEA2404F8EB3400F98C828D34
:102E530083A3A3A3A3E0FCA3E0FD88828983C3E04B
:102E63009CF0A3E09DF088828983C3E09420A3E0D3
:102E7300944E40229085DA780812202A8A828B8326
:102E83007808121FB68A828B83A3A3A3A3E024200E
:102E9300F0A3E0344EF0808074F512221DE9FE9019
:102EA3000514E0FAA3E0FBEEC333F8E433F974BD91
:102EB30028F582748339F583E02AF508A3E03BF50E
:102EC3000978081223C49085D6122048122A207448
:102ED300021221708A088B098C0A8D0B74107808F2
:102EE300121F58AA08AB097F040222C974F11222E7
:102EF3001D8A0C8B0D8C0E8D0F740F1221A5E0FA19
:102F0300A3E0FB74111221A5E0F508A3E0F5097411
:102F1300131221A5E0FEA3E0FF78081223C4EA24DC
:102F230001F508EB3400F509E4F50AF50B780C79A3
:102F330008121E549085C6780812202A780C790846
:102F4300121E54AA0CAB0DAC0EAD0F122A20740244
:102F53001221708B09EA450960047A0180027A0024
:102F6300EC2AFCED3400FDECF8EDF97A717B0212EA
:102F730020CF88088909E4F50AF50B8E828F8378C0
:102F830008122039ECF8EDF97A717B021220CF8A0E
:102F9300088B09740578081221478E828F83A3A3B7
:102FA300A3A3E508F0A3E509F07F080222C9C082C4
:102FB300C083E9906000F0D083D08222C0E074F235
:102FC300122309A2AFE433FED2AFE589A2E1500395
:102FD3001213B6758900C2C5751A00EEA2E092AF4E
:102FE3007F01022368C0E074F2122309A2AFE43325
:102FF300FED2AFE58BA2E050031213B6758B00C26D
:10300300E880D5C0E0C0D0E8C0E0E5A8D2AFC2C731
:0F301300751A00A2E792AFD0E0F8D0D0D0E0322B
:10302400FFFFFFFFFFFFFFFFC082C083E9900A9804
:10303400F00232B074F71221B1E99002E0F07C188A
:103044007D037AFF7BFF1209A89002E174FFF0A3CD
:10305400F0A3E4F0A3F079051209309002E0E0F95E
:103064001208587AC67B09120B88023FBE74F41208
:1030740021B18A088B09EB548060309002E0E0F9BA
:1030840012116A8A0A8B0BAE0AAF0BEE4F60138ED5
:10309400828F83E064B07003120948EEFAEFFB12EA
:1030A4001158AA08E5096480FB80047A007B0002B9
:1030B400327F74F21221B174FC12215AEAFEEBFF42
:1030C40074121221A51244A5EE4F700302315974F3
:1030D400021221A5EEF0A3EF1234BAECF0A3ED1224
:1030E40034BAAA82AB83120852E9F50A706AE50879
:1030F400450960648E828F8312448BEE4F60567A4A
:10310400067B001211BE8A0C8B0DA80CA90DE84990
:103114007005750A13804188828983E4123166EE52
:10312400F0A3EF1244B6E508F0A3E509F09002E637
:103134001231ED9002E67005123F68801B123F5673
:103144008003EAFCEBFD8C828D831231ED70F38CED
:10315400828D8380E3750A02A90A74041221700225
:1031640046A5F0A312445CA32274F21221B1890A89
:10317400E975F017A4FEAFF09002E5E4F09002E3E5
:103184001231ED600A1211C49002E3E4F0A3F0EEF0
:10319400FAEFFB1211BE8A088B09EA4509602FEE8B
:1031A400FCEFFD79001211409002E3E508F0A3E57D
:1031B40009F07B0080081231D7E4F0A3F00BEBC3D5
:1031C400950A40F2E50A9002E5F07900800279134D
:1031D4000246A5EB75F017A4F8A9F09002E3E028E5
:1031E400FAA3E0398A82F58322123BFAEA4B22746D
:1031F400F41221B1740C1221A5124480FEE9FF756A
:103204000800750900800CE5082401F508E5093477
:1032140000F509C3E5089CE5099D503285080A8537
:10322400090B7403780A122147EA250AF8EB350BD7
:10323400F988828983A3A3A3A3A3A312403DEE65C7
:103244000A7003EF650B70BFE8FAE9FB80047A00AB
:103254007B00802774F41221B17900EAA2E0501BAC
:103264007508BC75098578081223C47C047D007A2E
:103274009A7B0A12092A74021221707F04022283A3
:10328400C082C0839002E61232B7601C88828983B0
:10329400A3A3E06A7003A3E06B8882898370E8A328
:1032A400A3A3A3123BF680047A007B00D083D082D0
:1032B40002013512478BE8492274EE1221B174FCE5
:1032C40012215AEAFEEBFF851882851983E4F0A3E4
:1032D400F0EE2402123F48EE2405124463EE240467
:1032E400F50EEF12386FE024FE603924FC604624AA
:1032F400FE605224FE605E24FE70030233D024FE7E
:10330400700302343424FE700302344324FE700339
:1033140002345224FC700302346124FE700302342C
:10332400700234AD9002FF7417F0A3E41234C21299
:1033340005D00234AD851882851983AC82AD831221
:10334400094E02347D851882851983AC82AD8312BF
:10335400095402347D850C08850D0974021221A5D7
:10336400AC82AD83850882850983123BF612087608
:103374008A0C8B0DAC0CAD0DEC4D603BE4F50CF5FB
:103384000D780C1223C4750CFF750D02780C1223F2
:10339400C4750C00750D03780C1223C47408122133
:1033A400A51223DB124907122170E9F50C700B12E8
:1033B4003BEC1205E8800F750C01850882850983B2
:1033C4001234B0123F68850C080234807402122152
:1033D400A5AC82AD83850C82850D831239C1603C16
:1033E400850C82850D83A3A31223DB7510FF751151
:1033F4000278101223C4751000751103781012237B
:10340400C474081221A51223DB124907122170E9A2
:10341400F509700B123BEC1205EE800F750901855E
:103424000C82850D831234B0123F68850908804CE4
:10343400851882851983AC82AD8312095A803A8536
:103444001882851983AC82AD83120960802B85189C
:1034540082851983AC82AD83120966801C8518822B
:10346400851983AC82AD8312096C800D8518828521
:103474001983AC82AD83120972E9F508E508602965
:103484008E828F83A3E06414601F850E82850F8370
:10349400E09002FF1234BA124787900300123F688B
:1034A400E508A31234C21205CA023E5712478B859F
:1034B400188285198322F085188285198322F07C6D
:1034C400FF7D02850A82850B83123BFA2274EE1279
:1034D40021B174FC12215A8A0A8B0B8C0E8D0FEACF
:1034E4002405F508EB3400F5097C157D0079007A94
:1034F400FF7B02121140E5082402F50CE509124491
:103504006685188285198385821085831178101247
:1035140023C4850882850983A3A3A3A31239B812FF
:1035240023C4E5082405F510E5093400F5117810E5
:103534001223C4850C82850D83123D0D120870740C
:10354400061221708A108B11AE10AF11E50A240205
:10355400F50AE50B123F4BEE4F700302368F8017CE
:1035640074021221A5123BF688828983EAF0A3EB48
:10357400F09002FFE004F09002FFE0C394054003E2
:1035840002368FE4F510F51178101223C47510E893
:1035940075110278101223C47510E97511027810A0
:1035A4001223C474061221A51223DB7910EEFCEF5A
:1035B400FD124909122170E9705E8508828509832C
:1035C400A3A3A3A3A3A3A3E0F89002E8E068704830
:1035D4001239B81223C47CE97D02E5082408FAE50F
:1035E400093400FB12113A7402122170E960298E29
:1035F400828F83A3A3A3A3123BF69002FFE0F510EE
:103604007402781012214774002510F58274033572
:1036140011F583EAF0A3EBF074021221A585821060
:1036240085831178101223C474021221A51223DB9E
:10363400850C82850D83123C1C1221708A108B111B
:10364400AE10AF119002FFE0F5107511007402780E
:103654001012214774FF2510F874023511F988827D
:103664008983A31231ED700302355BE82403080853
:1036740008E93400F9EE4F600302356488828983D7
:1036840074FFF0A3F09002FFE004F09002FFE0600A
:103694000A123BEC1205DC7900800B85088285094F
:1036A40083123F5F790A023E5774EA1221B174FE15
:1036B40012215A8C128D13EA2405F50CEB1248F1F1
:1036C40012448F750800750900EA2402F510EB34E2
:1036D40000F51185188285198385820A85830B7804
:1036E4000A1223C4850C82850D83A3A3A3A31238D5
:1036F400851223C4E50C2405F50AE50D123F4B7829
:103704000A1223C4850C82850D831238891208702D
:1037140074061221708A0A8B0BEA450B7003023877
:103724002AEA2404F50EEB12386F12448F8A828B36
:1037340083A3A3A3E0F9851082851183123C006062
:103744000302382AE4F514F51578141223C4751409
:10375400E875150278141223C47514E975150278F6
:10376400141223C474061221A51223DB7913AC0AA4
:10377400AD0B85108285118312490F122170E9F572
:1037840009600302382A9002E8E0F8E5087009E0CD
:103794002402900300F08014900300E0FCE824026B
:1037A400FAE43400FBEA6C7001EB707E850882AAAF
:1037B400821239AF94141239A7506B850E82850F8B
:1037C40083E0C0E074012A123866D0E0F005088571
:1037D4000E82850F83A3E0C0E085080A7401250AE0
:1037E400123866D0E0F005089002E81238851223FA
:1037F400C47CE97D0285080A7401250A123879120D
:1038040021709002E8E02508F50874FF6E700374D7
:10381400FF6F6012EE24010EEF3400FFE508C3943D
:103824001450030236D7E5086013123C0A8510824F
:10383400851183123BF61205E279008014E50970C4
:103844000375090A851282851383EEF0A3EFF0A9AC
:103854000974021221707F0E02228385080C740100
:10386400250CF58274033400F583223400F50F85AA
:103874000E82F58322FA74033400FB1211287402B9
:10388400221244C522A3A312388F22123F56FDEE02
:10389400FAEFFB2274EE1221B174FE12215A8C0E3F
:1038A4008D0FEA2405F50CEB124466750B009002AB
:1038B400FFE4F0F50AEA2402F508EB3400F5098088
:1038C400449002FFE0FA9002E8E0F81239AF94174E
:1038D4001239A7400D9002FFE0F87416C3989002C5
:1038E400E8F01239B81223C47CE97D0274002AFA84
:1038F400740312387C1221709002E8E0F89002FF01
:10390400E028F0050AE50C2416F582E50D12386A64
:10391400E0F8E50AC39850749002FFE0C39416508F
:103924006BE50AC333F8E433F9E50C28FEE50D39F9
:10393400FF851882851983AC82AD838E828F8312B2
:1039440039C17008750B01123F5B8050E4F510F526
:103954001178101223C47510E8751102781012231F
:10396400C47510E975110278101223C4740612216B
:10397400A51223DB791685088285098312490F1263
:103984002170E9F50B70030238C580BB7CFF7D0212
:10399400850882850983123BF61205F4A90B74028B
:1039A400023E59E99400C365D03322EA28F8E4348E
:1039B40000F9E822E0F510751100781022123E4E4D
:1039C4008A108B11AC10AD11EC4D2274EA1221B1A6
:1039D40074FC12215A8A0C8B0D8C128D13EA240567
:1039E400F50AEB123F4B750800750900E50A24023D
:1039F400F510E50B3400F51174021221A585820E31
:103A040085830F780E1223C4850A82850B83A3A3B2
:103A1400A3A312446B1223C4E50A2405F50EE50B97
:103A24003400F50F780E1223C48510828511831299
:103A34003F51123BF012087074061221708A0E8BEB
:103A44000FAE0EAF0FE50C2402F50EE50D3400F5B4
:103A54000F80388882898374FFF0050812385F74F8
:103A6400FFF005089002E8E0F50C750D00780C12E3
:103A740023C47CE97D0285080C7401250C12387975
:103A84001221709002E8E02508F508EE4F60278EB9
:103A9400828F83A3A3A3E0F9850E82850F83123C52
:103AA40000EE2404124463E96027850C82850D83AB
:103AB400123BE2123F68E5087003023BC8123C0A5D
:103AC400850E82850F83123BF61205FA7900023BBC
:103AD400DDE4F514F51578141223C47514E875158E
:103AE4000278141223C47514E9751502781412238C
:103AF400C474081221A51223DB7911EEFCEFFD85B5
:103B04000E82850F8312490F122170E9F509709A0C
:103B1400850882AA82EA9002E87009E024049003EE
:103B240000F08025E0F8900300E0F514E82404FC9C
:103B3400E43400FDEC65147001ED70811239AF942A
:103B4400121239A74003023AC1850C82850D83E025
:103B5400C0E074012A123866D0E0F00508850C82B2
:103B6400850D83A3E0C0E012385FD0E0123C2585C8
:103B7400820C85830D780C1223C474041221A512BF
:103B840023DB851082851183123C1C1221708A0C60
:103B94008B0DAE0CAF0D85080C7401250CF8740365
:103BA4003400F9EE4F7003023A5785188285198361
:103BB400E088828983123C25A3E0C0E012385FD0FC
:103BC400E0023A65E509700375090A850A82850BE6
:103BD40083123BE2123F68A9097404023857124762
:103BE4008B851282851383227CFF7D02850A828560
:103BF4000B83123BFA22E0FAA3E0FB22123BFA12F7
:103C0400085EE9F50922900300E0F5F0E5088490E8
:103C140002FFF07CFF7D022212388F12087C7404AC
:103C240022F005088518828519832274EC1221B1CB
:103C340074FE12215A8A088B098C0E8D0FEA240512
:103C4400FEEB3400FF123E38EE2418124463EA45BA
:103C54000B7003023CDB123E215029123D008A10F6
:103C64008B11EA4511606B7912AC0AAD0B850882A1
:103C7400850983123BF68510828511831221AFE9F1
:103C8400F50A7058E4F50AF50B780A1223C48E82FB
:103C94008F83A3A3E0F50A780A1223C4EE24031247
:103CA4003F48780A1223C48E828F83123D0D120975
:103CB400967406122170E9F50A7021850C82850D2F
:103CC40083E0701F850882850983123BF612060083
:103CD4008011750A0E8009750A018004E50A6003E3
:103CE400123F5B850C82850D83E0600479008002BD
:103CF400A90A74021221707F0C022283851882851E
:103D04001983123BFA12098422123F56FD85088258
:103D1400850983123BFA2274EE1221B174FE12213A
:103D24005A8A088B098C0C8D0DEA2405FEEB3400AD
:103D3400FF750E00123E38EA450B7003023DFF1278
:103D44003E21502C123D008A0E8B0FEA450F604A2B
:103D54007912AC0AAD0B850882850983123BF6857E
:103D64000E82850F831221AFE9F50E6003023E0235
:103D740085088285098312403DAA0AFB123E13700E
:103D8400147AFF7BFF123E13606C88828983E50AF4
:103D9400F0A3E50BF0750A008007750E0E805F0531
:103DA4000A9002E5E0FAE50AC39A504AE50A75F07A
:103DB40017A4FAABF088828983A3A3E02AFAA3E0CC
:103DC4003BFB8A828B83123F51EC4D70D2750A17EC
:103DD400750B00780A1223C4EEFCEFFD121128744F
:103DE40002122170EEFCEFFD850882850983123BE7
:103DF400F61206068014750E098003750E0112472B
:103E040083850C82850D83123F68A90E0239A212A4
:103E140009788A108B11A810A911E84922E5082411
:103E240002F508E5093400F5098A828B83A3A3A36C
:103E3400E0A2E522851882851983AC82AD838E8247
:103E44008F83123E4E8A0A8B0B22E0FAA3E0FB1208
:103E540008762274041221707F0A02228374EC1201
:103E640021B18C108D11EA2405F50CEB1244667512
:103E74000F00EA2402F50AEB123F4B850A82F58310
:103E8400123BF61249957003023F3D750E00807196
:103E9400850C82850D83E06401704F8E828F83A32D
:103EA400A31223DB8E828F83A3A3A3A3E0F5127551
:103EB400130078121223C4EE2405F512EF3400F532
:103EC4001378121223C4123BF012099674061221BD
:103ED40070E9F50F6014850C82850D83E4F01247B8
:103EE40083851082851183123F687C177D007900D9
:103EF400EEFAEFFB1211408E828F83E4F0A3F005FB
:103F04000E9002E5E0F8E50EC398501EE50E75F03C
:103F140017A4F8A9F0850882850983A3A31248FB96
:103F2400123F51EC4D6003023E948508828509835B
:103F340074FFF0A3F0E50F7006123BF012060CA913
:103F44000F023CFBF50AEF3400F50B22A3123F5697
:103F5400FD22E0FCA3E0228E828F8312478B850E24
:103F640082850F83E8F0A3E9F022C082C083900227
:103F7400E1E06A7003A3E06B70067AE17B028004DF
:103F84007A007B000232B074F71221B17F00EF7522
:103F9400F003A4F8A9F0EC28F8ED39F988828983B4
:103FA400E06A7003A3E06B7006E8FAE9FB800B0F8C
:103FB400EFC3940240D87A007B007F01022283740D
:103FC400F61221B112457470067A007B008007A3B3
:103FD400A3A3A3123BF602463574F21221B1E9FE03
:103FE400740E1221A512403D74101221A51244A58D
:103FF4008C828D83E06402703BA312478788828998
:1040040083E0F50CA3E0F9A80C740268700374292A
:10401400697021750C02750D00780C1223C47808A0
:104024001223C4780A1223C4EEF91209BA740612D0
:104034002170800279010246A5E0F50AA3E0F50BA0
:104044002274E81221B174FB12215AE98518828581
:104054001983F08A168B178C0E8D0F741F1221A5ED
:104064001244A574211221A512403D74231221A5E6
:1040740012448F7510008C828D83A3A3A3E0A2E465
:10408400502A741D1221A5123D068A828B83E58273
:1040940045837003024151790AAC0EAD0FAA16ABE9
:1040A400171221AFE9F5106003024154850E828591
:1040B4000F83E06402600302440AA3124787850861
:1040C40082850983A3858212858313E50E2406F570
:1040D4000CE50F12446688828983E0FAA3E0F9EACA
:1040E4002400F514E439F515781412244E01000067
:1040F400280128194107000228F0410328604100E3
:10410400291A43012942430229E94203291A430493
:1041140029AB430A44EE4F703E850C82850D831211
:104124004480FAE9FB8A828B83E0850A82850B83CB
:104134001244BC1223C48A828B83A3123F56FDAA65
:1041440008AB091211287402122170800375100E35
:10415400A91074050248E975100B80F4EE4F70F74E
:10416400850A82850B837401F01244958508828543
:104174000983F07C007D00850E82850F83A3A3A3B1
:10418400A3E02401FAA3E03400FB120876EA4B60B2
:10419400418A828B83E02402F8850A82850B83E0BE
:1041A40028F0EA2404F8EB3400F988828983E08556
:1041B40012828513831244CE1244BC1223C48A8211
:1041C4008B83123F50E5082403FAE5093400FB020F
:1041D4004147850A82850B83E02404F07C047D003A
:1041E4007900AA12AB13121140024154EE4F60033E
:1041F40002415B124495FEA3E0FF850A82850B838E
:104204007404F0EE850882850983F0EF85128285B7
:104214001383F074031221A5AC82AD83EEFAEFFB95
:1042240012456270030242C68A828B83A3A312449E
:104234008B74011221A585820E85830F780E1223BB
:10424400C474051221A51223DB7CFF7DFF12087CB8
:1042540074041221708B0FEA450F7033850C82852C
:104264000D8312446B1223C4850C82850D83A31223
:1042740023DB7C027D007ABA7B861206A8740412C2
:104284002170E9700A74011221A574FFF0A3F08E65
:10429400828F83E064027034750C02750D00780C13
:1042A4001223C48E828F83123F50E5082404FAE55A
:1042B4000912387C122170850A82850B83E024025E
:1042C400800974011221A5EEF0A3EFF0740112210C
:1042D400A512447CF074011221A5A3124474A3A373
:1042E400A3F0024154EE4F600302415B850C8285CA
:1042F4000D83123F51AA16AB171209AE850A8285A7
:104304000B837402F0EA850882850983F0851282A2
:10431400851383EB80CBEE4F600302415B1244951F
:10432400F8A3E0F9850A82850B837402F0E8850816
:1043340082850983F0E985128285138380A3850C25
:1043440082850D83123BF6121122EAFC8C82A8822C
:10435400C39EE49F404BE86E7001EF70047C0080C4
:104364001F851882851983E0FAEE2AFAEF3400FBE0
:10437400C3EA98EB94005003E08004EECCC39CFCA9
:10438400EC850A82850B83F08C0A750B00780A127F
:1043940023C4850C82850D83E02EFCA3E03F0241FB
:1043A40042751007024154EE4F600302415B850CD5
:1043B40082850D83124787850A82850B837407F0F3
:1043C4008882898312447412445CE08512828513C6
:1043D40083F0E82402FAE93400FB8A828B831244D6
:1043E400741244AD12447CA31244B6124485F0E81E
:1043F4002405F8E93400F988828983124485A312DC
:1044040044CEA30242E2741D1221A512456D70032D
:10441400024151124787880C890DE8450D7003024B
:1044240041518E108F1178101223C4780A1223C4BC
:1044340078081223C474061221A5E0F9AC0EAD0F5E
:10444400AA16AB17850C82850D831221AF74061250
:104454002170E9F510024154F088828983A322F582
:104464000CEF3400F50D22E0F50E750F00780E22E6
:10447400E0850882850983221244D52212478BE8FD
:10448400221244D5A3A322A3A3A3A3E0FEA3E0FF87
:1044940022850C82850D83E0F8A3E0F5838882E011
:1044A40022E0F508A3E0F50922A3A3F08A828B8316
:1044B400A322123168A3A322F08A828B831244C5FB
:1044C40022E0F50A750B00780A2212445C1244D5E6
:1044D40022E0850882850983A3A32274EE1221B108
:1044E40074FE12215A8A0A8B0BECFAEDFB74141237
:1044F40021A5E0F510A3E0F51174161221A5E0FE44
:1045040074181221A5E0F50EA3E0F50F8518828535
:104514001983AC82AD83124562603E851882851989
:104524008312456D602FA3A31244A5E508450960D5
:1045340024780E1223C478101223C4EEF9AC0CAD07
:104544000DAA0AAB0B8508828509831221AF740476
:104554001221708006790E800279010239A21208B4
:10456400768A0C8B0DEA450D22123BFA1245742211
:104574001209428A828B83E58245832274F61221D2
:10458400B174FE12215A740C1221A51244808518AC
:1045940082851983F074011221A5E9F0E4F508F588
:1045A4000978081223C475080278081223C4740415
:1045B4001221A585820885830978081223C412096B
:1045C4009674061221707402122170806474F712BA
:1045D40021B1EAFEEBFF89087C187D031209AEEADB
:1045E4005402600BA908EEFAEFFB12086A80027904
:1045F40001023FBE74F61221B174FF6A700374FFA6
:104604006B701C7B00EB75F003A4F8A9F0EC28F8A0
:10461400ED39F912463A0BEBC39402501480E612BA
:10462400097E8A088B09A808A909E849600312468B
:104634003A7F020222838882898374FF123166E4FE
:10464400F02274F61221B112097E8A828B83E582EC
:1046540045836006A3A3E0FA80027A007B0080D140
:1046640074F21221B18A088B09ECFEEDFF740E126C
:1046740021A5E0F50A1246AA701CEEFCEFFD7AFFB4
:104684007BFF1246AA70047911801688828983E51B
:1046940008F0A3E509F088828983A3A3E50AF079E9
:1046A400007F0602228312097E8A0C8B0DA80CA9B6
:1046B4000DE8492274EE1221B1EAFEEBFF8C088D5D
:1046C40009890C74121221A512478774141221A5AA
:1046D400123F5174161221A5123BF6750D00EC4DD4
:1046E400600302477B7402650C600302477688828C
:1046F4008983123F56F9EC2400F50EE439F50FEAEC
:10470400F4F8EBF4F9EC58F8E50F59F9E849705D61
:10471400E5082406F8E5093400F9880A890B88823B
:10472400F58312388B1209AE8A108B11E50E6510D1
:104734007004E50F65116042780E1223C4850A8265
:10474400850B8312388B1209B47402122170E9F5B7
:104754000D7027780E1223C4850882850983A3A3CC
:104764001238891209CC7402122170800D750D80E3
:104774008008750D0D8003750D0BA90D023E5C8E2E
:10478400828F8312478B22E0F8A3E0F92274E812A7
:1047940021B174E712215A851882851983EAF0A39E
:1047A400EBF08C168D17890E74311221A5E0F512E9
:1047B400A3E0F51374331221A5E0F514A3E0F51575
:1047C40074351221A5E0F50F750800750900E50997
:1047D40075F003A4F8A9F08518828519831248FBA3
:1047E400E0F47003A3E0F470030248D9EE2402F568
:1047F4000CEF1248F1E070030248D985160A8517B8
:104804000B780A1223C4AC14AD15AA12AB13120907
:104814003674021221708A0A8B0BEA450B7003026C
:1048240048D9E4F510F51178101223C47406122146
:10483400A585821085831178101223C4740912216E
:10484400A585821085831178101223C48512828570
:104854001383A3A3A3A31223DB7914AC0AAD0B8E99
:10486400828F8312490F122170E97069850A82854B
:104874000B83A3A3A3A312478774021221A5123F9B
:1048840068850C82850D83E0A2E05018A90E74029D
:104894001221A5AC82AD838E828F83123BF612085F
:1048A4008EE94208850C82850D83E0A2E15026E55D
:1048B4000FF50A780A1223C8A90E74031221A5ACB5
:1048C40082AD838E828F83123BF6120888740112A4
:1048D4002170E942080509E509C39402500302471F
:1048E400D2A90874191221707F100222833400F5B2
:1048F4000D850C82F58322E028FEA3E039FF8E8229
:104904008F83227916850A82850B83123BFA12095A
:104914009074082274F21221B1EAFEEBFF890B7441
:1049240001650B600E7402650B70637901120BA6AE
:10493400E9705BEEFAEFFB1249956047750A008057
:104944000B7C177D007900121140050A9002E5E006
:10495400F8E50AC3985021E50A75F017A4F8A9F000
:10496400850882850983A3A3E028FAA3E039FB8A9A
:10497400828B831232B770C985088285098374FFDC
:10498400F0A3F07C187D03EEFAEFFB1209A80246AF
:10499400A51209788A088B09EA45092274F21221C2
:1049A400B18A088B09ECFEEDFF740E1221A51240AA
:1049B4003D900A98E0F4603D7A097B00121152EAB6
:1049C4004B60328A828B8374B1F0A3E41244AFA3A8
:1049D4001244ADA3E508F0A3E5091249FCEEF0A3E7
:1049E400EF1249FCA3A3E50AF0A3E50BF0900A98A3
:1049F400E0F912115E0246A5F08A828B83A3A3A379
:104A0400A3A322C082C0839061907404F0A374486D
:104A1400F0A37402F09061807440F09061BC740360
:104A2400F09061877419F0906265741BF090619C3A
:104A3400740DF090619A7433F0A37455F09061A0F2
:104A4400743AF090055CE064017009C2919003C669
:104A5400746780059003C67461F090302AE49390E3
:104A64006186F0903024E493F46027E493540FF8C3
:104A7400906185E0686012E5C654804449F5C6E556
:104A84009E547F644970F8E8F053C680E59E547FD5
:104A940070FA7905120EFA024C49C082C083E954B7
:104AA4000FF9906185E0696012E5C654804449F5C8
:104AB400C6E59E547F644970F8E9F053C680E59ECC
:104AC400547F70FA024C49C082C083E5A8F853A809
:104AD4007E906181E4F0A3F0A3F0C2BA539AFEC2BF
:104AE40089759B00C2C275E90075910075BF007598
:104AF400A91175B905906181F0A374C0F0A3E4F025
:104B0400D2BA439A0174805842A8024C49C082C068
:104B14008374F812215A9003C4E0F8A3E0F9E84939
:104B24007003024C3F9003C4E0544060237908852D
:104B34001882851983AA82AB83120D628518828537
:104B44001983AA82AB83120A389003C4E054BFF0DD
:104B5400E054806010790C7A807B05120D6290031A
:104B6400C4E0547FF0E0A2E0503190619A7433F0D5
:104B7400A37455F09061A0743AF090055CE0640170
:104B84007009C2919003C6746780059003C674616E
:104B9400F0120A3E9003C4E054FEF0E05402603187
:104BA40090619A743FF0A3745AF09061A0747FF0FE
:104BB40090055CE064017009D2919003C674718021
:104BC400059003C6746AF0120A3E9003C4E054FDD3
:104BD400F0E054046013903028E493906186F0125E
:104BE4000A449003C4E054FBF0E05408601390308E
:104BF40029E493906186F0120A449003C4E054F7C8
:104C0400F0E05410601390302AE493906186F0121F
:104C14000A449003C4E054EFF0E05420600A120AFE
:104C2400449003C4E054DFF0A3E05401600D120C7F
:104C34008A120A4A9003C5E054FEF07408122170E7
:104C44008003F0A3F0D083D08202013574EC1221EA
:104C5400B174F412215A851882851983AC82AD830C
:104C640075838675820A740412206D90302893F43B
:104C74006003024DDD907808E0C394025003024DB6
:104C8400BD74041221A5AC82AD8375838575828AB7
:104C9400740812206D851882851983858212858394
:104CA4001374041221A5AC82AD83750EFF750FFF3A
:104CB4007FFF7E00750C48750D78801574086E7042
:104CC40003024D5074096E7003024D50740A6E60F5
:104CD4007B850C82850D83780812202A8C828D8333
:104CE400A909E50AC9F8881074187808121F58E54C
:104CF400104508F8C3E098A3E099850C82850D83DC
:104D0400780812202A40188C828D8374187808122F
:104D14001F58E5104508F8E0C398F8A3E0801C7418
:104D2400187808121F58E5104508FAE9FB8C828DA3
:104D340083E0F8A3E0F9EAC398F8EB99F9C3E8959E
:104D44000EE9950F5006880E890FEEFF0EE50C2430
:104D540004F50CE50D3400F50DEEC3941350030275
:104D64004CC074FF650E700474FF650F60238F08D8
:104D74007402780812214774482508F5827478353E
:104D840009F583780812202A851282851383E508A1
:104D9400F0EC24020C0CED3400FD851282851383A3
:104DA400A3858212858313740C1221A5E5826C708D
:104DB40003E5836D6003024CAE7508017509007844
:104DC400081223C474021221A5AC82AD837A0A7B33
:104DD4000C12138C7402122170740C1221707F0C4B
:104DE400022283C082C0839061AE7468F0A3746AA7
:104DF400F090624574FBF0A304F053F4FD43FE020B
:104E040090055C7401F09061A0E0643A90619A703E
:104E1400237433F0A37455F09061A0743AF07401D4
:104E240064017009C2919003C6746780289003C618
:104E340074618021743FF0A3745AF09061A0747F70
:104E4400F0740164017009D2919003C674718005F5
:104E54009003C6746A024C487F04022283C082C055
:104E64008390050EE06401700A900513E0600479F4
:104E74000C80027900024C49C082C08375E1F19034
:104E84000511E0605514600814605914605180598C
:104E9400120C9C900507E0F97A087B05120E7C90B1
:104EA400860E122048120EB29085FA122048120E75
:104EB40088900512E0F9120E947901120EEE900515
:104EC40005E02416F8A3E03400F98882898374B4D9
:104ED400F0A3740CF07900024C49120CA280B412B5
:104EE4000CA880AF120CAE80AA791280EA74F41276
:104EF40021B175D90D9004F6E0A2E0E4331313F860
:104F0400900507E0C4333354C0484401F5D978050B
:104F1400790588828983A3A3A3E0F5D9888289834C
:104F2400A3A882A983E8640B7003E9640570E3789D
:104F3400F6790488828983A3E0F5D988828983A3DA
:104F4400A882A983E864FC7003E9640470E575E150
:104F5400959004F6E0F97AF77B04120E82900ABA6F
:104F64007448F0A3740CF0A374AAF0A3740DF0A316
:104F740074AAF0A3740DF0A374AAF0A3740DF0A3A3
:104F8400744EF0A3740CF0A374AAF0A3740DF0A3F0
:104F94007466F0A3740CF0900AC874AAF0A3740D9C
:104FA400F0A374AAF0A3740DF0A374AAF0A3740D73
:104FB400F0A374AAF0A3740DF0A374AAF0A3740D63
:104FC400F0A374AAF0A3740DF0900505E0F8A3E033
:104FD400F5838882A3A3780812202A908612780881
:104FE400121FA39086027808121FF1900505E02491
:104FF4000EF8A3E03400F9888289837808122039F6
:10500400900505E02414F8A3E03400F9888289832C
:105014007413F09003C27402F0024E5CC082C08329
:10502400900517E02407F5D9900507E0C4333354FD
:10503400C0F5D97805790588828983A3A3A3E0F50F
:10504400D988828983A3A882A983E8640B7003E9C1
:10505400640570E3900517E0601F78057905FAE8A8
:105064002413F582E93400F583E0F5D98882898335
:10507400A3A882A9831AEA70E6900537E02407F50D
:10508400D9900507E0C4333354C04404F5D97805F6
:10509400790588828983A3A3A3E0F5D988828983CB
:1050A400A3A882A983E8640B7003E9640570E39004
:1050B4000537E0601F78057905FAE82433F582E9BD
:1050C4003400F583E0F5D988828983A3A882A98373
:1050D4001AEA70E675E195900ABA7454F0A3740C58
:1050E400F0A374AAF0A3740DF0A374AAF0A3740D32
:1050F400F0A374AAF0A3740DF0A3744EF0A3740C7F
:10510400F0A374AAF0A3740DF0A37466F0A3740C56
:10511400F0900AC874AAF0A3740DF0A374AAF0A3C3
:10512400740DF0A374AAF0A3740DF0A374AAF0A3F1
:10513400740DF0A374AAF0A3740DF0A374AAF0A3E1
:10514400740DF09085DA122048900505E0240EF8DD
:10515400A3E03400F988828983122054900505E085
:105164002414F8A3E03400F9888289837412F0903F
:1051740003C27401024C48C082C083900517E02426
:1051840007F5D9900507E0C4333354C04402F5D978
:105194007805790588828983A3A3A3E0F5D9888259
:1051A4008983A3A882A983E8640B7003E96405706A
:1051B400E3900517E0601F78057905FAE82413F5F4
:1051C40082E93400F583E0F5D988828983A3A88233
:1051D400A9831AEA70E675E195900ABA7460F0A39F
:1051E400740CF0A37460F0A3740CF0A37460F0A3C7
:1051F400740CF0A37460F0A3740CF0A37460F0A3B7
:10520400740CF0A37460F0A3740CF0A37466F0A3A0
:10521400740CF0900AC874AAF0A3740DF0A374AAD5
:10522400F0A3740DF0A374AAF0A3740DF0A374AAF0
:10523400F0A3740DF0A374AAF0A3740DF0A374AAE0
:10524400F0A3740DF09085DA122048900505E0244F
:105254000EF8A3E03400F988828983122054900563
:1052640005E02414F8A3E03400F9888289837414D7
:10527400F09003C27404024C48C082C083900517A6
:10528400E02407F5D9900507E0C4333354C044063D
:10529400F5D97805790588828983A3A3A3E0F5D994
:1052A40088828983A3A882A983E8640B7003E964D4
:1052B4000570E3900517E0601F78057905FAE82486
:1052C40013F582E93400F583E0F5D988828983A354
:1052D400A882A9831AEA70E6900537E02407F5D975
:1052E400900507E0C4333354C04404F5D9780579F4
:1052F4000588828983A3A3A3E0F5D988828983A33F
:10530400A882A983E8640B7003E9640570E390053F
:1053140037E0601F78057905FAE82433F582E9342B
:1053240000F583E0F5D988828983A3A882A9831A2A
:10533400EA70E675E195900ABA745AF0A3740CF019
:10534400A374AAF0A3740DF0A374AAF0A3740DF0CF
:10535400A374AAF0A3740DF0A374AAF0A3740DF0BF
:10536400A374AAF0A3740DF0A37466F0A3740CF0F4
:10537400900AC874AAF0A3740DF0A374AAF0A374DD
:105384000DF0A374AAF0A3740DF0A374AAF0A3748F
:105394000DF0A374AAF0A3740DF0A374AAF0A3747F
:1053A4000DF09085DA122048900505E0240EF8A34C
:1053B400E03400F988828983122054900505E024A2
:1053C40014F8A3E03400F9888289837415F09003FB
:1053D400C27403024C48C082C083900505E0F8A360
:1053E400E0F5838882A3A3A3A3A3A3E4024C467499
:1053F400F71221B19003F0E0F875F004A4C8AAF004
:105404002AF974F228F8740339F9E82405FAE9341E
:1054140000FB8A828B83E0FCA3E0FD88828983A35E
:10542400A3A3A3A3A3A3A3A3ECF0A3EDF088828971
:1054340083A3A3A3A3A3A3A3E024FFF8A3E034FFBF
:10544400F98A828B83E8F0A3E902569874F7122153
:10545400B1EAFEEBFF9061D0E0600302552D75D9EF
:105464000E75D90375D904EE248CF582EF3400F55A
:1054740083E5822408F8E5833400F9E0F5D9A3E84C
:1054840065827003E9658370F2EE2484F582EF345B
:1054940000F583E5822404F8E5833400F9E0F5D9C6
:1054A400A3E865827003E9658370F275E195790874
:1054B400EE248CFAEF3400FB120D567904EE2484AA
:1054C400FAEF3400FB120D567C00EEF8EFF9ECFA1B
:1054D400C3E49AFA95E0FBEE2AFAEF3BFBEA248B4D
:1054E400F582EB3400F583E0C0E0E824ABF582E913
:1054F4003400F583D0E0F00C88828983A3A882A9C4
:1055040083ECC3940840C7EE2470F582EF3400F5B1
:1055140083E0F8A3E0F9EE2472F582EF3400F5831A
:10552400E8F0A3E9F0790180027900025699C0827B
:10553400C08375D90275D90375D90575E195EA2437
:1055440070F582EB3400F583E0F8A3E0F9EA247205
:10555400F582EB3400F583E8F0A3E9F07901024C1D
:105564004974F61221B1EAFEEBFF9005607406F06F
:1055740075086075090578081223C47C0179031243
:105584000D9E740212217075D90675D90375826057
:10559400758305E0F5D9A3E58264657004E5836449
:1055A4000570F075E1959003C2E06408701EEE2466
:1055B40070F582EF3400F583E0F8A3E0F9EE24728D
:1055C400F582EF3400F583E8F0A3E9F0790102579E
:1055D4006574F61221B1EAFEEBFF9061D0E07066CB
:1055E4007801900560740BF09003C2E064077019B1
:1055F40075086075090578081223C47C01790312C3
:105604000D9E74021221707805740128F5D975D99C
:1056140003758260758305E8FAE0F5D9A31AEA7088
:10562400F875E195EE2470F582EF3400F583E0F827
:10563400A3E0F9EE2472F582EF3400F583E8F0A3D9
:10564400E9F079018002790002576574F71221B1FB
:10565400EAFEEBFF75D90375D90375D90DEE24DE87
:10566400F582EF3400F583E0F5D975E195790412FC
:105674000EB8EE2470F582EF3400F583E0F8A3E071
:10568400F9EE2472F582EF3400F583E8F0A3E9F033
:1056940079018001F07F0102228374F61221B1EABC
:1056A400FEEBFF9061D0E0F87480C398FAEE248397
:1056B400F582EF3400F583E060047804800278001A
:1056C400E8240BF8EAC39850030257637D09900558
:1056D40060EDF0EE24E3F8EF3400F97A617B057CA9
:1056E4000888828983E08A828B83F088828983A3F5
:1056F400A882A9838A828B83A3AA82AB831CEC70C1
:10570400E0EE2483F582EF3400F583E0601D750834
:105714006075090578081223C47C097903EEFAEF51
:10572400FB120D9E74021221707D0D74012DF5D9AA
:1057340075D9037582607583058D08E0F5D9A315C5
:1057440008E50870F675E1957904120EB8EE241D8B
:10575400F582EF3400F583E4F0A3F0790180027957
:10576400007F0202228374F61221B1EAFEEBFF905D
:1057740061D0E0F87480C398FAEE2483F582EF34A4
:1057840000F583E06004780480027800E82408F8D7
:10579400EAC398500302586A7D06900560740CF0C1
:1057A4009003DFE0900561F07AE07B03786279058D
:1057B4007C028A828B83E088828983F08A828B834D
:1057C400A3AA82AB8388828983A3A882A9831CECC1
:1057D40070E07AE27B037C028A828B83E088828990
:1057E40083F08A828B83A3AA82AB8388828983A372
:1057F400A882A9831CEC70E0EE2483F582EF3400C8
:10580400F583E0601D75086075090578081223C4E6
:105814007C067903EEFAEFFB120D9E7402122170DE
:105824007D0A74012DF5D975D903758260758305D8
:105834008D08E0F5D9A31508E50870F675E19579AA
:1058440004120EB8EE2470F582EF3400F583E0F80C
:10585400A3E0F9EE2472F582EF3400F583E8F0A3B7
:10586400E9F079018002790002576574F61221B1DA
:10587400EAFEEBFF9061D0E0F87480C398FAEE245E
:1058840083F582EF3400F583E060047804800278C5
:1058940000E82404F8EAC3985003025949780290B6
:1058A4000560E8F0EE24F5F582EF3400F583E0902E
:1058B4000561F0EE2483F582EF3400F583E0601B8C
:1058C40075086075090578081223C47C027903EE13
:1058D400FA120D9E74021221707806740128F5D90B
:1058E40075D9037582607583058808E0F5D9A31519
:1058F40008E50870F675E195EE2474F582EF34003E
:10590400F583E4F0EE2480F582EF3400F583E4F0CF
:10591400EE241DF582EF3400F583E4F0A3F079045E
:10592400120EB8EE240DF582EF3400F583E0F8A3EF
:10593400E0F9EE2472F582EF3400F583E8F0A3E990
:10594400F079018002790002576574F61221B19052
:1059540061D0E0F87480C398FCEA2483F582EB34C8
:1059640000F583E06004780480027800E82404F8F9
:10597400ECC398405B79029005607407F0EA24F662
:10598400F582EB3400F583E0900561F0EA2483F5B9
:1059940082EB3400F583E0601875086075090578BA
:1059A400081223C47C0209120D9E7402122170791C
:1059B40006740129F5D975D903758260758305E9E3
:1059C400F8E0F5D9A318E870F875E195790180023B
:1059D400790002576574F51221B1E9FCA2AFE433F2
:1059E400F50AC2AF7D0080010DEA246FF582EB3425
:1059F40000F583E0F8EDC398501A8D08EA2508F8FD
:105A0400EB3400F9E8246BF582E93400F583E06CAB
:105A140070D68024EA246FF8EB3400F9E0FEEA2E15
:105A2400FAEB3400FBEA246BF582EB3400F583ECEB
:105A3400F088828983E004F0E50AA2E092AF7F0354
:105A440002228374F61221B1A2AFE433FDC2AFEA9D
:105A5400246FF582EB3400F583E014F07C006036AB
:105A64008C08EA2508F8EB3400F9E8246CF582E99F
:105A74003400F583E0C0E0E8246BF582E93400F5F6
:105A840083D0E0F00CEA246FF582EB3400F583E078
:105A9400F8ECC39840CAEA246EF582EB3400F5832F
:105AA40074FFF0EA246AF582EB3400F583E4F0ED48
:105AB400A2E092AF025765C082C083E5A8F8C2AFE6
:105AC400EA246BF582EB3400F583E9F0EA246AF505
:105AD40082EB3400F583E4F0E8A2E792AF024C498C
:105AE40074F31221B1EAFEEBFFECFAEDFB8A828B30
:105AF40083A3A3A3A3E0541FF0EE2436F582EF346E
:105B040000F583E4F0F50AEEFCEFFD8A828B83E076
:105B1400C0E0EC245DF582ED3400F583D0E0F0754F
:105B24000B00E50A33333354F8F50C8A828B83E097
:105B3400F508750900E50B7808122128E508A2E0AC
