:020000040000FA
:0600000002010A0225DFE7
:03002B0002287830
:0300330002285A46
:03003B0002289107
:0300430002280E82
:0300530002265230
:03006B0002283434
:10008300022493E5C754F84401F5C779012200001F
:100093000080FB120086B900030200F4E4791A78A9
:1000A30002B800028004F709D8FCE4791C7802B88E
:1000B30000028004F709D8FCE490028178AB790F41
:1000C3008002F0A3D8FCD9FA90112BAA82AB8390BB
:1000D300013A781679028015E493A3AC82AD838A42
:1000E300828B83F0A3AA82AB838C828D83D8E9D9D8
:1000F300E77582CF7583EE740312011C75829175C7
:100103008300740012011C75D00075813F7518813E
:10011300751902759F00020096C09FF59FE473D086
:100123009F22D083D082C09FE493C0E0740193C028
:10013300E0740293F59F22DB03ED031704E103FF51
:100143000000B4000028002800283075A000A0009B
:10015300A000A00000080008E001F000100010005B
:10016300100010001000100050005000500010004C
:100173001000D0070000000000000F000100050080
:10018300307507001000010081FF0000FF0202022A
:100193004188010000378802518801000081110263
:1001A3004F88010000B10202518801000082110250
:1001B3004588010000C702FFFF0100FF20024188BC
:1001C3000100002E88025188010000B011024B8803
:1001D3000000000000024D88030000A4034F0B4FF2
:1001E3000B4F0B4F0B4F0B4F0B4F0B4F0B4F0B4F3C
:1001F3000B4F0B4F0B4F0B1D0D3B0D170DFFFF014E
:10020300E803053F1002FF0030313233343536370F
:10021300383941424344454600286E756C6C207062
:100223006F696E74657229003F3F3F000000807F55
:100233000000803FF9021550B743BA510000204136
:1002430000E7DB2E0000A040080000001201259DFE
:10025300E503120125B3E503120125E0E5031201CD
:100263002510E60312012527E60312012548E603BC
:1002730012012579E603120125CAE603120125E1DD
:10028300E60312012553DF031201256ADF0312017E
:100293002599DF03120125D2DF03120125FADF03BB
:1002A30012012528E0031201253FE0031201255620
:1002B300E0031201256CE00312012593E003120110
:1002C30025A6E003120125BCE003120125E4E003A7
:1002D30012012596D40212012595D502120125BFDC
:1002E300D50212012514D60212012535D6021201B8
:1002F300254ED60212012550D60212012571D602CF
:1003030012012574D70212012531D802120125FEEC
:10031300D80212012562D902120125F9D90212016C
:1003230025FCD90212012582DA02120125C5DA025F
:1003330012012517DB021201251ADB0212012551D6
:10034300DB0212012578DB021201250EDC02120109
:100353002597DC02120125E0DC02120125EDDC0207
:10036300120125F0DC021201254EDD021201256681
:10037300DD02120125E0DD02120125E3DD02120197
:100383002506DE0212012509DE02120125B0DE0276
:10039300120125D3DE02120125EBDE021201251B19
:1003A300DF0212012528DF021201252BDF021201D1
:1003B3002597DF0212012585E0021201253BE102A8
:1003C300120125EAEB02120125C5EC02120125F305
:1003D300EC0212012573ED0212012593ED021201C5
:1003E30025D1ED0212012524EE021201258CEE0225
:1003F3001201251DEF02120125E8EF02120125F774
:10040300F20212012563F40212012586F40212019D
:10041300252AC903120125BBCA031201250CCB03EC
:100423001201256BCB0312012579CB03120125A2FF
:10043300CB0312012506AC031201252EAC031201D6
:10044300255CAC0312012593AC03120125FBAC031D
:1004530012012544AD031201258FAD03120125CDF1
:10046300AD031201250AAE0312012538AE031201B2
:1004730025DFAE03120125E9AE03120125F6AE0313
:1004830012012529AF03120125EBAF03120125F752
:10049300AF031201250FB00312012519B003120196
:1004A3002597B0031201250AFF0112012518FF0148
:1004B30012012530FF0112012548FF0112012560B9
:1004C300FF01120125809D021201251E9E021201C9
:1004D30025969E02120125AB9F02120125E59F027C
:1004E3001201258EA00212012563A102120125C764
:1004F300A2021201251EA302120125A5A3021201C5
:10050300258CA402120125D9A40212012567A50294
:100513001201258BA50212012560A702120125A154
:10052300A702120125C3A70212012588A8021201FE
:10053300254EA90212012583AB02120125A8C1038E
:10054300120125BEC103120125E4C1031201250CCA
:10055300C30312012516C3031201256FC40312013D
:10056300256FC503120125727B00120125147C003F
:10057300120125477C00120125917C001201254BB5
:100583007E00120125FFC5011201257DC60112015E
:10059300258DC60112012570C7011201257AC701F5
:1005A300120125A8C701120125B3C7011201258C29
:1005B300C801120125EEC8011201258AC9011201E1
:1005C300258ECB0112012545CD01120125C1CD0197
:1005D3001201259ECE01120125CCD1011201256AFB
:1005E300D201120125C7D3011201253AD501120107
:1005F30025E3D5011201252CD60112012563D6016D
:1006030012012508D70112012586D7011201250001
:1006130080021201255580021201259A81021201DE
:1006230025AA8102120125CD810212012518820219
:10063300120125BD8202120125B383021201257D19
:100643008402120125F58502120125378602120163
:1006530025D58602120125FB8602120125E98802AF
:10066300120125EE8802120125CF8A0212012523E9
:100673008B02120125858B02120125AD8B0212011B
:1006830025518C02120125138D02120125448D027E
:10069300120125478D021201258F8D02120125D1EA
:1006A3008D02120125388E021201254AD903120147
:1006B300255DD90312012566D9031201257FD903CC
:1006C300120125CAD903120125A5DA031201253423
:1006D300DB031201257FDB03120125BD620012013A
:1006E30025CD6200120125306300120125756300D8
:1006F300120125256400120125FE6400120125273D
:1007030065001201255765001201256B6700120170
:1007130025476900120125276B001201255F6C0034
:10072300120125D86E00120125C46F001201250A9B
:10073300710012012517720012012559720012016E
:1007430025917200120125AB72001201251373006B
:10075300120125AD77001201254E7800120125A262
:100763007800120125C978001201250779001201CA
:10077300252679001201257A7900120125827A0053
:100783001201250B7B0012012505A1031201250F80
:10079300A103120125ABA10312012576A2031201C5
:1007A3002595A203120125BBA203120125FAA20378
:1007B30012012532A3031201255BA3031201259520
:1007C300A303120125AAA30312012577A40312018F
:1007D300259AA403120125BCA403120125D1A40365
:1007E3001201255BA50312012595A5031201250915
:1007F300A60312012552A6031201257CA6031201AA
:1008030025A1A603120125BCBD0312012586BE0343
:1008130012012569BF03120125DFBF031201252140
:10082300C0031201254EC10312012561B902120151
:10083300258AB902120125A3B902120125E8BA02D9
:10084300120125C6BB02120125E5BB021201257266
:10085300BC02120125B5BC02120125EDBD02120135
:100863002559BE021201254FC002120125DDC20225
:1008730012012570C30212012544C402120125E7A7
:10088300C402120125FAC50212012590C602120103
:100893002526E8031201258FE803120125E3E80367
:1008A30012012512E90312012528B103120125952E
:1008B300B103120125E0B103120125D5B2031201E0
:1008C30025D1B303120125BBB403120125318803DB
:1008D3001201257888031201255189031201254C41
:1008E3008A031201252B8B03120125978B03120117
:1008F30025B38C031201251A8D031201251D8D03C7
:10090300120125488D03120125B98D031201255CBF
:100913008E03120125718E03120125B98E03120174
:1009230025D28E03120125D58E03120125BACC03DD
:10093300120125F6CC0312012534CD03120125FE45
:10094300CD0312012571CE03120125ACCE03120192
:1009530025EACE031201251ACF0312012541CF0345
:10096300120125ACCF03120125EECF031201255747
:100973008801120125758A01120125248C011201B7
:1009830025D48C011201251F8D011201256A8D01C9
:100993001201257C8D01120125BC8D01120125F167
:1009A3008D011201253D8E011201256C8E0112016C
:1009B300258F8E01120125168F0112012502900148
:1009C3001201254091011201254292011201251EB7
:1009D30094011201254299011201258899011201FE
:1009E30025C69901120125FB9B01120125F4FD0285
:1009F30012012594FF021201250429001201259BEF
:100A03002900120125E12900120125172B001201EB
:100A130025AE2C00120125262D00120125682D007C
:100A2300120125B82D00120125232F001201258E56
:100A330031001201256A32001201258932001201A8
:100A430025A83200120125AB3200120125313400F2
:100A530012012526350012012522360012012592A6
:100A630036001201250437001201258337001201D5
:100A7300255E3800120125653900120125443A002C
:100A8300120125CF3A001201253D3B00120125B189
:100A93003B00120125DA3B00120125993C001201AB
:100AA30025A83F00120125F13F0012012534400023
:100AB300120125B740001201255B4100120125EC0C
:100AC30041001201251142001201255B420012016F
:100AD30025854200120125CA420012012545430023
:100AE3001201259F4300120125F34400120125B092
:100AF300450012012583460012012592AB02120123
:100B030025E2AB02120125EEAB02120125CBAC02AA
:100B1300120125FBAC0212012533AD02120125B2ED
:100B2300AD02120125EAAD021201253CAE0212010B
:100B33002579AE021201259EB002120125CAB20226
:100B4300120125C5B402120125A0B602120125EE39
:100B53007F00120125409B03120125729F0312019E
:100B630025C2A00312012589E8011201255BEF01CB
:100B730012012561EF0112012511F201120125C9AC
:100B8300A60312012575A70312012543A803120129
:100B9300256DA803120125BBAA03120125B1460046
:100BA300120125FB4600120125AD53001201252E2B
:100BB3005500120125265600120125855C001201FD
:100BC30025805D00120125BD5D00120125E05D0059
:100BD300120125225E001201252C5E001201251848
:100BE3005F001201250C6000120125A560001201AF
:100BF300255CD3031201255AD403120125B0D40373
:100C0300120125EED4031201254BD503120125C889
:100C1300D503120125D1D503120125DDD503120118
:100C230025F0D5031201252CD60312012542D60344
:100C3300120125F98E03120125068F0312012520C7
:100C43008F031201255F8F031201259D8F0312016C
:100C5300250290031201251790031201252E9003FC
:100C63001201253C90031201254B900312012560CC
:100C73009003120125759003120125809003120140
:100C8300258C9003120125999003120125A8900346
:100C9300120125B39003120125D890031201258177
:100CA3009103120125969103120125AB91031201C1
:100CB30025C59103120125E09103120125FD91033E
:100CC300120125089203120125C49203120125B0D3
:100CD3009303120125D59303120125DF9303120118
:100CE30025F3930312012512940312012573940330
:100CF3001201257994031201257F9403120125859E
:100D03009403120125919403120125C49403120143
:100D130025B3E102120125DFE102120125C3E2023C
:100D23001201255DE50212012573E60212012590E9
:100D3300E70212012533E802120125D9E802120164
:100D4300250CC7021201258EC70212012537C802DE
:100D53001201257FC9021201258DCB0212012573D1
:100D6300CC02120125A8CC02120125CACC02120121
:100D73002573CD0212012543CF021201256CCF0248
:100D8300120125E4CF0212012516D00212012523F8
:100D9300D0021201256ED00212012592D002120157
:100DA30025E3D202120125EDD30212012549D40213
:100DB300120125028F02120125139002120125F759
:100DC30090021201250191021201252391021201C1
:100DD300252F9102120125D39202120125009302BD
:100DE3001201251694021201256B9402120125BAF1
:100DF30095021201258F9602120125EB960212012C
:100E0300255697021201258B9702120125CE9702D0
:100E1300120125989A02120125B09A021201254166
:100E23009B021201254F9B021201259C9B0212017A
:100E330025AA9B02120125169C02120125919C02F0
:100E4300120125E89C021201259ADD03120125BF38
:100E5300DD0312012535DE031201251BF801120102
:100E63002524F8011201252DF80112012505F901A8
:100E7300120125B6FA01120125E6FA011201251124
:100E8300FB0112012541FB011201256CFB0112013B
:100E930025A0FB01120125CCFB011201250FFC014A
:100EA3001201253AFC0112012581FC01120125D60C
:100EB300FC0112012518FD0112012572FD01120129
:100EC300259DFD01120125ECFD011201251CFE01EA
:100ED30012012547FE011201256AFE011201251A9E
:100EE300ED0312012546ED0312012573ED031201F3
:100EF300257DED031201258DED03120125008003ED
:100F03001201250A80031201254B80031201259447
:100F13008003120125CE80031201252481031201CF
:100F230025458103120125F48303120125FD830363
:100F33001201255184031201257A840312012584A9
:100F43008403120125F28403120125828503120111
:100F530025DD85031201250B8603120125938603E4
:100F6300120125D2860312012507870312012519D1
:100F730087031201253887031201254187031201D4
:100F83002503880312012535EA03120125A9DB0392
:100F9300120125DFDB0312012513DC031201256097
:100FA300DD0312012506EE031201251CEE031201D7
:100FB3002526EE031201257DB50312012590B50305
:100FC30012012554B60312012593B603120125B06D
:100FD300B603120125E9B60312012536B703120140
:100FE3002568B7031201259FB703120125B2B90380
:100FF30012012570EE031201258EE203120125B1C1
:10100300E203120125E0E20312012578E303120152
:101013002590E303120125D2E30312012541950331
:101023001201258395031201250396031201251648
:1010330096031201256B9603120125BF9603120135
:1010430025049703120125139703120125C2970361
:101053001201251D98031201256C9803120125C660
:101063009803120125D39903120125CB9A03120188
:1010730025089B0312012597ED03120125149E01F8
:1010830012012512A001120125AFA1011201255C55
:10109300A201120125DCA2011201255EA3011201A6
:1010A3002587A301120125D9A30112012512A80145
:1010B30012012589A801120125A0A901120125DA2F
:1010C300A9011201251BAA0112012562AB0112011C
:1010D3002591AB01120125E7AB0112012530AC01CB
:1010E3001201259CAC0112012510AD011201253E10
:1010F300AD0112012556AD011201256FAE0112019A
:10110300257FAE011201253AB00112012551B0012C
:1011130012012583B00112012520B201120125B469
:10112300B2011201252CEB031201253DEB03120141
:101133002522EF0312012561EF03120125EAFF02C5
:101143001201257DEC031201258DEC03120125A864
:10115300EC0312012510ED0312012533E9031201FB
:1011630025B8E9031201251CEA031201251BE40338
:1011730012012544E403120125ACE403120125FD09
:10118300E40312012558E503120125BFB903120137
:1011930025E4B90312012501BA031201251EBA037E
:1011A30012012543BA0312012564BA031201258EE5
:1011B300BA031201254BBB03120125C9BB0312015C
:1011C30025F0BB03120125FABB0312012533BD032E
:1011D30012012579C50312012590C5031201250AC1
:1011E300C603120125EEC603120125C5C803120169
:1011F3002536D003120125D0D0031201256CD1036B
:10120300120125FDD103120125ADD203120125BB25
:10121300D20312012539D3031201254FD30312013F
:101223002559D303120125F8E60312012578E703B4
:1012330012012583E7031201259DE703120125F619
:10124300E00312012548E103120125BBE10312016A
:101253002528E20312012572D6031201259CD60329
:101263001201256BD70312012547D803120125D894
:10127300D803120125BEF5021201258AF6021201D6
:1012830025CBF60212012505F70212012563F702A9
:10129300120125B7F70212012515F802120125AB39
:1012A300F802120125B3F9021201253DFB021201D6
:1012B30025DBFB0212012542FC0212012555FC022B
:1012C30012012549FD0212012592FD02120125F2A8
:1012D300B20112012552B401120125B4B501120164
:1012E30025C1B60112012500B9011201254BB9012F
:1012F3001201252DBB011201259EBB011201258D73
:10130300BF01120125E4BF0112012582C0011201B0
:1013130025D9C2011201257FC3011201250EC40183
:1013230012012542C501120125A1EF03120125DD9A
:10133300EB0312012507EC031201256BEF031201E6
:1013430025CEEF03120125F6EF031201253AD8014A
:1013530012012558DD01E066701008A3E066700AEB
:1013630008A3E066700408A3E06622C008C3E09601
:10137300F50808A3E096420808A3E096420808A3EC
:10138300E0964208A2D265D033E5087001D3D008B5
:1013930022C3E7960809E7960809E7960809E7963E
:1013A30022C3E09608A3E09608A3E09608A3E0967C
:1013B30022C008C3E096F50808A3E096420808A3F4
:1013C300E096420808A3E09645087001D3D00822AE
:1013D300080808E630E711121C8F1213EB080808FF
:1013E300C64480C618181822181818E9799EC6082A
:1013F300CAC608CBC608CCC6C370207996CACBCC64
:101403007019798ECBCC70137986CC700EF9802A43
:10141300CA33CACB33CBCC33CC331930E7F2CCCB82
:10142300CA3350147004EA30E00DE4CA3ACACB3B25
:10143300CBCC3CCC500209C3E913C6CC182313C64A
:10144300CB18C6CA18C6F92212148B20F01430E741
:101453002B74FFFCFBFA747F8022E4FCFBFA74809C
:10146300801AB48008BC00F2BB00EF800F50EBF988
:10147300E4C39AFAE49BFBE49CFCE499C6CC18C64B
:10148300CB18C6CA18C6F922E4C9C608CAC608CB0F
:10149300C6D3330308CCC63392F0C3947F402E9453
:1014A300184019C9B90704CACBCC225025C309CAAD
:1014B30033CACB33CBCC33CC33D9F422F4600DC94C
:1014C300CCC313CB13CBCA13CAD9F6CC22E4FCFB8F
:1014D300FA2214FCFBFA22E6C333184618461846D0
:1014E30022E7C33319471947194722181818E60882
:1014F3004608700AE608C3337005E633F42208226F
:10150300191919E7094709700AE709C3337005E791
:1015130033F4220922E6084608C31346083360025F
:10152300E633F422E7094709C3134709336002E7A7
:1015330033F422121518602512152760201214DACD
:1015430070030214E4080808E76670101819E766C8
:10155300700A1819E76670041819E76622F4221254
:101563001518601C12152760171214DA700712146D
:10157300E47001D322C0D01214E47006D0D0B32299
:10158300C32233D0D0501430E0F6C3E7960809E7FE
:10159300960809E7960809E796B32220E0D5E6976F
:1015A3000809E6970809E6970809E697B322121592
:1015B30018601B12152760161214DA70071214E450
:1015C300600CB322C0D01214E47005D0D022C32221
:1015D30033D0D0501330E0EBC3E7960809E7960801
:1015E30009E7960809E7962220E0E4E6970809E66A
:1015F300970809E6970809E6972200121518604F25
:101603001215276012E7548066F61214EE70111259
:1016130014E4703B090909F4F618F618F618F622D3
:1016230012150370151214DA08080860EAE6447FFD
:10163300F618768018E4F618F6221214DA601612F9
:1016430014E47012E4F608F608F608E65480F60986
:10165300090918181822EAC0E0EBC0E0ECC0E0ED7D
:10166300C0E0E687F0A4FBACF008E687F0A42CFC0E
:10167300E435F0FA1809E687F0A42C4B60027401F4
:10168300CA35F0FCE433FB09E687F0D2F7A42CCB90
:1016930035F0FC1908E687F0A42BCC35F0FBE433D6
:1016A300FD0819E687F0D2E7A42C4ACB35F0CD34F8
:1016B30000FC09E687F0D2E7A42DCC35F0FDE43336
:1016C300FA0918E687F0D2F7A42CCD35F0CA340016
:1016D300FC08E687F0D2E7D2F7A42ACC35F07A7E6D
:1016E30020E70B0ACB33CBCD33CDCC33CC33CB3349
:1016F30050147004ED30E00ED2F1E4CD3DCDCC3C7E
:10170300CC3B5005DA05C2F1EB547FC63308E63310
:1017130092F0FBE73309E733C39A502D2B70190C72
:101723000D4C4D70151806E608C333700D20F10AF1
:10173300A2F013F6E418800B4024E4F630F00276AE
:101743008018F618F618F68024D33B14501074FF53
:10175300A2F013F6187680E418F618F6800FA2F0BC
:1017630013F618E63303F618ECF618EDF6D0E0FDA1
:10177300D0E0FCD0E0FBD0E0FA221215276046123D
:101783001518603DE9687008F618F618F618F62281
:10179300748067F71217B1090909748067F7221279
:1017A3001518601D1215277005191919801A1214BE
:1017B300EE701F121503C37003E66733191919403E
:1017C300071818182208080874FFF618F618F618F0
:1017D300F62212150360171214E4702192F012140A
:1017E300DA7019501720F014080808090909E7F6F8
:1017F3001819E7F61819E7F61819E7F6221214DA9A
:1018030060E6E869701F0808E62480F608E436F607
:1018130018547FB47F0CE654806007F6E418F6187A
:10182300F622181822E9C6CC08C6CD08C6CE08C6CB
:10183300CFC0E0E8C0E0EAC0E0EBC0E009E9F809A6
:10184300E7FA09E7FBE6F918E6F8C3EC98ED99EE39
:101853009AEBC2E7F5F0EFC2E795F0500E600CEBA0
:10186300CFFBEACEFAE9CDF9E8CCF8EAA2E7D2E772
:10187300FAEB33FB13F5F0EEA2E7D2E7FEEF33FF0B
:10188300C5F013A2E730E601B313C5F0C3C0E0C04F
:10189300F07F00C39BFB605B9418600C401AD0E0A0
:1018A30023F9D0E0F80219808AF0E9486003D2F006
:1018B300E4AFF0FAF9F8803BEB30E40D89F0EA602D
:1018C30003D2F0E4AFF0F9CAF8EB30E30D88F0EFA0
:1018D3006002D2F0AFF0E4CAC9F8EB54076014FB1E
:1018E300C3EA13FAE913F9E813F8EF135002D2E04D
:1018F300FFDBEDD0E0C0E030E739C3E49FFFF5F054
:10190300EC98FC42F0ED99FD42F0EE9AFE42F0D0E5
:10191300E0F9D0E0F8E5F0607AE923F9EE20E74258
:10192300D8028067C3EF33FFEC33FCED33FDEE33B6
:10193300FE80EAEC28FCED39FDEE3AFED0E023F917
:10194300D0E0F84002801BC3EE13FEED13FDEC1351
:10195300FCEF135002D2E0FF08B800067F7F74FF4C
:10196300802EEF3350178CF020F00260100CBC0077
:101973000C0DBD00080EBE000408E860DFE933E883
:1019830013FFEE2313FE4F4D4C8008E95480FFE410
:10199300FEFDFCEE33EF33F47004FCFD7E80D0E0FB
:1019A300FBD0E0FAD0E0F8D0E0CFC618CEC618CD11
:1019B300C618CCC6F922121518700418181822126A
:1019C3001527700D74FFF61819F61819F61819F67D
:1019D30022E7548066F61214DA700F1214E470F0E2
:1019E30014F608F608F608F680D11214E4700CF623
:1019F30008F608768008E6447F80EC121506700C22
:101A03001214F160BFE65480F6E480BB1214F17047
:101A13000519191980A5E869700C763F18768018A6
:101A2300F618F6E8F922E6CDC0E018ECC0E0E6339C
:101A3300CD33CDD313F6E719FCE7191933CC33C3F0
:101A4300947F400ECD9D502408E65480F6E418F6AA
:101A5300800FF4043D14501408E6447FF618768092
:101A6300E418F618F6D0E0FCD0E0FD22CCD313CC7A
:101A7300FD18E4C6CBC0E018E4C6CAC0E00808ED10
:101A830008C633E613F618E433C675F003C3CA97E2
:101A9300CA09CB97CB199C40047D08802EBD000357
:101AA300021B6216B6FF050606081618C3CA33CA18
:101AB300CB33CB33CA27CA09CB37CB193CC37D08F9
:101AC300803E187D0820E75CC633C6CA33CACB33D1
:101AD300CB33DDF1D5F0EB30E77BCA97CA09CB975F
:101AE3004ACB199C406F4B7025E620E02180661895
:101AF3007D08C3CA97CA09CB97CB199CD3C633C6F3
:101B0300CA33CACB33CB3350C9DDE7D5F0E1D3E4D5
:101B1300C636C608C636C608C636C608C636C6188A
:101B230018188031C3CA97CA09CB97CB199CB34005
:101B330097C633C6CA33CACB33CB33DD34D5F02E85
:101B4300C6A2E0C640C8CA27CA09CB37194A70BE25
:101B5300CB3CB480B90808E63308E633601F181895
:101B630018D0E0FAD0E0FBD0E0FCD0E0FD22187DF5
:101B730008CA27CA09CB37CB193CD3808013F61880
:101B8300E4B67F11F618B6FF0EF618C60470D20835
:101B930008768080CAF618F618F680C5080808EAA1
:101BA300C0E0EBC0E086F0E7A4FA180986F0E7A4EA
:101BB3002AFA180986F0E7A42AFA180986F0E7A496
:101BC3002AFA1986F0E7A4FBE5F02AFA190886F049
:101BD300E7A42BFBE5F03AFA190886F0E7A42BFB00
:101BE300E5F03AFA18180986F0E7A4C5F02BFBE4F0
:101BF3003AFA1908E7C5F0C6A426F6E5F03BFBE47C
:101C03003AFA1886F0E7A4F6E5F00826F6E43B086E
:101C1300F6E43A08F6D0E0FBD0E0FA22E4CFC0E0E5
:101C2300E4CEC0E0E4CDC0E0E4CCC0E075F020C376
:101C3300E633F608E633F608E633F608E633F61835
:101C43001818EC33FCED33FDEE33FEEF33FFC3EC3A
:101C53009709ED9709EE9709EF97191919400FFFA7
:101C6300EC97FC09ED97FD09EE97FE191906D5F0DF
:101C7300BEECF709EDF709EEF709EFF7191919D0DB
:101C8300E0FCD0E0FDD0E0FED0E0FF22181818E41D
:101C9300C396F608E496F608E496F608E496F62268
:101CA3006016080808C6C313C618C613C618C61399
:101CB300C618C613C6D5E0EA2270090808082260D0
:101CC30016181818C6C333C608C633C608C633C6A3
:101CD30008C633C6D5E0EA22E627F60809E637F652
:101CE3000809E637F60809E637F622E026F608A3E0
:101CF300E036F608A3E036F608A3E036F622E0263F
:101D0300F008A3E036F008A3E036F008A3E036F0CD
:101D130022C3E697F60809E697F60809E697F60858
:101D230009E697F622C3E096F008A3E096F008A32D
:101D3300E096F008A3E096F022E657F60809E65786
:101D4300F60809E657F60809E657F622E056F608BC
:101D5300A3E056F608A3E056F608A3E056F622E001
:101D630056F008A3E056F008A3E056F008A3E056A7
:101D7300F022E066F608A3E066F608A3E066F6083C
:101D8300A3E066F622E0F608A3E0F608A3E0F6086F
:101D9300A3E0F622E6F008A3E6F008A3E6F008A322
:101DA300E6F022E0FAA3E0FBA3E0FCA3E0FD22EAD5
:101DB300F0A3EBF0A3ECF0A3EDF022CAC0E0E6F051
:101DC300A308DAFAD0E0FA22CAC0E0E0A3C582CCC5
:101DD300C582C583CDC583F0A3C582CCC582C58327
:101DE300CDC583DAE6D0E0CA22C3E498F8E499F9D2
:101DF300121E2D8026C3E49AFAE49BFBE920E7E94F
:101E0300121E2DE498F8E499F922C3E498F8E499B2
:101E1300F9121E2DE498F8E499F9C3E49AFAE49BC5
:101E2300FB22EB20E7CFE920E7E0B90010BB000875
:101E3300E88AF084F8AAF022E4FBC8FA22EB7022C5
:101E43007B10C833C8C933C9335007C39AC3DBF205
:101E530080069A50012ADBEAC833F4C8C933F4C9AF
:101E6300FA2275F008E4C833C8C933C933C99AC91B
:101E73009B5004C92AC93BD5F0ECFBC833F4C8E432
:101E8300C9FA22600D08C6A2E713C618C613C6D541
:101E9300E0F322600C08C6C313C618C613C6D5E008
:101EA300F422700422600D18C6C333C608C633C6B5
:101EB300D5E0F41822251810AF08F51840021519BB
:101EC3008008F51840021519D2AF22C0D02518108A
:101ED300AF08F518500205198008F51850020519C6
:101EE300D2AFD0D0222518F58210AF08F5184002E2
:101EF30015198008F51840021519D2AF85198322E8
:101F03002518F582E43519F58322E4732518C58273
:101F1300C0E0E51934FFC583C0E0E518C39582240A
:101F2300F810AF0885831985821880088583198581
:101F33008218D2AFCEF0A3E520F0A37808E608F02C
:101F4300A3DEFAEFF0A3E58124FAF8E608F0A3E6AE
:101F530008F0A3E608F0A30808E608F0A3E608F0F3
:101F6300A315811581D0E0FED0E0F8158115811508
:101F730081E8C0E0EEC0E0222518C582C0E0E51983
:101F830034FFC583C0E0E518C3958224F910AF0878
:101F93008583198582188008858319858218D2AFB5
:101FA300CEF0A3E520F0A37808E608F0A3DEFAEF6D
:101FB300F0A3E58124FBF8E608F0A3E608F0A30804
:101FC30008E608F0A3E608F0A315811581D0E0FE2A
:101FD300D0E0F815811581E8C0E0EEC0E022851954
:101FE30083851882E0A3FEE0A3F5207808E0A3F63A
:101FF30008DFFAE0A3FFE0A3C0E0E0A3C0E0E0A3B2
:10200300C0E0E0A3C0E0E0A3C0E010AF0885821801
:102013008583198008858218858319D2AFD083D030
:1020230082020122851983851882E0A3FEE0A3F5CD
:10203300207808E0A3F608DFFAE0A3FFE0A3C0E0FE
:10204300E0A3C0E0E0A3C0E0E0A3C0E010AF0885D8
:1020530082188583198008858218858319D2AFD0A9
:1020630083D08222C0D02518C582C0E0E51934FF91
:10207300C583C0E0E518C3958224F310AF088583B8
:10208300198582188008858319858218D2AFC8F014
:10209300A3E9F0A3EAF0A3EBF0A37908E709F0A31F
:1020A300D8FAECF0A3EDF0A3EEF0A3EFF0A3D0E0A9
:1020B300F0A3D0E0F0A3D0E0F0A3E520F0A3E5F097
:1020C300F0A322851983851882E0C0E0A3E0F9A379
:1020D300E0FAA3E0FBA37808E0F608A3DFFAE0FC4C
:1020E300A3E0FDA3E0FEA3E0FFA3E0C0E0A3E0C004
:1020F300E0A3E0F5D0A3E0F520A3E0A3F5F010AF53
:10210300088583198582188008858319858218D2EA
:10211300AFD082D083D0E0F8D0E03274048006746C
:102123000280027401C0E0F404121EE8D0E0121D24
:10213300BE227404800474028000CCC0E0EDC0E0D1
:10214300E518C39CCCAD1950011D10AF068C188D3A
:102153001980068C188D19D2AF121DCBD0E0FDD09B
:10216300E0FC22D083D082E9C0E0E493A3C386F0ED
:10217300C5F095F0F908E493A386F0C5F095F070E7
:102183000BE493A3C3994005E9048002A3E475F02B
:1021930002A42582F582E5F03583F583D0E0F9E4E6
:1021A30093A3C0E0E493C0E022D083D082ECC0E0EC
:1021B300EDC0E0E493A3FCE493A3FDED4C600D12AA
:1021C30021F8EC24FFFCED34FFFD80EFE493A3FC46
:1021D300E493A3FDED4C600D122237EC24FFFCEDDC
:1021E30034FFFD80EFD0E0FDD0E0FCE493A3C0E03A
:1021F300E493C0E022C0E0C3E4939608740193968D
:1022030018400FE493667008087401936618700011
:102213007019A3A3C3E49396087401939618A3A318
:10222300400DD0E0D0E0D0E00221E8A3A3A3A3A314
:10223300A3D0E022C0E0C0F088F0E4936670080801
:1022430074019366187000A8F0A3A3700BD0F0D0AC
:0F225300E0D0E0D0E00221E8A3A3D0F0D0E02259
:1022640074F5121F7BEAFEEBFFEE2434F8EF340022
:10227400F988088909EE2435F582EF3400F583E006
:10228400F8EE2437F582EF3400F583E0F50AEC85A7
:102294000AF0A4FCAAF0850AF0EDA42AFDE82CF8C3
:1022A400E43DF97A257B00121E2DEA850882850912
:1022B40083F05407F87401B800028004C333D8FCD7
:1022C400C0E0E0131313541FF8EE28F8EF3400F9BC
:1022D400E8245DF582E93400F583D0E0F8E0586045
:1022E40008EE2434F582EF801EEE2436F582EF34B6
:1022F40000F583E0F5F0EA84A8F0EE28F8EF340066
:10230400F9E82438F582E93400F583E0F97F040222
:10231400202774F5121F7BEAFEEBFFEE2434F582CE
:10232400EF3400F583E0C0E0EE2435F582EF3400AD
:10233400F583D0E0F08E828F83A3A3A3A3A3A3A3EA
:10234400C082C0838E828F83A3A3A3A3A3E0F8A338
:10235400E0F9D083D082E0C398F508A3E099F509A9
:10236400EE2480F582EF3400F583E064017069EEB9
:102374002481F582EF3400F583E0F8A3E0F98E823E
:102384008F83A3A3A3A3A3A3A3E0FCA3E0FD8E8256
:102394008F83A3A3A3A3A3E0FAA3E0FBC3EA9CEB6C
:1023A4009D5027C3EC98ED99402EC3EA98EB9950C1
:1023B400277CE27D07EEFAEFFB120A95EE2480F506
:1023C40082EF3400F583E4F0800EC3EA98EB994081
:1023D400E0C3EC98ED9950D9EE2434F8EF3400F9C9
:1023E400E8FCE9FDEE2435F582EF3400F583E0F8EE
:1023F400EE2437F582EF3400F583E0F50AE508852D
:102404000AF0A4F508AAF0850AF0E509A42AF5095A
:10241400E82508F8E43509F97A257B00121E2DEA2F
:102424008C828D83F05407F87401B800028004C3D1
:1024340033D8FCC0E0E0131313541FF8EE28F8EF70
:102444003400F9E8245DF582E93400F583D0E0F83E
:10245400E0586008EE2434F582EF801EEE2436F551
:1024640082EF3400F583E0F5F0EA84A8F0EE28F872
:10247400EF3400F9E82438F582E93400F583E0F913
:102484001228000223110000851A87851BC622C06A
:10249400E0C0D0E8C0E0E9C0E0EAC0E0EBC0E0ECB6
:1024A400C0E0EDC0E0C008C009C00AC00BC082C0D3
:1024B40083C0F0759B00906182E0A2E64003022590
:1024C40071E591A2E640030225717591BF900499CC
:1024D400E064057008120C0F120C1B8003120C151B
:1024E400751A00120C75E990049AF07900120C57D1
:1024F400120A057A017B00900498E0F9120F5D90AE
:102504007803E0644260030225BA900817E014F0EF
:1025140060030225BAC2AF12251E00781DD0E0F672
:1025240018D0E0F6E59F5407F970059087D680032C
:102534009087CE7808121D88E9C4C0E0781CE6555F
:1025440008F50808E65509F509740B7808121E9673
:10255400D0E02508F8906270E0A2E740F8E8C333C1
:10256400906272F0906270E0D2E0F08049E0A2E5FF
:102574005024E591A2E5501E7591DF900499E06422
:102584000D70139004BBE004F064287002E4F07A48
:1025940000E0F9120D05906181E0A2E35009E5E93C
:1025A400A2E3500375E9F7A3E0A2E75009E591A27D
:1025B400E7500375917FD0F0D083D082D00BD00A3E
:1025C400D009D008D0E0FDD0E0FCD0E0FBD0E0FAA8
:1025D400D0E0F9D0E0F8D0D0D0E032C0E0C0D0C034
:1025E40082C083906183E0A2E05009E5BFA2E0507D
:1025F4000375BFFEE0A2E15009E5BFA2E1500375F7
:10260400BFFDE0A2E25009E5BFA2E2500375BFFBA3
:10261400E0A2E35009E5BFA2E3500375BFF7E0A2CF
:10262400E45009E5BFA2E4500375BFEFE0A2E55012
:1026340009E5BFA2E5500375BFDFE0A2E65009E556
:10264400BFA2E6500375BFBFD083D0828088C0E0AC
:10265400C0D0E8C0E0E9C0E0EAC0E0EBC0E0ECC014
:10266400E0EDC0E0C0F0E5A7A2E6500FE5A1A2E6C8
:10267400500953A7BF75A1BF1226B7E5A7A2E5501D
:102684000CE5A1A2E5500653A7DF75A1DFE5A7A2DB
:10269400E15009E5A1A2E1500375A1FDE5A7A2E27D
:1026A400500CE5A1A2E2500653A7FB75A1FBD0F0A4
:1026B4000225C874F8121F7B751A01900499E0640E
:1026C400067015120BC78A828B83A3A3A3A3A3A3AB
:1026D400E0FAA3E0FB120BFDA2AFE433FED2AF900D
:1026E400049FE0640170187A207B00900498E0F95C
:1026F400120FDB7A207B00900498E0F9120F6390AC
:102704006182E0D2E6F0900816E0602185C61B8065
:102714001690049EE064017008E5C654F84405F57B
:10272400C653BEFC12248C7401651A60E4EEA2E068
:1027340092AF7F0102202774F1121F7B8A088B0954
:102744008C0A8D0B740F121F03780C121D8890884D
:10275400167808121D4F908816780C121D4F7808B1
:10276400790C12139450157808790C121D14908763
:10277400A678081213B4401579018013780C7908EF
:10278400121D149087A6780C1213B440EB79007FC5
:102794000802202774ED121F7B8A088B098C0A8D8E
:1027A4000B7413121F03780C121D88908816780876
:1027B400121D4F908816780C121D4F780C79081250
:1027C400139440117808790C121D14AA08AB09ACB3
:1027D4000AAD0B8022751000751100751200751377
:1027E400017810790C121D1478107908121CDBAAD8
:1027F40010AB11AC12AD137F0C022027C082C08332
:10280400E9906000F0D083D08222C0E074F21220FC
:1028140067A2AFE433FED2AFC2C0E5D1A2E4500652
:1028240053D1EF121221EEA2E092AF7F010220C633
:10283400C0E074F2122067A2AFE433FED2AFE589A0
:10284400A2E15003121185758900C2C5EEA2E0927F
:10285400AF7F010220C6C0E074F2122067A2AFE489
:1028640033FED2AFE58BA2E05003121185758B00C5
:10287400C2E880D8C0E0C0D0E8C0E0E5A8D2AFC2CA
:10288400C7A2E792AFD0E0F8D0D0D0E032C0E0C029
:10289400D0E8C0E0E9C0E0C008C009C082C083A29B
:1028A400AFE433F9D2AF901061E0F8A3E0687008A8
:1028B400539AFBA374018026C2E9901061E0F508E5
:1028C40074012508F074E12508F582740F3400F5CD
:1028D40083E0F5C1901061E0C394804002E4F0E924
:1028E400A2E092AFD083D082D009D008D0E0F9D052
:0728F400E0F8D0D0D0E03283
:1028FC00FFFFFFFFFFFFFFFFC082C083906190745A
:10290C0004F0A37448F0A37402F09061807440F05A
:10291C009061BC7403F09061877419F090626574D7
:10292C001BF090619C740DF090619A7433F0A37459
:10293C0055F09061A0743AF0900814E064017009AD
:10294C00C29190049D7467800590049D7461F09011
:10295C002902E493906186F09028FCE493F46027BC
:10296C00E493540FF8906185E0686012E5C65480DA
:10297C004449F5C6E59E547F644970F8E8F053C6A7
:10298C0080E59E547F70FA7905120CE7022D61C028
:10299C0082C083E5A8F853A87E906181E4F0A3F08F
:1029AC00A3F0C2BA539AFEC289759B00C2C275E9E4
:1029BC000075910075BF0075A91175B905906181FD
:1029CC00F0A374C0F0A3E4F0D2BA439A0174805817
:1029DC0042A8022D61C082C08374F8121EB8900404
:1029EC009BE0F8A3E0F9E8497003022B0F90049BDD
:1029FC00E0544060237908851882851983AA82AB3C
:102A0C0083120B07851882851983AA82AB83120760
:102A1C00EF90049BE054BFF0E054806010790C7A86
:102A2C00387B08120B0790049BE0547FF0E0A2E087
:102A3C00503190619A7433F0A37455F09061A07486
:102A4C003AF0900814E064017009C29190049D74EE
:102A5C0067800590049D7461F01207F590049BE06B
:102A6C0054FEF0E05402603190619A743FF0A3740C
:102A7C005AF09061A0747FF0900814E06401700922
:102A8C00D29190049D7471800590049D746AF0122B
:102A9C0007F590049BE054FDF0E05404601390297A
:102AAC0000E493906186F01207FB90049BE054FBCA
:102ABC00F0E054086013902901E493906186F012C1
:102ACC0007FB90049BE054F7F0E05410601390293E
:102ADC0002E493906186F01207FB90049BE054EFA4
:102AEC00F0E05420600A1207FB90049BE054DFF0E6
:102AFC00A3E05401600D120A1112080190049CE02D
:102B0C0054FEF07408121ECE022D6174EC121F0FCD
:102B1C0074F4121EB8851882851983AC82AD837546
:102B2C0083877582F27404121DCB90290093F46094
:102B3C0003022CA4907808E0C394025003022C8466
:102B4C007404121F03AC82AD837583877582647421
:102B5C0008121DCB851882851983858212858313F3
:102B6C007404121F03AC82AD83750EFF750FFF7FCB
:102B7C00FF7E00750C48750D78801574086E700317
:102B8C00022C1774096E7003022C17740A6E607B8A
:102B9C00850C82850D837808121D888C828D83A903
:102BAC0009E50AC9F8881074187808121CA3E510F6
:102BBC004508F8C3E098A3E099850C82850D8378CD
:102BCC0008121D8840188C828D8374187808121C8A
:102BDC00A3E5104508F8E0C398F8A3E0801C74182E
:102BEC007808121CA3E5104508FAE9FB8C828D834A
:102BFC00E0F8A3E0F9EAC398F8EB99F9C3E8950E6D
:102C0C00E9950F5006880E890FEEFF0EE50C240493
:102C1C00F50CE50D3400F50DEEC394135003022BA7
:102C2C008774FF650E700474FF650F60238F087442
:102C3C00027808121EA574482508F58274783509A7
:102C4C00F5837808121D88851282851383E508F0B8
:102C5C00EC24020C0CED3400FD851282851383A349
:102C6C00858212858313740C121F03E5826C70032A
:102C7C00E5836D6003022B757508017509007808F2
:102C8C001221227402121F03AC82AD837A407B0A9C
:102C9C001211617402121ECE740C121ECE7F0C0225
:102CAC001FE1C082C0839061AE7468F0A3746AF0B7
:102CBC0090624574FBF0A304F053F4FD43FE0290C4
:102CCC0008147401F09061A0E0643A90619A70234A
:102CDC007433F0A37455F09061A0743AF0740164ED
:102CEC00017009C29190049D7467802890049D74B2
:102CFC00618021743FF0A3745AF09061A0747FF04E
:102D0C00740164017009D29190049D7471800590D6
:102D1C00049D746A8000F0022D61C082C08390070C
:102D2C00F2E0640170159007F8E064016009E0704E
:102D3C000AA3E064017004790C8012900809E06425
:102D4C0001700890080FE0640160EC7900022D61BD
:102D5C00E0F9122800D083D082020122C082C08305
:102D6C009007FC7425F09007FA7401F0A3E4F07A54
:102D7C0001FB120C639007E8E02416F8A3E0340082
:102D8C00F9888289837435F0A3740AF09007F9E00E
:102D9C00640170169007F8E070107901120CC312E0
:102DAC000C93120CBD7900120CCF80A9C082C08389
:102DBC0074FA121EB89007F1E064017008120A1D33
:102DCC009007F1E4F075E1F19007E8E02415F8A321
:102DDC00E03400F9888289837401F09007F3E06491
:102DEC00017076908781C082851882851983AC82A8
:102DFC00AD83758387D0827406121DCB75D90D9067
:102E0C0007EAE0C4333354C04403F5D978E87907B2
:102E1C0088828983A3A3A3E0F5D988828983A3A898
:102E2C0082A983E864EE7003E9640770E385188275
:102E3C00851983A882A98388828983E0F5D9A3A800
:102E4C0082A9837406121F03E582687003E5836907
:102E5C0070E575E195790180027900120C69901189
:102E6C00D1747FF0A3740BF0A37485F0A3740BF0F2
:102E7C00A3747FF0A3740BF0A3747FF0A3740BF016
:102E8C00A3744FF0A3740BF0A3744FF0A3740BF066
:102E9C00A3748BF0A3740BF09011DF744FF0A37438
:102EAC000BF0A3744FF0A3740BF0A3744FF0A37446
:102EBC000BF0A3744FF0A3740BF0A3744FF0A37436
:102ECC000BF0A3744FF0A3740BF09007EAE0F97ABF
:102EDC00EB7B07120C459007FCE0F91228007901F6
:102EEC00120C6F9087FA121DA6120C879088221272
:102EFC001DA6120C517900120CDB9007E8E024148B
:102F0C00F8A3E03400F9888289837416F090049950
:102F1C007405F004022B1174F7121F0F8908A8080E
:102F2C00E875F006A4C8AAF02AF974C928FE74043E
:102F3C0039FF900801E0F97A027B08120C459008E1
:102F4C000FE0701A7900120CA59007DBE0700B797A
:102F5C00007ADC7B07120C4B8009790180F3790134
:102F6C00120CA575E1F175D923900801E0C4333337
:102F7C0054C04405F5D978FF790788828983A3A3C7
:102F8C00A3E0F5D988828983A3A882A983E8640584
:102F9C007003E9640870E375D90075D90075D90020
:102FAC0075D90075D90075D900EEF8EFF9E824044D
:102FBC00FAE93400FBE82422F582E93400F583E0D9
:102FCC00F5D988828983A3A882A983EA687002EB69
:102FDC006970E2EEF8EFF9E824031AE93400FBE833
:102FEC002426F582E93400F583E0F5D988828983BB
:102FFC00A3A882A983EA687002EB6970E2EE242B25
:10300C00F582EF3400F583E0F5D9EEF8EFF9E8241A
:10301C00021AE93400FBE8242CF582E93400F5832C
:10302C00E0F5D988828983A3A882A983EA68700213
:10303C00EB6970E2EEF8EFF9E8242EF582E9340042
:10304C00F583E0F5D988828983A3A882A983EA68ED
:10305C007002EB6970E2EEF8EFF9E82430F582E9E2
:10306C003400F583E0F5D988828983A3A882A983EB
:10307C00EA687002EB6970E2EEF8EFF9E82432F5D9
:10308C0082E93400F583E0F5D988828983A3A8828C
:10309C00A983EA687002EB6970E2EEF8EFF9E824B4
:1030AC00050A0A0AE93400FBE8245DF582E93400DC
:1030BC00F583E0F5D988828983A3A882A983EA687D
:1030CC007002EB6970E2EE2437F582EF3400F58381
:1030DC00E0541FF8EE242AF582EF3400F583E0C4A7
:1030EC003354E048F5D975E1959011D17455F0A39E
:1030FC00740BF0A3745BF0A3740BF0A3744FF0A3E8
:10310C00740BF0A3744FF0A3740BF0A3744FF0A3E3
:10311C00740BF0A3744FF0A3740BF0A37461F0A3C1
:10312C00740BF09011DF744FF0A3740BF0A3744F79
:10313C00F0A3740BF0A3744FF0A3740BF0A3744FB3
:10314C00F0A3740BF0A3744FF0A3740BF0A3744FA3
:10315C00F0A3740BF090080EE0F91228009087FA97
:10316C00121DA6120C87908822121DA6120C5190CB
:10317C00600DE4F07901120CDB9004997406F002F6
:10318C00377E74EC121F0F9007FFE0F8A3E0F58375
:10319C008882A3A37810121D88900810E0FAF875A5
:1031AC00F006A4C8ACF02CF974F728F58274043935
:1031BC00F583E0FEA3E0FFEEC333FEEF33FF8E0C8E
:1031CC00F50D750E00750F00851008851109851217
:1031DC000A85130B9087DE7808121CEE78081221F2
:1031EC001E85100885110985120A85130B7808793C
:1031FC000C121CDB7810790C121C1FE4F50EF50F69
:10320C007808790C121D148A0C750D007403780C57
:10321C00121EA57808790C121CDB908816780812FF
:10322C001D4FAA08AB09AC0AAD0B122798740412F7
:10323C001ECE8A088B09A808A909C3EE98EF9950ED
:10324C0006E82EF8E93FF9E890600EF0E9A3F0EEFD
:10325C00A3F0EFA3F090600D74C1F0022CA9C08212
:10326C00C0839007E8E0F8A3E0F5838882A3A3A3CA
:10327C00A3A3A3E4F0A3F09007FC022D5CC082C0D2
:10328C00839007FFE0F8A3E0F5838882A3A3A3A3B0
:10329C00A3A3E4F0A3F090080E022D5C02012274AB
:1032AC00F6121F0F9061D0E0F87480C398FCEA24EA
:1032BC0083F582EB3400F583E060047804800278B7
:1032CC0000E8240EF8ECC398500302342C7E0C90CA
:1032DC000818E4F0EA2477F582EB3400F583E090EB
:1032EC000819F0EA2478FCEB3400FD781A79087F91
:1032FC00028C828D83E088828983F08C828D83A3FB
:10330C00AC82AD8388828983A3A882A9831FEF70C6
:10331C00E0EA247AFCEB3400FD7F028C828D83E0A2
:10332C0088828983F08C828D83A3AC82AD83888262
:10333C008983A3A882A9831FEF70E0EA247CFCEBAD
:10334C003400FD7F028C828D83E088828983F08C2F
:10335C00828D83A3AC82AD8388828983A3A882A942
:10336C00831FEF70E0EA247EFCEB3400FD7F028CBF
:10337C00828D83E088828983F08C828D83A3AC82DA
:10338C00AD8388828983A3A882A9831FEF70E0EAAA
:10339C002475FCEB3400FD8A828B83A3A3A3A3A327
:1033AC00E0F508A3E0F5098C828D83E02508F0A3F5
:1033BC00E03509F07F028C828D83E088828983F06E
:1033CC008C828D83A3AC82AD8388828983A3A882EF
:1033DC00A9831FEF70E0EA2483F582EB3400F583B8
:1033EC00E0601975081875090878081221227C0C00
:1033FC007903120B437402121ECE7E1074012EF54B
:10340C00D975D903758218758308EEFFE0F5D9A339
:10341C001FEF70F875E1957904120C8D790180021B
:10342C00790002396074F6121F0F9061D0E0F874C5
:10343C0080C398FCEA2483F582EB3400F583E060CA
:10344C0004780480027800E8240AF8ECC39850034E
:10345C000235217508089008187401F07CE27D078C
:10346C00781979087E058C828D83E088828983F0B7
:10347C008C828D83A3AC82AD8388828983A3A8823E
:10348C00A9831EEE70E0EA2481FCEB3400FD8A82F5
:10349C008B83A3A3A3A3A3E0FEA3E0FF8C828D8365
:1034AC00E02EF0A3E03FF07E028C828D83E08882D8
:1034BC008983F08C828D83A3AC82AD8388828983CF
:1034CC00A3A882A9831EEE70E0EA2483F582EB3474
:1034DC0000F583E0601A7508187509087808122140
:1034EC00227C087903120B437402121ECE75080C51
:1034FC0074012508F5D975D903758218758308AE42
:10350C0008E0F5D9A31EEE70F875E1957904120C5C
:10351C008D79018002790002396074F7121F0FEA6D
:10352C00FEEBFF9061D0E0600302361D75D9187573
:10353C00D90375D903EEF8EFF9E82408FAE9340059
:10354C00FBE8249CF582E93400F583E0F5D9888208
:10355C008983A3A882A983EA687002EB6970E2EE02
:10356C00F8EFF9E82402FAE93400FBE824A4F58228
:10357C00E93400F583E0F5D988828983A3A882A970
:10358C0083EA687002EB6970E2EE2494F582EF3402
:10359C0000F583E5822408F8E5833400F9E0F5D9D9
:1035AC00A3E865827003E9658370F2EE2488F582E6
:1035BC00EF3400F583E5822404F8E5833400F9E068
:1035CC00F5D9A3E865827003E9658370F275E1951E
:1035DC007908EE2494FAEF3400FB120AFB7904EE1E
:1035EC002488FAEF3400FB120AFB7904120C8DEEDE
:1035FC002470F582EF3400F583E0F8A3E0F9EE24B3
:10360C0072F582EF3400F583E8F0A3E9F0790180DC
:10361C0002790002377E74F6121F0FEAFEEBFF9060
:10362C0008187406F0750818750908780812212214
:10363C007C017903120B437402121ECE75D90675E8
:10364C00D903758218758308E0F5D9A3E582641D4A
:10365C007004E583640870F075E195900499E0645A
:10366C0008701EEE2470F582EF3400F583E0F8A3A9
:10367C00E0F9EE2472F582EF3400F583E8F0A3E96B
:10368C00F0790102396074F6121F0FEAFEEBFF901D
:10369C0061D0E0705E900818740AF075081875090E
:1036AC000878081221227C017903120B4374021250
:1036BC001ECE75D90675D903758218758308E0F589
:1036CC00D9A3E582641D7004E583640870F075E18C
:1036DC0095EE2470F582EF3400F583E0F8A3E0F961
:1036EC00EE2472F582EF3400F583E8F0A3E9F0796B
:1036FC00018002790002396074F6121F0FEAFEEBAA
:10370C00FF9061D0E070667801900818740BF0900F
:10371C000499E0640770197508187509087808127F
:10372C0021227C017903120B437402121ECE780500
:10373C00740128F5D975D903758218758308E8FAD0
:10374C00E0F5D9A31AEA70F875E195EE2470F582CC
:10375C00EF3400F583E0F8A3E0F9EE2472F582EF84
:10376C003400F583E8F0A3E9F079018002790002D6
:10377C0039607F01021FE174F6121F0FEAFEEBFFA6
:10378C009061D0E0F87480C398FAEE2483F582EF50
:10379C003400F583E06004780480027800E8240BA0
:1037AC00F8EAC39850030238597D09900818740838
:1037BC00F0EE24E5F8EF3400F97A197B087C0888E0
:1037CC00828983E08A828B83F088828983A3A88292
:1037DC00A9838A828B83A3AA82AB831CEC70E0EE54
:1037EC002483F582EF3400F583E0601D75081875AD
:1037FC00090878081221227C097903EEFAEFFB12F2
:10380C000B437402121ECE7D0D74012DF5D975D9A2
:10381C00037582187583088D08E0F5D9A31508E5A2
:10382C000870F675E1957904120C8DEE2470F58212
:10383C00EF3400F583E0F8A3E0F9EE2472F582EFA3
:10384C003400F583E8F0A3E9F079018002790002F5
:10385C00396074F6121F0FEAFEEBFF9061D0E0F8AE
:10386C007480C398FAEE2483F582EF3400F583E07C
:10387C006004780480027800E82408F8EAC39850C1
:10388C000302395E7D06900818740CF09004B6E0C3
:10389C00900819F07AB77B04781A79087C028A822E
:1038AC008B83E088828983F08A828B83A3AA82AB84
:1038BC008388828983A3A882A9831CEC70E07AB9DF
:1038CC007B047C028A828B83E088828983F08A82E3
:1038DC008B83A3AA82AB8388828983A3A882A983C2
:1038EC001CEC70E0EE2483F582EF3400F583E0608D
:1038FC001D75081875090878081221227C067903B1
:10390C00EEFAEFFB120B437402121ECE7D0A740109
:10391C002DF5D975D9037582187583088D08E0F5D6
:10392C00D9A31508E50870F675E1957904120C8D8C
:10393C00EE2470F582EF3400F583E0F8A3E0F9EEA5
:10394C002472F582EF3400F583E8F0A3E9F07901F5
:10395C00800279007F02021FE174F6121F0FEAFE4B
:10396C00EBFF9061D0E0F87480C398FAEE2483F5F5
:10397C0082EF3400F583E06004780480027800E87C
:10398C002404F8EAC3985003023A3F7802900818CE
:10399C00E8F0EE24F7F582EF3400F583E090081997
:1039AC00F0EE2483F582EF3400F583E0601B75089C
:1039BC001875090878081221227C027903EEFA1294
:1039CC000B437402121ECE7806740128F5D975D9F2
:1039DC00037582187583088808E0F5D9A31508E5E6
:1039EC000870F675E195EE2474F582EF3400F583DA
:1039FC00E4F0EE2480F582EF3400F583E4F0EE245D
:103A0C001DF582EF3400F583E4F0A3F07904120C79
:103A1C008DEE240DF582EF3400F583E0F8A3E0F988
:103A2C00EE2472F582EF3400F583E8F0A3E9F07927
:103A3C00018002790002396074F6121F0F9061D078
:103A4C00E0F87480C398FCEA2483F582EB3400F52B
:103A5C0083E06004780480027800E82404F8ECC366
:103A6C0098405B79029008187407F0EA24F8F58204
:103A7C00EB3400F583E0900819F0EA2483F582EB2F
:103A8C003400F583E0601875081875090878081279
:103A9C0021227C0209120B437402121ECE79067489
:103AAC000129F5D975D903758218758308E9F8E0F1
:103ABC00F5D9A318E870F875E195790180027900C1
:103ACC0002396074F5121F0FE9FCA2AFE433F50A5A
:103ADC00C2AF7D0080010DEA246FF582EB3400F556
:103AEC0083E0F8EDC398501A8D08EA2508F8EB34FA
:103AFC0000F9E8246BF582E93400F583E06C70D6AC
:103B0C008024EA246FF8EB3400F9E0FEEA2EFAEB9D
:103B1C003400FBEA246BF582EB3400F583ECF0887F
:103B2C00828983E004F0E50AA2E092AF7F03021FD2
:103B3C00E174F6121F0FA2AFE433FDC2AFEA246F9B
:103B4C00F582EB3400F583E014F07C0060368C08D1
:103B5C00EA2508F8EB3400F9E8246CF582E9340026
:103B6C00F583E0C0E0E8246BF582E93400F583D0FE
:103B7C00E0F00CEA246FF582EB3400F583E0F8EC0E
:103B8C00C39840CAEA246EF582EB3400F58374FFC7
:103B9C00F0EA246AF582EB3400F583E4F0EDA2E060
:103BAC0092AF023960C082C083E5A8F8C2AFEA24A4
:103BBC006BF582EB3400F583E9F0EA246AF582EBCD
:103BCC003400F583E4F0E8A2E792AF022D6174F3C0
:103BDC00121F0FEAFEEBFFECFAEDFB8A828B83A33C
:103BEC00A3A3A3E0541FF0EE2436F582EF3400F5C6
:103BFC0083E4F0F50AEEFCEFFD8A828B83E0C0E0F3
:103C0C00EC245DF582ED3400F583D0E0F0750B000B
:103C1C00E50A33333354F8F50C8A828B83E0F508CC
:103C2C00750900E50B7808121E86E508A2E0502FF6
:103C3C00EE2436F8EF3400F988828983E0F508EE3B
:103C4C002508F508EF3400F509E5082438F582E578
:103C5C00093400F583E50CF088828983E004F005D3
:103C6C000B050CE50BC3940840AF050A8A828B83C5
:103C7C00A3AA82AB838C828D83A3AC82AD83E50A2D
:103C8C00C394055003023C057F05021FE174F71233
:103C9C001F0F9004C5E0640370077A007B000237A5
:103CAC007E7B0078C5790488828983A3A3A3A3A310
:103CBC00A3E06003023F93EBF875F006A4C8AAF0EA
:103CCC002AF974C928F8740439F988828983A3A362
:103CDC007401F088828983A3A3A3E4F0EB88828922
:103CEC0083A3A3A3A3F0E82462F582E93400F5834F
:103CFC007401F0E82465F582E93400F583E4F0A35F
:103D0C00F0E82468F582E93400F5837401F08882C8
:103D1C008983A3A3A3A3A3E4F0A3F088828983A33C
:103D2C00A3A3A3A3A3A3F0A3F0E8240FF582E93483
:103D3C0000F5837401F0E82435F582E93400F5834D
:103D4C00E4F09087E6121DA6E82418F582E9340009
:103D5C00F583121DB2E8241CF582E93400F583E4E6
:103D6C00F0E8241DF582E93400F583E4F0A3F0E8D3
:103D7C002480F582E93400F583E4F0E82474F582BC
:103D8C00E93400F583E4F0E82469F582E93400F5C0
:103D9C00837480F0E8246AF582E93400F583E4F05A
:103DAC00E8246FF582E93400F583E4F0E82467F544
:103DBC0082E93400F583E4F0E824EDF582E934007F
:103DCC00F583E4F0E824EEF582E93400F583E4F0C1
:103DDC00E824EFF582E93400F583E4F0E824F0F50B
:103DEC0082E93400F583E4F0E824F1F582E934004B
:103DFC00F583E4F0A3F0E824F3F582E93400F583CD
:103E0C00E4F0A3F0E824F6F582E93400F583E4F05D
:103E1C00E82483F582E93400F583E4F0E824D3F553
:103E2C0082E93400F583E4F0E824D4F582E9340027
:103E3C00F583E4F09087E6121DA6E824D5F582E917
:103E4C003400F583121DB29087E6121DA6E824D922
:103E5C00F582E93400F583121DB2E824DFF582E91E
:103E6C003400F583E4F0E824E1F582E93400F583CD
:103E7C00E4F0E824DDF582E93400F583E4F0E8248D
:103E8C00E2F582E93400F583E4F0E824E3F582E915
:103E9C003400F583E4F0E824F9F582E93400F58385
:103EAC00E4F0A3F0E824FBF582E93400F583E4F0B8
:103EBC00A3F0E824FDF582E93400F583E4F0A3F0E7
:103ECC00E824FFF582E93400F583E4F0A3F0E8FA86
:103EDC00E9FBEA2404FCEB3400FDEA246BF582EBED
:103EEC003400F58374FFF08A828B83A3AA82AB83A0
:103EFC00EC6A7002ED6B70E2E8FAE9FB7CE27D079C
:103F0C008C828D83E0C0E0EA245DF582EB3400F511
:103F1C0083D0E0F08C828D83A3AC82AD838A828BBC
:103F2C0083A3AA82AB83EC64E77003ED640770D0C3
:103F3C00E8FAE9FB7CAC7D048C828D83A3E0C0E0C5
:103F4C00EA24E5F582EB3400F583D0E0F08C828D29
:103F5C0083A3AC82AD838A828B83A3AA82AB83ECCE
:103F6C0064B47003ED640470CF9004C5E004F06495
:103F7C0001700D88828983A3A3A3A3E09004C7F0EA
:103F8C00E8FAE9FB023CAA0BE82406F8E93401F94B
:103F9C00EBC394034003023CA6023CB3C082C08333
:103FAC008A828B83A3A3A3E0600F8A828B83A3A353
:103FBC00A3E4F09004C6E014F09004C5E014F07093
:103FCC00069004C774FFF08A828B83A3A3E4F0905D
:103FDC0007E7E0700D9004C6E064017005790012EB
:103FEC000C57022D61C082C08378C5790488828900
:103FFC0083A3A3A3A3A3A3A3E4F088828983A3A38D
:10400C00A3A3A3A3F0E82406F8E93401F9E864D7E4
:10401C007003E9640770D69004C5E4F0A3F0A374B0
:10402C00FFF075E1F1022D6174F3121F0F7508009A
:10403C00750900750C00750AC9750B04AE0AAF0B37
:10404C008E828F83A3A3A3E0603FE5084509700A25
:10405C00EEF8EFF988088909802F85088285098395
:10406C00E0F8A3E0F5838882A3A31221358E828F1A
:10407C0083E0F8A3E0F5838882A3A3121DA6122780
:10408C003B7404121ECEE960C7050CEE2406F50A3B
:10409C00EF3401F50BE50CC3940340A08508828531
:1040AC000983A3A3A3A3E0F9023C9474F6121F0F97
:1040BC0078FF79FF7508007EC97F04EEFCEFFD8C5C
:1040CC00828D83A3A3A3E0606474FF68700374FF04
:1040DC00697025EC2474F582ED3400F583E06401FD
:1040EC007011EC247AF582ED3400F583E0F8A3E04E
:1040FC00F9803AEC242E80EDEC2474F582ED34003A
:10410C00F583E064017014EC247AF582ED3400F54B
:10411C0083C3E098A3E099501480C7EC242EF58259
:10412C00ED3400F583C3E098A3E09940C60508EE92
:10413C002406FEEF3401FFE508C39403500302404C
:10414C00C7C3EA98EB994004E8FAE9FB02396074BA
:10415C00F6121F0FEAFEEBFF8E828F83A3A3A3E060
:10416C00600F8E828F83A3A3A3E4F09004C6E014A7
:10417C00F09004C5E014F070069004C774FFF08E44
:10418C00828F83A3A3E4F09007E7E0700D9004C640
:10419C00E0640170057900120C57EE2465F582EF8E
:1041AC003400F583E0F8A3E0F9E8496029EE2465D2
:1041BC00F8EF3400F9880889098882F583E0FCA3BC
:1041CC00E0FD9004C7E0FA7B001208258508828583
:1041DC000983E4F0A3F0EEFAEFFB120BC102396095
:1041EC0074F7121F0FEAFEEBFF8E828F83A3A3A33B
:1041FC00A3E0FA7B0012086DEEFAEFFB120AB9127B
:10420C000BA302377EC082C0837C007AC97B04EA90
:10421C00F8EBF988828983A3A3A3E0601EE8246FDE
:10422C00F582E93400F583E06011E8246BF582E94E
:10423C003400F583E07004790180110CEA2406FA4D
:10424C00EB3401FBECC3940340C57900022D61C033
:10425C0082C08378AC790488828983A3E4F0888255
:10426C008983A3A882A983E864B47003E964047009
:10427C00E69004AD7401022D22C082C08374FC123E
:10428C001EB89087E6121DA6851882851983121D0B
:10429C00B2120B01E9851882851983F0120B017497
:1042AC0001121F03E9F0120B017402121F03E9F053
:1042BC00851882851983121DA67404022B1174F6BD
:1042CC00121F0FEAFEEBFFEC2403F8ED3400F98823
:1042DC00088909EC2407F8ED3400F9E8FCE9FD8CB9
:1042EC00828D83E0F8A3E0F9850882850983E0FAE2
:1042FC00A3E0FB121E2DEE240DF582EF3400F583A6
:10430C00E8F0A3E9F08C828D83E0F8A3E0F985084E
:10431C0082850983E0FAA3E0FB121E2D8B09EA4586
:10432C00096013EE240DF582EF3400F583E02401CF
:10433C00F0A3E03400F002396074F6121F0FEAFEAD
:10434C00EBFFEE242EF582EF3400F583E0FCA3E0C6
:10435C00FD780079FAECFAEDFB121E2DEE2470F5C7
:10436C0082EF3400F583E8F0A3E9F0780079FAECF9
:10437C00FAEDFB121E2D8B09EA45096013EE247031
:10438C00F582EF3400F583E02401F0A3E03400F073
:10439C0002396074F0121F0FEAFEEBFF7410121F4B
:1043AC00037808121D88120C278A0C8B0D8C0E8D2D
:1043BC000F9087DA780C121CEE908816780C121D70
:1043CC004F780C12211E8E828F83E0F8A3E0F583C8
:1043DC008882A3A3121DA612273B7404121ECEE9D9
:1043EC0060030244EC8E828F83E02402F8A3E03455
:1043FC0000F9E8FAE9FB8A828B837808121D019098
:10440C0088167808121D888A828B837808121D62A0
:10441C00EE240BF582EF3400F583C082C0838E82CC
:10442C008F83A3A3A3A3A3E02401F8A3E03400F992
:10443C00D083D082E0687003A3E069700579010233
:10444C0044EE8E828F83A3A3A3A3A3A3A3E0240192
:10445C00F0A3E03400F0EE2474F582EF3400F58321
:10446C00E064017036EE2475F582EF3400F583E0DC
:10447C00F8A3E0F98E828F83A3A3A3A3A3A3A3E045
:10448C00687003A3E0697013EE2475F582EF3400B5
:10449C00F583E02401F0A3E03400F0EE2480F582F3
:1044AC00EF3400F583E064017036EE2481F582EF81
:1044BC003400F583E0F8A3E0F98E828F83A3A3A3E5
:1044CC00A3A3A3A3E0687003A3E0697013EE248197
:1044DC00F582EF3400F583E02401F0A3E03400F022
:1044EC0079007F08021FE174F7121F0F9004C7E0D8
:1044FC00F875F006A4C8AAF02AF974C928FE740449
:10450C0039FF8028EE2465F8EF3400F9888289831E
:10451C00E0FCA3E0FD88828983E4F0A3F08E828F17
:10452C0083A3A3A3A3E0FA7B00120825EE2465F570
:10453C0082EF3400F583E0F8A3E0F9E849604FEE30
:10454C002464F582EF3400F583E0F5087808122135
:10455C0026EE2463F582EF3400F583E0F9EE246552
:10456C00F582EF3400F583E0FCA3E0FDEEFAEFFBFF
:10457C00120AEF7401121ECEE96089EE2465F582F1
:10458C00EF3400F583E0F8A3E0F9E84970137C0000
:10459C007D008E828F83A3A3A3A3E0FA7B00120875
:1045AC002502377E74F2121F0FEAFEEBFF890A74A4
:1045BC000E121F03E0FAEE2462F582EF3400F5834D
:1045CC00E06401600302467C9061D0E0F87480C323
:1045DC0098F50CEE2483F582EF3400F583E060044B
:1045EC007804800278008908E928F8E43400F9E8B6
:1045FC0024020808E93400F9E50C98E499A2D26584
:10460C00D0334068EA7005750B028003750B01E02E
:10461C00603975090078081221227A187B08120B70
:10462C00257402121ECE7508187509087808122117
:10463C0022AC0AA90BEEFAEFFB120B437402121E0A
:10464C00CE7404250AF50A7C187D087401250AF538
:10465C00D9850BD9E50A600D8C828D83F8E0F5D9EC
:10466C00A318E870F875E195790080067907800247
:10467C0079FF7F06021FE1C082C083E960208C8233
:10468C008D83E08A828B83F08C828D83A3AC82AD88
:10469C00838A828B83A3AA82AB8319E970E0ECFA3C
:1046AC00EDFB022D61C082C083786979088882890C
:1046BC0083A3A3A3A3A3A3E4F088828983A3A3A3C6
:1046CC00A3A374FFF0E82418F8E93400F9E864C9EE
:1046DC007003E9640870D690086B74FFF090086A58
:1046EC00E4F0900869F090086CF0A3F0025DD974C6
:1046FC00EC121F0F90086CE0F508A3E0F509E50833
:10470C0045097006120A050253A88508828509839B
:10471C00E014601814601524FE601124C4700302A8
:10472C004E6A24C07003024E6A0253A8E0F9120BC1
:10473C00B58A0A8B0BAE0AAF0B9004C6E07003026D
:10474C004AE8120AADE9F875F006A4C8AAF02AF9ED
:10475C0074C928F50C740439F50D850C82F583E0C9
:10476C00F50AA3E0F50BAC0AFDEEFAEFFB120BAF6A
:10477C00E9F50E7402650E7003024AA78E828F83D0
:10478C00E024FE600A24FE700302499F0253A8EE47
:10479C0065087003EF65096021120A239007F9E0A0
:1047AC00640170169007F8E070107901120CC312B6
:1047BC000C93120CBD7900120CC9E50E6021E508B2
:1047CC002415F582E5093400F583E060129007F4B6
:1047DC00E0F8A3E0F9A3E0687003A3E06970261287
:1047EC000C278A0C8B0D8C0E8D0F9087B2780C12C7
:1047FC001CEE908816780C121D4F8E828F83A3A30B
:10480C00780C121D97E5082415F582E5093400F59E
:10481C0083E0640160030248C5850A82850B83A38B
:10482C00A3780C121D889087AE780C121CEE780CB5
:10483C0012211E8E828F83A3A3C082C0839007F6A1
:10484C00E0F508A3E085080CF50DE4F50EF50FD0A6
:10485C0083D082780C121CEEAA0CAB0DAC0EAD0FF3
:10486C0012273B7404121ECEE9703C8E828F83A3F8
:10487C00A3C082C0839007F6E0F508A3E0F509E435
:10488C00F50AF50BD083D0827808121CEE908816AE
:10489C007808121D4FEE240EF582EF3400F5837864
:1048AC0008121D97024997850A82850B83A3A3786A
:1048BC0008121D889087AE80CFEE240EF582EF345F
:1048CC0000F5831221358E828F83A3A3121DA612AD
:1048DC00273B7404121ECEE96401600302499785DC
:1048EC000A82850B83A3A3780C121D889087AE785F
:1048FC000C121CEE780C12211E8E828F83A3A3C087
:10490C0082C0839007F6E0F508A3E085080CF50D4E
:10491C00E4F50EF50FD083D082780C121CEEAA0CA5
:10492C00AB0DAC0EAD0F12273B7404121ECEE9700A
:10493C001F8E828F83A3A3C082C0839007F6E0F5FD
:10494C0008A3E0F509E4F50AF50BD083D0828010BA
:10495C00850A82850B83A3A37808121D889087AEE5
:10496C007808121CEE9088167808121D4FEE240E53
:10497C00F582EF3400F5837808121D979007FCE060
:10498C006427700474258002E004F090086B7402B4
:10499C000253A0EE65087003EF65096031900810B2
:1049AC00E0F9120A29850882850983E06402701EE9
:1049BC009007F9E0640170169007F8E07010790028
:1049CC00120CC3120C93120CBD7901120CC9E50E1A
:1049DC00601290080AE0F8A3E0F9A3E0687003A362
:1049EC00E0697026120C278A0C8B0D8C0E8D0F90A3
:1049FC0087B2780C121CEE908816780C121D4F8E14
:104A0C00828F83A3A3780C121D97850A82850B8352
:104A1C00A3A3780C121D889087AE780C121CEE782C
:104A2C000C12211E8E828F83A3A3C082C083900898
:104A3C000CE0F508A3E085080CF50DE4F50EF50F78
:104A4C00D083D082780C121CEEAA0CAB0DAC0EAD40
:104A5C000F12273B7404121ECEE9701F8E828F83B7
:104A6C00A3A3C082C08390080CE0F508A3E0F5096D
:104A7C00E4F50AF50BD083D0828010850A82850B71
:104A8C0083A3A37808121D889087AE7808121CEEB9
:104A9C009088167808121D4F025389850882850963
:104AAC0083E0640270139007F9E06401700B9007C7
:104ABC00F8E070057900120CC3E50C2404FEE50D3A
:104ACC003400FF8E828F83E0F9120BEB8E828F8382
:104ADC00E09004C7F0AA0AAB0B0253A5EE65087070
:104AEC0003EF65098E828F836003024CCCE024FEB9
:104AFC00600A24FE7003024C270253A1EE2415F524
:104B0C0082EF3400F583E060419007F4E0F8A3E015
:104B1C00F9A3E0687003A3E069602F120C278A08E0
:104B2C008B098C0A8D0B90882A7808121CEE780859
:104B3C0012211E8E828F83A3A3121DA612273B74F3
:104B4C0004121ECEE960030253A1120C278A088BB3
:104B5C00098C0A8D0B9087B27808121CEE9088167F
:104B6C007808121D4F8E828F83A3A37808121D978D
:104B7C00EE2415F582EF3400F583E0640170348E79
:104B8C00828F83A3A3C082C0839007F6E0F508A3AD
:104B9C00E0F509E4F50AF50BD083D0827808121CF5
:104BAC00EEEE240EF582EF3400F5837808121D9793
:104BBC000253A1EE240EF582EF3400F58312213559
:104BCC008E828F83A3A3121DA612273B7404121E80
:104BDC00CEE9640160030253A18E828F83A3A3C02C
:104BEC0082C0839007F6E0F508A3E0F509E4F50A26
:104BFC00F50BD083D0827808121CEEEE240EF582D1
:104C0C00EF3400F5837808121D979007FCE06427B9
:104C1C00700574250253A0E00480F990080AE0F8AE
:104C2C00A3E0F9A3E0687003A3E069602C120C27E1
:104C3C008A088B098C0A8D0B90882A7808121CEE36
:104C4C00780812211E8E828F83A3A3121DA6122711
:104C5C003B7404121ECEE97064EE2402F508EF34A6
:104C6C0000F509120C278A0C8B0D8C0E8D0F90877A
:104C7C00B2780C121CEE908816780C121D4F850819
:104C8C0082850983780C121D97850882850983C05B
:104C9C0082C08390080CE0F508A3E0F509E4F50A5E
:104CAC00F50BD083D0827808121CEEEE240EF58220
:104CBC00EF3400F5837808121D97120A2F0253A1C6
:104CCC00E024FE600A24FE7003024D920253A812E7
:104CDC000A239007F9E0640170169007F8E0701051
:104CEC007901120CC3120C93120CBD7900120CC971
:104CFC009007F4E0F8A3E0F9A3E0687003A3E0697F
:104D0C00602F120C278A088B098C0A8D0B90882A2D
:104D1C007808121CEE780812211E8E828F83A3A3B2
:104D2C00121DA612273B7404121ECEE96003024921
:104D3C0097EE2402F508EF3400F509120C278A0CC3
:104D4C008B0D8C0E8D0F9087B2780C121CEE908808
:104D5C0016780C121D4F850882850983780C121D5C
:104D6C0097850882850983C082C0839007F6E0F599
:104D7C0008A3E0F509E4F50AF50BD083D082780896
:104D8C00121CEE0248A1900810E0F9120A298508BD
:104D9C0082850983E06402701E9007F9E06401705B
:104DAC00169007F8E070107900120CC3120C9312D5
:104DBC000CBD7901120CC990080AE0F8A3E0F9A324
:104DCC00E0687003A3E069602C120C278A088B0939
:104DDC008C0A8D0B90882A7808121CEE7808122108
:104DEC001E8E828F83A3A3121DA612273B7404125E
:104DFC001ECEE97066EE2402F8EF3400F9880889BB
:104E0C0009120C278A0C8B0D8C0E8D0F9087B278A3
:104E1C000C121CEE908816780C121D4F850882859A
:104E2C000983780C121D97850882850983C082C07E
:104E3C008390080CE0F508A3E0F509E4F50AF50BFE
:104E4C00D083D0827808121CEEEE240EF582EF345B
:104E5C0000F5837808121D97120A2F02539B9004B9
:104E6C00C6E07003025200120AADE9F875F006A410
:104E7C00C8AAF02AF974C928F510740439F51185FB
:104E8C001082F583E0F508A3E0F5099004C7E0F87B
:104E9C0075F006A4C8AAF02AF974C928F50C740494
:104EAC0039F50D90086AE054077003025129A3E00C
:104EBC00F9120BB58A0A8B0BAE0AAF0BAC08AD0915
:104ECC00120BAFE9F50E7402650E700302512985C1
:104EDC000C82850D83A3A3A3A3E0F875F08AA4C864
:104EEC00AAF02AF974CE28F50A740839F50BAA0A27
:104EFC00FB120BDFAA0AAB0B120BD97512807513C0
:104F0C000078121221227C007D60E50A2406FAE565
:104F1C000B3401FB120B257402121ECEA80AA90B2E
:104F2C00906195E0C0E0E82486F582E93401F583D0
:104F3C00D0E0F0906196E0C0E0E82487F582E93497
:104F4C0001F583D0E0F0906197E0C0E0E82488F5AB
:104F5C0082E93401F583D0E0F0906198E0C0E0E89C
:104F6C002489F582E93401F583D0E0F08E828F83B9
:104F7C00E024FE600A24FE700302506402512912E0
:104F8C000A239007F9E0640170119007F8E0700BA8
:104F9C00120C93120CBD7900120CC9E50E60129024
:104FAC0007F4E0F8A3E0F9A3E0687003A3E06970EC
:104FBC0026120C278A0C8B0D8C0E8D0F9087B278D5
:104FCC000C121CEE908816780C121D4F8E828F835B
:104FDC00A3A3780C121D97850882850983A3A37857
:104FEC000C121D889087AE780C121CEE780C1221D6
:104FFC001E8E828F83A3A3C082C0839007F6E0F538
:10500C000CA3E0F50DE4F50EF50FD083D082780CEF
:10501C00121CEEAA0CAB0DAC0EAD0F12273B740498
:10502C00121ECEE9701F8E828F83A3A3C082C08311
:10503C009007F6E0F508A3E0F509E4F50AF50BD0C6
:10504C0083D0828010850882850983A3A3780812F7
:10505C001D889087AE024894900810E0F9120A2936
:10506C00E50E601290080AE0F8A3E0F9A3E068707E
:10507C0003A3E0697026120C278A0C8B0D8C0E8D05
:10508C000F9087B2780C121CEE908816780C121DBB
:10509C004F8E828F83A3A3780C121D97850882856F
:1050AC000983A3A3780C121D889087AE780C121C70
:1050BC00EE780C12211E8E828F83A3A3C082C08334
:1050CC0090080CE0F50CA3E0F50DE4F50EF50FD00F
:1050DC0083D082780C121CEEAA0CAB0DAC0EAD0F6B
:1050EC0012273B7404121ECEE9701F8E828F83A38D
:1050FC00A3C082C08390080CE0F508A3E0F509E496
:10510C00F50AF50BD083D08280108508828509833F
:10511C00A3A37808121D889087AE024A97E5106504
:10512C000C7004E511650D70030251F9850C828534
:10513C000D83A3A3A3E070030251DD850C82850DC2
:10514C0083A3A3A3A3E0F875F08AA4C8AAF02AF954
:10515C0074CE28FE740839FFEEFAEFFB120BDFEE6B
:10516C00FAEFFB120BD9750A80750B00780A122125
:10517C00227C007D60EE2406FAEF3401FB120B2535
:10518C007402121ECE906195E0C0E0EE2486F5828A
:10519C00EF3401F583D0E0F0906196E0C0E0EE24AE
:1051AC0087F582EF3401F583D0E0F0906197E0C091
:1051BC00E0EE2488F582EF3401F583D0E0F09061C5
:1051CC0098E0C0E0EE2489F582EF3401F583D0E05D
:1051DC00F0E5102404FEE5113400FF8E828F83E08D
:1051EC00F9120BEB8E828F83E09004C7F0AA08AB08
:1051FC00090253A590086AE0540770030253A8A350
:10520C00E0F9120BB58A088B09AE08AF098E828FB4
:10521C0083E024FE600A24FE70030252EF0253A8BE
:10522C00120A239007F9E0640170169007F8E070F9
:10523C00107901120CC3120C93120CBD7900120CD4
:10524C00C99007F4E0F8A3E0F9A3E0687003A3E0C9
:10525C0069602C120C278A088B098C0A8D0B90889C
:10526C002A7808121CEE780812211E8E828F83A3D6
:10527C00A3121DA612273B7404121ECEE97061EE18
:10528C002402F508EF3400F509120C278A0C8B0D5B
:10529C008C0E8D0F9087B2780C121CEE90881678BD
:1052AC000C121D4F850882850983780C121D978579
:1052BC000882850983C082C0839007F6E0F508A3B5
:1052CC00E0F509E4F50AF50BD083D0827808121CBE
:1052DC00EEEE240EF582EF3400F5837808121D975C
:1052EC00024997900810E0F9120A2990080AE0F890
:1052FC00A3E0F9A3E0687003A3E069602C120C270B
:10530C008A088B098C0A8D0B90882A7808121CEE5F
:10531C00780812211E8E828F83A3A3121DA612273A
:10532C003B7404121ECEE97063EE2402F8EF3400D5
:10533C00F988088909120C278A0C8B0D8C0E8D0F9D
:10534C009087B2780C121CEE908816780C121D4FB8
:10535C00850882850983780C121D9785088285093A
:10536C0083C082C08390080CE0F508A3E0F509E443
:10537C00F50AF50BD083D0827808121CEEEE240EC1
:10538C00F582EF3400F5837808121D97120A2F90DE
:10539C00086B7404F0EEFAEFFB120BA97F0C021FE2
:1053AC00E174F0121F0FEAFEEBFFEE2402F8EF346B
:1053BC0000F988088909EE2406F8EF3400F9880A08
:1053CC00890B8882F583122139850882850983121D
:1053DC001DA6120C037402121ECE850A82850B8345
:1053EC00122139850882850983121DA6120BF774C8
:1053FC0002121ECEEE240EF582EF3400F583121D40
:10540C00A6120C098E828F83E06440701CEE24126D
:10541C00F8EF3400F988828983E0906064F0888228
:10542C008983A3E09060658006906064E4F0A3F04B
:10543C0090086CEEF0A3EFF0EE2416F582EF34003A
:10544C00F583E0F8A3E0F5838882121F0D90605479
:10545C00E4F0A3F0A3F0A3F0A3F0A3F0A3F0A3F067
:10546C00A3F0A3F0A3F0A3F0906182E0C2E6F07584
:10547C0091BFEE2415F582EF3400F583E0640170E2
:10548C0003120C39E5E170FCEE2414F582EF3400C4
:10549C00F583E0F46003E0F5E1EE2415F582EF34DA
:1054AC0000F5837401F090049FE06401706F120C9E
:1054BC00278A088B098C0A8D0B780812211E8E8284
:1054CC008F83A3A3121DA61227987404121ECE8AD2
:1054DC00088B098C0A8D0B9087AA780C121D887882
:1054EC0008790C121B9F74037808121CA3E508247E
:1054FC00F4F508E5093401F509900816E06003128B
:10550C000F87E4F50AF50B780812211E7A207B0030
:10551C00900498E0F9120FCF7404121ECE7F08028B
:10552C001FE174EC121F0FEAFEEBFF8C088D09EEE5
:10553C004F70057902025623120C278A0C8B0D8CA6
:10554C000E8D0F90880A780C121CEE908816780C31
:10555C00121D4F8E828F83E06402701F9007F4E05F
:10556C00F8A3E0F9A3E0687003A3E06970248E82CD
:10557C008F83A3A3780C121D978017E0640470121C
:10558C0090080AE0F8A3E0F9A3E0687003A3E069CF
:10559C0060DC780C12211E850882850983A3A31276
:1055AC001DA61227987404121ECE8A108B118C1211
:1055BC008D139087A278101213B4400302553F85C7
:1055CC000882850983A3A37808121D889087F67832
:1055DC0008121CEE780812211E8E828F83A3A31250
:1055EC001DA612273B7404121ECEE9600302553F20
:1055FC0090879E780C121CEE780C12211E8E828FD6
:10560C0083A3A3121DA612273B7404121ECEE970AD
:10561C00047900800279010253A874F0121F0F89DB
:10562C000874FF650860030257B290086AE05407DB
:10563C007003025C7E7A007869790888828983A37A
:10564C00A3A3A3A3E064047050EA75F018A4F8A90E
:10565C00F0746F28F582740839F583E064017048A2
:10566C007A007869790888828983A3A3A3A3A3E02D
:10567C006404600302570A88828983A3A3A3A3A3AB
:10568C00A3E064017078EA75F018A4F8A9F0746EC0
:10569C0028FA740839FB025C820AE82418F8E93409
:1056AC0000F9EAC3940440937A00786979088882F7
:1056BC008983A3A3A3A3A3E064017057EA75F01830
:1056CC00A4F8A9F0746F28F582740839F583E064A6
:1056DC0001704F7A007869790888828983A3A3A323
:1056EC00A3A3E06401600302578E88828983A3A37D
:1056FC00A3A3A3A3E06401600302578E80880AE889
:10570C002418F8E93400F9EAC394045003025672E1
:10571C00025C7E0AE82418F8E93400F9EAC3940420
:10572C00408C7A007869790888828983A3A3A3A323
:10573C00A3E064027061EA75F018A4F8A9F0746F24
:10574C0028F582740839F583E0640170597A007881
:10575C0069790888828983A3A3A3A3A3E064027058
:10576C007A88828983A3A3A3A3A3A3E06401706BAB
:10577C00EA75F018A4F8A9F0746E28FA740839FBCD
:10578C00806F0AE82418F8E93400F9EAC39404504D
:10579C00030256E5025C7E0AE82418F8E93400F9A5
:1057AC00EAC3940440827A007869790888828983F4
:1057BC00A3A3A3A3A3E06508703D88828983A3A358
:1057CC00A3A3A3A3E06401702EEA75F018A4F8A9B2
:1057DC00F0746E28FE740839FF802F0AE82418F83C
:1057EC00E93400F9EAC39404500302575F7A007B52
:1057FC0000025C82025C7E0AE82418F8E93400F9A5
:10580C00EAC3940440A67E007F007A007869790888
:10581C0088828983A3A3A3A3A3E06508701BEA7500
:10582C00F018A4F8A9F0746F28F582740839F58380
:10583C00E0640170137A0180110AE82418F8E93445
:10584C0000F9EAC3940440C87A00E50814600F1408
:10585C007003025A1B24FE7003025B7580967B005A
:10586C007869790888828983A3A3A3A3A3E064023F
:10587C007055EB75F018A4F8A9F0746F28F58274C4
:10588C000839F583E06401704D7B007869790888EC
:10589C00828983A3A3A3A3A3E064026003025951EA
:1058AC0088828983A3A3A3A3A3A3E064016003025A
:1058BC005951EB75F018A4F8A9F0746E28F50A7418
:1058CC000839F50B0259690BE82418F8E93400F98A
:1058DC00EBC39404408E7B007869790888828983B5
:1058EC00A3A3A3A3A3E0640460030259A5EB75F082
:1058FC0018A4F8A9F0746F28F582740839F583E0C0
:10590C00640160030259B77B007869790888828941
:10591C0083A3A3A3A3A3E0640460030259C28882F7
:10592C008983A3A3A3A3A3A3E0640160030259C2C8
:10593C00EB75F018A4F8A9F0746E28F50A74083900
:10594C00F50B0259DA0BE82418F8E93400F9EBC32B
:10595C009404500302589B750A00750B00EAA2E0F0
:10596C004003025A0D850A82850B83A3A3780C127F
:10597C001D889087FE780C121CEE780C12211E8E5E
:10598C00828F83A3A3121DA612273B7404121ECE72
:10599C00E9706EEEFAEF0256A10BE82418F8E93420
:1059AC0000F9EBC3940450030258E8EAA2E0505803
:1059BC00EEFAEFFB80560BE82418F8E93400F9EB0B
:1059CC00C394045003025919750A00750B00EAA21E
:1059DC00E0502E850A82850B83A3A3780C121D88B8
:1059EC009087FE780C121CEE780C12211E8E828F82
:1059FC0083A3A3121DA612273B7404121ECEE960CA
:105A0C0092AA0AAB0B025C827A007B00025C827B5E
:105A1C00007869790888828983A3A3A3A3A3E0648F
:105A2C00047052EB75F018A4F8A9F0746F28F58285
:105A3C00740839F583E06401704A7B007869790851
:105A4C0088828983A3A3A3A3A3E064046003025AFE
:105A5C00E988828983A3A3A3A3A3A3E06401707D37
:105A6C00EB75F018A4F8A9F0746E28F50A740839CF
:105A7C00F50B025B010BE82418F8E93400F9EBC3D1
:105A8C00940440917B007869790888828983A3A368
:105A9C00A3A3A3E064016003025B3DEB75F018A4C3
:105AAC00F8A9F0746F28F582740839F583E0640165
:105ABC006003025B4F7B007869790888828983A335
:105ACC00A3A3A3A3E064016003025B5A88828983C9
:105ADC00A3A3A3A3A3A3E06401707380830BE824A6
:105AEC0018F8E93400F9EBC394045003025A4C75CE
:105AFC000A00750B00EAA2E04003025A0D850A82E7
:105B0C00850B83A3A3780C121D889087FE780C124A
:105B1C001CEE780C12211E8E828F83A3A3121DA65D
