:020000040000FA
:06000000020107021DE3EE
:03002B0002207C34
:0300330002205E4A
:03003B000220960A
:0300430002201286
:03005300021E5634
:03006B0002203838
:10008300021C97E5C754F84401F5C7790122000023
:100093000080FB120086B900030200F1E4791A78AC
:1000A30002B800028004F709D8FCE4791C7802B88E
:1000B30000028004F709D8FCE490028178AB790F41
:1000C3008002F0A3D8FCD9FA7A2B7B119001377800
:1000D300D279018015E493A3AD82AE838A828B83A8
:1000E300F0A3AA82AB838D828E83D8E9D9E7758288
:1000F300A975837F74001201197582917583007449
:100103000012011975D00075813F751881751902A8
:10011300759F00020096C09FF59FE473D09F22D085
:1001230083D082C09FE493C0E0740193C0E0740263
:1001330093F59F229403A603D0039A03FF0000B410
:10014300000028002800283075A000A000A000A00F
:100153000000080008E001F000100010001000107B
:10016300001000100050005000500010001000D08C
:10017300070000000000000F0001000500307507B4
:10018300001000010081FF0000FF02020249880104
:1001930000003088024B880100008111024588016C
:1001A3000000B102024B880100008211023F880166
:1001B3000000C702FFFF0100FF2002498801000081
:1001C3002A88024B88010000B011024D880000000C
:1001D3000000024F88030000A403080B080B080B60
:1001E300080B080B080B080B080B080B080B080B74
:1001F300080B080BD60CF40CD00C01E803053F10D8
:1002030002FFFFFF00120122ACCE03120122C2CE75
:1002130003120122EFCE031201221FCF0312012288
:1002230036CF0312012257CF0312012288CF0312C4
:100233000122D9CF03120122F0CF0312012282C877
:100243000312012299C803120122C8C80312012212
:1002530001C90312012229C90312012257C903123A
:1002630001226EC90312012285C9031201229BC90F
:1002730003120122C2C903120122D5C903120122AA
:10028300EBC90312012213CA0312012294C50212FD
:10029300012293C602120122BDC60212012212C715
:1002A3000212012233C7021201224CC70212012299
:1002B3004EC7021201226FC70212012272C8021234
:1002C30001222FC902120122FCC90212012260CAB3
:1002D30002120122F7CA02120122FACA02120122F1
:1002E30080CB02120122C3CB0212012215CC0212CF
:1002F300012218CC021201224FCC0212012276CC29
:10030300021201220CCD0212012295CD021201220A
:10031300DECD02120122EBCD02120122EECD02123A
:1003230001224CCE0212012264CE02120122DECE41
:1003330002120122E1CE0212012204CF0212012293
:1003430007CF02120122AECF02120122D1CF021235
:100353000122E9CF0212012219D00212012226D072
:100363000212012229D00212012295D00212012287
:1003730083D10212012239D2021201224CF401125A
:10038300012227F50112012255F501120122D5F5AB
:1003930001120122F5F50112012233F601120122A5
:1003A30086F601120122EEF6011201227FF70112F5
:1003B30001224AF80112012259FB01120122C5FC54
:1003C30001120122E8FC0112012270FC0212012237
:1003D30001FE0212012252FE02120122B1FE02129A
:1003E3000122BFFE02120122E8FE02120122A7909F
:1003F30003120122CF9003120122FD900312012266
:100403003491031201229C9103120122E5910312FC
:1004130001223092031201226E9203120122AB9247
:1004230003120122D99203120122809303120122A3
:100433008A9303120122979303120122CA93031290
:1004430001228C9403120122989403120122B09486
:1004530003120122BA9403120122389503120122D6
:1004630032D40312012240D40312012258D40312BE
:10047300012270D40312012288D4031201227E8E3A
:10048300021201221C8F02120122948F02120122F6
:10049300A99002120122E390021201228C9102120E
:1004A3000122619202120122C593021201221C94BD
:1004B30002120122A394021201228A95021201223E
:1004C300D795021201226596021201228996021221
:1004D30001225E98021201229F9802120122C19802
:1004E300021201228699021201224C9A021201225F
:1004F300819C0212012284B3031201229AB30312D4
:100503000122C0B303120122E8B403120122F2B4A0
:10051300031201224BB6031201224BB7031201222D
:10052300509A03120122F29A03120122259B03120D
:1005330001226F9B03120122299D031201227DC315
:1005430001120122FBC3011201220BC40112012279
:10055300EEC401120122F8C40112012226C50112C0
:10056300012231C5011201220AC6011201226CC601
:100573000112012208C7011201220CC90112012232
:10058300C3CA011201223FCB011201221CCC01126A
:1005930001224ACF01120122E8CF0112012245D1E3
:1005A30001120122B8D20112012261D301120122E8
:1005B300AAD301120122E1D30112012286D401122E
:1005C300012204D5011201224AE5011201229FE50D
:1005D30001120122E4E601120122F4E601120122D2
:1005E30017E70112012262E70112012207E8011253
:1005F3000122FDE801120122C7E9011201223FEBAA
:100603000112012281EB011201221FEC01120122CE
:1006130045EC0112012233EE0112012238EE0112E0
:10062300012219F0011201226DF001120122CFF013
:1006330001120122F7F0011201229BF101120122A2
:100643005DF2011201228EF20112012291F20112D6
:100653000122D9F2011201221BF30112012282F3BA
:10066300011201222DC40312012240C403120122EC
:1006730049C40312012262C403120122ADC403124E
:10068300012288C50312012217C60312012262C682
:1006930003120122C15A00120122D15A001201226F
:1006A300345B00120122795B00120122295C0012E3
:1006B3000122025D001201222B5D001201225B5D0B
:1006C300001201226F5F001201224B61001201220E
:1006D3002B6300120122636400120122DC66001204
:1006E3000122C867001201220E69001201221B6A4F
:1006F300001201225D6A00120122956A0012012292
:10070300AF6A00120122176B00120122B16F0012AF
:100713000122527000120122A67000120122CD7034
:10072300001201220B71001201222A710012012210
:100733007E71001201228672001201220F730012D1
:1007430001220080031201220A8003120122A680E3
:1007530003120122718103120122908103120122EB
:10076300B68103120122F581031201222D820312A5
:100773000122568203120122908203120122A582D2
:1007830003120122728303120122958303120122B1
:10079300B78303120122CC8303120122568403126E
:1007A30001229084031201220485031201224D8544
:1007B300031201227785031201229C850312012271
:1007C30098AF0312012262B00312012245B1031252
:1007D3000122BBB103120122FDB1031201222AB38C
:1007E300031201225FAA0212012288AA0212012225
:1007F300A1AA02120122E6AB02120122C4AC021228
:100803000122E3AC0212012270AD02120122B3AD48
:1008130002120122EBAE0212012257AF0212012291
:100823004DB102120122DBB3021201226EB4021295
:10083300012242B502120122E5B502120122F8B6E5
:10084300021201228EB70212012229D103120122C0
:1008530092D103120122E6D10312012215D203120F
:100863000122CC9E03120122399F03120122849F8D
:100873000312012279A00312012275A1031201229E
:100883005FA2031201229BE902120122E2E9021292
:100893000122BBEA02120122B6EB0212012295ECFD
:1008A3000212012201ED021201221DEE02120122A7
:1008B30084EE0212012287EE02120122B2EE02122C
:1008C300012223EF02120122C6EF02120122DBEF03
:1008D3000212012223F0021201223CF00212012231
:1008E3003FF00212012255B70312012291B70312FE
:1008F3000122CFB70312012299B8031201220CB9C6
:100903000312012247B90312012285B903120122FE
:10091300B5B903120122DCB90312012247BA03124B
:10092300012289BA03120122538801120122718A1A
:1009330001120122208C01120122D08C011201220A
:100943001B8D01120122668D01120122788D011285
:100953000122B88D01120122ED8D01120122398E7F
:1009630001120122688E011201228B8E01120122D3
:10097300128F01120122FE8F011201223C910112FA
:1009830001223E92011201221A94011201223E9980
:1009930001120122849901120122C299011201223A
:1009A300F79B011201228CC6031201222CC80312E9
:1009B30001220821001201229F2100120122E521B8
:1009C300001201221B2300120122B2240012012271
:1009D3002A25001201226C2500120122BC250012D7
:1009E30001222727001201229229001201226E2AD6
:1009F300001201228D2A00120122AC2A00120122C8
:100A0300AF2A00120122352C001201222A2D0012D6
:100A13000122262E00120122962E00120122082FF7
:100A230000120122872F00120122623000120122DC
:100A3300693100120122483200120122D33200121E
:100A43000122413300120122B53300120122DE33A9
:100A5300001201229D3400120122AC370012012240
:100A6300F53700120122383800120122BB38001278
:100A730001225F3900120122F03900120122153AD6
:100A8300001201225F3A00120122893A0012012268
:100A9300CE3A00120122493B00120122A33B00126D
:100AA3000122F73C00120122B43D00120122873ECD
:100AB30000120122909C02120122E09C02120122E8
:100AC300EC9C02120122C99D02120122F99D02121D
:100AD3000122319E02120122B09E02120122E89EDF
:100AE300021201223A9F02120122779F021201226F
:100AF3009CA102120122C8A302120122C3A5021261
:100B030001229EA702120122FC7F00120122ABF6F2
:100B130002120122DDFA021201222DFC021201222D
:100B2300B8D5011201228ADC0112012290DC0112E4
:100B3300012240DF011201226A8B03120122168C6B
:100B430003120122E48C031201220E8D03120122EF
:100B53005C8F03120122B53E00120122FF3E0012F8
:100B63000122B14B00120122324D001201222A4E02
:100B7300001201228954001201228455001201221D
:100B8300C15500120122E45500120122265600121B
:100B930001223056001201221C5700120122105864
:100BA30000120122A958001201222BBE03120122B6
:100BB30029BF031201227FBF03120122BDBF03120B
:100BC30001221AC00312012297C003120122A0C0FE
:100BD30003120122ACC003120122BFC0031201227F
:100BE300FBC00312012211C10312012263F002129E
:100BF300012270F0021201228AF002120122C9F0CE
:100C03000212012207F1021201226CF102120122E7
:100C130081F10212012298F102120122A6F10212BD
:100C23000122B5F102120122CAF102120122DFF1FF
:100C330002120122EAF102120122F6F1021201224A
:100C430003F20212012212F2021201221DF2021217
:100C5300012242F202120122EBF20212012200F3FC
:100C63000212012215F3021201222FF302120122B2
:100C73004AF30212012267F30212012272F30212F3
:100C830001222EF4021201221AF5021201223FF56B
:100C93000212012249F5021201225DF5021201221C
:100CA3007CF502120122DDF502120122E3F50212A4
:100CB3000122E9F502120122EFF502120122FBF5EE
:100CC300021201222EF60212012276730012012271
:100CD300A2730012012286740012012220770012EF
:100CE3000122367800120122537900120122F6798B
:100CF300001201229C7A001201220AB80212012278
:100D03008CB80212012235B9021201227DBA0212F5
:100D130001228BBC0212012271BD02120122A6BD67
:100D230002120122C8BD0212012271BE0212012267
:100D330041C0021201226AC002120122E2C0021261
:100D4300012214C10212012221C1021201226CC12B
:100D53000212012290C102120122E1C302120122F6
:100D6300EBC40212012247C50212012200800212C3
:100D73000122118102120122F58102120122FF8157
:100D8300021201222182021201222D820212012269
:100D9300D18302120122FE83021201221485021260
:100DA3000122698502120122B886021201228D876F
:100DB30002120122E987021201225488021201223F
:100DC300898802120122CC8802120122968B021218
:100DD3000122AE8B021201223F8C021201224D8CA2
:100DE300021201229A8C02120122A88C0212012201
:100DF300148D021201228F8D02120122E68D02123E
:100E0300012220FE0112012245FE01120122BBFE36
:100E130001120122ACE202120122B5E20212012206
:100E2300BEE20212012296E30212012247E50212F8
:100E3300012277E502120122A2E502120122D2E584
:100E430002120122FDE50212012231E60212012201
:100E53005DE602120122A0E602120122CBE6021293
:100E6300012212E70212012267E702120122A9E717
:100E73000212012203E8021201222EE802120122C9
:100E83007DE802120122ADE802120122D8E8021223
:100E93000122FBE80212012203D7031201222FD7FA
:100EA300031201225CD70312012266D70312012227
:100EB30076D703120122C48503120122028603128C
:100EC30001228986031201229C8603120122EB86EA
:100ED300031201221F87031201225E8703120122DC
:100EE3006D870312012219880312012272880312EB
:100EF3000122C18803120122108903120122078AE9
:100F030003120122F58A03120122328B03120122FA
:100F130047D803120122109E0112012207A00112D9
:100F2300012281A1011201226EA201120122E9A272
:100F33000112012264A3011201228DA301120122D5
:100F4300F5A301120122BDA7011201222BA8011250
:100F5300012217A90112012251A90112012291A90B
:100F630001120122A6AA01120122D2AA0112012210
:100F730014AB011201225DAB01120122CAAB0112B3
:100F83000122ECAB0112012206AC01120122FDACDD
:100F9300011201220DAD01120122ACAE0112012298
:100FA300C3AE01120122F5AE0112012281B001127A
:100FB3000122F7B00112012221D50312012232D5F9
:100FC30003120122A4D803120122E3D8031201223F
:100FD30079D903120122D0D503120122E0D50312DD
:100FE3000122FBD50312012263D60312012236D25A
:100FF30003120122BAD20312012220D303120122C7
:1010030027CD0312012250CD03120122BACD0312C0
:1010130001220DCE0312012266CE0312012255A72F
:10102300031201227AA70312012297A703120122B6
:10103300B4A703120122D7A70312012207A80312A0
:10104300012220A803120122D3A8031201224DA9D1
:101053000312012271A9031201227BA903120122A7
:1010630000AB03120122C99503120122E09503127A
:101073000122599603120122319703120122EB999F
:1010830003120122D1BA0312012261BB031201220E
:10109300F2BB0312012284BC0312012228BD0312F6
:1010A3000122EDBD03120122F7BD031201220BBE83
:1010B300031201221EBE0312012228BE03120122C3
:1010C30007D00312012281D0031201228CD0031214
:1010D3000122A6D00312012225CA0312012248CA03
:1010E3000312012271CA031201220BCB0312012244
:1010F30021CB0312012263CB03120122B1D20212CC
:101103000122BBD202120122FBD20212012244D3DA
:10111300021201227CD302120122D6D3021201222F
:10112300F3D3021201228FD60212012298D60212A1
:101133000122DFD60212012208D70212012212D79E
:10114300021201227ED70212012210D802120122BA
:101153007AD802120122ADD8021201222CD902122E
:10116300012267D9021201229AD902120122ACD9B3
:1011730002120122CBD902120122D4D90212012276
:101183008DDA02120122ACCB03120122FFCB031230
:1011930001226BCC03120122D7CC0312012241C1DD
:1011A3000312012269C1031201223EC2031201226A
:1011B30032C303120122C0C30312012239D3031223
:1011C3000122AD7D00120122E37D00120122167E71
:1011D300001201226F7F0012012280D70312012225
:1011E30096D703120122A0D703120122E8D70312D4
:1011F3000122B9DA0212012282DB02120122BDDBD3
:1012030002120122EEDB021201224EDC0212012243
:1012130098DC02120122E6DC0212012271DD0212C5
:1012230001226ADE021201220EE0021201228EE086
:1012330002120122F9E0021201220CE10212012240
:10124300F3E1021201223DE2021201227CAB0312FE
:10125300012292AB0312012236AC0312012275ACB8
:101263000312012292AC03120122C3AC0312012226
:1012730010AD0312012243AD031201227EAD03120E
:1012830001228BAF0312012234B10112012283B276
:1012930001120122D4B301120122BEB401120122B0
:1012A3000FB70112012264B7011201221CB9011206
:1012B30001228DB90112012254BD01120122A1BDE7
:1012C300011201222FBE01120122A5C00112012227
:1012D30043C101120122BDC101120122C7C2011281
:1012E300012224D90312012221A3031201226DD664
:1012F3000312012297D603120122EDD80312012211
:1013030050D903120122D9FF01E066701008A3E04F
:1013130066700A08A3E066700408A3E06622C3E0CF
:101323009608A3E09608A3E09608A3E096A2D265E8
:10133300D03322C3E7960809E7960809E796080918
:10134300E79622C3E09608A3E09608A3E09608A3D5
:10135300E09622C008C3E096F50808A3E096420889
:1013630008A3E096420808A3E09645087001D3D08D
:101373000822080808EAC0E0EBC0E086F0E7A4FA18
:10138300180986F0E7A42AFA180986F0E7A42AFACE
:10139300180986F0E7A42AFA1986F0E7A4FBE5F01A
:1013A3002AFA190886F0E7A42BFBE5F03AFA1908A4
:1013B30086F0E7A42BFBE5F03AFA18180986F0E764
:1013C300A4C5F02BFBE43AFA1908E7C5F0C6A42636
:1013D300F6E5F03BFBE43AFA1886F0E7A4F6E5F00D
:1013E3000826F6E43B08F6E43A08F6D0E0FBD0E042
:1013F300FA22E4CFC0E0E4CEC0E0E4CDC0E0E4CC28
:10140300C0E075F020E626F608E633F608E633F684
:1014130008E633F6181818EC33FCED33FDEE33FE13
:10142300EF33FFC3EC9709ED9709EE9709EF97198F
:101433001919400FFFEC97FC09ED97FD09EE97FE94
:10144300191906D5F0BFECF709EDF709EEF709EF27
:10145300F7191919D0E0FCD0E0FDD0E0FED0E0FF91
:1014630022E4C396F608E496F608E496F608E496B2
:10147300F6226016080808C6C313C618C613C61892
:10148300C613C618C613C6D5E0EA227009080808B1
:10149300226016181818C6C333C608C633C608C652
:1014A30033C608C633C6D5E0EA22E627F60809E6BE
:1014B30037F60809E637F60809E637F622E026F696
:1014C30008A3E036F608A3E036F608A3E036F622D2
:1014D300E026F008A3E036F008A3E036F008A3E026
:1014E30036F022C3E697F60809E697F60809E69769
:1014F300F60809E697F622C3E096F008A3E096F013
:1015030008A3E096F008A3E096F022E657F6080950
:10151300E657F60809E657F60809E657F622E056B5
:10152300F608A3E056F608A3E056F608A3E056F63D
:1015330022E056F008A3E056F008A3E056F008A313
:10154300E056F022E066F608A3E066F608A3E0663C
:10155300F608A3E066F622E0F608A3E0F608A3E0A7
:10156300F608A3E0F622E6F008A3E6F008A3E6F007
:1015730008A3E6F022E0FAA3E0FBA3E0FCA3E0FD6E
:1015830022EAF0A3EBF0A3ECF0A3EDF022E0F8A342
:10159300E0F9A3E0FAA3E0FB22E8F0A3E9F0A3EA71
:1015A300F0A3EBF022CAC0E0E6F0A308DAFAD0E039
:1015B300FA22CAC0E0E0A3C582CCC582C583CDC5EB
:1015C30083F0A3C582CCC582C583CDC583DAE6D0BB
:1015D300E0CA22C3E498F8E499F91216178026C3E7
:1015E300E49AFAE49BFBE920E7E9121617E498F87A
:1015F300E499F922C3E498F8E499F9121617E498E8
:10160300F8E499F9C3E49AFAE49BFB22EB20E7CFD1
:10161300E920E7E0B90010BB0008E88AF084F8AAE3
:10162300F022E4FBC8FA22EB70227B10C833C8C94E
:1016330033C9335007C39AC3DBF280069A50012A99
:10164300DBEAC833F4C8C933F4C9FA2275F008E4F5
:10165300C833C8C933C933C99AC99B5004C92AC9F5
:101663003BD5F0ECFBC833F4C8E4C9FA22600D089B
:10167300C6A2E713C618C613C6D5E0F322600C084A
:10168300C6C313C618C613C6D5E0F422700422607D
:101693000D18C6C333C608C633C6D5E0F4182225D1
:1016A3001810AF08F518400C15198008F5184002FA
:1016B3001519D2AF2200C0D0251810AF08F5185065
:1016C3000C05198008F51850020519D2AFD0D022A5
:1016D3002518F58210AF08F518400C15198008F588
:1016E3001840021519D2AF851983222518F582E413
:1016F3003519F583222518F8E43519F9222518FA46
:10170300E43519FB222518FCE43519FD22E4732581
:1017130018C582C0E0E51934FFC583C0E0E518C3EE
:10172300958224F810AF088583198582188008856F
:101733008319858218D2AFCEF0A3E520F0A37808F1
:10174300E608F0A3DEFAEFF0A3E58124FAF8E60851
:10175300F0A3E608F0A3E608F0A30808E608F0A360
:10176300E608F0A315811581D0E0FED0E0F81581DD
:1017730015811581E8C0E0EEC0E0222518C582C0BE
:10178300E0E51934FFC583C0E0E518C3958224F969
:1017930010AF08858319858218800885831985828F
:1017A30018D2AFCEF0A3E520F0A37808E608F0A3A3
:1017B300DEFAEFF0A3E58124FBF8E608F0A3E608E0
:1017C300F0A30808E608F0A3E608F0A31581158145
:1017D300D0E0FED0E0F815811581E8C0E0EEC0E06E
:1017E30022851983851882E0A3FEE0A3F5207808FB
:1017F300E0A3F608DFFAE0A3FFE0A3C0E0E0A3C0A4
:10180300E0E0A3C0E0E0A3C0E0E0A3C0E010AF08C5
:101813008582188583198008858218858319D2AF3C
:10182300D083D08202011F851983851882E0A3FE2D
:10183300E0A3F5207808E0A3F608DFFAE0A3FFE0D1
:10184300A3C0E0E0A3C0E0E0A3C0E0E0A3C0E010D9
:10185300AF088582188583198008858218858319C6
:10186300D2AFD083D08222C0D02518C582C0E0E594
:101873001934FFC583C0E0E518C3958224F310AF84
:10188300088583198582188008858319858218D273
:10189300AFC8F0A3E9F0A3EAF0A3EBF0A37908E75C
:1018A30009F0A3D8FAECF0A3EDF0A3EEF0A3EFF068
:1018B300A3D0E0F0A3D0E0F0A3D0E0F0A3E520F0C4
:1018C300A3E5F0F0A322851983851882E0C0E0A385
:1018D300E0F9A3E0FAA3E0FBA37808E0F608A3DFAE
:1018E300FAE0FCA3E0FDA3E0FEA3E0FFA3E0C0E079
:1018F300A3E0C0E0A3E0F5D0A3E0F520A3E0A3F5C7
:10190300F010AF08858319858218800885831985AF
:101913008218D2AFD082D083D0E0F8D0E032740402
:101923008006740280027401C0E0F4041216D3D05E
:10193300E01215A8227404800474028000CCC0E075
:10194300EDC0E0E518C39CCCAD1950011D10AF06E6
:101953008C188D1980068C188D19D2AF1215B5D03D
:10196300E0FDD0E0FC22D083D082E9C0E0E493A381
:10197300C386F0C5F095F0F908E493A386F0C5F0AB
:1019830095F0700BE493A3C3994005E9048002A387
:10199300E475F002A42582F582E5F03583F583D062
:1019A300E0F9E493A3C0E0E493C0E022D083D082C3
:1019B300ECC0E0EDC0E0E493A3FCE493A3FDED4CA5
:1019C300600D1219FBEC24FFFCED34FFFD80EFE406
:1019D30093A3FCE493A3FDED4C600D121A3AEC249F
:1019E300FFFCED34FFFD80EFD0E0FDD0E0FCE4939D
:1019F300A3C0E0E493C0E022C0E0C3E4939608747C
:101A030001939618400FE493667008087401936677
:101A13001870007019A3A3C3E493960874019396F6
:101A230018A3A3400DD0E0D0E0D0E00219EBA3A3AC
:101A3300A3A3A3A3D0E022C0E0C0F088F0E49366A0
:101A430070080874019366187000A8F0A3A3700BC4
:101A5300D0F0D0E0D0E0D0E00219EBA3A3D0F0D0D7
:021A6300E0227F
:101A680074F512177EEAFEEBFFEE2434F8EF34002B
:101A7800F988088909EE2435F582EF3400F583E00A
:101A8800F8EE2437F582EF3400F583E0F50AEC85AB
:101A98000AF0A4FCAAF0850AF0EDA42AFDE82CF8C7
:101AA800E43DF97A257B00121617EA850882850934
:101AB80083F05407F87401B800028004C333D8FCDB
:101AC800C0E0E0131313541FF8EE28F8EF3400F9C0
:101AD800E8245DF582E93400F583D0E0F8E0586049
:101AE80008EE2434F582EF801EEE2436F582EF34BA
:101AF80000F583E0F5F0EA84A8F0EE28F8EF34006A
:101B0800F9E82438F582E93400F583E0F97F040226
:101B1800182A74F512177EEAFEEBFFEE2434F582DC
:101B2800EF3400F583E0C0E0EE2435F582EF3400B1
:101B3800F583D0E0F08E828F83A3A3A3A3A3A3A3EE
:101B4800C082C0838E828F83A3A3A3A3A3E0F8A33C
:101B5800E0F9D083D082E0C398F508A3E099F509AD
:101B6800EE2480F582EF3400F583E064017069EEBD
:101B78002481F582EF3400F583E0F8A3E0F98E8242
:101B88008F83A3A3A3A3A3A3A3E0FCA3E0FD8E825A
:101B98008F83A3A3A3A3A3E0FAA3E0FBC3EA9CEB70
:101BA8009D5027C3EC98ED99402EC3EA98EB9950C5
:101BB800277CE27D07EEFAEFFB120A4EEE2480F551
:101BC80082EF3400F583E4F0800EC3EA98EB994085
:101BD800E0C3EC98ED9950D9EE2434F8EF3400F9CD
:101BE800E8FCE9FDEE2435F582EF3400F583E0F8F2
:101BF800EE2437F582EF3400F583E0F50AE5088531
:101C08000AF0A4F508AAF0850AF0E509A42AF5095E
:101C1800E82508F8E43509F97A257B00121617EA51
:101C28008C828D83F05407F87401B800028004C3D5
:101C380033D8FCC0E0E0131313541FF8EE28F8EF74
:101C48003400F9E8245DF582E93400F583D0E0F842
:101C5800E0586008EE2434F582EF801EEE2436F555
:101C680082EF3400F583E0F5F0EA84A8F0EE28F876
:101C7800EF3400F9E82438F582E93400F583E0F917
:101C8800122004021B150000851A87851BC622C076
:101C9800E0C0D0E8C0E0E9C0E0EAC0E0EBC0E0ECBA
:101CA800C0E0EDC0E0C008C009C00AC00BC082C0D7
:101CB80083C0F0759B00906182E0A2E64003021D9C
:101CC80075E591A2E64003021D757591BF900499D0
:101CD800E064057008120BC8120BD48003120BCEF7
:101CE800751A00120C2EE990049AF07900120C1063
:101CF8001209BE7A017B00900498E0F912115C90F9
:101D08007803E064426003021DBE900817E014F0F7
:101D18006003021DBEC2AF121D2200781DD0E0F67E
:101D280018D0E0F6E59F5407F970059087CE800338
:101D38009087CA780812155AE9C4C0E0781CE6559D
:101D480008F50808E65509F509740B780812168095
:101D5800D0E02508F8906270E0A2E740F8E8C333C5
:101D6800906272F0906270E0D2E0F08049E0A2E503
:101D78005024E591A2E5501E7591DF900499E06426
:101D88000D70139004BBE004F064287002E4F07A4C
:101D980000E0F9120CBE906181E0A2E35009E5E988
:101DA800A2E3500375E9F7A3E0A2E75009E591A281
:101DB800E7500375917FD0F0D083D082D00BD00A42
:101DC800D009D008D0E0FDD0E0FCD0E0FBD0E0FAAC
:101DD800D0E0F9D0E0F8D0D0D0E032C0E0C0D0C038
:101DE80082C083906183E0A2E05009E5BFA2E05081
:101DF8000375BFFEE0A2E15009E5BFA2E1500375FB
:101E0800BFFDE0A2E25009E5BFA2E2500375BFFBA7
:101E1800E0A2E35009E5BFA2E3500375BFF7E0A2D3
:101E2800E45009E5BFA2E4500375BFEFE0A2E55016
:101E380009E5BFA2E5500375BFDFE0A2E65009E55A
:101E4800BFA2E6500375BFBFD083D0828088C0E0B0
:101E5800C0D0E8C0E0E9C0E0EAC0E0EBC0E0ECC018
:101E6800E0EDC0E0C0F0E5A7A2E6500FE5A1A2E6CC
:101E7800500953A7BF75A1BF121EBBE5A7A2E55025
:101E88000CE5A1A2E5500653A7DF75A1DFE5A7A2DF
:101E9800E15009E5A1A2E1500375A1FDE5A7A2E281
:101EA800500CE5A1A2E2500653A7FB75A1FBD0F0A8
:101EB800021DCC74F812177E751A01900499E0641B
:101EC800067015120B808A828B83A3A3A3A3A3A3F6
:101ED800E0FAA3E0FB120BB6A2AFE433FED2AF9058
:101EE800049FE0640170187A207B00900498E0F960
:101EF8001212707A207B00900498E0F91211629017
:101F08006182E0D2E6F0900816E0602185C61B8069
:101F18001690049EE064017008E5C654F84405F57F
:101F2800C653BEFC121C907401651A60E4EEA2E070
:101F380092AF7F0102182A74F112177E8A088B0962
:101F48008C0A8D0B740F1216EE780C12155A9088A5
:101F5800027808121521908802780C121521780849
:101F6800790C12133650157808790C1214E69087FC
:101F7800A67808121356401579018013780C790851
:101F88001214E69087A6780C12135640EB79007F5E
:101F98000802182A74ED12177E8A088B098C0A8D9C
:101FA8000B74131216EE780C12155A9088027808E2
:101FB800121521908802780C121521780C790812D4
:101FC800133640117808790C1214E6AA08AB09AC4C
:101FD8000AAD0B802275100075110075120075137B
:101FE800017810790C1214E6781079081214ADAA49
:101FF80010AB11AC12AD137F0C02182AC082C0833B
:10200800E9906000F0D083D08222C0E074F2121808
:102018006AA2AFE433FED2AFC2C0E5D1A2E4500653
:1020280053D1EF1210BAEEA2E092AF7F010218C9A5
:10203800C0E074F212186AA2AFE433FED2AFE589A9
:10204800A2E15003121018758900C2C5EEA2E092F1
:10205800AF7F010218C9C0E074F212186AA2AFE497
:1020680033FED2AFE58BA2E05003121018758B0037
:10207800C2E880D8C0E0C0D0E8C0E0A8A8D2AFC20B
:10208800C7E8A2E792AFD0E0F8D0D0D0E032C0E005
:10209800C0D0E8C0E0E9C0E0EAC0E0EBC0E0C08240
:1020A800C083A2AFE433F9D2AF901044E0F8A3E0C4
:1020B800687008539AFBA374018022C2E990104407
:1020C800E0F8740128F074C428F582E4340FF5832D
:1020D800E0F5C1901044E0C394804002E4F0E9A226
:1020E800E092AFD083D082D0E0FBD0E0FAD0E0F924
:1020F800D0E0F8D0D0D0E032FFFFFFFFFFFFFFFFB6
:10210800C082C0839061907404F0A37448F0A374F3
:1021180002F09061807440F09061BC7403F09061AB
:10212800877419F0906265741BF090619C740DF0CF
:1021380090619A7433F0A37455F09061A0743AF0EA
:10214800900814E064017009C29190049D7467803E
:102158000590049D7461F0902106E493906186F0E7
:10216800902100E493F46027E493540FF89061857C
:10217800E0686012E5C654804449F5C6E59E547F80
:10218800644970F8E8F053C680E59E547F70FA7988
:1021980005120CA0022565C082C083E5A8F853A8E3
:1021A8007E906181E4F0A3F0A3F0C2BA539AFEC214
:1021B80089759B00C2C275E90075910075BF0075ED
:1021C800A91175B905906181F0A374C0F0A3E4F07A
:1021D800D2BA439A0174805842A8022565C082C0C9
:1021E8008374F81216A290049BE0F8A3E0F9E8497A
:1021F800700302231390049BE05440602379088500
:102208001882851983AA82AB83120AC08518828531
:102218001983AA82AB831207A890049BE054BFF0ED
:10222800E054806010790C7A387B08120AC0900458
:102238009BE0547FF0E0A2E0503190619A7433F053
:10224800A37455F09061A0743AF0900814E064010A
:102258007009C29190049D7467800590049D746113
:10226800F01207AE90049BE054FEF0E05402603197
:1022780090619A743FF0A3745AF09061A0747FF053
:10228800900814E064017009D29190049D747180E3
:102298000590049D746AF01207AE90049BE054FD0B
:1022A800F0E054046013902104E493906186F012E6
:1022B80007B490049BE054FBF0E0540860139021AD
:1022C80005E493906186F01207B490049BE054F7FC
:1022D800F0E054106013902106E493906186F012A8
:1022E80007B490049BE054EFF0E05420600A120712
:1022F800B490049BE054DFF0A3E05401600D120990
:10230800CA1207BA90049CE054FEF074081216B87A
:1023180002256574EC12171274F41216A28518823D
:10232800851983AC82AD837583877582EA7404123C
:1023380015B590210493F460030224A8907808E06E
:10234800C39402500302248874041216EEAC82ADC2
:102358008375838775826474081215B5851882851C
:10236800198385821285831374041216EEAC82AD2C
:1023780083750EFF750FFF7FFF7E00750C48750D86
:1023880078801574086E700302241B74096E70033C
:1023980002241B740A6E607B850C82850D83780885
:1023A80012155A8C828D83A909E50AC9F888107418
:1023B800187808121475E5104508F8C3E098A3E0EA
:1023C80099850C82850D83780812155A40188C82DD
:1023D8008D8374187808121475E5104508F8E0C361
:1023E80098F8A3E0801C74187808121475E5104555
:1023F80008FAE9FB8C828D83E0F8A3E0F9EAC39838
:10240800F8EB99F9C3E8950EE9950F5006880E89FF
:102418000FEEFF0EE50C2404F50CE50D3400F50D68
:10242800EEC39413500302238B74FF650E7004747B
:10243800FF650F60238F087402780812168F74489E
:102448002508F58274783509F583780812155A85B8
:102458001282851383E508F0EC24020C0CED34009D
:10246800FD851282851383A3858212858313740CDC
:102478001216EEE5826C7003E5836D600302237922
:10248800750801750900780812192574021216EEEC
:10249800AC82AD837A417B08120FF474021216B82D
:1024A800740C1216B87F0C0217E4C082C0839061C6
:1024B800AE7468F0A3746AF090624574FBF0A304EC
:1024C800F053F4FD43FE029008147401F09061A0EB
:1024D800E0643A90619A70237433F0A37455F090D5
:1024E80061A0743AF0740164017009C29190049D6E
:1024F8007467802890049D74618021743FF0A374F0
:102508005AF09061A0747FF0740164017009D2914F
:1025180090049D7471800590049D746A8000F00297
:102528002565C082C0839007F2E0640170159007AA
:10253800F8E064016009E0700AA3E06401700479BE
:102548000C8012900809E06401700890080FE0649C
:102558000160EC7900022565E0F9122004D083D0EF
:102568008202011FC082C0839007FC7425F0900787
:10257800FA7401F0A3E4F07A01FB120C1C9007E84E
:10258800E02416F8A3E03400F98882898374EEF019
:10259800A37409F09007F9E0640170169007F8E059
:1025A80070107901120C7C120C4C120C7679001206
:1025B8000C8880A9C082C08374FA1216A29007F111
:1025C800E0640170081209D69007F1E4F075E1F1B2
:1025D8009007E8E02415F8A3E03400F9888289839D
:1025E8007401F09007F3E064017076908781C082EF
:1025F800851882851983AC82AD83758387D08274F0
:10260800061215B575D90D9007EAE0C4333354C0E6
:102618004403F5D978E8790788828983A3A3A3E0DE
:10262800F5D988828983A3A882A983E864EE700318
:10263800E9640770E3851882851983A882A98388CD
:10264800828983E0F5D9A3A882A98374061216EEBD
:10265800E582687003E5836970E575E19579018025
:10266800027900120C229011D17438F0A3740BF087
:10267800A3743EF0A3740BF0A37438F0A3740BF0AA
:10268800A37438F0A3740BF0A37408F0A3740BF0D0
:10269800A37408F0A3740BF0A37444F0A3740BF0B4
:1026A8009011DF7408F0A3740BF0A37408F0A374FE
:1026B8000BF0A37408F0A3740BF0A37408F0A374D0
:1026C8000BF0A37408F0A3740BF0A37408F0A374C0
:1026D8000BF09007EAE0F97AEB7B07120BFE900704
:1026E800FCE0F91220047901120C289087F21215E7
:1026F80078120C4090881E121578120C0A79001274
:102708000C949007E8E02414F8A3E03400F98882D8
:1027180089837416F09004997405F00402231574E3
:10272800F71217128908A808E875F006A4C8AAF0D5
:102738002AF974C928FE740439FF900801E0F97A6F
:10274800027B08120BFE90080FE0701A7900120C39
:102758005E9007DBE0700B79007ADC7B07120C04D3
:102768008009790180F37901120C5E75E1F175D960
:1027780023900801E0C4333354C04405F5D978FFE9
:10278800790788828983A3A3A3E0F5D988828983FE
:10279800A3A882A983E864057003E9640870E37557
:1027A800D90075D90075D90075D90075D90075D9C2
:1027B80000EEF8EFF9E82404FAE93400FBE82422F3
:1027C800F582E93400F583E0F5D988828983A3A8E6
:1027D80082A983EA687002EB6970E2EEF8EFF9E823
:1027E80024031AE93400FBE82426F582E93400F5CD
:1027F80083E0F5D988828983A3A882A983EA6870CF
:1028080002EB6970E2EE242BF582EF3400F583E0E9
:10281800F5D9EEF8EFF9E824021AE93400FBE824C8
:102828002CF582E93400F583E0F5D988828983A301
:10283800A882A983EA687002EB6970E2EEF8EFF902
:10284800E8242EF582E93400F583E0F5D9888289F9
:1028580083A3A882A983EA687002EB6970E2EEF8A4
:10286800EFF9E82430F582E93400F583E0F5D988FA
:10287800828983A3A882A983EA687002EB6970E25F
:10288800EEF8EFF9E82432F582E93400F583E0F553
:10289800D988828983A3A882A983EA687002EB6930
:1028A80070E2EEF8EFF9E824050A0A0AE93400FBB9
:1028B800E8245DF582E93400F583E0F5D98882895A
:1028C80083A3A882A983EA687002EB6970E2EE2408
:1028D80037F582EF3400F583E0541FF8EE242AF52B
:1028E80082EF3400F583E0C43354E048F5D975E14C
:1028F800959011D1740EF0A3740BF0A37414F0A387
:10290800740BF0A37408F0A3740BF0A37408F0A37D
:10291800740BF0A37408F0A3740BF0A37408F0A36D
:10292800740BF0A3741AF0A3740BF09011DF740801
:10293800F0A3740BF0A37408F0A3740BF0A374084D
:10294800F0A3740BF0A37408F0A3740BF0A374083D
:10295800F0A3740BF0A37408F0A3740BF090080EA6
:10296800E0F91220049087F2121578120C40908832
:102978001E121578120C0A90600DE4F07901120C01
:10298800949004997406F0022F8274EC1217129036
:1029980007FFE0F8A3E0F5838882A3A37810121557
:1029A8005A900810E0FAF875F006A4C8ACF02CF9B3
:1029B80074F728F582740439F583E0FEA3E0FFEE8E
:1029C800C333FEEF33FF8E0CF50D750E00750F0047
:1029D80085100885110985120A85130B9087DA7806
:1029E800081214C078081219218510088511098564
:1029F800120A85130B7808790C1214AD7810790C2B
:102A08001213F5E4F50EF50F7808790C1214E68A1E
:102A18000C750D007403780C12168F7808790C1257
:102A280014AD9088027808121521AA08AB09AC0ADF
:102A3800AD0B121F9C74041216B88A088B09A808DB
:102A4800A909C3EE98EF995006E82EF8E93FF9E88E
:102A580090600EF0E9A3F0EEA3F0EFA3F090600D04
:102A680074C1F00224ADC082C0839007E8E0F8A3E7
:102A7800E0F5838882A3A3A3A3A3A3E4F0A3F09023
:102A880007FC022560C082C0839007FFE0F8A3E03E
:102A9800F5838882A3A3A3A3A3A3E4F0A3F09008DB
:102AA8000E02256002011F74F61217129061D0E021
:102AB800F87480C398FCEA2483F582EB3400F5832C
:102AC800E06004780480027800E8240EF8ECC398EB
:102AD8005003022C307E0C900818E4F0EA2477F5B5
:102AE80082EB3400F583E0900819F0EA2478FCEBD7
:102AF8003400FD781A79087F028C828D83E0888201
:102B08008983F08C828D83A3AC82AD83888289838C
:102B1800A3A882A9831FEF70E0EA247AFCEB3400B3
:102B2800FD7F028C828D83E088828983F08C828D80
:102B380083A3AC82AD8388828983A3A882A9831FDB
:102B4800EF70E0EA247CFCEB3400FD7F028C828D80
:102B580083E088828983F08C828D83A3AC82AD83E5
:102B680088828983A3A882A9831FEF70E0EA247E64
:102B7800FCEB3400FD7F028C828D83E088828983A0
:102B8800F08C828D83A3AC82AD8388828983A3A8CD
:102B980082A9831FEF70E0EA2475FCEB3400FD8AFC
:102BA800828B83A3A3A3A3A3E0F508A3E0F5098C74
:102BB800828D83E02508F0A3E03509F07F028C823E
:102BC8008D83E088828983F08C828D83A3AC82AD6B
:102BD8008388828983A3A882A9831FEF70E0EA24EF
:102BE80083F582EB3400F583E060197508187509E0
:102BF8000878081219257C0C7903120AFC74021251
:102C080016B87E1074012EF5D975D903758218751A
:102C18008308EEFFE0F5D9A31FEF70F875E1957909
:102C280004120C4679018002790002316474F612AC
:102C380017129061D0E0F87480C398FCEA2483F5F9
:102C480082EB3400F583E06004780480027800E8C1
:102C5800240AF8ECC3985003022D2575080890083B
:102C6800187401F07CE27D07781979087E058C825A
:102C78008D83E088828983F08C828D83A3AC82ADBA
:102C88008388828983A3A882A9831EEE70E0EA2440
:102C980081FCEB3400FD8A828B83A3A3A3A3A3E06A
:102CA800FEA3E0FF8C828D83E02EF0A3E03FF07E50
:102CB800028C828D83E088828983F08C828D83A345
:102CC800AC82AD8388828983A3A882A9831EEE7013
:102CD800E0EA2483F582EB3400F583E0601A750896
:102CE8001875090878081219257C087903120AFC56
:102CF80074021216B875080C74012508F5D975D92F
:102D080003758218758308AE08E0F5D9A31EEE7026
:102D1800F875E1957904120C467901800279000270
:102D2800316474F7121712EAFEEBFF9061D0E0608D
:102D380003022E2175D91875D90375D903EEF8EF5A
:102D4800F9E82408FAE93400FBE8249CF582E93420
:102D580000F583E0F5D988828983A3A882A983EA4C
:102D6800687002EB6970E2EEF8EFF9E82402FAE91C
:102D78003400FBE824A4F582E93400F583E0F5D9B2
:102D880088828983A3A882A983EA687002EB6970A4
:102D9800E2EE2494F582EF3400F583E5822408F806
:102DA800E5833400F9E0F5D9A3E865827003E965A5
:102DB8008370F2EE2488F582EF3400F583E58224EF
:102DC80004F8E5833400F9E0F5D9A3E865827003D7
:102DD800E9658370F275E1957908EE2494FAEF3489
:102DE80000FB120AB47904EE2488FAEF3400FB12CF
:102DF8000AB47904120C46EE2470F582EF3400F51B
:102E080083E0F8A3E0F9EE2472F582EF3400F5834D
:102E1800E8F0A3E9F0790180027900022F8274F6C4
:102E2800121712EAFEEBFF9008187406F0750818DE
:102E380075090878081219257C017903120AFC74AF
:102E4800021216B875D90675D903758218758308E4
:102E5800E0F5D9A3E582641D7004E583640870F089
:102E680075E195900499E06408701EEE2470F5826F
:102E7800EF3400F583E0F8A3E0F9EE2472F582EF71
:102E88003400F583E8F0A3E9F0790102316474F6BF
:102E9800121712EAFEEBFF9061D0E0705E900818FE
:102EA800740AF075081875090878081219257C0144
:102EB8007903120AFC74021216B875D90675D9037B
:102EC800758218758308E0F5D9A3E582641D70043E
:102ED800E583640870F075E195EE2470F582EF34AF
:102EE80000F583E0F8A3E0F9EE2472F582EF3400F0
:102EF800F583E8F0A3E9F0790180027900023164F2
:102F080074F6121712EAFEEBFF9061D0E070667853
:102F180001900818740BF0900499E0640770197513
:102F2800081875090878081219257C017903120A0E
:102F3800FC74021216B87805740128F5D975D903FE
:102F4800758218758308E8FAE0F5D9A31AEA70F8CB
:102F580075E195EE2470F582EF3400F583E0F8A36F
:102F6800E0F9EE2472F582EF3400F583E8F0A3E986
:102F7800F07901800279000231647F010217E4745C
:102F8800F6121712EAFEEBFF9061D0E0F87480C3E6
:102F980098FAEE2483F582EF3400F583E060047834
:102FA8000480027800E8240BF8EAC3985003023042
:102FB8005D7D099008187408F0EE24E5F8EF3400F8
:102FC800F97A197B087C0888828983E08A828B8356
:102FD800F088828983A3A882A9838A828B83A3AA83
:102FE80082AB831CEC70E0EE2483F582EF3400F5AD
:102FF80083E0601D75081875090878081219257C82
:10300800097903EEFAEFFB120AFC74021216B87D76
:103018000D74012DF5D975D9037582187583088D3E
:1030280008E0F5D9A31508E50870F675E195790467
:10303800120C46EE2470F582EF3400F583E0F8A315
:10304800E0F9EE2472F582EF3400F583E8F0A3E9A5
:10305800F079018002790002316474F6121712EADD
:10306800FEEBFF9061D0E0F87480C398FAEE2483F9
:10307800F582EF3400F583E060047804800278007C
:10308800E82408F8EAC39850030231627D069008E4
:1030980018740CF09004B6E0900819F07AB77B0425
:1030A800781A79087C028A828B83E088828983F087
:1030B8008A828B83A3AA82AB8388828983A3A8820E
:1030C800A9831CEC70E07AB97B047C028A828B832A
:1030D800E088828983F08A828B83A3AA82AB838863
:1030E800828983A3A882A9831CEC70E0EE2483F56F
:1030F80082EF3400F583E0601D75081875090878BB
:10310800081219257C067903EEFAEFFB120AFC7403
:10311800021216B87D0A74012DF5D975D903758286
:10312800187583088D08E0F5D9A31508E50870F629
:1031380075E1957904120C46EE2470F582EF34009F
:10314800F583E0F8A3E0F9EE2472F582EF3400F598
:1031580083E8F0A3E9F07901800279007F02021781
:10316800E474F6121712EAFEEBFF9061D0E0F874EF
:1031780080C398FAEE2483F582EF3400F583E0608B
:1031880004780480027800E82404F8EAC39850031D
:103198000232437802900818E8F0EE24F7F582EF3F
:1031A8003400F583E0900819F0EE2483F582EF34BB
:1031B80000F583E0601B750818750908780812196E
:1031C800257C027903EEFA120AFC74021216B8780A
:1031D80006740128F5D975D903758218758308888E
:1031E80008E0F5D9A31508E50870F675E195EE2411
:1031F80074F582EF3400F583E4F0EE2480F582EF75
:103208003400F583E4F0EE241DF582EF3400F583F5
:10321800E4F0A3F07904120C46EE240DF582EF34A5
:1032280000F583E0F8A3E0F9EE2472F582EF3400AC
:10323800F583E8F0A3E9F0790180027900023164AE
:1032480074F61217129061D0E0F87480C398FCEA03
:103258002483F582EB3400F583E06004780480026F
:103268007800E82404F8ECC398405B7902900818C9
:103278007407F0EA24F8F582EB3400F583E090084F
:1032880019F0EA2483F582EB3400F583E0601875C1
:10329800081875090878081219257C0209120AFC11
:1032A80074021216B87906740129F5D975D903750F
:1032B8008218758308E9F8E0F5D9A318E870F8755D
:1032C800E19579018002790002316474F5121712D0
:1032D800E9FCA2AFE433F50AC2AF7D0080010DEA34
:1032E800246FF582EB3400F583E0F8EDC398501AAB
:1032F8008D08EA2508F8EB3400F9E8246BF582E933
:103308003400F583E06C70D68024EA246FF8EB343F
:1033180000F9E0FEEA2EFAEB3400FBEA246BF582B2
:10332800EB3400F583ECF088828983E004F0E50A49
:10333800A2E092AF7F030217E474F6121712A2AF4D
:10334800E433FDC2AFEA246FF582EB3400F583E085
:1033580014F07C0060368C08EA2508F8EB3400F994
:10336800E8246CF582E93400F583E0C0E0E8246BDA
:10337800F582E93400F583D0E0F00CEA246FF58299
:10338800EB3400F583E0F8ECC39840CAEA246EF504
:1033980082EB3400F58374FFF0EA246AF582EB349B
:1033A80000F583E4F0EDA2E092AF023164C082C080
:1033B80083E5A8F8C2AFEA246BF582EB3400F58305
:1033C800E9F0EA246AF582EB3400F583E4F0E8A238
:1033D800E792AF02256574F3121712EAFEEBFFECD1
:1033E800FAEDFB8A828B83A3A3A3A3E0541FF0EE1C
:1033F8002436F582EF3400F583E4F0F50AEEFCEFAD
:10340800FD8A828B83E0C0E0EC245DF582ED340018
:10341800F583D0E0F0750B00E50A33333354F8F543
:103428000C8A828B83E0F508750900E50B78081291
:103438001670E508A2E0502FEE2436F8EF3400F9B4
:1034480088828983E0F508EE2508F508EF3400F551
:1034580009E5082438F582E5093400F583E50CF020
:1034680088828983E004F0050B050CE50BC39408FA
:1034780040AF050A8A828B83A3AA82AB838C828D94
:1034880083A3AC82AD83E50AC394055003023409D3
:103498007F050217E474F71217129004C5E064035D
:1034A80070077A007B00022F827B0078C579048838
:1034B800828983A3A3A3A3A3A3E06003023797EBA6
:1034C800F875F006A4C8AAF02AF974C928F8740493
:1034D80039F988828983A3A37401F088828983A338
:1034E800A3A3E4F0EB88828983A3A3A3A3F0E82431
:1034F80062F582E93400F5837401F0E82465F58209
:10350800E93400F583E4F0A3F0E82468F582E934AF
:1035180000F5837401F088828983A3A3A3A3A3E49D
:10352800F0A3F088828983A3A3A3A3A3A3A3F0A3F2
:10353800F0E8240FF582E93400F5837401F0E824FB
:1035480035F582E93400F583E4F09087F6121578B2
:10355800E82418F582E93400F583121584E8241C60
:10356800F582E93400F583E4F0E8241DF582E934B6
:1035780000F583E4F0A3F0E82480F582E93400F54F
:1035880083E4F0E82474F582E93400F583E4F0E894
:103598002469F582E93400F5837480F0E8246AF53B
:1035A80082E93400F583E4F0E8246FF582E9340019
:1035B800F583E4F0E82467F582E93400F583E4F064
:1035C800E824EDF582E93400F583E4F0E824EEF52B
:1035D80082E93400F583E4F0E824EFF582E9340069
:1035E800F583E4F0E824F0F582E93400F583E4F0AB
:1035F800E824F1F582E93400F583E4F0A3F0E82447
:10360800F3F582E93400F583E4F0A3F0E824F6F555
:1036180082E93400F583E4F0E82483F582E9340094
:10362800F583E4F0E824D3F582E93400F583E4F087
:10363800E824D4F582E93400F583E4F09087F612A3
:103648001578E824D5F582E93400F58312158490BD
:1036580087F6121578E824D9F582E93400F5831243
:103668001584E824DFF582E93400F583E4F0E824E2
:10367800E1F582E93400F583E4F0E824DDF582E938
:103688003400F583E4F0E824E2F582E93400F583B8
:10369800E4F0E824E3F582E93400F583E4F0E82473
:1036A800F9F582E93400F583E4F0A3F0E824FBF5AA
:1036B80082E93400F583E4F0A3F0E824FDF582E91B
:1036C8003400F583E4F0A3F0E824FFF582E9340040
:1036D800F583E4F0A3F0E8FAE9FBEA2404FCEB3410
:1036E80000FDEA246BF582EB3400F58374FFF08A61
:1036F800828B83A3AA82AB83EC6A7002ED6B70E2C3
:10370800E8FAE9FB7CE27D078C828D83E0C0E0EA81
:10371800245DF582EB3400F583D0E0F08C828D8354
:10372800A3AC82AD838A828B83A3AA82AB83EC6429
:10373800E77003ED640770D0E8FAE9FB7CAC7D0420
:103748008C828D83A3E0C0E0EA24E5F582EB3400A7
:10375800F583D0E0F08C828D83A3AC82AD838A821E
:103768008B83A3AA82AB83EC64B47003ED6404700A
:10377800CF9004C5E004F06401700D88828983A3AA
:10378800A3A3A3E09004C7F0E8FAE9FB0234AE0B68
:10379800E82406F8E93401F9EBC394034003023442
:1037A800AA0234B7C082C0838A828B83A3A3A3E012
:1037B800600F8A828B83A3A3A3E4F09004C6E0146D
:1037C800F09004C5E014F070069004C774FFF08A06
:1037D800828B83A3A3E4F09007E7E0700D9004C602
:1037E800E0640170057900120C10022565C082C0E2
:1037F8008378C5790488828983A3A3A3A3A3A3A3F9
:10380800E4F088828983A3A3A3A3A3A3F0E82406F2
:10381800F8E93401F9E864D77003E9640770D690D1
:1038280004C5E4F0A3F0A374FFF075E1F102256587
:1038380074F3121712750800750900750C00750AE3
:10384800C9750B04AE0AAF0B8E828F83A3A3A3E0C6
:10385800603FE5084509700AEEF8EFF9880889091C
:10386800802F850882850983E0F8A3E0F5838882A4
:10387800A3A31219388E828F83E0F8A3E0F583881A
:1038880082A3A3121578121F3F74041216B8E960B8
:10389800C7050CEE2406F50AEF3401F50BE50CC359
:1038A800940340A0850882850983A3A3A3A3E0F914
:1038B80002349874F612171278FF79FF7508007EA3
:1038C800C97F04EEFCEFFD8C828D83A3A3A3E06087
:1038D8006474FF68700374FF697025EC2474F582C2
:1038E800ED3400F583E064017011EC247AF582ED83
:1038F8003400F583E0F8A3E0F9803AEC242E80ED5B
:10390800EC2474F582ED3400F583E064017014EC66
:10391800247AF582ED3400F583C3E098A3E099504A
:103928001480C7EC242EF582ED3400F583C3E098AB
:10393800A3E09940C60508EE2406FEEF3401FFE532
:1039480008C3940350030238CBC3EA98EB994004A8
:10395800E8FAE9FB02316474F6121712EAFEEBFF8B
:103968008E828F83A3A3A3E0600F8E828F83A3A38D
:10397800A3E4F09004C6E014F09004C5E014F070DD
:10398800069004C774FFF08E828F83A3A3E4F0909F
:1039980007E7E0700D9004C6E06401700579001235
:1039A8000C10EE2465F582EF3400F583E0F8A3E00F
:1039B800F9E8496029EE2465F8EF3400F9880889A8
:1039C800098882F583E0FCA3E0FD9004C7E0FA7B58
:1039D800001207DE850882850983E4F0A3F0EEFA79
:1039E800EFFB120B7A02316474F7121712EAFEEB3E
:1039F800FF8E828F83A3A3A3A3E0FA7B001208267D
:103A0800EEFAEFFB120A72120B5C022F82C082C020
:103A1800837C007AC97B04EAF8EBF988828983A35E
:103A2800A3A3E0601EE8246FF582E93400F583E083
:103A38006011E8246BF582E93400F583E0700479BD
:103A48000180110CEA2406FAEB3401FBECC3940361
:103A580040C57900022565C082C08378AC790488A6
:103A6800828983A3E4F088828983A3A882A983E852
:103A780064B47003E9640470E69004AD740102252F
:103A880026C082C08374FC1216A29087F61215789D
:103A9800851882851983121584120ABAE985188255
:103AA800851983F0120ABA74011216EEE9F0120AA7
:103AB800BA74021216EEE9F0851882851983121578
:103AC80078740402231574F6121712EAFEEBFFEC61
:103AD8002403F8ED3400F988088909EC2407F8ED87
:103AE8003400F9E8FCE9FD8C828D83E0F8A3E0F965
:103AF800850882850983E0FAA3E0FB121617EE24F5
:103B08000DF582EF3400F583E8F0A3E9F08C828D9F
:103B180083E0F8A3E0F9850882850983E0FAA3E049
:103B2800FB1216178B09EA45096013EE240DF5827E
:103B3800EF3400F583E02401F0A3E03400F0023113
:103B48006474F6121712EAFEEBFFEE242EF582EFEC
:103B58003400F583E0FCA3E0FD780079FAECFAED97
:103B6800FB121617EE2470F582EF3400F583E8F0A7
:103B7800A3E9F0780079FAECFAEDFB1216178B0935
:103B8800EA45096013EE2470F582EF3400F583E00E
:103B98002401F0A3E03400F002316474F01217122B
:103BA800EAFEEBFF74101216EE780812155A120B83
:103BB800E08A0C8B0D8C0E8D0F9087D6780C121422
:103BC800C0908802780C121521780C1219218E8267
:103BD8008F83E0F8A3E0F5838882A3A312157812F7
:103BE8001F3F74041216B8E96003023CF08E828FFE
:103BF80083E02402F8A3E03400F9E8FAE9FB8A82BA
:103C08008B8378081214D3908802780812155A8A80
:103C1800828B837808121534EE240BF582EF34007A
:103C2800F583C082C0838E828F83A3A3A3A3A3E05E
:103C38002401F8A3E03400F9D083D082E06870034F
:103C4800A3E06970057901023CF28E828F83A3A3F9
:103C5800A3A3A3A3A3E02401F0A3E03400F0EE247F
:103C680074F582EF3400F583E064017036EE247554
:103C7800F582EF3400F583E0F8A3E0F98E828F83B4
:103C8800A3A3A3A3A3A3A3E0687003A3E06970138D
:103C9800EE2475F582EF3400F583E02401F0A3E00B
:103CA8003400F0EE2480F582EF3400F583E06401FF
:103CB8007036EE2481F582EF3400F583E0F8A3E056
:103CC800F98E828F83A3A3A3A3A3A3A3E0687003A1
:103CD800A3E0697013EE2481F582EF3400F583E0E8
:103CE8002401F0A3E03400F079007F080217E4749F
:103CF800F71217129004C7E0F875F006A4C8AAF0E6
:103D08002AF974C928FE740439FF8028EE2465F85E
:103D1800EF3400F988828983E0FCA3E0FD8882897A
:103D280083E4F0A3F08E828F83A3A3A3A3E0FA7B9E
:103D3800001207DEEE2465F582EF3400F583E0F823
:103D4800A3E0F9E849604FEE2464F582EF3400F50A
:103D580083E0F5087808121929EE2463F582EF3418
:103D680000F583E0F9EE2465F582EF3400F583E091
:103D7800FCA3E0FDEEFAEFFB120AA874011216B8D4
:103D8800E96089EE2465F582EF3400F583E0F8A355
:103D9800E0F9E84970137C007D008E828F83A3A32D
:103DA800A3A3E0FA7B001207DE022F8274F2121737
:103DB80012EAFEEBFF890A740E1216EEE0FAEE2400
:103DC80062F582EF3400F583E064016003023E800F
:103DD8009061D0E0F87480C398F50CEE2483F582E6
:103DE800EF3400F583E060047804800278008908E5
:103DF800E928F8E43400F9E824020808E93400F96D
:103E0800E50C98E499A2D265D0334068EA7005754C
:103E18000B028003750B01E0603975090078081200
:103E280019257A187B08120ADE74021216B875086A
:103E3800187509087808121925AC0AA90BEEFAEFCB
:103E4800FB120AFC74021216B87404250AF50A7CDF
:103E5800187D087401250AF5D9850BD9E50A600D86
:103E68008C828D83F8E0F5D9A318E870F875E19590
:103E7800790080067907800279FF7F060217E4C07F
:103E880082C083E960208C828D83E08A828B83F0F4
:103E98008C828D83A3AC82AD838A828B83A3AA8212
:103EA800AB8319E970E0ECFAEDFB022565C082C02E
:103EB800837869790888828983A3A3A3A3A3A3E449
:103EC800F088828983A3A3A3A3A374FFF0E824182E
:103ED800F8E93400F9E864C97003E9640870D69019
:103EE800086B74FFF090086AE4F0900869F0900895
:103EF8006CF0A3F00255DD74EC12171290086CE018
:103F0800F508A3E0F509E508450970061209BE029F
:103F18004BAC850882850983E01460181460152469
:103F2800FE601124C4700302466E24C0700302466A
:103F38006E024BACE0F9120B6E8A0A8B0BAE0AAF1D
:103F48000B9004C6E070030242EC120A66E9F875A9
:103F5800F006A4C8AAF02AF974C928F50C74043923
:103F6800F50D850C82F583E0F50AA3E0F50BAC0AA4
:103F7800FDEEFAEFFB120B68E9F50E7402650E70A0
:103F8800030242AB8E828F83E024FE600A24FE7017
:103F9800030241A3024BACEE65087003EF650960AC
:103FA800211209DC9007F9E0640170169007F8E027
:103FB80070107901120C7C120C4C120C76790012DC
:103FC8000C82E50E6021E5082415F582E509340028
:103FD800F583E060129007F4E0F8A3E0F9A3E06845
:103FE8007003A3E0697026120BE08A0C8B0D8C0E0F
:103FF8008D0F9087AE780C1214C0908802780C123E
:1040080015218E828F83A3A3780C121569E50824E5
:1040180015F582E5093400F583E064016003024088
:10402800C9850A82850B83A3A3780C12155A908739
:10403800AA780C1214C0780C1219218E828F83A3CF
:10404800A3C082C0839007F6E0F508A3E085080CBA
:10405800F50DE4F50EF50FD083D082780C1214C05C
:10406800AA0CAB0DAC0EAD0F121F3F74041216B89C
:10407800E9703C8E828F83A3A3C082C0839007F629
:10408800E0F508A3E0F509E4F50AF50BD083D08242
:1040980078081214C09088027808121521EE240EB0
:1040A800F582EF3400F583780812156902419B8583
:1040B8000A82850B83A3A3780812155A9087AA80D1
:1040C800CFEE240EF582EF3400F5831219388E8274
:1040D8008F83A3A3121578121F3F74041216B8E930
:1040E8006401600302419B850A82850B83A3A37840
:1040F8000C12155A9087AA780C1214C0780C121951
:10410800218E828F83A3A3C082C0839007F6E0F537
:1041180008A3E085080CF50DE4F50EF50FD083D063
:1041280082780C1214C0AA0CAB0DAC0EAD0F121F86
:104138003F74041216B8E9701F8E828F83A3A3C040
:1041480082C0839007F6E0F508A3E0F509E4F50AD4
:10415800F50BD083D0828010850A82850B83A3A3B8
:10416800780812155A9087AA78081214C090880205
:104178007808121521EE240EF582EF3400F58378C5
:10418800081215699007FCE0642770047425800202
:10419800E004F090086B7402024BA4EE650870030B
:1041A800EF65096031900810E0F91209E28508828C
:1041B800850983E06402701E9007F9E064017016B7
:1041C8009007F8E070107900120C7C120C4C120C5D
:1041D800767901120C82E50E601290080AE0F8A3C5
:1041E800E0F9A3E0687003A3E0697026120BE08A87
:1041F8000C8B0D8C0E8D0F9087AE780C1214C0901E
:104208008802780C1215218E828F83A3A3780C1252
:104218001569850A82850B83A3A3780C12155A9019
:1042280087AA780C1214C0780C1219218E828F83F9
:10423800A3A3C082C08390080CE0F508A3E085081A
:104248000CF50DE4F50EF50FD083D082780C12141E
:10425800C0AA0CAB0DAC0EAD0F121F3F74041216A2
:10426800B8E9701F8E828F83A3A3C082C083900891
:104278000CE0F508A3E0F509E4F50AF50BD083D0C6
:10428800828010850A82850B83A3A3780812155AA9
:104298009087AA78081214C090880278081215210D
:1042A800024B8D850882850983E0640270139007AC
:1042B800F9E06401700B9007F8E070057900120CC2
:1042C8007CE50C2404FEE50D3400FF8E828F83E02C
:1042D800F9120BA48E828F83E09004C7F0AA0AAB70
:1042E8000B024BA9EE65087003EF65098E828F8378
:1042F80060030244D0E024FE600A24FE70030244F6
:104308002B024BA5EE2415F582EF3400F583E0600F
:10431800419007F4E0F8A3E0F9A3E0687003A3E094
:1043280069602F120BE08A088B098C0A8D0B908725
:10433800E278081214C078081219218E828F83A39C
:10434800A3121578121F3F74041216B8E96003020D
:104358004BA5120BE08A088B098C0A8D0B9087AE4F
:1043680078081214C090880278081215218E828F5E
:1043780083A3A37808121569EE2415F582EF34009B
:10438800F583E0640170348E828F83A3A3C082C05A
:10439800839007F6E0F508A3E0F509E4F50AF50BC4
:1043A800D083D08278081214C0EE240EF582EF3440
:1043B80000F5837808121569024BA5EE240EF582E4
:1043C800EF3400F5831219388E828F83A3A3121558
:1043D80078121F3F74041216B8E964016003024B97
:1043E800A58E828F83A3A3C082C0839007F6E0F5D1
:1043F80008A3E0F509E4F50AF50BD083D082780824
:104408001214C0EE240EF582EF3400F583780812FA
:1044180015699007FCE0642770057425024BA4E039
:104428000480F990080AE0F8A3E0F9A3E0687003B3
:10443800A3E069602C120BE08A088B098C0A8D0BAB
:104448009087E278081214C078081219218E828F9A
:1044580083A3A3121578121F3F74041216B8E970CB
:1044680064EE2402F508EF3400F509120BE08A0C1B
:104478008B0D8C0E8D0F9087AE780C1214C090881F
:1044880002780C121521850882850983780C12158B
:1044980069850882850983C082C08390080CE0F58D
:1044A80008A3E0F509E4F50AF50BD083D082780873
:1044B8001214C0EE240EF582EF3400F5837808124A
:1044C80015691209E8024BA5E024FE600A24FE7073
:1044D80003024596024BAC1209DC9007F9E064012F
:1044E80070169007F8E070107901120C7C120C4CD1
:1044F800120C767900120C829007F4E0F8A3E0F928
:10450800A3E0687003A3E069602F120BE08A088BB0
:10451800098C0A8D0B9087E278081214C07808126B
:1045280019218E828F83A3A3121578121F3F74045A
:104538001216B8E9600302419BEE2402F508EF3435
:1045480000F509120BE08A0C8B0D8C0E8D0F9087ED
:10455800AE780C1214C0908802780C1215218508C8
:1045680082850983780C121569850882850983C0BC
:1045780082C0839007F6E0F508A3E0F509E4F50AA0
:10458800F50BD083D08278081214C00240A5900899
:1045980010E0F91209E2850882850983E064027057
:1045A8001E9007F9E0640170169007F8E070107922
:1045B80000120C7C120C4C120C767901120C8290B1
:1045C800080AE0F8A3E0F9A3E0687003A3E06960D3
:1045D8002C120BE08A088B098C0A8D0B9087E278E5
:1045E800081214C078081219218E828F83A3A3128F
:1045F8001578121F3F74041216B8E97066EE24028B
:10460800F8EF3400F988088909120BE08A0C8B0D41
:104618008C0E8D0F9087AE780C1214C0908802789B
:104628000C121521850882850983780C1215698575
:104638000882850983C082C08390080CE0F508A32E
:10464800E0F509E4F50AF50BD083D0827808121456
:10465800C0EE240EF582EF3400F583780812156950
:104668001209E8024B9F9004C6E07003024A041244
:104678000A66E9F875F006A4C8AAF02AF974C928E8
:10468800F510740439F511851082F583E0F508A357
:10469800E0F5099004C7E0F875F006A4C8AAF02A66
:1046A800F974C928F50C740439F50D90086AE054BA
:1046B80007700302492DA3E0F9120B6E8A0A8B0BCF
:1046C800AE0AAF0BAC08AD09120B68E9F50E74021F
:1046D800650E700302492D850C82850D83A3A3A363
:1046E800A3E0F875F08AA4C8AAF02AF974CE28F5D0
:1046F8000A740839F50BAA0AFB120B98AA0AAB0B25
:10470800120B9275128075130078121219257C000D
:104718007D60E50A2406FAE50B3401FB120ADE7413
:10472800021216B8A80AA90B906195E0C0E0E82427
:1047380086F582E93401F583D0E0F0906196E0C017
:10474800E0E82487F582E93401F583D0E0F0906150
:1047580097E0C0E0E82488F582E93401F583D0E0E9
:10476800F0906198E0C0E0E82489F582E93401F529
:1047780083D0E0F08E828F83E024FE600A24FE70EE
:104788000302486802492D1209DC9007F9E0640128
:1047980070119007F8E0700B120C4C120C7679002F
:1047A800120C82E50E60129007F4E0F8A3E0F9A37A
:1047B800E0687003A3E0697026120BE08A0C8B0D89
:1047C8008C0E8D0F9087AE780C1214C090880278EA
:1047D8000C1215218E828F83A3A3780C121569857C
:1047E8000882850983A3A3780C12155A9087AA78A2
:1047F8000C1214C0780C1219218E828F83A3A3C0C7
:1048080082C0839007F6E0F50CA3E0F50DE4F50E01
:10481800F50FD083D082780C1214C0AA0CAB0DAC63
:104828000EAD0F121F3F74041216B8E9701F8E8266
:104838008F83A3A3C082C0839007F6E0F508A3E0A6
:10484800F509E4F50AF50BD083D08280108508823B
:10485800850983A3A3780812155A9087AA0240985D
:10486800900810E0F91209E2E50E601290080AE0DB
:10487800F8A3E0F9A3E0687003A3E0697026120BBF
:10488800E08A0C8B0D8C0E8D0F9087AE780C12146D
:10489800C0908802780C1215218E828F83A3A3788A
:1048A8000C121569850882850983A3A3780C121553
:1048B8005A9087AA780C1214C0780C1219218E828B
:1048C8008F83A3A3C082C08390080CE0F50CA3E0FB
:1048D800F50DE4F50EF50FD083D082780C1214C0D4
:1048E800AA0CAB0DAC0EAD0F121F3F74041216B814
:1048F800E9701F8E828F83A3A3C082C08390080CA7
:10490800E0F508A3E0F509E4F50AF50BD083D082B9
:104918008010850882850983A3A3780812155A9008
:1049280087AA02429BE510650C7004E511650D70BD
:10493800030249FD850C82850D83A3A3A3E07003C0
:104948000249E1850C82850D83A3A3A3A3E0F87532
:10495800F08AA4C8AAF02AF974CE28FE740839FF90
:10496800EEFAEFFB120B98EEFAEFFB120B92750AB8
:1049780080750B00780A1219257C007D60EE2406EC
:10498800FAEF3401FB120ADE74021216B890619530
:10499800E0C0E0EE2486F582EF3401F583D0E0F044
:1049A800906196E0C0E0EE2487F582EF3401F5834C
:1049B800D0E0F0906197E0C0E0EE2488F582EF3413
:1049C80001F583D0E0F0906198E0C0E0EE2489F52D
:1049D80082EF3401F583D0E0F0E5102404FEE51100
:1049E8003400FF8E828F83E0F9120BA48E828F83AE
:1049F800E09004C7F0AA08AB09024BA990086AE046
:104A080054077003024BACA3E0F9120B6E8A088BB3
:104A180009AE08AF098E828F83E024FE600A24FE67
:104A28007003024AF3024BAC1209DC9007F9E06408
:104A38000170169007F8E070107901120C7C120CC6
:104A48004C120C767900120C829007F4E0F8A3E07F
:104A5800F9A3E0687003A3E069602C120BE08A08F0
:104A68008B098C0A8D0B9087E278081214C078089D
:104A78001219218E828F83A3A3121578121F3F74F7
:104A8800041216B8E97061EE2402F508EF3400F557
:104A980009120BE08A0C8B0D8C0E8D0F9087AE7867
:104AA8000C1214C0908802780C1215218508828592
:104AB8000983780C121569850882850983C082C02C
:104AC800839007F6E0F508A3E0F509E4F50AF50B8D
:104AD800D083D08278081214C0EE240EF582EF3409
:104AE80000F583780812156902419B900810E0F9D7
:104AF8001209E290080AE0F8A3E0F9A3E06870035D
:104B0800A3E069602C120BE08A088B098C0A8D0BD4
:104B18009087E278081214C078081219218E828FC3
:104B280083A3A3121578121F3F74041216B8E970F4
:104B380063EE2402F8EF3400F988088909120BE0C3
:104B48008A0C8B0D8C0E8D0F9087AE780C1214C0CA
:104B5800908802780C121521850882850983780CC3
:104B6800121569850882850983C082C08390080C64
:104B7800E0F508A3E0F509E4F50AF50BD083D08247
:104B880078081214C0EE240EF582EF3400F583780D
:104B9800081215691209E890086B7404F0EEFAEF30
:104BA800FB120B627F0C0217E474F0121712EAFE74
:104BB800EBFFEE2402F8EF3400F988088909EE24A7
:104BC80006F8EF3400F9880A890B8882F5831219F0
:104BD8003C850882850983121578120BBC74021271
:104BE80016B8850A82850B8312193C8508828509C7
:104BF80083121578120BB074021216B8EE240EF553
:104C080082EF3400F583121578120BC28E828F83DF
:104C1800E06440701CEE2412F8EF3400F9888289B1
:104C280083E0906064F088828983A3E09060658067
:104C380006906064E4F0A3F090086CEEF0A3EFF047
:104C4800EE2416F582EF3400F583E0F8A3E0F5834F
:104C58008882121710906054E4F0A3F0A3F0A3F038
:104C6800A3F0A3F0A3F0A3F0A3F0A3F0A3F0A3F0A4
:104C7800906182E0C2E6F07591BFEE2415F582EFEF
:104C88003400F583E064017003120BF2E5E170FC77
:104C9800EE2414F582EF3400F583E0F46003E0F5C8
:104CA800E1EE2415F582EF3400F5837401F09004E9
:104CB8009FE06401706F120BE08A088B098C0A8DE3
:104CC8000B78081219218E828F83A3A312157812EC
:104CD8001F9C74041216B88A088B098C0A8D0B90D5
:104CE80087A2780C12155A7808790C121375740378
:104CF8007808121475E50824F4F508E5093401F577
:104D080009900816E060031211BCE4F50AF50B7867
:104D1800081219217A207B00900498E0F912126495
:104D280074041216B87F080217E474EC121712EA1A
:104D3800FEEBFF8C088D09EE4F70057902024E27B5
:104D4800120BE08A0C8B0D8C0E8D0F9087BE780CA1
:104D58001214C0908802780C1215218E828F83E07D
:104D68006402701F9007F4E0F8A3E0F9A3E068700C
:104D780003A3E06970248E828F83A3A3780C121595
:104D8800698017E06404701290080AE0F8A3E0F95B
:104D9800A3E0687003A3E06960DC780C1219218530
:104DA8000882850983A3A3121578121F9C74041224
:104DB80016B88A108B118C128D1390879E7810125A
:104DC80013564003024D43850882850983A3A378BF
:104DD8000812155A90880678081214C07808121913
:104DE800218E828F83A3A3121578121F3F74041299
:104DF80016B8E96003024D439087FE780C1214C080
:104E0800780C1219218E828F83A3A3121578121F92
:104E18003F74041216B8E97004790080027901021F
:104E28004BAC74F0121712890874FF65086003020E
:104E38004FB690086AE0540770030254827A0078EB
:104E480069790888828983A3A3A3A3A3E064047073
:104E580050EA75F018A4F8A9F0746F28F582740860
:104E680039F583E0640170487A00786979088882A6
:104E78008983A3A3A3A3A3E064046003024F0E885D
:104E8800828983A3A3A3A3A3A3E064017078EA752E
:104E9800F018A4F8A9F0746E28FA740839FB0254C3
:104EA800860AE82418F8E93400F9EAC39404409320
:104EB8007A007869790888828983A3A3A3A3A3E0E9
:104EC80064017057EA75F018A4F8A9F0746F28F512
:104ED80082740839F583E06401704F7A0078697943
:104EE8000888828983A3A3A3A3A3E06401600302C3
:104EF8004F9288828983A3A3A3A3A3A3E06401603C
:104F080003024F9280880AE82418F8E93400F9EA85
:104F1800C394045003024E760254820AE82418F817
:104F2800E93400F9EAC39404408C7A007869790876
:104F380088828983A3A3A3A3A3E064027061EA75AE
:104F4800F018A4F8A9F0746F28F582740839F5836D
:104F5800E0640170597A007869790888828983A3A6
:104F6800A3A3A3A3E06402707A88828983A3A3A37E
:104F7800A3A3A3E06401706BEA75F018A4F8A9F084
:104F8800746E28FA740839FB806F0AE82418F8E967
:104F98003400F9EAC394045003024EE90254820A29
:104FA800E82418F8E93400F9EAC3940440827A0046
:104FB8007869790888828983A3A3A3A3A3E06508F5
:104FC800703D88828983A3A3A3A3A3A3E06401708F
:104FD8002EEA75F018A4F8A9F0746E28FE74083942
:104FE800FF802F0AE82418F8E93400F9EAC394048A
:104FF8005003024F637A007B000254860254820AEF
:10500800E82418F8E93400F9EAC3940440A67E00BD
:105018007F007A007869790888828983A3A3A3A38B
:10502800A3E06508701BEA75F018A4F8A9F0746F7E
:1050380028F582740839F583E0640170137A0180D9
:10504800110AE82418F8E93400F9EAC3940440C8BE
:105058007A00E50814600F14700302521F24FE70D2
:105068000302537980967B0078697908888289835E
:10507800A3A3A3A3A3E064027055EB75F018A4F8EA
:10508800A9F0746F28F582740839F583E06401701B
:105098004D7B007869790888828983A3A3A3A3A399
:1050A800E06402600302515588828983A3A3A3A305
:1050B800A3A3E064016003025155EB75F018A4F84E
:1050C800A9F0746E28F50A740839F50B02516D0BB6
:1050D800E82418F8E93400F9EBC39404408E7B0007
:1050E8007869790888828983A3A3A3A3A3E06404C9
:1050F80060030251A9EB75F018A4F8A9F0746F28A1
:10510800F582740839F583E0640160030251BB7BC2
:10511800007869790888828983A3A3A3A3A3E0649C
:105128000460030251C688828983A3A3A3A3A3A30F
:10513800E0640160030251C6EB75F018A4F8A9F009
:10514800746E28F50A740839F50B0251DE0BE82451
:1051580018F8E93400F9EBC39404500302509F7522
:105168000A00750B00EAA2E04003025211850A8288
:10517800850B83A3A3780C12155A908826780C12F5
:1051880014C0780C1219218E828F83A3A31215786C
:10519800121F3F74041216B8E9706EEEFAEF024E51
:1051A800A50BE82418F8E93400F9EBC3940450037C
:1051B8000250ECEAA2E05058EEFAEFFB80560BE8FA
:1051C8002418F8E93400F9EBC39404500302511D84
:1051D800750A00750B00EAA2E0502E850A82850B3D
:1051E80083A3A3780C12155A908826780C1214C041
:1051F800780C1219218E828F83A3A3121578121F9F
:105208003F74041216B8E96092AA0AAB0B025486DE
:105218007A007B000254867B007869790888828945
:1052280083A3A3A3A3A3E064047052EB75F018A4AE
:10523800F8A9F0746F28F582740839F583E06401E1
:10524800704A7B007869790888828983A3A3A3A31D
:10525800A3E0640460030252ED88828983A3A3A3B8
:10526800A3A3A3E06401707DEB75F018A4F8A9F07E
:10527800746E28F50A740839F50B0253050BE824F7
:1052880018F8E93400F9EBC3940440917B0078697D
:10529800790888828983A3A3A3A3A3E06401600398
:1052A800025341EB75F018A4F8A9F0746F28F58241
:1052B800740839F583E0640160030253537B007876
:1052C80069790888828983A3A3A3A3A3E064016002
:1052D8000302535E88828983A3A3A3A3A3A3E064E4
:1052E80001707380830BE82418F8E93400F9EBC3E4
:1052F80094045003025250750A00750B00EAA2E0AC
:105308004003025211850A82850B83A3A3780C12ED
:10531800155A908826780C1214C0780C1219218E10
:10532800828F83A3A3121578121F3F74041216B834
:10533800E960030252110251A30BE82418F8E9347A
:1053480000F9EBC39404500302529AEAA2E0501AFF
:10535800EEFAEFFB80180BE82418F8E93400F9EBB3
:10536800C3940450030252CB808D7A007B00025410
:10537800867B007869790888828983A3A3A3A3A37D
:10538800E064017040EB75F018A4F8A9F0746F2878
:10539800F582740839F583E0640170387B00786918
:1053A800790888828983A3A3A3A3A3E06401600387
:1053B80002543E88828983A3A3A3A3A3A3E0640124
:1053C80070740252700BE82418F8E93400F9EBC342
:1053D800940440A37B007869790888828983A3A311
:1053E800A3A3A3E064027063EB75F018A4F8A9F016
:1053F800746F28F582740839F583E06401705B7B6B
:10540800007869790888828983A3A3A3A3A3E064A9
:1054180002704F88828983A3A3A3A3A3A3E0640196
:105428007040EB75F018A4F8A9F0746E28F50A74AA
:105438000839F50B80410BE82418F8E93400F9EB3A
:10544800C3940450030253AA0252FF0BE82418F82D
:10545800E93400F9EBC394044080EAA2E0501B024F
:1054680051A30BE82418F8E93400F9EBC39404407D
:1054780094750A00750B000253057A007B00024DF3
:105488002D74F61217128909750800786979088849
:10549800828983A3A3A3A3A3A3E06003025565E5C0
:1054A8000875F018A4F8A9F0746E28FE740839FF7E
:1054B8008E828F83A37401F08E828F83E509F012A8
:1054C8000BE08E828F83A3A31215848E828F83A311
:1054D800A3A3A3A3A3E4F0A3F09087D2121578EEB8
:1054E800240EF582EF3400F583121584EE2414F5AA
:1054F80082EF3400F5837401F0EE2415F582EF3461
:1055080000F5837401F0EE2416F582EF3400F5837C
:10551800E4F0A3F090086AE04509F0900869E00417
:10552800F06401600C748065096006744065097058
:1055380019E50875F018A4F8A9F0746E28F874082D
:1055480039F990086CE8F0A3E9F0E50875F018A4BB
:10555800F8A9F0746E28FA740839FB80180508E871
:105568002418F8E93400F9E508C3940450030254F8
:10557800977A007B0080007F020217E4C082C08314
:105588008A828B83E0F8A3E0F98A828B83E4F0A314
:10559800F088828983A3F088828983E0F4F89008F0
:1055A8006AE058F0900869E014F0700B90086CE419
:1055B800F0A3F0900499F0801CC082C08390086921
:1055C800E0600A90086CE0FAA3E0FB80047A007BB4
:1055D800008002E0F9D083D08202011FC082C0831C
:1055E800E9FB7A007869790888828983A3A3A3A351
:1055F800A3E06B7016EA75F018A4F8A9F0746F2888
:10560800F582740839F583E0F980110AE82418F85E
:10561800E93400F9EAC3940440CE790080B7C08227
:10562800C0839008690255DB74F6121712EAFEEB84
:10563800FF9061D0E0C0E0EE2400F582EF3401F580
:1056480083D0E0F09061D7E0FA9061D5E0C39A5436
:105658007FC0E0EE2401F582EF3401F583D0E0F05D
:10566800EE2402F8EF3401F99061D6E0C39A547F32
:1056780088828983F0701A9061C5E0A2E45012E034
:10568800A2E7500DEE2402F582EF3401F583748011
:10569800F0120CA6EE2401F582EF3401F583E070D8
:1056A80034EE2402F582EF3401F583E0702790612F
:1056B800C5E0A2E4501FE0A2E7501AEE2402F582EA
:1056C800EF3401F5837480F0EE2401F582EF3401A4
:1056D800F5837480F075E1957800EE2400F582EF8B
:1056E8003401F583E060279061D3E0C0E08808EEDC
:1056F8002508F582EF3400F583D0E0F008EE2400A9
:10570800F582EF3401F583E0F9E8C39940D975E1F2
:105718009102557F74F6121712EAFEEBFF9061C8EA
:10572800E0C0E0EE2403F582EF3401F583D0E0F029
:105738009061CFE0FA9061CDE0C39A547FC0E0EE6B
:105748002404F582EF3401F583D0E0F0EE2405F867
:10575800EF3401F99061CEE0C39A547F888289833F
:10576800F0701A9061C5E0A2E05012E0A2E3500D7B
:10577800EE2405F582EF3401F5837480F0120CAC49
:10578800EE2404F582EF3401F583E07034EE24054D
:10579800F582EF3401F583E070279061C5E0A2E05F
:1057A800501FE0A2E3501AEE2405F582EF3401F50C
:1057B800837480F0EE2404F582EF3401F58374805D
:1057C800F0120CB27A00EE2403F582EF3401F5836F
:1057D800E0602F9061CBE0C0E08A08EE2508F8EF82
:1057E8003400F9E82480F582E93400F583D0E0F04C
:1057F8000AEE2403F582EF3401F583E0F8EAC39852
:1058080040D175E18102557F74F41217128908A8F6
:1058180008E875F08AA4C8AAF02AF974CE28FE749C
:105828000839FFEEFAEFFB120B98EEFAEFFB120BBA
:1058380092750A80750B00780A1219257C007D6024
:10584800EE2406FAEF3401FB120ADE74021216B8CF
:10585800906195E0C0E0EE2486F582EF3401F5838F
:10586800D0E0F0906196E0C0E0EE2487F582EF3456
:1058780001F583D0E0F0906197E0C0E0EE2488F570
:1058880082EF3401F583D0E0F0906198E0C0E0EE5B
:105898002489F582EF3401F583D0E0F07F04021704
:1058A800E474F21217128908A808E875F08AA4C8E7
:1058B800AAF02AF974CE28F8740839F99061C6E07C
:1058C800FDE054F0F075E1817C00E82403F582E9FD
:1058D8003401F583E0602B8C0AE8250AFAE93400E4
:1058E800FBEA2480F582EB3400F583E09061CAF08E
:1058F8000CE82403F582E93401F583E0FAECC39A55
:1059080040D5E82405F582E93401F583E060049088
:1059180061CEF0E82404F582E93401F583E06004FF
:105928009061CDF0ED9061C6F0A808E875F08AA402
:10593800C8AAF02AF974CE28F8740839F9E0FCE00E
:10594800540FF075E1917A00E82400F582E93401FA
:10595800F583E060238A0AE8250AF582E93400F530
:1059680083E09061D2F00AE82400F582E93401F579
:1059780083E0FBEAC39B40DDE82402F582E93401B9
:10598800F583E060049061D6F0E82401F582E934FB
:1059980001F583E060049061D5F0EC9061C6F08574
:1059A8000882AE82EEF875F08AA4C8AAF02AF974C3
:1059B800CE28F50A740839F50B750C80750D00783A
:1059C8000C121925E50A2406FCE50B3401FD7A00C2
:1059D8007B60120ADE74021216B8A80AA90BE82422
:1059E80086F582E93401F583E0906195F0E8248733
:1059F800F582E93401F583E0906196F0E82488F5B2
:105A080082E93401F583E0906197F0E82489F58212
:105A1800E93401F583E0906198F0EE75F006A4CEC4
:105A2800A8F028FF74C92EF58274043FF583E0F8C6
:105A3800A3E0F5838882E0648070419011D17420DE
:105A4800F0A3740BF0A37408F0A3740BF0A37420F4
:105A5800F0A3740BF0A37420F0A3740BF0A37408E4
:105A6800F0A3740BF0A37420F0A3740BF0A37426B6
:105A7800F0A3740BF090049974088005900499744D
:105A880007F09011DF7408F0A3740BF0A37408F00A
:105A9800A3740BF0A37408F0A3740BF0A37408F0BC
:105AA800A3740BF0A37408F0A3740BF0A37408F0AC
:105AB800A3740BF07F060217E4C082C083E990113B
:105AC800AFF0D083D08202011F74F6121712E9904A
:105AD8000364F07CA47D037AFF7BFF12071E7A0023
:105AE8008A087509007402780812168F74652508EB
:105AF800F874033509125B20A3F00AEAC394034043
:105B0800DF79051206AC900364E0F91205D47A3601
:105B18007B071208EC0270A1F98882898374FF124E
